:03000E00D28A2271
:07000300C284C281D28422F5
:100F6100759850438920758DFD758BFDD28EC2AB6E
:030F7100D2AC22DD
:100EEE00C2AC12026E6010F5993099FDC299740170
:0A0EFE0029F9E43AFA80EBD2AC22A5
:100E71007F017E00120E1912000E120F6112000383
:100E8100120E4A120E4A120E48120E4A120E481241
:050E91000E4AB2A3228D
:100DB600E4FEC281FDEF30E704D2808002C280EFFC
:100DC60025E0FFD281000000000000EE25E0FE30A5
:100DD60082010EC2810000000000000DEDB408D5AE
:020DE600AF0656
:010DE80022E8
:100E1900E4FDFCFB7AC079A8F8120310E47B0CFA14
:100E2900F9F8120CBCE47BE87A03F9F8120CBCC39C
:0E0E3900E49FFDE49E4389018D8AF58CD2A9C9
:010E47002288
:100E9600C2ACAF051DEF601312026EF5993099FDD5
:0E0EA600C299740129F9E43AFA80E7D2AC222D
:060E4800B2A37F507EC33F
:100E4E00E4FDFCC3ED9FEC9E50070DBD00010C8030
:100E5E00F2E4FCFDC3ED9FEC9E50070DBD00010CAE
:020E6E0080F210
:010E7000225F
:03002300020C7557
:100C7500C0E0C083C082C0D03098339000B8E02473
:100C850077F582E43400F583E599F0900077E06428
:100C9500AA60079000B8E4F080129000B8E004F074
:100CA500E0D3940A400690000F7455F0C298D0D056
:070CB500D082D083D0E032B1
:03000B00020A5096
:100A5000C0E0C0F0C083C082C0D075D000C000C06C
:100A600001C002C003C004C005C006C0077F017EEC
:100A700000120E1990000EE004F0700690000DE0D8
:100A800004F0C390000EE094E890000DE094034061
:100A90000F900036E4F0B2A290000DF0A3F0C28CEB
:100AA000D007D006D005D004D003D002D001D000AA
:0B0AB000D0D0D082D083D0F0D0E03254
:100DE900435243206572726F720A00202077687936
:100DF900204E6F74206D650A0054696D6572206E0E
:100E09006578740A004C656E677468213D320A0082
:100F0800000000000000000000000000000000EFEA
:090F18001F70011E144E70E82246
:100F8600C2842082FD7F30120DB62082FDD28422DB
:100EB400D2847F0A7E00120F08C2847F0A7E001249
:0E0EC4000F08D2847F9A7E01120F08020F865B
:100F21009000CCEDF0C2842082FD120DB69000CC71
:080F3100E0FF120DB6D284228C
:0B0C2B009000CDEBF0A3EAF0A3E9F08D
:100C3600EF4440FFC2842082FD120DB6E49000D13D
:100C4600F09000D0E0FFA3E0FEC39F501F9000CDC0
:100C5600E0FBA3E0FAA3E0F98E8275830012028717
:0E0C6600FF120DB69000D1E004F080D5D284CC
:010C7400225D
:070F740025E025E0F07F34C9
:0B0F7B00C2842082FD120DB6D2842239
:100F3900EF4480FFC2842082FD120DB6E4FF120D3A
:030F4900B6D28499
:010F4C002282
:0E0B81007A0079BF7B0174029000C9F07F3FBB
:0B0B8F009000C6EBF0A3EAF0A3E9F031
:100B9A00EF44C0FFC2842082FD120DB6E49000CA61
:100BAA00F09000C9E0FFA3E0C39F5025E4FF120DB7
:100BBA00B69000C6E0FBA3E0FAA3E0F99000CAE011
:100BCA00F582758300EF1202C69000CAE004F08035
:030BDA00D0D284F2
:010BDD0022F5
:100F4D00EF44C0FFC2842082FD120DB6E4FF120DE6
:030F5D00B6D28485
:010F6000226E
:10048E0090002DE0FDE4FF120F2190002EE0FD7F85
:10049E0002120F21900010E0FD7F0C120F21900030
:1004AE0011E0FD7F0B120F21900012E0FD7F0C1268
:1004BE000F21900013E0FD7F0D120F21900014E02C
:1004CE00FD7F0E120F21900015E0FD7F0F120F2100
:1004DE00900016E0FD7F10120F21900017E0FD7FB7
:1004EE0011120F21900018E0FD7F12120F219000C3
:1004FE0019E0FD7F13120F2190001AE0FD7F1412F8
:10050E000F2190001BE0FD7F0A120F2190001CE0CE
:10051E00FD7F15120F2190001DE0FD7F21120F218E
:10052E0090001EE0FD7F22120F2190001FE0FD7F44
:10053E0018120F21900020E0FD7F19120F2190005C
:10054E0021E0FD7F1A120F21900022E0FD7F1B1289
:10055E000F21900023E0FD7F1C120F21900024E05C
:10056E00FD7F1D120F21900025E0FD7F23120F212C
:10057E00900026E0FD7F24120F21900027E0FD7FE2
:10058E0025120F21900028E0FD7F26120F219000EA
:10059E0029E0FD7F29120F2190002AE0FD7F2C1209
:1005AE000F2190002BE0FD7F2D120F2190002CE0EB
:1005BE00FD7F2E120F2190002FE0FD7F07120F21DD
:1005CE00900030E0FD7F08120F21900031E0FD7F9A
:0E05DE0009120F21900032E0FD7F06020F216E
:100D00009000FCEBF0A3EAF0A3E9F0A3EDF0C2AA97
:100D10007F3F120F219000FCE0FBA3E0FAA3E0F973
:100D2000A3E09000D0F07F3F120C2B7F35120F7B99
:0E0D300030B3FD20B3FD7F3B120F7BD2AA2211
:0B0837009000DEEBF0A3EAF0A3E9F074
:10084200A3E0FBA3E0FAA3E0F912026E9000E71224
:100852000F747F147E00120E4E30B3167F147E008A
:10086200120E4E9000E7E014F0E0C3940150EA7FCC
:1008720000227F3B120F4DEF547F70030209087F65
:100882003F120F399000E6EFF09000E1E0FBA3E0A9
:10089200FAA3E0F912026EFEEFD39E504D9000DEF5
:1008A200E0FBA3E0FAA3E0F99000E6E0120B8990E6
:1008B20000E6E0FF9000E1E0FBA3E0FAA3E0F9EF3D
:1008C2001202B49000DEE0FBA3E0FAA3E0F990008C
:1008D200E6E0FD120E967A0079E4120B857F3A1259
:1008E2000F7B9000E5E05480FF229000E6E0FF904D
:1008F20000E1E0FBA3E0FAA3E0F9EF1202B47F3AD1
:08090200120F7B7F00227F0031
:01090A0022CA
:0B05EC009000B9EBF0A3EAF0A3E9F0E7
:1005F700E49000C3F09000BCE0FBA3E0FAA3E0F9AD
:1006070012026E9000C4120F747F3B120F4DEF540D
:100617007F70030207117F3F120F399000C3EFF07D
:100627007B017A0079C37D01120E969000C3E0FF2B
:10063700D39402403F9000B9E0FBA3E0FAA3E0F9AE
:10064700EF120B89120B817F3A120F7B9000C0E0EB
:1006570030E71E9000B9E0FBA3E0FAA3E0F99000B1
:10066700C3E0FD120E96E4900036F090000BF08088
:100677006F7F00229000C3E0FF6402600302070956
:100687007B017A0079C19000C9EFF07F3F120B8F91
:100697009000C1E0FFB4FF05A3E0F4601B900000E9
:1006A700E0FCA3E06F7001EC7044ECFF9000C2E047
:1006B700FDEF6D7001E47036120B817F3A120F7BEC
:1006C7009000C0E030E71F7F3A120F7B900036742E
:1006D70055F07B017A0079C19000C3E0FD120E96B8
:1006E7009000C3E0FF227BFF7A0D79E980117B013F
:1006F7007A0079C17D02120E967BFF7A0D79F4128A
:0C0707000EEE7F3A120F7B7F00227F0075
:0107130022C3
:0B0714009000E8EBF0A3EAF0A3E9F08E
:10071F00E49000EFF07F34120F7B7F3B120F4DEF11
:10072F00547F70030208347F3F120F399000EFEFB0
:10073F00F07B017A0079EF7D01120E969000EFE0C9
:10074F00FFD3940240469000E8E0FBA3E0FAA3E059
:10075F00F99000C9EFF07F3F120B8F7B017A007980
:10076F00EB120B877F3A120F7B9000ECE030E7190A
:10077F009000E8E0FBA3E0FAA3E0F99000EFE0FDC2
:10078F00120E96E490003680717F00229000EFE009
:10079F00FF6402600302082C7B017A0079ED900060
:1007AF00C9EFF07F3F120B8F9000EDE0FFB4FF0514
:1007BF00A3E0F4601B900000E0FCA3E06F7001EC7D
:1007CF007047ECFF9000EEE0FDEF6D7001E47039C3
:1007DF007B017A0079ED7D02120E967B017A00790A
:1007EF00EB120B877F3A120F7B9000ECE030E71192
:1007FF007F3A120F7B9000367455F09000EFE0FFB8
:10080F00227BFF7A0D79E980117B017A0079ED7DEA
:10081F0002120E967BFF7A0D79F4120EEE7F3A12CA
:07082F000F7B7F00227F0018
:01083600229F
:10090B007F34120F7B7F3B120F4DEF547F7003022E
:10091B0009B07F3F120F399000FBEFF06402707C3F
:10092B007B017A0079F7E0120B899000F7E0FFB4B6
:10093B00FF05A3E0F4601B900000E0FCA3E06F70E8
:10094B0001EC7045ECFF9000F8E0FDEF6D7001E4F9
:10095B0070377B017A0079F9120B877F3A120F7B84
:10096B009000FAE030E71A7F3A120F7B9000367452
:10097B0055F07BFF7A0E7902120EEE9000FBE0FF32
:10098B00227BFF7A0D79E980197B017A0079F77D5B
:10099B0002120E967BFF7A0D79F480067BFF7A0E9E
:1009AB00790E120EEE7F3A120F7B7F3C120F7B7F7C
:0809BB0038120F7BD2AA7F0065
:0109C3002211
:100D7C007F36120F7BE4FD7F16120F217D187F1832
:100D8C00120F217D287F1E120F217DA07F1F120FB5
:100D9C00217D787F20120F217F3A120F7B7F3C122E
:0A0DAC000F7B7F38120F7B7F0122BE
:03001300020ABB23
:100ABB00C0E0C0F0C083C082C0D075D000C000C001
:100ACB0001C002C003C004C005C006C007C2AA53C0
:100ADB0087FDB2A090000B7455F090000BE06019ED
:100AEB009000BC7401F0A37400F0A37402F07B01BE
:100AFB007A0079371205EC80E1D007D006D005D00B
:100B0B0004D003D002D001D000D0D0D082D083D07B
:040B1B00F0D0E03204
:060026009000D21204510B
:10002C009000D612045D000000009000DAE4F0A30A
:10003C0004F0A3E4F0A304F07F137E3B7DB17C03BA
:10004C009000D2E0F8A3E0F9A3E0FAA3E0FBD3120E
:10005C00042D40067F01C00780047F00C007E47FA9
:10006C000FFEFDFC9000D2E0F8A3E0F9A3E0FAA3A8
:10007C00E0FBC312042D50047E0180027E00D0E010
:10008C004E60037F0022E47F627E07FDFC9000D26D
:10009C00E0F8A3E0F9A3E0FAA3E0FBC312042D50AF
:1000AC0009E49000DAF0A3F08071E47F4E7EECFD61
:1000BC00FC9000D2E0F8A3E0F9A3E0FAA3E0FBC3C4
:1000CC0012042D500A9000DAE4F0A304F0804C7F67
:1000DC00D87E897D1D7C009000D2E0F8A3E0F9A3C6
:1000EC00E0FAA3E0FBC312042D500B9000DAE4F00D
:1000FC00A37402F080257F137E3B7DB17C039000BE
:10010C00D2E0F8A3E0F9A3E0FAA3E0FBC312042DBC
:10011C0050099000DAE4F0A37403F09000DAA3E045
:10012C0075F005A4FFA3E0FEA3E0A807088005C3B3
:10013C0033CE33CED8F9F0EE9000DCF09000D6122E
:10014C00045D000065909000D2E0FCA3E0FDA3E00C
:10015C00FEA3E0FFA3E0F8A3E0F9A3E0FAA3E0FB21
:10016C00D312042D405E9000D6E0FCA3E0FDA3E08A
:10017C00FEA3E0FF9000D2E0F8A3E0F9A3E0FAA31D
:10018C00E0FB1203109000D61204519000D6E0FC54
:10019C00A3E0FDA3E0FEA3E0FFC004C005C006C0C1
:1001AC00079000DCE0FEA3E0FF7C027DEE1202E88B
:1001BC00AB07AA06E4F9F8D007D006D005D0041294
:1001CC00039B80389000DCE0FEA3E0FF7C027DEE18
:1001DC001202E8AB07AA06E4F9F89000D2E0FCA3FF
:1001EC00E0FDA3E0FEA3E0FF12039B9000D6E0F835
:1001FC00A3E0F9A3E0FAA3E0FB1203109000D612DF
:10020C0004517F36120F7B7D107F16120F217D1843
:10021C007F18120F219000D6E0FCA3E0FDA3E0FEB6
:10022C00A3E0FF780812043EAD077F1E120F219049
:10023C0000D6A3A3A3E0FD7F1F120F219000DAA329
:10024C00E04478FD7F20120F217D067F02120F21E2
:10025C007F3A120F7B7F3C120F7B7F38120F7B7F14
:01026C000190
:01026D00226E
:0E0D3E009000F0EBF0A3EAF0A3E9F0A3EDF0D3
:100D4C00A3E075F030A4FFA3E5F0F0A3EFF0900062
:100D5C00F574FFF5F01202FA45F060139000F0E024
:0F0D6C00FBA3E0FAA3E0F9A3E0FD120D0080DF86
:010D7B002255
:100ED200696E697469616C697A6174696F6E206F99
:0C0EE2006B0A00457869742070640A00F7
:100B1F00420000000042000D00004100350041007E
:100B2F00B7004100B8004100020041000B00410036
:100B3F000F004100360041000C00420033FFFF4818
:100B4F000003C0C0C0C0C0C0C0C0602300100008F8
:100B5F000010A7625BF80322F80047B610181D1C9F
:100B6F00C700B2EA2A0011598135090B06040500A6
:010B7F00FF76
:100BDE00E49000CBF09000B77437F0120E71120E45
:100BEE00B412048E7B017A0079039000D07408F061
:100BFE007F3E120C2B120D7C7BFF7A0E79D2120ED9
:100C0E00EED2AFD2AA4387027F3C120F7B7F3812FF
:0D0C1E000F7B7BFF7A0E79E5120EEE80E66B
:030000000209C42E
:0C09C400787FE4F6D8FD758107020A0B6D
:10026E00BB010689828A83E0225002E722BBFE028E
:09027E00E32289828A83E49322C1
:10028700BB010CE58229F582E5833AF583E022502C
:1002970006E92582F8E622BBFE06E92582F8E22276
:0D02A700E58229F582E5833AF583E4932290
:1002B400BB010689828A83F0225002F722BBFE0129
:0202C400F32223
:1002C600F8BB010DE58229F582E5833AF583E8F06E
:1002D600225006E92582C8F622BBFE05E92582C81A
:0202E600F22202
:1002E800EF8DF0A4A8F0CF8CF0A428CE8DF0A42E2A
:0202F800FE22E4
:1002FA00A3F8E0C5F025F0F0E582158270021583B7
:06030A00E0C838F0E82213
:10031000E88FF0A4CC8BF0A42CFCE98EF0A42CFC8C
:100320008AF0EDA42CFCEA8EF0A4CDA8F08BF0A40A
:100330002DCC3825F0FDE98FF0A42CCD35F0FCEB69
:100340008EF0A4FEA9F0EB8FF0A4CFC5F02ECD392E
:0F035000FEE43CFCEAA42DCE35F0FDE43CFC229B
:10035F0075F008758200EF2FFFEE33FECD33CDCC55
:10036F0033CCC58233C5829BED9AEC99E5829840D8
:10037F000CF582EE9BFEED9AFDEC99FC0FD5F0D6B5
:10038F00E4CEFBE4CDFAE4CCF9A88222B800C1B9DF
:10039F000059BA002DEC8BF084CFCECDFCE5F0CB1D
:1003AF00F97818EF2FFFEE33FEED33FDEC33FCEB56
:1003BF0033FB10D703994004EB99FB0FD8E5E4F911
:1003CF00FA227818EF2FFFEE33FEED33FDEC33FCFE
:1003DF00C933C910D7059BE99A4007EC9BFCE99AF2
:1003EF00F90FD8E0E4C9FAE4CCFB2275F010EF2F37
:1003FF00FFEE33FEED33FDCC33CCC833C810D70737
:10040F009BEC9AE899400AED9BFDEC9AFCE899F871
:0E041F000FD5F0DAE4CDFBE4CCFAE4C8F92204
:100CBC00C2D5E830E70FB2D5E4C39BFBE49AFAE463
:100CCC0099F9E498F8EC30E717B2D5120CF212034C
:100CDC009BE4C39BFBE49AFAE499F9E498F880034B
:100CEC0012039B30D50DE4C39FFFE49EFEE49DFDF3
:040CFC00E49CFC2256
:10042D00EB9FF5F0EA9E42F0E99D42F0E89C45F025
:01043D00229C
:10043E00E8600FECC313FCED13FDEE13FEEF13FF9C
:03044E00D8F122C0
:0C045100ECF0A3EDF0A3EEF0A3EFF0221E
:10045D00A8828583F0D083D08212047412047412A2
:10046D000474120474E473E493A3C583C5F0C583C7
:10047D00C8C582C8F0A3C583C5F0C583C8C582C8E9
:01048D00224C
:1009D000020BDEE493A3F8E493A34003F68001F254
:1009E00008DFF48029E493A3F85407240CC8C33328
:1009F000C4540F4420C8834004F456800146F6DFF7
:100A0000E4800B0102040810204080900B1FE47E5C
:100A1000019360BCA3FF543F30E509541FFEE493EB
:100A2000A360010ECF54C025E060A840B8E493A3B2
:100A3000FAE493A3F8E493A3C8C582C8CAC583CADD
:100A4000F0A3C8C582C8CAC583CADFE9DEE780BE95
:010B80000074
:00000001FF
