:0D001600E4F5C7F5C5F5C675C380F5C42235
:101E750075C78275C5018FC4EEF5C375C65A75C69B
:071E8500A500AFC212001618
:011E8C002233
:101E430075C78275C5028FC4EEF5C3AF058FC27522
:091E5300C65A75C6A5000200166E
:101EA50075C78275C5038FC4EEF5C375C65A75C669
:051EB500A5000200166B
:041DB200AB07AA06CB
:101DB600E4FCECC39D5013EC2BFFE43AFE121E75B7
:0C1DC600EFF460037F00220C80E87F0136
:011DD20022EE
:0F1B1B00900166EBF0A3EAF0A3E9F0AD07AC068A
:101B2A00E4A3F0900169E0FFC394025027EF2DFF70
:101B3A00E43CFE121E75900166E0FBA3E0FAA3E006
:101B4A00F9A3E0F582758300EF120D2F900169E089
:041B5A0004F080CF44
:011B5E002264
:0F1A400090019FEBF0A3EAF0A3E9F0AD07AC062D
:101A4F00E49001A3F09001A2E0FFA3E0FEC39F503A
:101A5F0029EE2DFFE43CFE121E7590019FE0FBA3C3
:101A6F00E0FAA3E0F99001A3E0F582758300EF128D
:0A1A7F000D2F9001A3E004F080CBCE
:011A8900223A
:03000E00D28A2271
:07000300C284C281D28422F5
:101EE200759850438920758DFD758BFDD28EC2ABDE
:031EF200D2AC224D
:101E0F00C2AC120CA46010F5993099FDC2997401FF
:0A1E1F0029F9E43AFA80EBD2AC2274
:101BE4007B017A0079007F007E04121B1B7B017A43
:101BF40000793B7F007E02121B1B7F017E00121DB9
:101C04003812000E121EE2120003121D69121D6921
:0F1C1400121D67121D69121D67121D69B2A322EE
:101CD400E4FEC281FDEF30E704D2808002C280EFCF
:101CE40025E0FFD281000000000000EE25E0FE3078
:101CF40082010EC2810000000000000DEDB408D581
:021D0400AF0628
:011D060022BA
:101D3800E4FDFCFB7AC079A8F8120D9FE47B0CFA4D
:101D4800F9F8121B5FE47BE87A03F9F8121B5FC30A
:0E1D5800E49FFDE49E4389018D8AF58CD2A99B
:011D6600225A
:101DD300C2ACAF051DEF6013120CA4F5993099FD49
:0E1DE300C299740129F9E43AFA80E7D2AC22E1
:061D6700B2A37F507EC311
:101D6D00E4FDFCC3ED9FEC9E50070DBD00010C8002
:101D7D00F2E4FCFDC3ED9FEC9E50070DBD00010C80
:021D8D0080F2E2
:011D8F002231
:03002300021AD4EA
:101AD400C0E0C083C082C0D0309833900123E0249A
:101AE400A2F582E43400F583E599F09000A2E06465
:101AF400AA6007900123E4F08012900123E004F02F
:101B0400E0D3940A40069000107455F0C298D0D0E7
:071B1400D082D083D0E03243
:03000B000218CB0D
:1018CB00C0E0C0F0C083C082C0D075D000C000C0E3
:1018DB0001C002C003C004C005C006C00790003D94
:1018EB00E0B455047F0A80027F017E00121D389000
:1018FB00000FE004F0700690000EE004F0C39000BF
:10190B000FE094E890000EE09403400D900035E456
:10191B00F090000EF0A3F0C28CD007D006D005D00B
:10192B0004D003D002D001D000D0D0D082D083D04D
:04193B00F0D0E032D6
:1019F4004572726F7220636865636B0A0045727288
:101A04006F722070726F746F636F6C004352432067
:101A14006572726F720A002020776879204E6F74A5
:101A2400206D650A004C656E677468213D320A00BA
:0C1A34004E6F74207061636B65740A00D3
:101E5C00000000000000000000000000000000EF87
:091E6C001F70011E144E70E822E3
:101F0600C2842082FD7F30121CD42082FDD284221E
:101DF100D2847F0A7E00121E5CC2847F0A7E00129A
:0E1E01001E5CD2847F9A7E01121E5C021F06B8
:101E8D0090018DEDF0C2842082FD121CD490018D45
:081E9D00E0FF121CD4D28422E4
:0B1A8A0090018EEBF0A3EAF0A3E9F05E
:101A9500EF4440FFC2842082FD121CD4E4900192E1
:101AA500F0900191E0FFA3E0FEC39F501F90018ECF
:101AB500E0FBA3E0FAA3E0F98E82758300120CBD6A
:0E1AC500FF121CD4900192E004F080D5D28470
:011AD30022F0
:0B1F1600C2842082FD121CD4D2842261
:101EBA00EF4480FFC2842082FD121CD4E4FF121C6E
:031ECA00D4D284EB
:011ECD0022F2
:0E193F007A0179697B017402900174F07F3F98
:0B194D00900171EBF0A3EAF0A3E9F0B9
:10195800EF44C0FFC2842082FD121CD4E4900175BC
:10196800F0900174E0FFA3E0C39F5025E4FF121C30
:10197800D4900171E0FBA3E0FAA3E0F9900175E0CF
:10198800F582758300EF120D2F900175E004F08049
:03199800D0D28426
:01199B002229
:101ECE00EF44C0FFC2842082FD121CD4E4FF121C1A
:031EDE00D4D284D7
:011EE10022DE
:1013510090002EE0FDE4FF121E8D90002FE0FD7F36
:1013610002121E8D900011E0FD7F0C121E8D900067
:1013710012E0FD7F0B121E8D900013E0FD7F0C1219
:101381001E8D900014E0FD7F0D121E8D900015E062
:10139100FD7F0E121E8D900016E0FD7F0F121E8D37
:1013A100900017E0FD7F10121E8D900018E0FD7F68
:1013B10011121E8D900019E0FD7F12121E8D9000FA
:1013C1001AE0FD7F13121E8D90001BE0FD7F1412A9
:1013D1001E8D90001CE0FD7F0A121E8D90001DE005
:1013E100FD7F15121E8D90001EE0FD7F21121E8DC6
:1013F10090001FE0FD7F22121E8D900020E0FD7FF6
:1014010018121E8D900021E0FD7F19121E8D900093
:1014110022E0FD7F1A121E8D900023E0FD7F1B123A
:101421001E8D900024E0FD7F1C121E8D900025E092
:10143100FD7F1D121E8D900026E0FD7F23121E8D63
:10144100900027E0FD7F24121E8D900028E0FD7F93
:1014510025121E8D900029E0FD7F26121E8D900021
:101461002AE0FD7F29121E8D90002BE0FD7F2C12BA
:101471001E8D90002CE0FD7F2D121E8D90002DE021
:10148100FD7F2E121E8D900030E0FD7F07121E8D14
:10149100900031E0FD7F08121E8D900032E0FD7F4B
:0E14A10009121E8D900033E0FD7F06021E8DA5
:101C9B00900189EBF0A3EAF0A3E9F0A3EDF07F3F0D
:101CAB00121E8D900189E0FBA3E0FAA3E0F9A3E0FB
:101CBB00900191F07F3F121A8A7F35121F1630B3B5
:091CCB00FD20B3FD7F3B021F1652
:0B160A00900193EBF0A3EAF0A3E9F0DD
:10161500A3E0FBA3E0FAA3E0F9120CA425E025E082
:1016250090019CF07F34121F167F147E00121D6DF1
:1016350030B3167F147E00121D6D90019CE014F0EE
:10164500E0C3940150EA7F00227F3B121ECEEF5487
:101655007F70030216E27F3F121EBA90019BEFF0E6
:10166500900196E0FBA3E0FAA3E0F9120CA4FEEFCB
:10167500D39E504D900193E0FBA3E0FAA3E0F990CF
:10168500019BE012194790019BE0FF900196E0FB5A
:10169500A3E0FAA3E0F9EF120D1D900193E0FBA37F
:1016A500E0FAA3E0F990019BE0FD121DD37A0179E0
:1016B500991219437F3A121F1690019AE05480FF40
:1016C5002290019BE0FF900196E0FBA3E0FAA3E0E6
:0F16D500F9EF120D1D7F3A121F167F00227F00C2
:0116E40022E3
:0B11C000900166EBF0A3EAF0A3E9F059
:1011CB00E490016DF0A3F0A3F07F34121F167F3B68
:1011DB00121ECEEF547F700302134E7F3F121EBAC6
:1011EB0090016DEFF07F647E00121D6D90016DE03C
:1011FB00FFD3940250030212C8900166E0FBA3E0F8
:10120B00FAA3E0F9EF12194712193F7F3A121F1692
:10121B0090016AE020E7030212BC900166E0FBA399
:10122B00E0FAA3E0F9900001120CBD64AA6077E428
:10123B0090016FF090016DE0FF14FE90016FE0FDE7
:10124B00C39E5020900166E0FBA3E0FAA3E0F98D6A
:10125B0082758300120CBDFE90016EE02EF0A3E0B0
:10126B0004F080D0EF24FFFFE434FFFE900166E032
:10127B00FBA3E0FAA3E0F98F828E83120CBDFF90E3
:10128B00016EE0B50710E4900035F09000617455E5
:10129B00F0B2A202132490016DE0FD121DD37BFF6F
:1012AB007A1979F480117BFF7A1A7901121E0F805B
:1012BB000C7BFF7A1A7910121E0F7F002290016DA2
:1012CB00E0FF640270757B017A01796B900174EF1A
:1012DB00F07F3F12194D90016BE0FFB4FF05A3E0C7
:1012EB00F46013900000E0548F6F703BA3E0FF900D
:1012FB00016CE06F703112193F7F3A121F1690018B
:10130B006AE030E71A7F3A121F16E490000EF0A342
:10131B00F07F01FE121D38D28C90016DE0FF227B15
:10132B00FF7A1A791080117B017A01796B7D021299
:10133B001DD37BFF7A1A791B121E0F7F3A121F16D1
:05134B007F00227F007D
:01135000227A
:1016E5007F34121F167F3B121ECEEF547F7003020C
:1016F50017A07F3F121EBA90016AEFF0E0FF640267
:10170500600302178A7B017A017966900174EFF014
:101715007F3F12194D900166E0FFB4FF05A3E0F489
:101725006013900000E0548F6F7047A3E0FF9001B5
:1017350067E06F703D7B017A0179681219457F3A40
:10174500121F16900169E030E7207F3A121F1690AC
:1017550000357455F0E490000EF0A3F07F01FE1201
:101765001D38D28C90016AE0FF227BFF7A1A79102E
:10177500802F7B017A0179667D02121DD37BFF7A6A
:101785001A791B801C7BFF7A1A7929121E0F7B019F
:101795007A01796A7D01121DD380097BFF7A1A7956
:1017A50034121E0F7F3A121F167F3C121F167F3808
:0717B500121F16D2AA7F00EB
:0117BC00220A
:101C61007F36121F16E4FD7F16121E8D7D187F1818
:101C7100121E8D7D287F1E121E8D7DA07F1F121EBC
:101C81008D7D787F20121E8D7F3A121F167F3C12A8
:0A1C91001F167F38121F167F012274
:03001300021E29A1
:101E2900C0E0C083C082C2AA5387FDB2A090000C53
:0A1E39007455F0D082D083D0E0325F
:0E1C2300900182EBF0A3EAF0A3E9F0A3EDF04C
:101C3100A3E075F030A4FFA3E5F0F0A3EFF090016D
:101C41008774FFF5F0120D5145F06013900182E0A9
:0F1C5100FBA3E0FAA3E0F9A3E0FD121C9B80DFE8
:011C60002261
:101D070047415445574159204F4B0A004D4F4445D1
:101D17004C5F534E204F4B0A000D0A003020696E6E
:101D2700697469616C697A6174696F6E206F6B0A97
:011D370000AB
:1018490041003E004100E200410123004100030044
:1018590042000E000041000C0041001000410061EF
:101869000041000D004100350041003D03410038B1
:10187900004100020141003400420039FFFF4E00DF
:101889003FAA0B018110015101010001100100481B
:101899000004C0C0C0C0C0C0C0C06023001100089F
:1018A9000010A7625BF80322F80347B610181D1C45
:1018B900C700B2EA2A0011598135090B060405004F
:0118C900FF1F
:100F8700E4900164F0A37403F0121BE4121DF11244
:100F970013517B017A0079049001917408F07F3E28
:100FA700121A8A121C61D2AF90003BE0F47003A3BF
:100FB700E0F4600C900000E0F47003A3E0F47074B8
:100FC700B2A37F507EC3121D6D900010E0B455D8B8
:100FD700E4F07D02FF7E02121DB2EF601A9000A3BB
:100FE700E0FD7F007E02121E439000A4E0FD7F011A
:100FF7007E02121E4380097BFF7A1D7907121E0F9E
:101007007D027F007E04121DB2EF601A9000A5E0FA
:10101700FD7F007E04121E439000A6E0FD7F017E47
:1010270004121E4380097BFF7A1D7913121E0FC21B
:10103700A3020FAF7B017A0079007F007E04121BA9
:101047001B7B017A00793B7F007E02121B1B9000FD
:1010570000E0FFA3E0900036CFF0A3EFF07B017A2A
:101067000079007D01121DD37B017A0079017D0192
:10107700121DD37B017A00793B7D01121DD37B01C1
:101087007A00793C7D01121DD37BFF7A1D792012EE
:101097001E0F7BFF7A1D7923121E0FB2A1E4FFFEFC
:1010A700121E75900038EFF0F4600302116490018E
:1010B70065E0FF14F0EF7003021164900002E09006
:1010C7000041F090003BE0900043F090003CE0903E
:1010D7000044F0900000E0900048F0900001E0909C
:1010E7000049F090003BE090004AF090003CE0900F
:1010F700004BF0E4900164F0900164E0FFC3940DAD
:10110700501A743F2FF582E43400F583E0FF900016
:101117004CE02FF0900164E004F080DC7B017A0062
:1011270079399001867402F0FD121C237B017A0045
:10113700793F7D0E121C9B900002E004F0E49000C2
:101147000EF0A3F07F0AFE121D38D28C90003D747A
:1011570055F0900035F0E490004CF08010E49000DA
:101167003DF090000CE06455703E1216E590003596
:10117700E0600B7B017A0079621211C080EF90006A
:1011870061E0B45518E4F07B0190016904F0A374A1
:1011970000F0A3744DF07A00796212091790003DB0
:1011A700E0645570030210B57F3C121F167F38129A
:0911B7001F16D2AA43870280A989
:101BA300202020200020205244202020200020201C
:101BB30030303031202000202030303032202000DF
:101BC3004E6F7420526F75746520696E666F726D07
:101BD3006174696F6E0D0A0020203030303320208D
:011BE3000001
:10199C00900008120D67FF900000E0B5F008A3E07E
:1019AC00B507037F0022900002120CBDFF9000349B
:1019BC00E0B50714900008120D67FF900036E06543
:1019CC00F07003A3E06F601D900002120CBD90003C
:1019DC0034F0900008120D67FF900036E5F0F0A38C
:0819EC00EFF07F01227F0022D1
:101D900090000A120D67FFE5F0548FFE900000E0FE
:101DA000548FFCA3E0B50707ECB506037F01227F43
:021DB00000220F
:0B052400900177EBF0A3EAF0A3E9F0F0
:10052F00E490017EF0A3F0A3F0A3F0120CA4FF90CF
:10053F00017AE0FBA3E0FAA3E0F9EF120D1D9001A1
:10054F0077E0FBA3E0FAA3E0F9900001120CBDFFE6
:10055F0090017AE0FBA3E0FAA3E0F9900001EF121B
:10056F000D2F900177E0FBA3E0FAA3E0F9900002D2
:10057F00120CBDFF90017AE0FBA3E0FAA3E0F99023
:10058F000002EF120D2F900177E0FBA3E0FAA3E03A
:10059F00F9900003120CBDFF90017AE0FBA3E0FA83
:1005AF00A3E0F9900003EF120D2F900177E0FBA36A
:1005BF00E0FAA3E0F9900004120CBDFF90017AE07D
:1005CF00FBA3E0FAA3E0F9900004EF120D2F9001C6
:1005DF0077E0FBA3E0FAA3E0F9900005120CBDFF52
:1005EF0090017AE0FBA3E0FAA3E0F9900005EF1287
:1005FF000D2F900177E0FBA3E0FAA3E0F990000C38
:10060F00120CBD540FFF1425E0FE90017FF0EF4454
:10061F0050FF90017AE0FBA3E0FAA3E0F990000607
:10062F00EF120D2F900177E0FBA3E0FAA3E0F99012
:10063F00000D120CBDFF90017AE0FBA3E0FAA3E0DE
:10064F00F9900007EF120D2FEE604FE490017DF04F
:10065F0090017FE0FF90017DE0FEC39F503C900131
:10066F0077E0FBA3E0FAA3E0F990000E120DEE8EF7
:10067F0082758300120CBDFFEE2408FDE433FC905D
:10068F00017AE0FBA3E0FAA3E0F98D828C83EF12ED
:10069F000D2F90017DE004F080B690017FE02408DB
:1006AF00A3F0900177E0FBA3E0FAA3E0F990000636
:1006BF00120CBDFF90017AE0FBA3E0FAA3E0F990E2
:1006CF000180E0FEF582758300EF120D2F90017708
:1006DF00E0FBA3E0FAA3E0F990000A120CBDFFEED5
:1006EF002401FDE433FC90017AE0FBA3E0FAA3E0E0
:1006FF00F98D828C83EF120D2F900177E0FBA3E031
:10070F00FAA3E0F990000B120CBDFFEE2402FDE4FA
:10071F0033FC90017AE0FBA3E0FAA3E0F98D828C21
:10072F0083EF120D2F900177E0FBA3E0FAA3E0F91E
:10073F00900008120CBDFFEE2403FDE433FC900182
:10074F007AE0FBA3E0FAA3E0F98D828C83EF120D20
:10075F002F900177E0FBA3E0FAA3E0F990000912D4
:10076F000CBDFFEE2404FDE433FC90017AE0FBA303
:10077F00E0FAA3E0F98D828C83EF120D2F900177B1
:10078F00E0FBA3E0FAA3E0F9900001120CBDFF908B
:10079F00017FE0FEC3EF9E24F5900181F0605DE4E0
:1007AF0090017DF0900181E0FF90017DE0FEC39FFD
:1007BF00504A900177E0FBA3E0FAA3E0F990001113
:1007CF00120DEE8E82758300120CBDFF900180E03A
:1007DF002405FDE433FC90017DE07A002DFDEA3C19
:1007EF00FC90017AE0FBA3E0FAA3E0F98D828C8301
:1007FF00EF120D2F90017DE004F080A8E490017DB1
:10080F00F0900177E0FBA3E0FAA3E0F9900001126A
:10081F000CBD2402FFE433FE90017DE0C39FEE6424
:10082F0080F8748098502490017AE0FBA3E0FAA33B
:10083F00E0F9A3E0F582758300120CBDFF90017EF5
:10084F00E02FF090017DE004F080B690017EE0FF94
:10085F00900180E02405FDE433FCA3E07A002DFD38
:10086F00EA3CFC90017AE0FBA3E0FAA3E0F98D8269
:10087F008C83EF120D2F900177E0FBA3E0FAA3E03A
:10088F00F990000D120CBD25E0FFE433FEEF2406B6
:10089F00FDE43EFC90017AE0FBA3E0FAA3E0F98DC2
:1008AF00828C83120CBD900039F074072FF582E40F
:1008BF003EF583120CBD90003AF0900177E0FBA358
:1008CF00E0FAA3E0F990000D120CBD640160107BFB
:1008DF00017A0079399001867402F0FD121C239081
:1008EF000177E0FBA3E0FAA3E0F9900001120CBD41
:1008FF002403FD90017AE0FBA3E0FAA3E0F9121CB8
:07090F009B900002E004F0E0
:0109160022BE
:0B00260090016FEBF0A3EAF0A3E9F0FB
:10003100E4900176F0A3F0A3F0A3F0120CA4FF90DA
:100041000172E0FBA3E0FAA3E0F9EF120D1D9001AC
:100051006FE0FBA3E0FAA3E0F9900001120CBDFFF1
:10006100900172E0FBA3E0FAA3E0F9900001EF1226
:100071000D2F90016FE0FBA3E0FAA3E0F9900002DD
:10008100120CBDFF900172E0FBA3E0FAA3E0F9902E
:100091000002EF120D2F90016FE0FBA3E0FAA3E045
:1000A100F9900003120CBDFF900172E0FBA3E0FA8E
:1000B100A3E0F9900003EF120D2F90016FE0FBA375
:1000C100E0FAA3E0F9900004120CBDFF900172E088
:1000D100FBA3E0FAA3E0F9900004EF120D2F9001C9
:1000E1006FE0FBA3E0FAA3E0F9900005120CBDFF5D
:1000F100900172E0FBA3E0FAA3E0F9900005EF1292
:100101000D2F90016FE0FBA3E0FAA3E0F99000034B
:10011100120CBDB4810890000C7401120CEA90001D
:100121000C120CBDFF900172E0FBA3E0FAA3E0F911
:10013100900006EF120D2F90016FE0FBA3E0FAA3F0
:10014100E0F9900003120CBD90000D30E70474013A
:10015100800274FF120CEA90016FE0FBA3E0FAA3A6
:10016100E0F990000D120CBDFF900172E0FBA3E0DD
:10017100FAA3E0F9900007EF120D2F90016FE0FB59
:10018100A3E0FAA3E0F990000C120CBD540FFF1488
:1001910025E0900177F0900003120CBD648170623C
:1001A100EF64017003020258E4900175F09001754B
:1001B100E0FD2400F582E43400F583E0FC90016F5A
:1001C100E0FBA3E0FAA3E0F990000D120CBD25E0DD
:1001D100FFE433FEEF2404FFE43EFEED7A002FFF3F
:1001E100EA3EFE900172E0FBA3E0FAA3E0F98F8200
:1001F1008E83EC120D2F900175E004F0E0B402AD96
:100201008055900177E0604FE4900175F09001779F
:10021100E0FF900175E0FEC39F503C90016FE0FB51
:10022100A3E0FAA3E0F990000E120DEE8E82758321
:1002310000120CBDFFEE2408FDE433FC900172E0D6
:10024100FBA3E0FAA3E0F98D828C83EF120D2F90CE
:100251000175E004F080B690016FE0FBA3E0FAA322
:10026100E0F9900003120CBDB4811B9000017402EF
:10027100120CEAFF900172E0FBA3E0FAA3E0F9900F
:100281000001EF120D2F900177E02408A3F09001F7
:100291006FE0FBA3E0FAA3E0F9900006120CBDFFAA
:1002A100900172E0FBA3E0FAA3E0F9900178E0FE8F
:1002B100F582758300EF120D2F90016FE0FBA3E033
:1002C100FAA3E0F9900008120CBDFFEE2401FDE451
:1002D10033FC900172E0FBA3E0FAA3E0F98D828C7C
:1002E10083EF120D2F90016FE0FBA3E0FAA3E0F979
:1002F100900009120CBDFFEE2402FDE433FC9001D5
:1003010072E0FBA3E0FAA3E0F98D828C83EF120D7A
:100311002F90016FE0FBA3E0FAA3E0F990000A122D
:100321000CBDFFEE2403FDE433FC900172E0FBA35E
:10033100E0FAA3E0F98D828C83EF120D2F90016F0B
:10034100E0FBA3E0FAA3E0F990000B120CBDFFEE75
:100351002404FDE433FC900172E0FBA3E0FAA3E086
:10036100F98D828C83EF120D2F90016FE0FBA3E0DA
:10037100FAA3E0F9900001120CBDFF900177E0FEB5
:10038100C3EF9E24F5900179F0605DE4900175F072
:10039100900179E0FF900175E0FEC39F504A900102
:1003A1006FE0FBA3E0FAA3E0F9900011120DEE8ECD
:1003B10082758300120CBDFF900178E02405FDE4F5
:1003C10033FC900175E07A002DFDEA3CFC9001724E
:1003D100E0FBA3E0FAA3E0F98D828C83EF120D2FED
:1003E100900175E004F080A87BFF7A1B79A3121EAF
:1003F1000FE4900175F090016FE0FBA3E0FAA3E038
:10040100F9900001120CBD2402FFE433FE90017546
:10041100E0C39FEE6480F87480985032900172E0DE
:10042100FBA3E0FAA3E0F9A3E0FFF58275830012D4
:100431000CBDFE900176E02EF07E00E92FF9EE3A38
:10044100FA7D01121DD3900175E004F080A87B01B3
:100451007A0179767D01121DD37BFF7A1B79A31274
:100461001E0F900176E0FF900178E02405FDE43352
:10047100FCA3E07A002DFDEA3CFC900172E0FBA3B5
:10048100E0FAA3E0F98D828C83EF120D2F90016FBA
:10049100E0FBA3E0FAA3E0F9900003120CBDB481E4
:1004A1000C90003A74FFF0900039F0804490016F95
:1004B100E0FBA3E0FAA3E0F990000D120CBD25E0EA
:1004C100FFE433FEEF2406FDE43EFC900172E0FB05
:1004D100A3E0FAA3E0F98D828C83120CBD90003960
:1004E100F074072FF582E43EF583120CBD90003ABB
:1004F100F07B017A0079399001867402F0FD121CBB
:100501002390016FE0FBA3E0FAA3E0F99000011250
:100511000CBD2403FD900172E0FBA3E0FAA3E0F916
:03052100021C9B1E
:1014AF00900172EDF090016FEBF0A3EAF0A3E9F079
:1014BF0090000E120DEE900174EBF0A3EAF0A3E989
:1014CF00F07D01E4FFFE121DB2EF6007E4FDFFFEA9
:1014DF00121E43E4FFFE121E75900038EFF0E490E9
:1014EF00003DF07D02FF7E04121DB2EF6002800707
:1014FF007F007E04121EA590016FE0FBA3E0FAA30C
:10150F00E0F990000A120CBDFD7F007E04121E430D
:10151F0090016FE0FBA3E0FAA3E0F990000B120C2F
:10152F00BDFD7F017E04121E43900172E070030225
:10153F0015D7E4FDFF7E05121DB2EF6042900172D8
:10154F00E0FD7F007E05121E43E4900173F09001D1
:10155F0072E0FFA3E0FEC39F506EEE2401FFE43460
:10156F0005FEA3E0FBA3E475F001120D51A9F0FAFB
:10157F00120CA4FD121E43900173E004F080CF7F84
:10158F00007E05121EA5900172E0FD7F027E0512FE
:10159F001E43E4900173F0900172E0FFA3E0FEC3DD
:1015AF009F5025EE2401FFE43405FEA3E0FBA3E4E6
:1015BF0075F001120D51A9F0FA120CA4FD121E4381
:1015CF00900173E004F080CF900000E0FFA3E09063
:1015DF000036CFF0A3EFF090016FE0FBA3E0FAA38A
:1015EF00E0F99000037482120D2F90017A7401F0CC
:0B15FF00A37401F0A37424F002052483
:101EF5009001727401F0A37401F0A37424F0020040
:011F050026B5
:0B091700900166EBF0A3EAF0A3E9F00A
:10092200E490016CF0FFFEA3F0900166E0FBA3E00F
:10093200FAA3E0F9120CA4FD900169E0FBA3E0FA2E
:10094200A3E0F9ED120D1D900166E0FBA3E0FAA30E
:10095200E0F9900001120CBDFD900169E0FBA3E0FB
:10096200FAA3E0F9900001ED120D2F900166E0FB71
:10097200A3E0FAA3E0F9900002120CBDFD90016918
:10098200E0FBA3E0FAA3E0F9900002ED120D2F9034
:100992000166E0FBA3E0FAA3E0F9900003120CBDAC
:1009A200FD900169E0FBA3E0FAA3E0F9900003EDFA
:1009B200120D2F900166E0FBA3E0FAA3E0F990008C
:1009C20004120CBDFD900169E0FBA3E0FAA3E0F97B
:1009D200900004ED120D2F900166E0FBA3E0FAA354
:1009E200E0F9900005120CBDFD900169E0FBA3E067
:1009F200FAA3E0F9900005ED120D2F90000C120CF5
:100A0200BD540F1425E0FD90016CF0900166E0FBEF
:100A1200A3E0FAA3E0F9900006120CBDFC90016974
:100A2200E0FBA3E0FAA3E0F990000CEC120D2F908A
:100A32000166E0FBA3E0FAA3E0F9900007120CBD07
:100A4200FC900169E0FBA3E0FAA3E0F990000DEC51
:100A5200120D2FED6025900166E0FBA3E0FAA3E002
:100A62002408F9E43AFAC003C002C001A3E0FBA3E0
:100A7200E0FAA3E0F990000E120E1E90016CE0FE67
:100A82002408FF900166E0FBA3E0FAA3E0F98F825D
:100A9200758300120CBDFD900169E0FBA3E0FAA38F
:100AA200E0F9900006ED120D2FEF2401FDE433FC76
:100AB200900166E0FBA3E0FAA3E0F98D828C831239
:100AC2000CBDFD900169E0FBA3E0FAA3E0F9900000
:100AD20008ED120D2FEF2402FDE433FC900166E0D5
:100AE200FBA3E0FAA3E0F98D828C83120CBDFD908A
:100AF2000169E0FBA3E0FAA3E0F9900009ED120D11
:100B02002FEF2403FDE433FC900166E0FBA3E0FA3F
:100B1200A3E0F98D828C83120CBDFD900169E0FB8C
:100B2200A3E0FAA3E0F990000AED120D2FEF2404DE
:100B3200FDE433FC900166E0FBA3E0FAA3E0F98D4B
:100B4200828C83120CBDFD900169E0FBA3E0FAA345
:100B5200E0F990000BED120D2F900001120CBDC3B5
:100B62009E24F5FE602BEF2405FFE433FE90016620
:100B7200E0FBA3E0FAA3E02FF9EA3EFAC003C002C9
:100B8200C001A3E0FBA3E0FAA3E0F9900011120E6A
:100B92001E7BFF7A1B79A8121E0FE490016EF09063
:100BA2000169E0FBA3E0FAA3E0F9900001120CBD99
:100BB2002402FFE433FE90016EE0C39FEE6480F8EE
:100BC2007480985034900166E0FBA3E0FAA3E0F948
:100BD20090016EE0FFF582758300120CBDFE90015C
:100BE2006DE02EF07E00E92FF9EE3AFA7D01121D3A
:100BF200D390016EE004F080A67B017A01796D7DCD
:100C020001121DD37BFF7A1B79A3121E0F9001697B
:100C1200E0FBA3E0FAA3E0F912199CEF7003020CC7
:100C2200A37BFF7A1B79B1121E0F900169E0FBA32F
:100C3200E0FAA3E0F9121D90EF604F7BFF7A1B7977
:100C4200BA121E0F900169E0FBA3E0FAA3E0F9904B
:100C52000003120CBD24FD600C2402702490016C70
:100C6200E0FD0214AF90017A7401F0A37401F0A3C5
:100C72007424F0900169E0FBA3E0FAA3E0F9020515
:100C8200247BFF7A1B79C3021E0F7BFF7A1B79DB61
:100C9200121E0F900169E0FBA3E0FAA3E0F9121E15
:010CA200F55C
:010CA300222E
:030000000217BD27
:0C17BD00787FE4F6D8FD7581070218045F
:100CA400BB010689828A83E0225002E722BBFE024E
:090CB400E32289828A83E4932281
:100CBD00BB010CE58229F582E5833AF583E02250EC
:100CCD0006E92582F8E622BBFE06E92582F8E22236
:0D0CDD00E58229F582E5833AF583E4932250
:100CEA00BB010FF8E58229F582E5833AF583E0280E
:100CFA00F0225009C58229F8E58226F622BBFE09B0
:100D0A00C58229F8E22582F222F8EA2583F583E9E9
:030D1A00932822F9
:100D1D00BB010689828A83F0225002F722BBFE01B5
:020D2D00F322AF
:100D2F00F8BB010DE58229F582E5833AF583E8F0FA
:100D3F00225006E92582C8F622BBFE05E92582C8A6
:020D4F00F2228E
:100D5100A3F8E0C5F025F0F0E58215827002158355
:060D6100E0C838F0E822B2
:100D6700BB0110E58229F582E5833AF583E0F5F0CA
:100D7700A3E0225009E92582F886F008E622BBFEA7
:100D87000AE92582F8E2F5F008E222E5832AF583ED
:080D9700E993F5F0A3E99322B2
:100D9F00E88FF0A4CC8BF0A42CFCE98EF0A42CFCF3
:100DAF008AF0EDA42CFCEA8EF0A4CDA8F08BF0A471
:100DBF002DCC3825F0FDE98FF0A42CCD35F0FCEBD0
:100DCF008EF0A4FEA9F0EB8FF0A4CFC5F02ECD3995
:0F0DDF00FEE43CFCEAA42DCE35F0FDE43CFC2202
:101B5F00C2D5E830E70FB2D5E4C39BFBE49AFAE4B1
:101B6F0099F9E498F8EC30E717B2D5121B95120EDD
:101B7F00B3E4C39BFBE49AFAE499F9E498F8800381
:101B8F00120EB330D50DE4C39FFFE49EFEE49DFD1E
:041B9F00E49CFC22A4
:100DEE00BB010DE58229F582E5833AF583020F57A3
:100DFE005007E92582F8020F45BBFE07E92582F868
:100E0E00020F69E58229F582E5833AF583020F7BAD
:100E1E00BB0120E58229F582E5833AF583D0F0D037
:100E2E00E0F8D0E0F9D0E0FAD0E0FBE8C0E0C0F0A6
:100E3E00020F605018E92582F8D083D082D0E0F9F5
:100E4E00D0E0FAD0E0FBC082C083020F4EBBFE188A
:100E5E00E92582F8D083D082D0E0F9D0E0FAD0E054
:090E6E00FBC082C083020F722256
:1017C900020F87E493A3F8E493A34003F68001F2A0
:1017D90008DFF48029E493A3F85407240CC8C33321
:1017E900C4540F4420C8834004F456800146F6DFF0
:1017F900E4800B0102040810204080901849E47E1F
:10180900019360BCA3FF543F30E509541FFEE493E4
:10181900A360010ECF54C025E060A840B8E493A3AB
:10182900FAE493A3F8E493A3C8C582C8CAC583CAD6
:10183900F0A3C8C582C8CAC583CADFE9DEE780BE8E
:0118CA00001D
:100E770075F008758200EF2FFFEE33FECD33CDCC32
:100E870033CCC58233C5829BED9AEC99E5829840B5
:100E97000CF582EE9BFEED9AFDEC99FC0FD5F0D692
:100EA700E4CEFBE4CDFAE4CCF9A88222B800C1B9BC
:100EB7000059BA002DEC8BF084CFCECDFCE5F0CBFA
:100EC700F97818EF2FFFEE33FEED33FDEC33FCEB33
:100ED70033FB10D703994004EB99FB0FD8E5E4F9EE
:100EE700FA227818EF2FFFEE33FEED33FDEC33FCDB
:100EF700C933C910D7059BE99A4007EC9BFCE99ACF
:100F0700F90FD8E0E4C9FAE4CCFB2275F010EF2F13
:100F1700FFEE33FEED33FDCC33CCC833C810D70713
:100F27009BEC9AE899400AED9BFDEC9AFCE899F84E
:0E0F37000FD5F0DAE4CDFBE4CCFAE4C8F922E1
:090F4500E6FB08E6FA08E6F922D1
:090F4E00EBF608EAF608E9F622C8
:090F5700E0FBA3E0FAA3E0F9229B
:090F6000EBF0A3EAF0A3E9F02292
:090F6900E2FB08E2FA08E2F922B9
:090F7200EBF208EAF208E9F222B0
:0C0F7B00E493FB740193FA740293F922D2
:00000001FF
