:0D001600E4F5C7F5C5F5C675C380F5C42235
:101EB70075C78275C5018FC4EEF5C375C65A75C659
:071EC700A500AFC2120016D6
:011ECE0022F1
:101E850075C78275C5028FC4EEF5C3AF058FC275E0
:091E9500C65A75C6A5000200162C
:101EE70075C78275C5038FC4EEF5C375C65A75C627
:051EF700A50002001629
:041DF400AB07AA0689
:101DF800E4FCECC39D5013EC2BFFE43AFE121EB733
:0C1E0800EFF460037F00220C80E87F01F3
:011E140022AB
:0F1B9E00900166EBF0A3EAF0A3E9F0AD07AC0607
:101BAD00E4A3F0900169E0FFC394025027EF2DFFED
:101BBD00E43CFE121EB7900166E0FBA3E0FAA3E041
:101BCD00F9A3E0F582758300EF120D28900169E00D
:041BDD0004F080CFC1
:011BE10022E1
:0F1A7C0090019FEBF0A3EAF0A3E9F0AD07AC06F1
:101A8B00E49001A3F09001A2E0FFA3E0FEC39F50FE
:101A9B0029EE2DFFE43CFE121EB790019FE0FBA345
:101AAB00E0FAA3E0F99001A3E0F582758300EF1251
:0A1ABB000D289001A3E004F080CB99
:011AC50022FE
:03000E00D28A2271
:07000300C284C281D28422F5
:101F2400759850438920758DFD758BFDD28EC2AB9B
:031F3400D2AC220A
:101E5100C2AC120C9D6010F5993099FDC2997401C4
:0A1E610029F9E43AFA80EBD2AC2232
:101C26007B017A0079007F007E04121B9E7B017A7D
:101C360000793B7F007E02121B9E7F017E00121DF3
:101C46007A12000E121F24120003121DAB121DABD6
:0F1C5600121DA9121DAB121DA9121DABB2A322A4
:101D1600E4FEC281FDEF30E704D2808002C280EF8C
:101D260025E0FFD281000000000000EE25E0FE3035
:101D360082010EC2810000000000000DEDB408D53E
:021D4600AF06E6
:011D48002278
:101D7A00E4FDFCFB7AC079A8F8120D98E47B0CFA12
:101D8A00F9F8121BE2E47BE87A03F9F8121BE2C3C2
:0E1D9A00E49FFDE49E4389018D8AF58CD2A959
:011DA8002218
:101E1500C2ACAF051DEF6013120C9DF5993099FD0D
:0E1E2500C299740129F9E43AFA80E7D2AC229E
:061DA900B2A37F507EC3CF
:101DAF00E4FDFCC3ED9FEC9E50070DBD00010C80C0
:101DBF00F2E4FCFDC3ED9FEC9E50070DBD00010C3E
:021DCF0080F2A0
:011DD10022EF
:03002300021B10AD
:101B1000C0E0C083C082C0D0309833900123E0245D
:101B2000A2F582E43400F583E599F09000A2E06428
:101B3000AA6007900123E4F08012900123E004F0F2
:101B4000E0D3940A40069000107455F0C298D0D0AB
:071B5000D082D083D0E03207
:03000B0002195F78
:10195F00C0E0C0F0C083C082C0D075D000C000C04E
:10196F0001C002C003C004C005C006C00790003DFF
:10197F00E0B455047F0A80027F017E00121D7A9029
:10198F00000FE004F0700690000EE004F0C390002A
:10199F000FE094E890000EE09403400D900035E4C2
:1019AF00F090000EF0A3F0C28CD007D006D005D077
:1019BF0004D003D002D001D000D0D0D082D083D0B9
:0419CF00F0D0E03242
:101A30004572726F7220636865636B0A004572724B
:101A40006F722070726F746F636F6C00435243202B
:101A50006572726F720A002020776879204E6F7469
:101A6000206D650A004C656E677468213D320A007E
:0C1A70004E6F74207061636B65740A0097
:101E9E00000000000000000000000000000000EF45
:091EAE001F70011E144E70E822A1
:101F4800C2842082FD7F30121D162082FDD2842299
:101E3300D2847F0A7E00121E9EC2847F0A7E001215
:0E1E43001E9ED2847F9A7E01121E9E021F48B0
:101ECF0090018DEDF0C2842082FD121D1690018DC0
:081EDF00E0FF121D16D284225F
:0B1AC60090018EEBF0A3EAF0A3E9F022
:101AD100EF4440FFC2842082FD121D16E490019262
:101AE100F0900191E0FFA3E0FEC39F501F90018E93
:101AF100E0FBA3E0FAA3E0F98E82758300120CB635
:0E1B0100FF121D16900192E004F080D5D284F0
:011B0F0022B3
:0B1F5800C2842082FD121D16D28422DC
:101EFC00EF4480FFC2842082FD121D16E4FF121DE8
:031F0C0016D28466
:011F0F0022AF
:0E19D3007A0179697B017402900174F07F3F04
:0B19E100900171EBF0A3EAF0A3E9F025
:1019EC00EF44C0FFC2842082FD121D16E4900175E5
:1019FC00F0900174E0FFA3E0C39F5025E4FF121D9B
:101A0C0016900171E0FBA3E0FAA3E0F9900175E0F8
:101A1C00F582758300EF120D28900175E004F080BB
:031A2C00D0D28491
:011A2F002294
:101F1000EF44C0FFC2842082FD121D16E4FF121D93
:031F200016D28452
:011F2300229B
:10134A0090002EE0FDE4FF121ECF90002FE0FD7FFB
:10135A0002121ECF900011E0FD7F0C121ECF9000EA
:10136A0012E0FD7F0B121ECF900013E0FD7F0C12DE
:10137A001ECF900014E0FD7F0D121ECF900015E0E5
:10138A00FD7F0E121ECF900016E0FD7F0F121ECFBA
:10139A00900017E0FD7F10121ECF900018E0FD7F2D
:1013AA0011121ECF900019E0FD7F12121ECF90007D
:1013BA001AE0FD7F13121ECF90001BE0FD7F14126E
:1013CA001ECF90001CE0FD7F0A121ECF90001DE088
:1013DA00FD7F15121ECF90001EE0FD7F21121ECF49
:1013EA0090001FE0FD7F22121ECF900020E0FD7FBB
:1013FA0018121ECF900021E0FD7F19121ECF900017
:10140A0022E0FD7F1A121ECF900023E0FD7F1B12FF
:10141A001ECF900024E0FD7F1C121ECF900025E015
:10142A00FD7F1D121ECF900026E0FD7F23121ECFE6
:10143A00900027E0FD7F24121ECF900028E0FD7F58
:10144A0025121ECF900029E0FD7F26121ECF9000A4
:10145A002AE0FD7F29121ECF90002BE0FD7F2C127F
:10146A001ECF90002CE0FD7F2D121ECF90002DE0A4
:10147A00FD7F2E121ECF900030E0FD7F07121ECF97
:10148A00900031E0FD7F08121ECF900032E0FD7F10
:0E149A0009121ECF900033E0FD7F06021ECF28
:101CDD00900189EBF0A3EAF0A3E9F0A3EDF07F3FCB
:101CED00121ECF900189E0FBA3E0FAA3E0F9A3E077
:101CFD00900191F07F3F121AC67F35121F5830B3F5
:091D0D00FD20B3FD7F3B021F58CD
:0B160300900193EBF0A3EAF0A3E9F0E4
:10160E00A3E0FBA3E0FAA3E0F9120C9D25E025E090
:10161E0090019CF07F34121F587F147E00121DAF74
:10162E0030B3167F147E00121DAF90019CE014F0B3
:10163E00E0C3940150EA7F00227F3B121F10EF544B
:10164E007F70030216DB7F3F121EFC90019BEFF0B2
:10165E00900196E0FBA3E0FAA3E0F9120C9DFEEFD9
:10166E00D39E504D900193E0FBA3E0FAA3E0F990D6
:10167E00019BE01219DB90019BE0FF900196E0FBCD
:10168E00A3E0FAA3E0F9EF120D16900193E0FBA38D
:10169E00E0FAA3E0F990019BE0FD121E157A0179A4
:1016AE00991219D77F3A121F5890019AE05480FF71
:1016BE002290019BE0FF900196E0FBA3E0FAA3E0ED
:0F16CE00F9EF120D167F3A121F587F00227F008E
:0116DD0022EA
:0B11B900900166EBF0A3EAF0A3E9F060
:1011C400E490016DF0A3F0A3F07F34121F587F3B2D
:1011D400121F10EF547F70030213477F3F121EFC4F
:1011E40090016DEFF07F647E00121DAF90016DE001
:1011F400FFD3940250030212C1900166E0FBA3E006
:10120400FAA3E0F9EF1219DB1219D37F3A121F582F
:1012140090016AE020E7030212B5900166E0FBA3A7
:10122400E0FAA3E0F9900001120CB664AA6077E436
:1012340090016FF090016DE0FF14FE90016FE0FDEE
:10124400C39E5020900166E0FBA3E0FAA3E0F98D71
:1012540082758300120CB6FE90016EE02EF0A3E0BE
:1012640004F080D0EF24FFFFE434FFFE900166E039
:10127400FBA3E0FAA3E0F98F828E83120CB6FF90F1
:10128400016EE0B50710E4900035F09000617455EC
:10129400F0B2A202131D90016DE0FD121E157BFF3A
:1012A4007A1A793080117BFF7A1A793D121E5180A7
:1012B4000C7BFF7A1A794C121E517F002290016D2B
:1012C400E0FF640270757B017A01796B900174EF21
:1012D400F07F3F1219E190016BE0FFB4FF05A3E03A
:1012E400F46013900000E0548F6F703BA3E0FF9014
:1012F400016CE06F70311219D37F3A121F589001BC
:101304006AE030E71A7F3A121F58E490000EF0A307
:10131400F07F01FE121D7AD28C90016DE0FF227BDA
:10132400FF7A1A794C80117B017A01796B7D021264
:101334001E157BFF7A1A7957121E517F3A121F58D5
:051344007F00227F0084
:011349002281
:1016DE007F34121F587F3B121F10EF547F7003028E
:1016EE0017997F3F121EFC90016AEFF0E0FF640233
:1016FE0060030217837B017A017966900174EFF023
:10170E007F3F1219E1900166E0FFB4FF05A3E0F4FC
:10171E006013900000E0548F6F7047A3E0FF9001BC
:10172E0067E06F703D7B017A0179681219D97F3AB3
:10173E00121F58900169E030E7207F3A121F58902F
:10174E0000357455F0E490000EF0A3F07F01FE1208
:10175E001D7AD28C90016AE0FF227BFF7A1A794CB7
:10176E00802F7B017A0179667D02121E157BFF7A2E
:10177E001A7957801C7BFF7A1A7965121E517B01EC
:10178E007A01796A7D01121E1580097BFF7A1A791A
:10179E0070121E517F3A121F587F3C121F587F380D
:0717AE00121F58D2AA7F00B0
:0117B5002211
:101CA3007F36121F58E4FD7F16121ECF7D187F1852
:101CB300121ECF7D287F1E121ECF7DA07F1F121EF6
:101CC300CF7D787F20121ECF7F3A121F587F3C12A0
:0A1CD3001F587F38121F587F0122AE
:03001300021E6B5F
:101E6B00C0E0C083C082C2AA5387FDB2A090000C11
:0A1E7B007455F0D082D083D0E0321D
:0E1C6500900182EBF0A3EAF0A3E9F0A3EDF00A
:101C7300A3E075F030A4FFA3E5F0F0A3EFF090012B
:101C83008774FFF5F0120D4A45F06013900182E06E
:0F1C9300FBA3E0FAA3E0F9A3E0FD121CDD80DF64
:011CA200221F
:101D490047415445574159204F4B0A004D4F44458F
:101D59004C5F534E204F4B0A000D0A003020696E2C
:101D6900697469616C697A6174696F6E206F6B0A55
:011D79000069
:1018DD0041003E004100E2004101230041000300B0
:1018ED0042000E000041000C00410010004100615B
:1018FD000041000D004100350041003D034100381D
:10190D00004100020141003400420039FFFF4E004A
:10191D003FAA0B0181100151010100011001004886
:10192D000004C0C0C0C0C0C0C0C06023001100080A
:10193D000010A7625BF80322F80347B610181D1CB0
:10194D00C700B2EA2A0011598135090B06040500BA
:01195D00FF8A
:100F8000E4900164F0A37403F0121C26121E3312C5
:100F9000134A7B017A0079049001917408F07F3E36
:100FA000121AC6121CA3D2AF90003BE0F47003A348
:100FB000E0F4600C900000E0F47003A3E0F47074BF
:100FC000B2A37F507EC3121DAF900010E0B455D87D
:100FD000E4F07D02FF7E02121DF4EF601A9000A380
:100FE000E0FD7F007E02121E859000A4E0FD7F01DF
:100FF0007E02121E8580097BFF7A1D7949121E51DF
:101000007D027F007E04121DF4EF601A9000A5E0BF
:10101000FD7F007E04121E859000A6E0FD7F017E0C
:1010200004121E8580097BFF7A1D7955121E51C25C
:10103000A3020FA87B017A0079007F007E04121BB7
:101040009E7B017A00793B7F007E02121B9E9000FE
:1010500000E0FFA3E0900036CFF0A3EFF07B017A31
:101060000079007D01121E157B017A0079017D0156
:10107000121E157B017A00793B7D01121E157B0142
:101080007A00793C7D01121E157BFF7A1D79621270
:101090001E517BFF7A1D7965121E51B2A1E4FFFE3D
:1010A000121EB7900038EFF0F4600302115D90015A
:1010B00065E0FF14F0EF700302115D900002E09014
:1010C0000041F090003BE0900043F090003CE09045
:1010D0000044F0900000E0900048F0900001E090A3
:1010E0000049F090003BE090004AF090003CE09016
:1010F000004BF0E4900164F0900164E0FFC3940DB4
:10110000501A743F2FF582E43400F583E0FF90001D
:101110004CE02FF0900164E004F080DC7B017A0069
:1011200079399001867402F0FD121C657B017A000A
:10113000793F7D0E121CDD900002E004F0E4900087
:101140000EF0A3F07F0AFE121D7AD28C90003D743F
:1011500055F0900035F0E490004CF08010E49000E1
:101160003DF090000CE06455703E1216DE900035A4
:10117000E0600B7B017A0079621211B980EF900078
:1011800061E0B45518E4F07B0190016904F0A374A8
:1011900000F0A3744DF07A00796212093890003D96
:1011A000E0645570030210AE7F3C121F587F381266
:0911B0001F58D2AA43870280A94E
:101B57006973206D652073656E740D0A006765747F
:101B670020646174610D0A00726964206571756192
:101B77006C0D0A00202020200020454E4420004EF6
:101B87006F7420526F75746520696E666F726D6130
:071B970074696F6E0D0A0076
:1017B60090016FEBF0A3EAF0A3E9F090016FE0FB74
:1017C600A3E0FAA3E0F9900008120D60FF90000074
:1017D600E0B5F00DA3E0B507087BFF7A1B795780CB
:1017E6006490016FE0FBA3E0FAA3E0F99000021217
:1017F6000CB6FF900034E0B50714900008120D6097
:10180600FF900036E065F07003A3E06F60317BFF68
:101816007A1B7964121E5190016FE0FBA3E0FAA3D4
:10182600E0F9900002120CB6900034F09000081215
:101836000D60FF900036E5F0F0A3EFF07F01227B0C
:0B184600FF7A1B796F121E517F0022F9
:101DD20090000A120D60FFE5F0548FFE900000E0C3
:101DE200548FFCA3E0B50707ECB506037F01227F01
:021DF2000022CD
:0B054500900177EBF0A3EAF0A3E9F0CF
:10055000E490017EF0A3F0A3F0A3F0120C9DFF90B5
:10056000017AE0FBA3E0FAA3E0F9EF120D16900187
:1005700077E0FBA3E0FAA3E0F9900001120CB6FFCC
:1005800090017AE0FBA3E0FAA3E0F9900001EF12FA
:100590000D28900177E0FBA3E0FAA3E0F9900002B8
:1005A000120CB6FF90017AE0FBA3E0FAA3E0F99009
:1005B0000002EF120D28900177E0FBA3E0FAA3E020
:1005C000F9900003120CB6FF90017AE0FBA3E0FA69
:1005D000A3E0F9900003EF120D28900177E0FBA350
:1005E000E0FAA3E0F9900004120CB6FF90017AE063
:1005F000FBA3E0FAA3E0F9900004EF120D289001AC
:1006000077E0FBA3E0FAA3E0F9900005120CB6FF37
:1006100090017AE0FBA3E0FAA3E0F9900005EF1265
:100620000D28900177E0FBA3E0FAA3E0F990000C1D
:10063000120CB6540FFF1425E0FE90017FF0EF443A
:1006400050FF90017AE0FBA3E0FAA3E0F9900006E6
:10065000EF120D28900177E0FBA3E0FAA3E0F990F8
:10066000000D120CB6FF90017AE0FBA3E0FAA3E0C4
:10067000F9900007EF120D28EE604FE490017DF035
:1006800090017FE0FF90017DE0FEC39F503C900110
:1006900077E0FBA3E0FAA3E0F990000E120DE78EDD
:1006A00082758300120CB6FFEE2408FDE433FC9043
:1006B000017AE0FBA3E0FAA3E0F98D828C83EF12CC
:1006C0000D2890017DE004F080B690017FE02408C1
:1006D000A3F0900177E0FBA3E0FAA3E0F990000615
:1006E000120CB6FF90017AE0FBA3E0FAA3E0F990C8
:1006F0000180E0FEF582758300EF120D28900177EE
:10070000E0FBA3E0FAA3E0F990000A120CB6FFEEBA
:100710002401FDE433FC90017AE0FBA3E0FAA3E0BE
:10072000F98D828C83EF120D28900177E0FBA3E016
:10073000FAA3E0F990000B120CB6FFEE2402FDE4E0
:1007400033FC90017AE0FBA3E0FAA3E0F98D828C00
:1007500083EF120D28900177E0FBA3E0FAA3E0F904
:10076000900008120CB6FFEE2403FDE433FC900168
:100770007AE0FBA3E0FAA3E0F98D828C83EF120DFF
:1007800028900177E0FBA3E0FAA3E0F990000912BA
:100790000CB6FFEE2404FDE433FC90017AE0FBA3E9
:1007A000E0FAA3E0F98D828C83EF120D2890017797
:1007B000E0FBA3E0FAA3E0F9900001120CB6FF9071
:1007C000017FE0FEC3EF9E24F5900181F0605DE4BF
:1007D00090017DF0900181E0FF90017DE0FEC39FDC
:1007E000504A900177E0FBA3E0FAA3E0F9900011F2
:1007F000120DE78E82758300120CB6FF900180E027
:100800002405FDE433FC90017DE07A002DFDEA3CF7
:10081000FC90017AE0FBA3E0FAA3E0F98D828C83DF
:10082000EF120D2890017DE004F080A8E490017D96
:10083000F0900177E0FBA3E0FAA3E0F99000011249
:100840000CB62402FFE433FE90017DE0C39FEE640A
:1008500080F8748098502490017AE0FBA3E0FAA31A
:10086000E0F9A3E0F582758300120CB6FF90017EDB
:10087000E02FF090017DE004F080B690017EE0FF73
:10088000900180E02405FDE433FCA3E07A002DFD17
:10089000EA3CFC90017AE0FBA3E0FAA3E0F98D8248
:1008A0008C83EF120D28900177E0FBA3E0FAA3E020
:1008B000F990000D120CB625E0FFE433FEEF24069C
:1008C000FDE43EFC90017AE0FBA3E0FAA3E0F98DA1
:1008D000828C83120CB6900039F074072FF582E4F5
:1008E0003EF583120CB690003AF0900177E0FBA33E
:1008F000E0FAA3E0F990000D120CB6640160107BE1
:10090000017A0079399001867402F0FD121C65901D
:100910000177E0FBA3E0FAA3E0F9900001120CB626
:100920002403FD90017AE0FBA3E0FAA3E0F9121C96
:07093000DD900002E004F07D
:01093700229D
:0B00260090016FEBF0A3EAF0A3E9F0FB
:10003100E4900176F0A3F0A3F0A3F0120C9DFF90E1
:100041000172E0FBA3E0FAA3E0F9EF120D169001B3
:100051006FE0FBA3E0FAA3E0F9900001120CB6FFF8
:10006100900172E0FBA3E0FAA3E0F9900001EF1226
:100071000D2890016FE0FBA3E0FAA3E0F9900002E4
:10008100120CB6FF900172E0FBA3E0FAA3E0F99035
:100091000002EF120D2890016FE0FBA3E0FAA3E04C
:1000A100F9900003120CB6FF900172E0FBA3E0FA95
:1000B100A3E0F9900003EF120D2890016FE0FBA37C
:1000C100E0FAA3E0F9900004120CB6FF900172E08F
:1000D100FBA3E0FAA3E0F9900004EF120D289001D0
:1000E1006FE0FBA3E0FAA3E0F9900005120CB6FF64
:1000F100900172E0FBA3E0FAA3E0F9900005EF1292
:100101000D2890016FE0FBA3E0FAA3E0F990000352
:10011100120CB6B4810990000C120CB60480119037
:10012100016FE0FBA3E0FAA3E0F990000C120CB61A
:10013100FF900172E0FBA3E0FAA3E0F9900006EF63
:10014100120D2890016FE0FBA3E0FAA3E0F9900003
:1001510003120CB630E70990000D120CB6048012A0
:1001610090016FE0FBA3E0FAA3E0F990000D120CFF
:10017100B614FF900172E0FBA3E0FAA3E0F990004E
:1001810007EF120D28900172E0FBA3E0FAA3E0F95A
:10019100900006120CB6540FFF1425E0900177F081
:1001A10090016FE0FBA3E0FAA3E0F9900003120CC9
:1001B100B66481705DEF64017003020268E490012E
:1001C10075F0900175E0FD2400F582E43400F583BB
:1001D100E0FC900172E0FBA3E0FAA3E0F9900007D4
:1001E100120CB625E0FFE433FEEF2404FFE43EFEEB
:1001F100ED7A002FFFEA3EFE900172A3E0FA8F82B2
:100201008E83EC120D28900175E004F0E0B402B287
:100211008055900177E0604FE4900175F09001778F
:10022100E0FF900175E0FEC39F503C90016FE0FB41
:10023100A3E0FAA3E0F990000E120DE78E82758318
:1002410000120CB6FFEE2408FDE433FC900172E0CD
:10025100FBA3E0FAA3E0F98D828C83EF120D2890C5
:100261000175E004F080B690016FE0FBA3E0FAA312
:10027100E0F9900003120CB6B4811B9000017402E6
:10028100120CE3FF900172E0FBA3E0FAA3E0F99006
:100291000001EF120D28900177E02408A3F09001EE
:1002A1006FE0FBA3E0FAA3E0F9900006120CB6FFA1
:1002B100900172E0FBA3E0FAA3E0F9900178E0FE7F
:1002C100F582758300EF120D2890016FE0FBA3E02A
:1002D100FAA3E0F9900008120CB6FFEE2401FDE448
:1002E10033FC900172E0FBA3E0FAA3E0F98D828C6C
:1002F10083EF120D2890016FE0FBA3E0FAA3E0F970
:10030100900009120CB6FFEE2402FDE433FC9001CB
:1003110072E0FBA3E0FAA3E0F98D828C83EF120D6A
:100321002890016FE0FBA3E0FAA3E0F990000A1224
:100331000CB6FFEE2403FDE433FC900172E0FBA355
:10034100E0FAA3E0F98D828C83EF120D2890016F02
:10035100E0FBA3E0FAA3E0F990000B120CB6FFEE6C
:100361002404FDE433FC900172E0FBA3E0FAA3E076
:10037100F98D828C83EF120D2890016FE0FBA3E0D1
:10038100FAA3E0F9900001120CB6FF900177E0FEAC
:10039100C3EF9E24F5900179F0605DE4900175F062
:1003A100900179E0FF900175E0FEC39F504A9001F2
:1003B1006FE0FBA3E0FAA3E0F9900011120DE78EC4
:1003C10082758300120CB6FF900178E02405FDE4EC
:1003D10033FC900175E07A002DFDEA3CFC9001723E
:1003E100E0FBA3E0FAA3E0F98D828C83EF120D28E4
:1003F100900175E004F080A87BFF7A1B797B121EC7
:1004010051E4900175F090016FE0FBA3E0FAA3E0E5
:10041100F9900001120CB62402FFE433FE9001753D
:10042100E0C39FEE6480F87480985032900172E0CE
:10043100FBA3E0FAA3E0F9A3E0FFF58275830012C4
:100441000CB6FE900176E02EF07E00E92FF9EE3A2F
:10045100FA7D01121E15900175E004F080A87B0160
:100461007A0179767D01121E157BFF7A1B797B1249
:100471001E51900176E0FF900178E02405FDE43300
:10048100FCA3E07A002DFDEA3CFC900172E0FBA3A5
:10049100E0FAA3E0F98D828C83EF120D2890016FB1
:1004A100E0FBA3E0FAA3E0F9900003120CB6B481DB
:1004B1000C90003A74FFF0900039F080379001728F
:1004C100E0FBA3E0FAA3E0F9900007120CB625E0E7
:1004D100FFE433FE74062FF582E43EF583120CB679
:1004E100900039F074072FF582E43EF583120CB6C3
:1004F10090003AF07B017A0079399001867402F01C
:10050100FD121C6590016FE0FBA3E0FAA3E0F990F6
:100511000001120CB62403FD900172E0FBA3E0FA86
:10052100A3E0F9121CDD7BFF7A1B7980121E51902A
:10053100016FE0FBA3E0FAA3E02406F9E43AFA7DB7
:0405410001021E1580
:1014A800900172EDF090016FEBF0A3EAF0A3E9F080
:1014B80090000E120DE7900174EBF0A3EAF0A3E997
:1014C800F07D01E4FFFE121DF4EF6007E4FDFFFE6E
:1014D800121E85E4FFFE121EB7900038EFF0E4906C
:1014E800003DF07D02FF7E04121DF4EF60028007CC
:1014F8007F007E04121EE790016FE0FBA3E0FAA3D1
:10150800E0F990000A120CB6FD7F007E04121E85D9
:1015180090016FE0FBA3E0FAA3E0F990000B120C36
:10152800B6FD7F017E04121E85900172E0700302F1
:1015380015D0E4FDFF7E05121DF4EF6042900172A4
:10154800E0FD7F007E05121E85E4900173F0900196
:1015580072E0FFA3E0FEC39F506EEE2401FFE43467
:1015680005FEA3E0FBA3E475F001120D4AA9F0FA09
:10157800120C9DFD121E85900173E004F080CF7F50
:10158800007E05121EE7900172E0FD7F027E0512C3
:101598001E85E4900173F0900172E0FFA3E0FEC3A2
:1015A8009F5025EE2401FFE43405FEA3E0FBA3E4ED
:1015B80075F001120D4AA9F0FA120C9DFD121E8554
:1015C800900173E004F080CF900000E0FFA3E0906A
:1015D8000036CFF0A3EFF090016FE0FBA3E0FAA391
:1015E800E0F99000037482120D2890017A7401F0DA
:0B15F800A37401F0A37424F002054569
:101F37009001727401F0A37401F0A37424F00200FD
:011F47002673
:0B093800900166EBF0A3EAF0A3E9F0E9
:10094300E490016CF0FFFEA3F0900166E0FBA3E0EE
:10095300FAA3E0F9120C9DFD900169E0FBA3E0FA14
:10096300A3E0F9ED120D16900166E0FBA3E0FAA3F4
:10097300E0F9900001120CB6FD900169E0FBA3E0E1
:10098300FAA3E0F9900001ED120D28900166E0FB57
:10099300A3E0FAA3E0F9900002120CB6FD900169FE
:1009A300E0FBA3E0FAA3E0F9900002ED120D28901A
:1009B3000166E0FBA3E0FAA3E0F9900003120CB692
:1009C300FD900169E0FBA3E0FAA3E0F9900003EDD9
:1009D300120D28900166E0FBA3E0FAA3E0F9900072
:1009E30004120CB6FD900169E0FBA3E0FAA3E0F961
:1009F300900004ED120D28900166E0FBA3E0FAA33A
:100A0300E0F9900005120CB6FD900169E0FBA3E04C
:100A1300FAA3E0F9900005ED120D2890000C120CDA
:100A2300B6540F1425E0FD90016CF0900166E0FBD5
:100A3300A3E0FAA3E0F9900006120CB6FC9001695A
:100A4300E0FBA3E0FAA3E0F990000CEC120D289070
:100A53000166E0FBA3E0FAA3E0F9900007120CB6ED
:100A6300FC900169E0FBA3E0FAA3E0F990000DEC30
:100A7300120D28ED6025900166E0FBA3E0FAA3E0E8
:100A83002408F9E43AFAC003C002C001A3E0FBA3BF
:100A9300E0FAA3E0F990000E120E1790016CE0FE4D
:100AA3002408FF900166E0FBA3E0FAA3E0F98F823C
:100AB300758300120CB6FD900169E0FBA3E0FAA375
:100AC300E0F9900006ED120D28EF2401FDE433FC5C
:100AD300900166E0FBA3E0FAA3E0F98D828C831218
:100AE3000CB6FD900169E0FBA3E0FAA3E0F99000E6
:100AF30008ED120D28EF2402FDE433FC900166E0BB
:100B0300FBA3E0FAA3E0F98D828C83120CB6FD906F
:100B13000169E0FBA3E0FAA3E0F9900009ED120DEF
:100B230028EF2403FDE433FC900166E0FBA3E0FA25
:100B3300A3E0F98D828C83120CB6FD900169E0FB72
:100B4300A3E0FAA3E0F990000AED120D28EF2404C4
:100B5300FDE433FC900166E0FBA3E0FAA3E0F98D2A
:100B6300828C83120CB6FD900169E0FBA3E0FAA32B
:100B7300E0F990000BED120D28900001120CB6C3A2
:100B83009E24F5602BEF2405FFE433FE900166E01D
:100B9300FBA3E0FAA3E02FF9EA3EFAC003C002C0C8
:100BA30001A3E0FBA3E0FAA3E0F9900011120E17F2
:100BB300E490016EF0900169E0FBA3E0FAA3E0F991
:100BC300900001120CB62402FFE433FE90016EE0A4
:100BD300C39FEE6480F87480985034900166E0FB04
:100BE300A3E0FAA3E0F990016EE0FFF582758300BC
:100BF300120CB6FE90016DE02EF07E00E92FF9EEA7
:100C03003AFA7D01121E1590016EE004F080A67B76
:100C1300017A01796D7D01121E157BFF7A1B797BA9
:100C2300121E51900169E0FBA3E0FAA3E0F9121749
:100C3300B6EF6065900169E0FBA3E0FAA3E0F91267
:100C43001DD2EF6046900169E0FBA3E0FAA3E0F94F
:100C5300900003120CB624FD600C24027024900152
:100C63006CE0FD0214A890017A7401F0A37401F002
:100C7300A37424F0900169E0FBA3E0FAA3E0F90276
:100C830005457BFF7A1B7986021E51900169E0FBC3
:090C9300A3E0FAA3E0F9121F37F7
:010C9C002235
:0300000002185192
:0C185100787FE4F6D8FD75810702189836
:100C9D00BB010689828A83E0225002E722BBFE0255
:090CAD00E32289828A83E4932288
:100CB600BB010CE58229F582E5833AF583E02250F3
:100CC60006E92582F8E622BBFE06E92582F8E2223D
:0D0CD600E58229F582E5833AF583E4932257
:100CE300BB010FF8E58229F582E5833AF583E02815
:100CF300F0225009C58229F8E58226F622BBFE09B7
:100D0300C58229F8E22582F222F8EA2583F583E9F0
:030D130093282200
:100D1600BB010689828A83F0225002F722BBFE01BC
:020D2600F322B6
:100D2800F8BB010DE58229F582E5833AF583E8F001
:100D3800225006E92582C8F622BBFE05E92582C8AD
:020D4800F22295
:100D4A00A3F8E0C5F025F0F0E5821582700215835C
:060D5A00E0C838F0E822B9
:100D6000BB0110E58229F582E5833AF583E0F5F0D1
:100D7000A3E0225009E92582F886F008E622BBFEAE
:100D80000AE92582F8E2F5F008E222E5832AF583F4
:080D9000E993F5F0A3E99322B9
:100D9800E88FF0A4CC8BF0A42CFCE98EF0A42CFCFA
:100DA8008AF0EDA42CFCEA8EF0A4CDA8F08BF0A478
:100DB8002DCC3825F0FDE98FF0A42CCD35F0FCEBD7
:100DC8008EF0A4FEA9F0EB8FF0A4CFC5F02ECD399C
:0F0DD800FEE43CFCEAA42DCE35F0FDE43CFC2209
:101BE200C2D5E830E70FB2D5E4C39BFBE49AFAE42E
:101BF20099F9E498F8EC30E717B2D5121C18120ED6
:101C0200ACE4C39BFBE49AFAE499F9E498F8800304
:101C1200120EAC30D50DE4C39FFFE49EFEE49DFDA1
:041C2200E49CFC2220
:100DE700BB010DE58229F582E5833AF583020F50B1
:100DF7005007E92582F8020F3EBBFE07E92582F876
:100E0700020F62E58229F582E5833AF583020F74C2
:100E1700BB0120E58229F582E5833AF583D0F0D03E
:100E2700E0F8D0E0F9D0E0FAD0E0FBE8C0E0C0F0AD
:100E3700020F595018E92582F8D083D082D0E0F903
:100E4700D0E0FAD0E0FBC082C083020F47BBFE1898
:100E5700E92582F8D083D082D0E0F9D0E0FAD0E05B
:090E6700FBC082C083020F6B2264
:10185D00020F80E493A3F8E493A34003F68001F212
:10186D0008DFF48029E493A3F85407240CC8C3338C
:10187D00C4540F4420C8834004F456800146F6DF5B
:10188D00E4800B01020408102040809018DDE47EF6
:10189D00019360BCA3FF543F30E509541FFEE49350
:1018AD00A360010ECF54C025E060A840B8E493A317
:1018BD00FAE493A3F8E493A3C8C582C8CAC583CA42
:1018CD00F0A3C8C582C8CAC583CADFE9DEE780BEFA
:01195E000088
:100E700075F008758200EF2FFFEE33FECD33CDCC39
:100E800033CCC58233C5829BED9AEC99E5829840BC
:100E90000CF582EE9BFEED9AFDEC99FC0FD5F0D699
:100EA000E4CEFBE4CDFAE4CCF9A88222B800C1B9C3
:100EB0000059BA002DEC8BF084CFCECDFCE5F0CB01
:100EC000F97818EF2FFFEE33FEED33FDEC33FCEB3A
:100ED00033FB10D703994004EB99FB0FD8E5E4F9F5
:100EE000FA227818EF2FFFEE33FEED33FDEC33FCE2
:100EF000C933C910D7059BE99A4007EC9BFCE99AD6
:100F0000F90FD8E0E4C9FAE4CCFB2275F010EF2F1A
:100F1000FFEE33FEED33FDCC33CCC833C810D7071A
:100F20009BEC9AE899400AED9BFDEC9AFCE899F855
:0E0F30000FD5F0DAE4CDFBE4CCFAE4C8F922E8
:090F3E00E6FB08E6FA08E6F922D8
:090F4700EBF608EAF608E9F622CF
:090F5000E0FBA3E0FAA3E0F922A2
:090F5900EBF0A3EAF0A3E9F02299
:090F6200E2FB08E2FA08E2F922C0
:090F6B00EBF208EAF208E9F222B7
:0C0F7400E493FB740193FA740293F922D9
:00000001FF
