:05001D00D28AD2AA22E4
:07001600C284C281D28422E2
:100D3600120016120C6A120C6A120C68120C6A1255
:080D46000C68120C6AB2A32232
:100C3500E4FEC281FDEF30E704D2808002C280EF7E
:100C450025E0FFD281000000000000EE25E0FE3027
:100C550082010EC2810000000000000DEDB408D530
:020C6500AF06D8
:010C6700226A
:100D6600759850438920758DFD758BFDD28EC2AB6B
:050D7600D2ACD2AF2257
:100CE900C2AC1200266010F5993099FDC2997401C1
:0A0CF90029F9E43AFA80EBD2AC22AC
:100C9100C2ACAF051DEF6013120026F5993099FD26
:0E0CA100C299740129F9E43AFA80E7D2AC2234
:060C6800B2A37F507EC321
:100C6E00E4FDFCC3ED9FEC9E50070DBD00010C8012
:100C7E00F2E4FCFDC3ED9FEC9E50070DBD00010C90
:020C8E0080F2F2
:010C90002241
:03002300020AF1DD
:100AF100C0E0C083C082C0D03098339000B4E024FD
:100B010073F582E43400F583E599F0900073E064B5
:100B1100AA60079000B4E4F080129000B4E004F001
:100B2100E0D3940A400690000C7455F0C298D0D0DE
:070B3100D082D083D0E03236
:100B3800456E7465722072782074696D65206F75D2
:100B480074202000456E746572205258320A0043A2
:100B58005243206572726F720A00202077687920EC
:100B68004E6F74206D650A004C656E677468213D90
:030B7800320A003E
:100D1D00000000000000000000000000000000EFD7
:090D2D001F70011E144E70E82233
:10000300C2842082FD7F30120C352082FDD28422EF
:100CAF00D2847F0A7E00120D1DC2847F0A7E00123D
:0E0CBF000D1DD2847F9A7E01120D1D020003CE
:100D4E009000C2EDF0C2842082FD120C359000C2DC
:080D5E00E0FF120C35D28422E3
:0B0AA7009000C3EBF0A3EAF0A3E9F01D
:100AB200EF4440FFC2842082FD120C35E49000C74F
:100AC200F09000C6E0FFA3E0FEC39F501F9000C35A
:100AD200E0FBA3E0FAA3E0F98E8275830012003FE7
:0E0AE200FF120C359000C7E004F080D5D284DE
:010AF00022E3
:0F0D0300FFE0FBA3E0FAA3E0F9EF12006C7F3AE8
:0B0D1200C2842082FD120C35D2842226
:100D7B00EF4480FFC2842082FD120C35E4FF120C7D
:030D8B0035D284DA
:010D8E002242
:0A09AC007B0174029000D0F07F3F41
:0B09B6009000CDEBF0A3EAF0A3E9F005
:1009C100EF44C0FFC2842082FD120C35E49000D1B7
:1009D100F09000D0E0FFA3E0C39F5025E4FF120C8C
:1009E100359000CDE0FBA3E0FAA3E0F99000D1E05F
:1009F100F582758300EF12007E9000D1E004F08053
:030A0100D0D284CC
:010A040022CF
:100D8F00EF44C0FFC2842082FD120C35E4FF120C29
:030D9F0035D284C6
:010DA200222E
:1004E30090002AE0FDE4FF120D4E90002BE0FD7F0B
:1004F30002120D4E90000DE0FD7F0C120D4E900088
:100503000EE0FD7F0B120D4E90000FE0FD7F0C12ED
:100513000D4E900010E0FD7F0D120D4E900011E086
:10052300FD7F0E120D4E900012E0FD7F0F120D4E57
:10053300900013E0FD7F10120D4E900014E0FD7F3C
:1005430011120D4E900015E0FD7F12120D4E90001A
:1005530016E0FD7F13120D4E900017E0FD7F14127D
:100563000D4E900018E0FD7F0A120D4E900019E029
:10057300FD7F15120D4E90001AE0FD7F21120D4EE6
:1005830090001BE0FD7F22120D4E90001CE0FD7FCA
:1005930018120D4E90001DE0FD7F19120D4E9000B4
:1005A3001EE0FD7F1A120D4E90001FE0FD7F1B120F
:1005B3000D4E900020E0FD7F1C120D4E900021E0B7
:1005C300FD7F1D120D4E900022E0FD7F23120D4E84
:1005D300900023E0FD7F24120D4E900024E0FD7F68
:1005E30025120D4E900025E0FD7F26120D4E900042
:1005F30026E0FD7F29120D4E900027E0FD7F2C128F
:100603000D4E900028E0FD7F2D120D4E900029E045
:10061300FD7F2E120D4E90002CE0FD7F07120D4E34
:1006230090002DE0FD7F08120D4E90002EE0FD7F1F
:0E06330009120D4E90002FE0FD7F06020D4EC5
:100BBD009000EFEBF0A3EAF0A3E9F0A3EDF0C2AAE9
:100BCD007F3F120D4E9000EFE0FBA3E0FAA3E0F99A
:100BDD00A3E09000C6F07F3F120AA77F35120D12D9
:0E0BED0030B3FD20B3FD7F3B120D12D2AA22C1
:0B07ED009000DEEBF0A3EAF0A3E9F0BF
:1007F800A3E0FBA3E0FAA3E0F912002625E025E038
:100808009000E7F07F34120D127F147E00120C6EF8
:1008180030B3167F147E00120C6E9000E7E014F0DF
:10082800E0C3940150EA7F00227F3B120D8FEF5402
:100838007F607C7F3F120D7B9000E6EFF07B017AB2
:100848000079E67D01120C919000E1E0FBA3E0FA4B
:10085800A3E0F9120026FF9000E6E0FED39F504285
:100868009000DEE0FBA3E0FAA3E0F9EE1209B090F5
:1008780000E6E0FF9000E1E0FBA3E0FAA3E0F9EF77
:1008880012006C7B017A0079E67D01120C917A00E6
:1008980079E41209AC7F3A120D129000E5E0548019
:1008A800FF229000E6E09000E1120D037F00227F16
:0108B800003F
:0108B900221C
:0B0641009000C2EBF0A3EAF0A3E9F088
:10064C00A3E0FBA3E0FAA3E0F912002625E025E0E5
:10065C009000CBF07F34120D127F147E00120C6EC2
:10066C0030B31F7F147E00120C6E9000CBE014F0A0
:10067C00E0C3940150EA7BFF7A0B7938120CE97FC6
:10068C0000227F3B120D8FEF547F60C87F3F120D0D
:10069C007B9000CAEFF07B017A0079CA7D01120CC5
:1006AC00919000CAE0D3940240567BFF7A0B794CB0
:1006BC00120CE99000C2E0FBA3E0FAA3E0F9900071
:1006CC00CAE01209B09000CAE0FF9000C5E0FBA39D
:1006DC00E0FAA3E0F9EF12006C9000C2E0FBA3E09B
:1006EC00FAA3E0F99000CAE0FD120C917A0079C8E7
:1006FC001209AC7F3A120D129000C9E05480FF220F
:0D070C009000CAE09000C5120D03020660C7
:100719007F34120D127F3B120D8FEF547F7003024D
:1007290007D97F3F120D7B9000B9EFF07B017A006A
:1007390079B97D01120C919000B9E0FF6402600360
:100749000207D07B017A0079B59000D0EFF07F3FA6
:100759001209B69000B5E0FFB4FF05A3E0F4601BF1
:10076900900000E0FCA3E06F7001EC7047ECFF9093
:1007790000B6E0FDEF6D7001E470397B017A007914
:10078900B71209AE7F3A120D129000B8E030E71C9B
:100799007B017A0079B57D02120C9190000B74559A
:1007A900F07F3A120D129000B9E0FF227BFF7A0B1D
:1007B900795780197B017A0079B57D02120C917BFA
:1007C900FF7A0B796280067BFF7A0B7970120CE94C
:1007D9007F3A120D127F3C120D127F38120D12D280
:0307E900AA7F00E4
:0107EC0022EA
:100BFB007F36120D12E4FD7F16120D4E7D187F18F5
:100C0B00120D4E7D287F1E120D4E7DA07F1F120DE3
:100C1B004E7D787F20120D4E7F3A120D127F3C12C3
:0A0C2B000D127F38120D127F012216
:03001300020B7B62
:100B7B00C0E0C0F0C083C082C0D075D000C000C040
:100B8B0001C002C003C004C005C006C007C2AA53FF
:100B9B0087FDB2A0120719D007D006D005D004D01C
:100BAB0003D002D001D000D0D0D082D083D0F0D0EF
:020BBB00E03226
:06029B009000D212025E89
:1002A1009000D612026A000000009000DAE4F0A388
:1002B10004F0A3E4F0A304F07F137E3B7DB17C0343
:1002C1009000D2E0F8A3E0F9A3E0FAA3E0FBD31297
:1002D100023A40067F01C00780047F00C007E47F27
:1002E1000FFEFDFC9000D2E0F8A3E0F9A3E0FAA331
:1002F100E0FBC312023A50047E0180027E00D0E08E
:100301004E60037F0022E47F627E07FDFC9000D2F5
:10031100E0F8A3E0F9A3E0FAA3E0FBC312023A502C
:1003210009E49000DAF0A3F08071E47F4E7EECFDE9
:10033100FC9000D2E0F8A3E0F9A3E0FAA3E0FBC34C
:1003410012023A500A9000DAE4F0A304F0804C7FE4
:10035100D87E897D1D7C009000D2E0F8A3E0F9A34E
:10036100E0FAA3E0FBC312023A500B9000DAE4F08A
:10037100A37402F080257F137E3B7DB17C03900046
:10038100D2E0F8A3E0F9A3E0FAA3E0FBC312023A3A
:1003910050099000DAE4F0A37403F09000DAA3E0CE
:1003A10075F005A4FFA3E0FEA3E0A807088005C33C
:1003B10033CE33CED8F9F0EE9000DCF09000D612B7
:1003C100026A000065909000D2E0FCA3E0FDA3E08A
:1003D100FEA3E0FFA3E0F8A3E0F9A3E0FAA3E0FBAA
:1003E100D312023A405E9000D6E0FCA3E0FDA3E008
:1003F100FEA3E0FF9000D2E0F8A3E0F9A3E0FAA3A6
:10040100E0FB12011D9000D612025E9000D6E0FCC6
:10041100A3E0FDA3E0FEA3E0FFC004C005C006C049
:10042100079000DCE0FEA3E0FF7C027DEE1200A05D
:10043100AB07AA06E4F9F8D007D006D005D004121C
:1004410001A880389000DCE0FEA3E0FF7C027DEE95
:100451001200A0AB07AA06E4F9F89000D2E0FCA3D1
:10046100E0FDA3E0FEA3E0FF1201A89000D6E0F8B2
:10047100A3E0F9A3E0FAA3E0FB12011D9000D6125C
:10048100025E7F36120D127D107F16120D4E7D1801
:100491007F18120D4E9000D6E0FCA3E0FDA3E0FE14
:1004A100A3E0FF780812024BAD077F1E120D4E909C
:1004B10000D6A3A3A3E0FD7F1F120D4E9000DAA387
:1004C100E04478FD7F20120D4E7D067F02120D4E15
:1004D1007F3A120D127F3C120D127F38120D127FDE
:0104E1000119
:0104E20022F7
:0E0A5A009000E8EBF0A3EAF0A3E9F0A3EDF0C2
:100A6800A3E075F068A4FFAEF07C007D051200B22B
:100A7800A3EEF0A3EFF09000ED74FFF5F01201077C
:100A880045F0601A9000E8E0FBA3E0FAA3E0F9A3C0
:0E0A9800E0FD120BBD7FE87E03120C6E80D8CD
:010AA600222D
:100CCD00696E697469616C697A6174696F6E206FA0
:0C0CDD006B0A00457869742070640A00FE
:100A05004200000000410032004100B3004100B443
:100A1500004100020041000B0041000C0042003083
:100A2500FFFF480003C0C0C0C0C0C0C0C0602300F5
:100A35000D00080010A7625BF80322F80047B61006
:100A4500181D1CC700B2EA2A0011598135090B0689
:040A55000405000C88
:10094600E49000C0F0A3F09000B3740BF0120D36E3
:10095600120CAF1204E37B017A0079039000C6748F
:1009660008F07F3E120AA7120BFB120D667BFF7A78
:100976000C79CD120CE912001D43870290000BE0A2
:10098600B455F6E4F07BFF7A0C79E0120CE990009E
:10099600C5E4F0A3F0A3740BF07B017A007933125F
:0609A6000641D2AA80D632
:030000000208BA39
:0C08BA00787FE4F6D8FD75810702090183
:10002600BB010689828A83E0225002E722BBFE02D8
:09003600E32289828A83E493220B
:10003F00BB010CE58229F582E5833AF583E0225076
:10004F0006E92582F8E622BBFE06E92582F8E222C0
:0D005F00E58229F582E5833AF583E49322DA
:10006C00BB010689828A83F0225002F722BBFE0173
:02007C00F3226D
:10007E00F8BB010DE58229F582E5833AF583E8F0B8
:10008E00225006E92582C8F622BBFE05E92582C864
:02009E00F2224C
:1000A000EF8DF0A4A8F0CF8CF0A428CE8DF0A42E74
:0200B000FE222E
:1000B200BC000BBE0029EF8DF084FFADF022E4CC32
:1000C200F875F008EF2FFFEE33FEEC33FCEE9DECFB
:1000D200984005FCEE9DFE0FD5F0E9E4CEFD22ED41
:1000E200F8F5F0EE8420D21CFEADF075F008EF2F8B
:1000F200FFED33FD4007985006D5F0F222C398FD7C
:050102000FD5F0EA2218
:10010700A3F8E0C5F025F0F0E582158270021583AB
:06011700E0C838F0E82208
:10011D00E88FF0A4CC8BF0A42CFCE98EF0A42CFC81
:10012D008AF0EDA42CFCEA8EF0A4CDA8F08BF0A4FF
:10013D002DCC3825F0FDE98FF0A42CCD35F0FCEB5E
:10014D008EF0A4FEA9F0EB8FF0A4CFC5F02ECD3923
:0F015D00FEE43CFCEAA42DCE35F0FDE43CFC2290
:10016C0075F008758200EF2FFFEE33FECD33CDCC4A
:10017C0033CCC58233C5829BED9AEC99E5829840CD
:10018C000CF582EE9BFEED9AFDEC99FC0FD5F0D6AA
:10019C00E4CEFBE4CDFAE4CCF9A88222B800C1B9D4
:1001AC000059BA002DEC8BF084CFCECDFCE5F0CB12
:1001BC00F97818EF2FFFEE33FEED33FDEC33FCEB4B
:1001CC0033FB10D703994004EB99FB0FD8E5E4F906
:1001DC00FA227818EF2FFFEE33FEED33FDEC33FCF3
:1001EC00C933C910D7059BE99A4007EC9BFCE99AE7
:1001FC00F90FD8E0E4C9FAE4CCFB2275F010EF2F2C
:10020C00FFEE33FEED33FDCC33CCC833C810D7072B
:10021C009BEC9AE899400AED9BFDEC9AFCE899F866
:0E022C000FD5F0DAE4CDFBE4CCFAE4C8F922F9
:10023A00EB9FF5F0EA9E42F0E99D42F0E89C45F01A
:01024A002291
:10024B00E8600FECC313FCED13FDEE13FEEF13FF91
:03025B00D8F122B5
:0C025E00ECF0A3EDF0A3EEF0A3EFF02213
:10026A00A8828583F0D083D0821202811202811281
:10027A000281120281E473E493A3C583C5F0C583A6
:10028A00C8C582C8F0A3C583C5F0C583C8C582C8DE
:01029A002241
:1008C600020946E493A3F8E493A34003F68001F2F9
:1008D60008DFF48029E493A3F85407240CC8C33333
:1008E600C4540F4420C8834004F456800146F6DF02
:1008F600E4800B0102040810204080900A05E47E83
:10090600019360BCA3FF543F30E509541FFEE493F6
:10091600A360010ECF54C025E060A840B8E493A3BD
:10092600FAE493A3F8E493A3C8C582C8CAC583CAE8
:10093600F0A3C8C582C8CAC583CADFE9DEE780BEA0
:010A5900009C
:00000001FF
