:0D001600E4F5C7F5C5F5C675C380F5C42235
:101FD20075C78275C5018FC4EEF5C375C65A75C63D
:071FE200A500AFC2120016BA
:011FE90022D5
:101FA00075C78275C5028FC4EEF5C3AF058FC275C4
:091FB000C65A75C6A50002001610
:1020020075C78275C5038FC4EEF5C375C65A75C60A
:05201200A5000200160C
:0F1CDA00900168EBF0A3EAF0A3E9F0AD07AC06C8
:101CE900E4A3F090016BE0FFC394025027EF2DFFAE
:101CF900E43CFE121FD2900168E0FBA3E0FAA3E0E6
:101D0900F9A3E0F582758300EF120D1090016BE0E5
:041D190004F080CF83
:011D1D0022A3
:0F1BFF0090019CEBF0A3EAF0A3E9F0AD07AC0670
:101C0E00E49001A0F090019FE0FFA3E0FEC39F507F
:101C1E0029EE2DFFE43CFE121FD290019CE0FBA3A7
:101C2E00E0FAA3E0F99001A0E0F582758300EF12CF
:0A1C3E000D109001A0E004F080CB2F
:011C48002279
:03000E00D28A2271
:07000300C284C281D28422F5
:10203F00759850438920758DFD758BFDD28EC2AB7F
:03204F00D2AC22EE
:101F6C00C2AC120C856010F5993099FDC2997401C0
:0A1F7C0029F9E43AFA80EBD2AC2216
:101D62007B017A0079007F007E04121CDA7B017A03
:101D720000793D7F007E02121CDA7F017E00121E76
:101D8200B612000E12203F120003121EE7121EE7C7
:0F1D9200121EE5121EE7121EE5121EE7B2A32273
:101E5200E4FEC281FDEF30E704D2808002C280EF4F
:101E620025E0FFD281000000000000EE25E0FE30F8
:101E720082010EC2810000000000000DEDB408D501
:021E8200AF06A9
:011E8400223B
:101EB600E4FDFCFB7AC079A8F8120D80E47B0CFAED
:101EC600F9F8121D1EE47BE87A03F9F8121D1EC309
:0E1ED600E49FFDE49E4389018D8AF58CD2A91C
:011EE40022DB
:101F3000C2ACAF051DEF6013120C85F5993099FD09
:0E1F4000C299740129F9E43AFA80E7D2AC2282
:061EE500B2A37F507EC392
:101EEB00E4FDFCC3ED9FEC9E50070DBD00010C8083
:101EFB00F2E4FCFDC3ED9FEC9E50070DBD00010C01
:021F0B0080F262
:011F0D0022B1
:03002300021C9329
:101C9300C0E0C083C082C0D0309833900125E024D7
:101CA300A4F582E43400F583E599F09000A4E064A0
:101CB300AA6007900125E4F08012900125E004F06A
:101CC300E0D3940A40069000127455F0C298D0D025
:071CD300D082D083D0E03283
:03000B00021ABB1B
:101ABB00C0E0C0F0C083C082C0D075D000C000C0F1
:101ACB0001C002C003C004C005C006C00790003FA0
:101ADB00E0B455047F0A80027F017E00121EB6908F
:101AEB000011E004F07006900010E004F0C39000C9
:101AFB0011E094E8900010E09403400D900037E45F
:101B0B00F0900010F0A3F0C28CD007D006D005D017
:101B1B0004D003D002D001D000D0D0D082D083D05B
:041B2B00F0D0E032E4
:1018880020204973204D6520646174612020004543
:1018980072726F7220636865636B0A004572726FBB
:1018A800722070726F746F636F6C00646174612072
:1018B800435243206572726F720A003320435243C9
:1018C800206572726F720A002020776879204E6F47
:1018D80074206D650A0077616B657570204352430B
:1018E800206572726F720A002077616B65757020CF
:1018F8004E6F74206D650A004C656E677468213DF3
:0F190800320A004E6F74207061636B65740A00C1
:101FB900000000000000000000000000000000EF29
:091FC9001F70011E144E70E82285
:10206300C2842082FD7F30121E522082FDD2842240
:101F4E00D2847F0A7E00121FB9C2847F0A7E0012DD
:0E1F5E001FB9D2847F9A7E01121FB902206340
:101FEA0090018AEDF0C2842082FD121E5290018A6D
:081FFA00E0FF121E52D2842206
:0B1C490090018BEBF0A3EAF0A3E9F0A0
:101C5400EF4440FFC2842082FD121E52E490018FA3
:101C6400F090018EE0FFA3E0FEC39F501F90018B14
:101C7400E0FBA3E0FAA3E0F98E82758300120C9EC8
:0E1C8400FF121E5290018FE004F080D5D28432
:011C9200222F
:0B207300C2842082FD121E52D2842283
:10201700EF4480FFC2842082FD121E52E4FF121E8D
:0320270052D2840E
:01202A002293
:0E1BA2007A01796B7B017402900176F07F3F2F
:0B1BB000900173EBF0A3EAF0A3E9F052
:101BBB00EF44C0FFC2842082FD121E52E4900177D5
:101BCB00F0900176E0FFA3E0C39F5025E4FF121EC7
:101BDB0052900173E0FBA3E0FAA3E0F9900177E0E8
:101BEB00F582758300EF120D10900177E004F08001
:031BFB00D0D284C1
:011BFE0022C4
:10202B00EF44C0FFC2842082FD121E52E4FF121E39
:03203B0052D284FA
:01203E00227F
:1014DC00900030E0FDE4FF121FEA900031E0FD7F48
:1014EC0002121FEA900013E0FD7F0C121FEA90001D
:1014FC0014E0FD7F0B121FEA900015E0FD7F0C122B
:10150C001FEA900016E0FD7F0D121FEA900017E015
:10151C00FD7F0E121FEA900018E0FD7F0F121FEAEC
:10152C00900019E0FD7F10121FEA90001AE0FD7F79
:10153C0011121FEA90001BE0FD7F12121FEA9000AF
:10154C001CE0FD7F13121FEA90001DE0FD7F1412BA
:10155C001FEA90001EE0FD7F0A121FEA90001FE0B8
:10156C00FD7F15121FEA900020E0FD7F21121FEA7B
:10157C00900021E0FD7F22121FEA900022E0FD7F07
:10158C0018121FEA900023E0FD7F19121FEA900049
:10159C0024E0FD7F1A121FEA900025E0FD7F1B124C
:1015AC001FEA900026E0FD7F1C121FEA900027E046
:1015BC00FD7F1D121FEA900028E0FD7F23121FEA19
:1015CC00900029E0FD7F24121FEA90002AE0FD7FA5
:1015DC0025121FEA90002BE0FD7F26121FEA9000D7
:1015EC002CE0FD7F29121FEA90002DE0FD7F2C12CC
:1015FC001FEA90002EE0FD7F2D121FEA90002FE0D5
:10160C00FD7F2E121FEA900032E0FD7F07121FEAC9
:10161C00900033E0FD7F08121FEA900034E0FD7F5C
:0E162C0009121FEA900035E0FD7F06021FEA5A
:101E1900900186EBF0A3EAF0A3E9F0A3EDF07F3F90
:101E2900121FEA900186E0FBA3E0FAA3E0F9A3E020
:101E390090018EF07F3F121C497F3512207330B319
:091E4900FD20B3FD7F3B02207374
:0B163A00900190EBF0A3EAF0A3E9F0B0
:10164500A3E0FBA3E0FAA3E0F9120C8525E025E071
:10165500900199F07F341220737F147E00121EEBE7
:1016650030B3167F147E00121EEB900199E014F042
:10167500E0C3940150EA7F00227F3B12202BEF54F8
:101685007F70030217127F3F122017900198EFF029
:10169500900193E0FBA3E0FAA3E0F9120C85FEEFBD
:1016A500D39E504D900190E0FBA3E0FAA3E0F990A2
:1016B5000198E0121BAA900198E0FF900193E0FBCE
:1016C500A3E0FAA3E0F9EF120CFE900190E0FBA372
:1016D500E0FAA3E0F9900198E0FD121F307A017954
:1016E50096121BA67F3A122073900197E05480FF53
:1016F50022900198E0FF900193E0FBA3E0FAA3E0BC
:0F170500F9EF120CFE7F3A1220737F00227F0053
:0117140022B2
:0B11B500900168EBF0A3EAF0A3E9F062
:1011C000E490016FF0A3F0A3F07F341220737F3B13
:1011D00012202BEF547F70030213707F3F122017F1
:1011E00090016FEFF07F647E00121EEB90016FE0C4
:1011F000FFD3940250030212EA900168E0FBA3E0DF
:10120000FAA3E0F9EF121BAA121BA27F3A12207375
:1012100090016CE020E7030212DE900168E0FBA37E
:10122000E0FAA3E0F9900001120C9E64AA70030298
:1012300012D3E4900171F090016FE0FF14FE900171
:1012400071E0FDC39E5020900168E0FBA3E0FAA38B
:10125000E0F98D82758300120C9EFE900170E02EE5
:10126000F0A3E004F080D0EF24FFFFE434FFFE9011
:101270000168E0FBA3E0FAA3E0F98F828E83120CF1
:101280009EFF900170E06F702FC00390017504F015
:10129000A37400F0A3744FF0D003120979EF60102B
:1012A000E4900037F09000637455F0B2A202134648
:1012B0007BFF7A187988802C900168E0FBA3E0FA24
:1012C000A3E0F990016FE0FD121F307BFF7A1879DF
:1012D0009780117BFF7A1879A4121F6C800C7BFF1A
:1012E0007A1879B3121F6C7F002290016FE0FF64BF
:1012F0000270757B017A01796D900176EFF07F3F86
:10130000121BB090016DE0FFB4FF05A3E0F4601381
:10131000900000E0548F6F703BA3E0FF90016EE0FF
:101320006F7031121BA27F3A12207390016CE03073
:10133000E71A7F3A122073E4900010F0A3F07F01C7
:10134000FE121EB6D28C90016FE0FF227BFF7A184E
:1013500079C380117B017A01796D7D02121F307B88
:10136000FF7A1879D0121F6C7F3A1220737F002207
:021370007F00FC
:011372002258
:101715007F341220737F3B12202BEF547F7003021E
:1017250017D07F3F12201790016CEFF0E0FF6402A5
:1017350060030217BA7B017A017968900176EFF0B0
:101745007F3F121BB0900168E0FFB4FF05A3E0F4F2
:101755006013900000E0548F6F7047A3E0FF900185
:1017650069E06F703D7B017A01796A121BA87F3AA7
:1017750012207390016BE030E7207F3A12207390BE
:1017850000377455F0E4900010F0A3F07F01FE12CD
:101795001EB6D28C90016CE0FF227BFF7A1879DEB1
:1017A500802F7B017A0179687D02121F307BFF7AD9
:1017B5001879F0801C7BFF7A197900121F6C7B0168
:1017C5007A01796C7D01121F3080097BFF7A1979C6
:1017D5000B121F6C7F3A1220737F3C1220737F38E7
:0717E500122073D2AA7F005D
:0117EC0022DA
:101DDF007F36122073E4FD7F16121FEA7D187F18DD
:101DEF00121FEA7D287F1E121FEA7DA07F1F121F80
:101DFF00EA7D787F20121FEA7F3A1220737F3C1210
:0A1E0F0020737F381220737F012238
:03001300021F8643
:101F8600C0E0C083C082C2AA5387FDB2A090000EF3
:0A1F96007455F0D082D083D0E03201
:0E1DA10090017FEBF0A3EAF0A3E9F0A3EDF0D0
:101DAF00A3E075F030A4FFA3E5F0F0A3EFF09001EE
:101DBF008474FFF5F0120D3245F0601390017FE04F
:0F1DCF00FBA3E0FAA3E0F9A3E0FD121E1980DFE9
:011DDE0022E2
:101E85002020200047415445574159204F4B0A0017
:101E95004D4F44454C5F534E204F4B0A0020696E11
:101EA500697469616C697A6174696F6E206F6B2002
:011EB500002C
:101A3100410040004100E400410125004100040053
:101A4100420010000041000E0041001200410063FD
:101A51000041000F004100370041003F0341003ABF
:101A610000410003014100360042003BFFFF4100FD
:101A71000201410005014E0041AA0B0181100151F3
:101A810001010001100100480006C0C0C0C0C0C073
:101A9100C0C06023001300080010A7625BF8032296
:101AA100F80347B610181D1CC700B2EA2A001159E5
:091AB1008135090B06040500FF54
:100F6800E4900166F0A37403F0121D62121F4E1282
:100F780014DC7B017A00790690018E7408F07F3EBC
:100F8800121C49121DDFD2AF7B017A0079007D0166
:100F9800121F307B017A0079017D01121F307B011D
:100FA8007A00793D7D01121F307B017A00793E7D00
:100FB80001121F307BFF7A1E7985121F6C90003D4D
:100FC800E0F47003A3E0F4600C900000E0F4700318
:100FD800A3E0F47073B2A37F507EC3121EEB90009F
:100FE80012E0B455D8E4F09000A5E0FD7F007E0241
:100FF800121FA09000A6E0FD7F017E02121FA090A4
:1010080000A7E0FD7F007E04121FA09000A8E0FD6D
:101018007F017E04121FA07BFF7A1E7989121F6C44
:101028007BFF7A1E7995121F6CC2A37B017A007927
:10103800007F007E04121CDA7B017A00793D7F0074
:101048007E02121CDA020FC5900000E0FF90000239
:10105800E0C45470FEEF4E900000F0E0FFA3E09073
:101068000038CFF0A3EFF07B017A0079007D011200
:101078001F307B017A0079017D01121F307B017AD4
:1010880000793D7D01121F307B017A00793E7D0198
:10109800121F307BFF7A1E79A2121F6CB2A1E4FFE7
:1010A800FE121FD290003AEFF0F46003021166902E
:1010B8000167E0FF14F0EF7003021166900003E08F
:1010C800900043F090003DE0900045F090003EE035
:1010D800900046F0900000E090004AF0900001E097
:1010E80090004BF090003DE090004CF090003EE006
:1010F80090004DF0E4900166F0900166E0FFC39423
:101108000D501A74412FF582E43400F583E0FF9006
:10111800004EE02FF0900166E004F080DC7B017A5D
:1011280000793B9001837402F0FD121DA17B017AC6
:101138000079417D0E121E19900003E004F0E4903E
:101148000010F0A3F07F0AFE121EB6D28C90003F6A
:101158007455F0900037F0E490004EF08010E49061
:10116800003FF090000EE0645570311217159000A2
:1011780037E0600B7B017A0079641211B580EF903B
:101188000063E0B4550BE4F07B017A00794F121943
:101198001790003FE0645570030210B77F3C12209F
:0D11A800737F38122073D2AA43870280B6ED
:101B2F006973206D652073656E740D0A00676574A7
:101B3F0020646174610D0A007269642065717561BA
:101B4F006C0D0A002059494E4720444120202000A7
:101B5F002020202000205A4855414E204641202069
:101B6F002000205772697465206F6B20002020526F
:101B7F0065616420646174612020004E6F7420528F
:101B8F006F75746520696E666F726D6174696F6EC3
:031B9F000D0A002C
:1017ED0090016BEBF0A3EAF0A3E9F090016BE0FB45
:1017FD00A3E0FAA3E0F9900008120D48FF90000055
:10180D00E0B5F00DA3E0B507087BFF7A1B792F80BB
:10181D006490016BE0FBA3E0FAA3E0F990000212E3
:10182D000C9EFF900036E0B50714900008120D488D
:10183D00FF900038E065F07003A3E06F60317BFF2F
:10184D007A1B793C121F6C90016BE0FBA3E0FAA3AD
:10185D00E0F9900002120C9E900036F090000812F4
:10186D000D48FF900038E5F0F0A3EFF07F01227BEB
:0B187D00FF7A1B7947121F6C7F0022CE
:101F0E0090000A120D48FFE5F0548FFE900000E09D
:101F1E00548FFCA3E0B50707ECB506037F01227FC3
:021F2E0000228F
:0B056800900174EBF0A3EAF0A3E9F0AF
:10057300E490017BF0A3F0A3F0A3F0120C85FF90AD
:100583000177E0FBA3E0FAA3E0F9EF120CFE900180
:1005930074E0FBA3E0FAA3E0F9900001120C9EFFC4
:1005A300900177E0FBA3E0FAA3E0F9900001EF12DA
:1005B3000D10900174E0FBA3E0FAA3E0F9900002B0
:1005C300120C9EFF900177E0FBA3E0FAA3E0F99001
:1005D3000002EF120D10900174E0FBA3E0FAA3E018
:1005E300F9900003120C9EFF900177E0FBA3E0FA61
:1005F300A3E0F9900003EF120D10900174E0FBA348
:10060300E0FAA3E0F9900004120C9EFF900177E05A
:10061300FBA3E0FAA3E0F9900004EF120D109001A0
:1006230074E0FBA3E0FAA3E0F9900005120C9EFF2F
:10063300900177E0FBA3E0FAA3E0F9900005EF1245
:100643000D10900174E0FBA3E0FAA3E0F990000C15
:10065300120C9E540FFF1425E0FE90017CF0EF4432
:1006630050FF900177E0FBA3E0FAA3E0F9900006C6
:10067300EF120D10900174E0FBA3E0FAA3E0F990F0
:10068300000D120C9EFF900177E0FBA3E0FAA3E0BC
:10069300F9900007EF120D10EE604FE490017AF02D
:1006A30090017CE0FF90017AE0FEC39F503C9001F3
:1006B30074E0FBA3E0FAA3E0F990000E120DCF8ED5
:1006C30082758300120C9EFFEE2408FDE433FC9038
:1006D3000177E0FBA3E0FAA3E0F98D828C83EF12AC
:1006E3000D1090017AE004F080B690017CE02408BC
:1006F300A3F0900174E0FBA3E0FAA3E0F9900006F5
:10070300120C9EFF900177E0FBA3E0FAA3E0F990BF
:10071300017DE0FEF582758300EF120D10900174E8
:10072300E0FBA3E0FAA3E0F990000A120C9EFFEEAF
:100733002401FDE433FC900177E0FBA3E0FAA3E09E
:10074300F98D828C83EF120D10900174E0FBA3E00E
:10075300FAA3E0F990000B120C9EFFEE2402FDE4D5
:1007630033FC900177E0FBA3E0FAA3E0F98D828CE0
:1007730083EF120D10900174E0FBA3E0FAA3E0F9FC
:10078300900008120C9EFFEE2403FDE433FC90015D
:1007930077E0FBA3E0FAA3E0F98D828C83EF120DDF
:1007A30010900174E0FBA3E0FAA3E0F990000912B2
:1007B3000C9EFFEE2404FDE433FC900177E0FBA3E1
:1007C300E0FAA3E0F98D828C83EF120D109001748F
:1007D300E0FBA3E0FAA3E0F9900001120C9EFF9066
:1007E300017CE0FEC3EF9E24F590017EF0605DE4A2
:1007F30090017AF090017EE0FF90017AE0FEC39FC2
:10080300504A900174E0FBA3E0FAA3E0F9900011D1
:10081300120DCF8E82758300120C9EFF90017DE036
:100823002405FDE433FC90017AE07A002DFDEA3CD7
:10083300FC900177E0FBA3E0FAA3E0F98D828C83BF
:10084300EF120D1090017AE004F080A87BFF7A1B71
:100853007953121F6CE490017AF0900174E0FBA3CA
:10086300E0FAA3E0F9900001120C9E2402FFE433A6
:10087300FE90017AE0C39FEE6480F8748098503252
:10088300900177E0FBA3E0FAA3E0F9A3E0FFF58290
:10089300758300120C9EFE90017BE02EF07E00E932
:1008A3002FF9EE3AFA7D01121F3090017AE004F03D
:1008B30080A87B017A01797B7D01121F307BFF7A4F
:1008C3001B795F121F6C90017BE0FF90017DE02498
:1008D30005FDE433FCA3E07A002DFDEA3CFC900126
:1008E30077E0FBA3E0FAA3E0F98D828C83EF120D8E
:1008F3001090017CE06046900174E0FBA3E0FAA352
:10090300E0F990000D120C9E25E0FDE433FCED248C
:1009130006FFE43CFE900177E0FBA3E0FAA3E0F9D5
:100923008F828E83120C9E548F90003BF074072DA0
:10093300F582E43CF583120C9E90003CF07B017A37
:1009430000793B9001837402F0FD121DA1900174A4
:10095300E0FBA3E0FAA3E0F9900001120C9E24034C
:10096300FD900177E0FBA3E0FAA3E0F9121E1990D2
:050973000003E004F0A8
:01097800225C
:0B00260090016BEBF0A3EAF0A3E9F0FF
:10003100E4900172F0A3F0A3F0A3F0120C85FF90FD
:10004100016EE0FBA3E0FAA3E0F9EF120CFE9001D0
:100051006BE0FBA3E0FAA3E0F9900001120C9EFF14
:1000610090016EE0FBA3E0FAA3E0F9900001EF122A
:100071000D1090016BE0FBA3E0FAA3E0F990000200
:10008100120C9EFF90016EE0FBA3E0FAA3E0F99051
:100091000002EF120D1090016BE0FBA3E0FAA3E068
:1000A100F9900003120C9EFF90016EE0FBA3E0FAB1
:1000B100A3E0F9900003EF120D1090016BE0FBA398
:1000C100E0FAA3E0F9900004120C9EFF90016EE0AB
:1000D100FBA3E0FAA3E0F9900004EF120D109001E8
:1000E1006BE0FBA3E0FAA3E0F9900005120C9EFF80
:1000F10090016EE0FBA3E0FAA3E0F9900005EF1296
:100101000D1090016BE0FBA3E0FAA3E0F99000036E
:10011100120C9EB4810990000C120C9E0480119067
:10012100016BE0FBA3E0FAA3E0F990000C120C9E36
:10013100FF90016EE0FBA3E0FAA3E0F9900006EF67
:10014100120D1090016BE0FBA3E0FAA3E0F990001F
:1001510003120C9E30E70990000D120C9E048012D0
:1001610090016BE0FBA3E0FAA3E0F990000D120C03
:100171009E14FF90016EE0FBA3E0FAA3E0F990006A
:1001810007EF120D1090016EE0FBA3E0FAA3E0F976
:10019100900006120C9E540FFF1425E0900173F09D
:1001A10090016BE0FBA3E0FAA3E0F9900003120CCD
:1001B1009E6481705DEF64017003020268E4900146
:1001C10071F0900171E0FD2400F582E43400F583C3
:1001D100E0FC90016EE0FBA3E0FAA3E0F9900007D8
:1001E100120C9E25E0FFE433FEEF2404FFE43EFE03
:1001F100ED7A002FFFEA3EFE90016EA3E0FA8F82B6
:100201008E83EC120D10900171E004F0E0B402B2A3
:100211008055900173E0604FE4900171F09001739B
:10022100E0FF900171E0FEC39F503C90016BE0FB49
:10023100A3E0FAA3E0F990000E120DCF8E82758330
:1002410000120C9EFFEE2408FDE433FC90016EE0E9
:10025100FBA3E0FAA3E0F98D828C83EF120D1090DD
:100261000171E004F080B690016BE0FBA3E0FAA31A
:10027100E0F9900003120C9EB4811B9000017402FE
:10028100120CCBFF90016EE0FBA3E0FAA3E0F99022
:100291000001EF120D10900173E02408A3F090010A
:1002A1006BE0FBA3E0FAA3E0F9900006120C9EFFBD
:1002B10090016EE0FBA3E0FAA3E0F9900174E0FE87
:1002C100F582758300EF120D1090016BE0FBA3E046
:1002D100FAA3E0F9900008120C9EFFEE2401FDE460
:1002E10033FC90016EE0FBA3E0FAA3E0F98D828C70
:1002F10083EF120D1090016BE0FBA3E0FAA3E0F98C
:10030100900009120C9EFFEE2402FDE433FC9001E3
:100311006EE0FBA3E0FAA3E0F98D828C83EF120D6E
:100321001090016BE0FBA3E0FAA3E0F990000A1240
:100331000C9EFFEE2403FDE433FC90016EE0FBA371
:10034100E0FAA3E0F98D828C83EF120D1090016B1E
:10035100E0FBA3E0FAA3E0F990000B120C9EFFEE84
:100361002404FDE433FC90016EE0FBA3E0FAA3E07A
:10037100F98D828C83EF120D1090016BE0FBA3E0ED
:10038100FAA3E0F9900001120C9EFF900173E0FEC8
:10039100C3EF9E24F5900175F0605DE4900171F06A
:1003A100900175E0FF900171E0FEC39F504A9001FA
:1003B1006BE0FBA3E0FAA3E0F9900011120DCF8EE0
:1003C10082758300120C9EFF900174E02405FDE408
:1003D10033FC900171E07A002DFDEA3CFC90016E46
:1003E100E0FBA3E0FAA3E0F98D828C83EF120D10FC
:1003F100900171E004F080A87BFF7A1B7964121FE1
:100401006CE4900171F090016BE0FBA3E0FAA3E0D2
:10041100F9900001120C9E2402FFE433FE90017159
:10042100E0C39FEE6480F8748098503290016EE0D2
:10043100FBA3E0FAA3E0F9A3E0FFF58275830012C4
:100441000C9EFE900172E02EF07E00E92FF9EE3A4B
:10045100FA7D01121F30900171E004F080A87B0148
:100461007A0179727D01121F307BFF7A1B795F124D
:100471001F6C900172E0FF900174E02405FDE433EC
:10048100FCA3E07A002DFDEA3CFC90016EE0FBA3A9
:10049100E0FAA3E0F98D828C83EF120D1090016BCD
:1004A100E0FBA3E0FAA3E0F9900003120C9EB481F3
:1004B1000C90003C74FFF090003BF0807890016E4E
:1004C100E0FBA3E0FAA3E0F9900007120C9E64019F
:1004D1006042900007120C9EFD75F002A42408F5FD
:1004E10082E435F0F583C083C082D082D083120CC0
:1004F1009E548F90003BF075F002EDA42409F58223
:10050100E435F0F583C083C08290016EA3A3D0824D
:10051100D083801A90016BE0FBA3E0FAA3E0F9908D
:10052100000A120C9E548F90003BF090000B120CAD
:100531009E90003CF07B017A00793B90018374022C
:10054100F0FD121DA190016BE0FBA3E0FAA3E0F91D
:10055100900001120C9E2403FD90016EE0FBA3E0CC
:07056100FAA3E0F9021E19E4
:0B13730090016BEBF0A3EAF0A3E9F09F
:10137E0090000E120DCF90016FEBF0A3EAF0A3E9EF
:10138E00F090016BE0FBA3E0FAA3E0F990000C12E1
:10139E000C9E540F1425E0900172F090003AE0F488
:1013AE007068FFFE122002E4FDFFFE121FA0E4FF94
:1013BE00FE121FD290003AEFF0E490003FF0FF7E55
:1013CE000612200290016BE0FBA3E0FAA3E0F99075
:1013DE00000C120C9E540FFD7F007E06121FA07F84
:1013EE00007E06121FD2900002EFF0900000E0FF88
:1013FE00900002E0C45470FEEF4E900000F0E0FF4B
:10140E00A3E0900038CFF0A3EFF0900005E0C39476
:10141E000440030214AF7F007E08122002900005E4
:10142E00E0FD7F007E08121FA0900005E024FE6004
:10143E0009146006240270078000E4900173F09096
:10144E000173E0FF7E00122002900173E0FF7E0028
:10145E00900172E0FD121FA0900172E0603DE490D9
:10146E00016EF0900172E0FF90016EE0FEC39F509E
:10147E002AEEFF900173E02FFFE433FE90016FE040
:10148E00FBA3E475F001120D32A9F0FA120C85FDE2
:10149E00121FA090016EE004F080C8900005E004D9
:1014AE00F090016BE0FBA3E0FAA3E0F99000037467
:1014BE0082120D109001777401F0A37401F0A374E1
:0E14CE0026F01205687BFF7A1B7971021F6CF5
:1020520090016E7401F0A37401F0A37426F00200E3
:012062002657
:0B097900900172EBF0A3EAF0A3E9F09C
:10098400E4FEFD900178F0900172E0FBA3E0FAA38D
:10099400E0F9120C85FF900175E0FBA3E0FAA3E0F7
:1009A400F9EF120CFE900172E0FBA3E0FAA3E0F968
:1009B400900001120C9EFF900175E0FBA3E0FAA3E6
:1009C400E0F9900001EF120D10900172E0FBA3E03A
:1009D400FAA3E0F9900002120C9EFF900175E0FB6F
:1009E400A3E0FAA3E0F9900002EF120D1090017257
:1009F400E0FBA3E0FAA3E0F9900003120C9EFF9041
:100A04000175E0FBA3E0FAA3E0F9900003EF120DF7
:100A140010900172E0FBA3E0FAA3E0F99000041245
:100A24000C9EFF900175E0FBA3E0FAA3E0F99000AF
:100A340004EF120D10900172E0FBA3E0FAA3E0F9B9
:100A4400900005120C9EFF900175E0FBA3E0FAA351
:100A5400E0F9900005EF120D1090000C120C9E545A
:100A64000F1425E0FF900172E0FBA3E0FAA3E0F984
:100A7400900006120C9EFC900175E0FBA3E0FAA323
:100A8400E0F990000CEC120D10900172E0FBA3E071
:100A9400FAA3E0F9900007120C9EFC900175E0FBAC
:100AA400A3E0FAA3E0F990000DEC120D10EF60251D
:100AB400900172E0FBA3E0FAA3E02408F9E43AFA17
:100AC400C003C002C001A3E0FBA3E0FAA3E0F990D5
:100AD400000E120DFFEF2408FE900172E0FBA3E06C
:100AE400FAA3E0F98E82758300120C9EFD900175C5
:100AF400E0FBA3E0FAA3E0F9900006ED120D10EE7E
:100B04002401FDE433FC900172E0FBA3E0FAA3E0CE
:100B1400F98D828C83120C9EFD900175E0FBA3E09D
:100B2400FAA3E0F9900008ED120D10EE2402FDE4A2
:100B340033FC900172E0FBA3E0FAA3E0F98D828C10
:100B440083120C9EFD900175E0FBA3E0FAA3E0F98B
:100B5400900009ED120D10EE2403FDE433FC900126
:100B640072E0FBA3E0FAA3E0F98D828C83120C9E61
:100B7400FD900175E0FBA3E0FAA3E0F990000AED13
:100B8400120D10EE2404FDE433FC900172E0FBA38B
:100B9400E0FAA3E0F98D828C83120C9EFD9001751E
:100BA400E0FBA3E0FAA3E0F990000BED120D109026
:100BB4000001120C9EC39F24F5FD602DAF06EF24A7
:100BC40005FFE433FE900172E0FBA3E0FAA3E02FFB
:100BD400F9EA3EFAC003C002C001A3E0FBA3E0FAB5
:100BE400A3E0F9900011120DFFE4900179F0900157
:100BF40075E0FBA3E0FAA3E0F9900001120C9E2437
:100C040002FFE433FE900179E0C39FEE6480F87440
:100C140080985034900172E0FBA3E0FAA3E0F990CD
:100C24000179E0FFF582758300120C9EFE90017835
:100C3400E02EF07E00E92FF9EE3AFA7D01121F3022
:100C4400900179E004F080A67B017A0179787D0136
:100C5400121F307BFF7A1B795F121F6C900175E0C5
:100C6400FBA3E0FAA3E0F9900008120D48FF9000FE
:100C740000E065F07003A3E06F60037F01227F0052
:010C8400224D
:10191700900168EBF0A3EAF0A3E9F0900168E0FB1F
:10192700A3E0FAA3E0F91217EDEF6071900168E008
:10193700FBA3E0FAA3E0F9121F0EEF6052900168D3
:10194700E0FBA3E0FAA3E0F9900003120C9E24FD4C
:101957006007240270300213737BFF7A1B797C12B5
:101967001F6C900168E0FBA3E0FAA3E0F990000385
:101977007483120D109001777401F0A37401F0A322
:101987007426F00205687BFF7A1B798A021F6C9028
:0E1997000168E0FBA3E0FAA3E0F9122052225F
:030000000219A53D
:0C19A500787FE4F6D8FD7581070219EC8C
:100C8500BB010689828A83E0225002E722BBFE026D
:090C9500E32289828A83E49322A0
:100C9E00BB010CE58229F582E5833AF583E022500B
:100CAE0006E92582F8E622BBFE06E92582F8E22255
:0D0CBE00E58229F582E5833AF583E493226F
:100CCB00BB010FF8E58229F582E5833AF583E0282D
:100CDB00F0225009C58229F8E58226F622BBFE09CF
:100CEB00C58229F8E22582F222F8EA2583F583E909
:030CFB0093282219
:100CFE00BB010689828A83F0225002F722BBFE01D5
:020D0E00F322CE
:100D1000F8BB010DE58229F582E5833AF583E8F019
:100D2000225006E92582C8F622BBFE05E92582C8C5
:020D3000F222AD
:100D3200A3F8E0C5F025F0F0E58215827002158374
:060D4200E0C838F0E822D1
:100D4800BB0110E58229F582E5833AF583E0F5F0E9
:100D5800A3E0225009E92582F886F008E622BBFEC6
:100D68000AE92582F8E2F5F008E222E5832AF5830C
:080D7800E993F5F0A3E99322D1
:100D8000E88FF0A4CC8BF0A42CFCE98EF0A42CFC12
:100D90008AF0EDA42CFCEA8EF0A4CDA8F08BF0A490
:100DA0002DCC3825F0FDE98FF0A42CCD35F0FCEBEF
:100DB0008EF0A4FEA9F0EB8FF0A4CFC5F02ECD39B4
:0F0DC000FEE43CFCEAA42DCE35F0FDE43CFC2221
:101D1E00C2D5E830E70FB2D5E4C39BFBE49AFAE4F0
:101D2E0099F9E498F8EC30E717B2D5121D54120E5B
:101D3E0094E4C39BFBE49AFAE499F9E498F88003DF
:101D4E00120E9430D50DE4C39FFFE49EFEE49DFD7C
:041D5E00E49CFC22E3
:100DCF00BB010DE58229F582E5833AF583020F38E1
:100DDF005007E92582F8020F26BBFE07E92582F8A6
:100DEF00020F4AE58229F582E5833AF583020F5C0B
:100DFF00BB0120E58229F582E5833AF583D0F0D057
:100E0F00E0F8D0E0F9D0E0FAD0E0FBE8C0E0C0F0C5
:100E1F00020F415018E92582F8D083D082D0E0F933
:100E2F00D0E0FAD0E0FBC082C083020F2FBBFE18C8
:100E3F00E92582F8D083D082D0E0F9D0E0FAD0E073
:090E4F00FBC082C083020F532294
:1019B100020F68E493A3F8E493A34003F68001F2D5
:1019C10008DFF48029E493A3F85407240CC8C33337
:1019D100C4540F4420C8834004F456800146F6DF06
:1019E100E4800B0102040810204080901A31E47E4B
:1019F100019360BCA3FF543F30E509541FFEE493FB
:101A0100A360010ECF54C025E060A840B8E493A3C1
:101A1100FAE493A3F8E493A3C8C582C8CAC583CAEC
:101A2100F0A3C8C582C8CAC583CADFE9DEE780BEA4
:011ABA00002B
:100E580075F008758200EF2FFFEE33FECD33CDCC51
:100E680033CCC58233C5829BED9AEC99E5829840D4
:100E78000CF582EE9BFEED9AFDEC99FC0FD5F0D6B1
:100E8800E4CEFBE4CDFAE4CCF9A88222B800C1B9DB
:100E98000059BA002DEC8BF084CFCECDFCE5F0CB19
:100EA800F97818EF2FFFEE33FEED33FDEC33FCEB52
:100EB80033FB10D703994004EB99FB0FD8E5E4F90D
:100EC800FA227818EF2FFFEE33FEED33FDEC33FCFA
:100ED800C933C910D7059BE99A4007EC9BFCE99AEE
:100EE800F90FD8E0E4C9FAE4CCFB2275F010EF2F33
:100EF800FFEE33FEED33FDCC33CCC833C810D70733
:100F08009BEC9AE899400AED9BFDEC9AFCE899F86D
:0E0F18000FD5F0DAE4CDFBE4CCFAE4C8F92200
:090F2600E6FB08E6FA08E6F922F0
:090F2F00EBF608EAF608E9F622E7
:090F3800E0FBA3E0FAA3E0F922BA
:090F4100EBF0A3EAF0A3E9F022B1
:090F4A00E2FB08E2FA08E2F922D8
:090F5300EBF208EAF208E9F222CF
:0C0F5C00E493FB740193FA740293F922F1
:00000001FF
