:03000E00D28A2271
:07000300C284C281D28422F5
:100F6500759850438920758DFD758BFDD28EC2AB6A
:030F7500D2AC22D9
:100E9500C2AC1202CB6010F5993099FDC29974016C
:0A0EA50029F9E43AFA80EBD2AC22FE
:100E34007F017E00120DDC12000E120F65120003FA
:100E4400120E0D120E0D120E0B120E0D120E0B12AF
:050E54000E0DB2A32207
:100DA900E4FEC281FDEF30E704D2808002C280EF09
:100DB90025E0FFD281000000000000EE25E0FE30B2
:100DC90082010EC2810000000000000DEDB408D5BB
:020DD900AF0663
:010DDB0022F5
:100DDC00E4FDFCFB7AC079A8F812035BE47B0CFA07
:100DEC00F9F8120C37E47BE87A03F9F8120C37C3E4
:0E0DFC00E49FFDE49E4389018D8AF58CD2A907
:010E0A0022C5
:100E5900C2ACAF051DEF60131202CBF5993099FDB5
:0E0E6900C299740129F9E43AFA80E7D2AC226A
:060E0B00B2A37F507EC37C
:100E1100E4FDFCC3ED9FEC9E50070DBD00010C806D
:100E2100F2E4FCFDC3ED9FEC9E50070DBD00010CEB
:020E310080F24D
:010E3300229C
:03002300020BF0DD
:100BF000C0E0C083C082C0D03098339000CCE024E5
:100C00008BF582E43400F583E599F090008BE06485
:100C1000AA60079000CCE4F080129000CCE004F0D1
:100C2000E0D3940A40069000237455F0C298D0D0C7
:070C3000D082D083D0E03236
:03000B00020ADE08
:100ADE00C0E0C0F0C083C082C0D075D000C000C0DE
:100AEE0001C002C003C004C005C006C0077F017E5E
:100AFE0000120DDC900022E004F07006900021E060
:100B0E0004F0C3900022E09410900021E09427405E
:100B1E000F90000BE4F0B2A2900021F0A3F0C28C73
:100B2E00D007D006D005D004D003D002D001D0001B
:0B0B3E00D0D0D082D083D0F0D0E032C5
:0D001600E4F5C7F5C5F5C675C380F5C42235
:100EE10075C78275C5018FC4EEF5C375C65A75C63F
:070EF100A500AFC2120016BC
:010EF80022D7
:100EAF0075C78275C5028FC4EEF5C3AF058FC275C6
:090EBF00C65A75C6A50002001612
:100F280075C78275C5038FC4EEF5C375C65A75C6F5
:050F3800A500020016F7
:100CFB003320616E64206372630A004352432065A4
:100D0B0072726F720A002020776879204E6F742000
:100D1B006D650A004C656E677468213D320A004EA2
:0B0D2B006F74207061636B65740A0038
:100EC800000000000000000000000000000000EF2B
:090ED8001F70011E144E70E82287
:100F7800C2842082FD7F30120DA92082FDD28422F6
:100E7700D2847F0A7E00120EC8C2847F0A7E0012C7
:0E0E87000EC8D2847F9A7E01120EC8020F7828
:100EF900900105EDF0C2842082FD120DA990010533
:080F0900E0FF120DA9D28422C1
:0B0BA6009000FCEBF0A3EAF0A3E9F0E4
:100BB100EF4440FFC2842082FD120DA9E4900100A0
:100BC100F09000FFE0FFA3E0FEC39F501F9000FCE8
:100BD100E0FBA3E0FAA3E0F98E827583001202E440
:0E0BE100FF120DA9900100E004F080D5D2842F
:010BEF0022E3
:0B0F9500C2842082FD120DA9D284222C
:100F3D00EF4480FFC2842082FD120DA9E4FF120D43
:030F4D00A9D284A2
:010F5000227E
:0E0B49007A0079E87B0174029000D6F07F3FBD
:0B0B57009000D3EBF0A3EAF0A3E9F05C
:100B6200EF44C0FFC2842082FD120DA9E49000D799
:100B7200F09000D6E0FFA3E0C39F5025E4FF120DE2
:100B8200A99000D3E0FBA3E0FAA3E0F99000D7E03C
:100B9200F582758300EF1203239000D7E004F08002
:030BA200D0D2842A
:010BA500222D
:100F5100EF44C0FFC2842082FD120DA9E4FF120DEF
:030F6100A9D2848E
:010F6400226A
:1004EC00900041E0FDE4FF120EF9900042E0FD7F28
:1004FC0002120EF9900024E0FD7F0C120EF9900010
:10050C0025E0FD7F0B120EF9900026E0FD7F0C120A
:10051C000EF9900027E0FD7F0D120EF9900028E0F7
:10052C00FD7F0E120EF9900029E0FD7F0F120EF9DF
:10053C0090002AE0FD7F10120EF990002BE0FD7F59
:10054C0011120EF990002CE0FD7F12120EF99000A2
:10055C002DE0FD7F13120EF990002EE0FD7F14129A
:10056C000EF990002FE0FD7F0A120EF9900030E09A
:10057C00FD7F15120EF9900031E0FD7F21120EF96E
:10058C00900032E0FD7F22120EF9900033E0FD7FE7
:10059C0018120EF9900034E0FD7F19120EF990003C
:1005AC0035E0FD7F1A120EF9900036E0FD7F1B122C
:1005BC000EF9900037E0FD7F1C120EF9900038E028
:1005CC00FD7F1D120EF9900039E0FD7F23120EF90C
:1005DC0090003AE0FD7F24120EF990003BE0FD7F85
:1005EC0025120EF990003CE0FD7F26120EF99000CA
:1005FC003DE0FD7F29120EF990003EE0FD7F2C12AC
:10060C000EF990003FE0FD7F2D120EF9900040E0B6
:10061C00FD7F2E120EF9900043E0FD7F07120EF9BC
:10062C00900044E0FD7F08120EF9900045E0FD7F3C
:0E063C0009120EF9900046E0FD7F06020EF94D
:100D7000900101EBF0A3EAF0A3E9F0A3EDF07F3FCF
:100D8000120EF9900101E0FBA3E0FAA3E0F9A3E061
:100D90009000FFF07F3F120BA67F35120F9530B306
:090DA000FD20B3FD7F3B020F951D
:0B075A009000DBEBF0A3EAF0A3E9F055
:10076500A3E0FBA3E0FAA3E0F91202CB25E025E024
:100775009000E4F07F34120F957F147E00120E1165
:1007850030B3167F147E00120E119000E4E014F0D1
:10079500E0C3940150EA7F00227F3B120F51EF54D2
:1007A5007F70030208327F3F120F3D9000E3EFF0A8
:1007B5009000DEE0FBA3E0FAA3E0F91202CBFEEF26
:1007C500D39E504D9000DBE0FBA3E0FAA3E0F99047
:1007D50000E3E0120B519000E3E0FF9000DEE0FB48
:1007E500A3E0FAA3E0F9EF1203119000DBE0FBA30D
:1007F500E0FAA3E0F99000E3E0FD120E597A0079E2
:10080500E1120B4D7F3A120F959000E2E05480FF04
:10081500229000E3E0FF9000DEE0FBA3E0FAA3E016
:0F082500F9EF1203117F3A120F957F00227F0027
:0108340022A1
:0B064A009000E5EBF0A3EAF0A3E9F05C
:10065500E49000ECF07F34120F957F3B120F51EFC1
:10066500547F70030207577F3F120F3D9000ECEF58
:10067500F07F647E00120E119000ECE0FFD394022F
:10068500404C9000E5E0FBA3E0FAA3E0F9EF120B84
:1006950051120B497F3A120F959000E9E030E7229D
:1006A5009000E5E0FBA3E0FAA3E0F99000ECE0FDA3
:1006B500120E597B017A00790D7D0D120D70B2A2D3
:1006C50080667BFF7A0C79FB120E957F00229000E5
:1006D500ECE0FF640270737B017A0079EA9000D642
:1006E500EFF07F3F120B579000EAE0FFB4FF05A340
:1006F500E0F46011900000E06F703BA3E0FF900014
:10070500EBE06F7031120B497F3A120F959000E9BB
:10071500E030E71A7F3A120F95E4900021F0A3F03C
:100725007F01FE120DDCD28C9000ECE0FF227BFFF6
:100735007A0D790680117B017A0079EA7D02120E25
:10074500597BFF7A0D7911120E957F3A120F957F1D
:0407550000227F00FF
:01075900227D
:100835007F34120F957F3B120F51EF547F700302E7
:1008450008EE7F3F120F3D9000D1EFF0E0FF64020C
:1008550060030208D87B017A0079CD9000D6EFF0CD
:100865007F3F120B579000CDE0FFB4FF05A3E0F4E6
:100875006011900000E06F7047A3E0FF9000CEE0AC
:100885006F703D7B017A0079CF120B4F7F3A120FC3
:10089500959000D0E030E7207F3A120F9590000B3D
:1008A5007455F0E4900021F0A3F07F01FE120DDCF9
:1008B500D28C9000D1E0FF227BFF7A0D7906802F44
:1008C5007B017A0079CD7D02120E597BFF7A0D7975
:1008D50011801C7BFF7A0D791F120E957B017A0022
:1008E50079D17D01120E5980097BFF7A0D792A1283
:1008F5000E957F3A120F957F3C120F957F38120F98
:0509050095D2AA7F005D
:01090A0022CA
:100D36007F36120F95E4FD7F16120EF97D187F1887
:100D4600120EF97D287F1E120EF97DA07F1F120E4E
:100D5600F97D787F20120EF97F3A120F957F3C12AB
:0A0D66000F957F38120F957F0122D0
:03001300020C7B61
:100C7B00C0E0C0F0C083C082C0D075D000C000C03F
:100C8B0001C002C003C004C005C006C007C2AA53FE
:100C9B0087FDB2A0120835D007D006D005D004D0FE
:100CAB0003D002D001D000D0D0D082D083D0F0D0EE
:020CBB00E03225
:0E0CBD009000EDEBF0A3EAF0A3E9F0A3EDF058
:100CCB00A3E075F030A4FFA3E5F0F0A3EFF09000E4
:100CDB00F274FFF5F012034545F060139000EDE060
:0F0CEB00FBA3E0FAA3E0F9A3E0FD120D7080DF98
:010CFA0022D7
:0D0F88004572726F7220454550524F4D006A
:100A6A004200210000410049004100CB004100CC76
:100A7A00004100020041000B004100230041004AEE
:100A8A000041000C00420047FFFF54000D53656E01
:100A9A0064205061636B6574000000000000000070
:100AAA0000480003C0C0C0C0C0C0C0C0602300244A
:100ABA0000080010A7625BF80322F80347B6101873
:100ACA001D1CC700B2EA2A0011598135090B060418
:030ADA000500FF15
:10090B00120F65B2A37F507EC3120E11E4FFFE12CD
:10091B000F28E49000D8F0A3F09000D8E0FEA3E0FD
:10092B00FFC3EE9402501A120EE1EFF460030209BA
:10093B00D39000D9E004F070E09000D8E004F08090
:10094B00D8B2A27F507EC3120E11E49000D8F0A350
:10095B00F09000D8E0FEA3E0FFFD120EAF9000D99F
:10096B00E004F070069000D8E004F0C39000D8E0EB
:10097B00940240DDB2A17F507EC3120E11E49000B1
:10098B00D8F0A3F09000D8E0FEA3E0FFC3EE9402F2
:10099B00502B120EE19000DAEFF09000D8A3E0B5E7
:1009AB0007267B017A0079DA7D01120E599000D966
:1009BB00E004F070CF9000D8E004F080C7B2A07FC5
:1009CB00507EC3120E1180FE7BFF7A0F7988120EB8
:0309DB009580FE06
:100F11004E6F7420526F75746520696E666F726DC5
:070F21006174696F6E0A00A4
:060FA00090000B0202E4C8
:0B0026009000F4EBF0A3EAF0A3E9F077
:10003100E4FE9000FAF09000F4E0FBA3E0FAA3E004
:10004100F91202CBFF9000F7E0FBA3E0FAA3E0F97D
:10005100EF1203119000F4E0FBA3E0FAA3E0F990A2
:1000610000011202E4FF9000F7E0FBA3E0FAA3E035
:10007100F9900001EF1203239000F4E0FBA3E0FAF2
:10008100A3E0F99000021202E4FF9000F7E0FBA365
:10009100E0FAA3E0F9900002EF1203239000F4E0EC
:1000A100FBA3E0FAA3E0F99000031202E4FF900041
:1000B100F7E0FBA3E0FAA3E0F9900003EF120323BA
:1000C1009000F4E0FBA3E0FAA3E0F990000412022F
:1000D100E4FF9000F7E0FBA3E0FAA3E0F99000044D
:1000E100EF12032390000B1202E4540F25E0FF905E
:1000F10000F4E0FBA3E0FAA3E0F99000051202E4AA
:10010100FD9000F7E0FBA3E0FAA3E0F990000BED0E
:100111001203239000F4E0FBA3E0FAA3E0F99000BE
:10012100061202E4FD9000F7E0FBA3E0FAA3E0F978
:1001310090000CED120323EF60259000F4E0FBA387
:10014100E0FAA3E02407F9E43AFAC003C002C001CF
:10015100A3E0FBA3E0FAA3E0F990000D1203AAEFDC
:100161002407FE9000F4E0FBA3E0FAA3E0F98E82FD
:100171007583001202E4FD9000F7E0FBA3E0FAA30F
:10018100E0F9900005ED120323EE2401FDE433FCB8
:100191009000F4E0FBA3E0FAA3E0F98D828C8312D6
:1001A10002E4FD9000F7E0FBA3E0FAA3E0F9900080
:1001B10007ED120323EE2402FDE433FC9000F4E08A
:1001C100FBA3E0FAA3E0F98D828C831202E4FD9097
:1001D10000F7E0FBA3E0FAA3E0F9900008ED1203B9
:1001E10023EE2403FDE433FC9000F4E0FBA3E0FAEA
:1001F100A3E0F98D828C831202E4FD9000F7E0FB0D
:10020100A3E0FAA3E0F9900009ED120323EE240420
:10021100FDE433FC9000F4E0FBA3E0FAA3E0F98DE8
:10022100828C831202E4FD9000F7E0FBA3E0FAA3C5
:10023100E0F990000AED1203239000011202E4C3D9
:100241009F24F69000FAF0AF06EF2405FFE433FE99
:100251009000F4E0FBA3E0FAA3E02FF9EA3EFAC034
:1002610003C002C001A3E0FBA3E0FAA3E0F9900000
:10027100101203AA9000F7E0FBA3E0FAA3E0F990C3
:1002810000031202E424FE601C2481600A1460232E
:100291002481702D120FA09000F7E0FBA3E0FAA3D8
:1002A100E0F91200009000F7E0FBA3E0FAA3E0F907
:1002B1001200009000F7E0FBA3E0FAA3E0F91200BE
:0A02C100007BFF7A0F7911020E9501
:030000000209DE14
:0C09DE00787FE4F6D8FD758107020A2539
:1002CB00BB010689828A83E0225002E722BBFE0231
:0902DB00E32289828A83E4932264
:1002E400BB010CE58229F582E5833AF583E02250CF
:1002F40006E92582F8E622BBFE06E92582F8E22219
:0D030400E58229F582E5833AF583E4932232
:10031100BB010689828A83F0225002F722BBFE01CB
:02032100F322C5
:10032300F8BB010DE58229F582E5833AF583E8F010
:10033300225006E92582C8F622BBFE05E92582C8BC
:02034300F222A4
:10034500A3F8E0C5F025F0F0E5821582700215836B
:06035500E0C838F0E822C8
:10035B00E88FF0A4CC8BF0A42CFCE98EF0A42CFC41
:10036B008AF0EDA42CFCEA8EF0A4CDA8F08BF0A4BF
:10037B002DCC3825F0FDE98FF0A42CCD35F0FCEB1E
:10038B008EF0A4FEA9F0EB8FF0A4CFC5F02ECD39E3
:0F039B00FEE43CFCEAA42DCE35F0FDE43CFC2250
:100C3700C2D5E830E70FB2D5E4C39BFBE49AFAE4E8
:100C470099F9E498F8EC30E717B2D5120C6D120455
:100C57003FE4C39BFBE49AFAE499F9E498F880032C
:100C670012043F30D50DE4C39FFFE49EFEE49DFDD3
:040C7700E49CFC22DB
:1003AA00BB0120E58229F582E5833AF583D0F0D0B6
:1003BA00E0F8D0E0F9D0E0FAD0E0FBE8C0E0C0F025
:1003CA000204DA5018E92582F8D083D082D0E0F905
:1003DA00D0E0FAD0E0FBC082C0830204D1BBFE1891
:1003EA00E92582F8D083D082D0E0F9D0E0FAD0E0D3
:0903FA00FBC082C0830204E3226F
:1009EA0002090BE493A3F8E493A34003F68001F20F
:1009FA0008DFF48029E493A3F85407240CC8C3330E
:100A0A00C4540F4420C8834004F456800146F6DFDC
:100A1A00E4800B0102040810204080900A6AE47EF8
:100A2A00019360BCA3FF543F30E509541FFEE493D1
:100A3A00A360010ECF54C025E060A840B8E493A398
:100A4A00FAE493A3F8E493A3C8C582C8CAC583CAC3
:100A5A00F0A3C8C582C8CAC583CADFE9DEE780BE7B
:010ADD000018
:1004030075F008758200EF2FFFEE33FECD33CDCCB0
:1004130033CCC58233C5829BED9AEC99E582984033
:100423000CF582EE9BFEED9AFDEC99FC0FD5F0D610
:10043300E4CEFBE4CDFAE4CCF9A88222B800C1B93A
:100443000059BA002DEC8BF084CFCECDFCE5F0CB78
:10045300F97818EF2FFFEE33FEED33FDEC33FCEBB1
:1004630033FB10D703994004EB99FB0FD8E5E4F96C
:10047300FA227818EF2FFFEE33FEED33FDEC33FC59
:10048300C933C910D7059BE99A4007EC9BFCE99A4D
:10049300F90FD8E0E4C9FAE4CCFB2275F010EF2F92
:1004A300FFEE33FEED33FDCC33CCC833C810D70792
:1004B3009BEC9AE899400AED9BFDEC9AFCE899F8CD
:0E04C3000FD5F0DAE4CDFBE4CCFAE4C8F92260
:0904D100EBF608EAF608E9F62250
:0904DA00EBF0A3EAF0A3E9F02223
:0904E300EBF208EAF208E9F2224A
:00000001FF
