:03000E00D28A2271
:07000300C284C281D28422F5
:100B9500759850438920758DFD758BFDD28EC2AB3E
:030BA500D2AC22AD
:100B2200C2AC1200266010F5993099FDC299740189
:0A0B320029F9E43AFA80EBD2AC2274
:100AC1007F017E00120A6912000E120B95120003BB
:100AD100120A9A120A9A120A98120A9A120A981279
:050AE1000A9AB2A322F5
:100A3600E4FEC281FDEF30E704D2808002C280EF7F
:100A460025E0FFD281000000000000EE25E0FE3028
:100A560082010EC2810000000000000DEDB408D531
:020A6600AF06D9
:010A6800226B
:100A6900E4FDFCFB7AC079A8F81200B6E47B0CFA25
:100A7900F9F81208C4E47BE87A03F9F81208C4C348
:0E0A8900E49FFDE49E4389018D8AF58CD2A97D
:010A9700223C
:100AE600C2ACAF051DEF6013120026F5993099FDD3
:0E0AF600C299740129F9E43AFA80E7D2AC22E1
:060A9800B2A37F507EC3F3
:100A9E00E4FDFCC3ED9FEC9E50070DBD00010C80E4
:100AAE00F2E4FCFDC3ED9FEC9E50070DBD00010C62
:020ABE0080F2C4
:010AC0002213
:0300230002087D53
:10087D00C0E0C083C082C0D03098339000CCE0245B
:10088D008BF582E43400F583E599F090008BE064FC
:10089D00AA60079000CCE4F080129000CCE004F048
:1008AD00E0D3940A40069000237455F0C298D0D03E
:0708BD00D082D083D0E032AD
:03000B0002070FDA
:10070F00C0E0C0F0C083C082C0D075D000C000C0B0
:10071F0001C002C003C004C005C006C0077F017E30
:10072F0000120A69900022E004F07006900021E0A8
:10073F0004F0C3900022E09410900021E094274031
:10074F000F90000BE4F0B2A2900021F0A3F0C28C46
:10075F00D007D006D005D004D003D002D001D000EE
:0B076F00D0D0D082D083D0F0D0E03298
:100988003320616E64206372630A0043524320651A
:1009980072726F720A002020776879204E6F742077
:1009A8006D650A004C656E677468213D320A004E19
:0B09B8006F74207061636B65740A00AF
:100B3C00000000000000000000000000000000EFBA
:090B4C001F70011E144E70E82216
:100BBB00C2842082FD7F30120A362082FDD284222D
:100B0400D2847F0A7E00120B3CC2847F0A7E0012CC
:0E0B14000B3CD2847F9A7E01120B3C020BBB7D
:100B55009000E5EDF0C2842082FD120A369000E592
:080B6500E0FF120A36D28422DF
:0B0833009000E6EBF0A3EAF0A3E9F070
:10083E00EF4440FFC2842082FD120A36E49000EAA3
:10084E00F09000E9E0FFA3E0FEC39F501F9000E68A
:10085E00E0FBA3E0FAA3E0F98E8275830012003F5D
:0E086E00FF120A369000EAE004F080D5D28432
:01087C002259
:0B001600C2842082FD120A36D2842230
:100B6D00EF4480FFC2842082FD120A36E4FF120A90
:030B7D0036D284E9
:010B80002252
:0E077A007A0079DC7B0174029000E5F07F3F8D
:0B0788009000E2EBF0A3EAF0A3E9F020
:10079300EF44C0FFC2842082FD120A36E49000E6D3
:1007A300F09000E5E0FFA3E0C39F5025E4FF120AA9
:1007B300369000E2E0FBA3E0FAA3E0F99000E6E064
:1007C300F582758300EF12007E9000E6E004F0806E
:0307D300D0D284FD
:0107D6002200
:100B8100EF44C0FFC2842082FD120A36E4FF120A3C
:030B910036D284D5
:010B9400223E
:1001D300900041E0FDE4FF120B55900042E0FD7FEB
:1001E30002120B55900024E0FD7F0C120B5590007A
:1001F30025E0FD7F0B120B55900026E0FD7F0C12CE
:100203000B55900027E0FD7F0D120B55900028E061
:10021300FD7F0E120B55900029E0FD7F0F120B5549
:1002230090002AE0FD7F10120B5590002BE0FD7F1C
:1002330011120B5590002CE0FD7F12120B5590000C
:100243002DE0FD7F13120B5590002EE0FD7F14125D
:100253000B5590002FE0FD7F0A120B55900030E004
:10026300FD7F15120B55900031E0FD7F21120B55D8
:10027300900032E0FD7F22120B55900033E0FD7FAA
:1002830018120B55900034E0FD7F19120B559000A6
:1002930035E0FD7F1A120B55900036E0FD7F1B12EF
:1002A3000B55900037E0FD7F1C120B55900038E092
:1002B300FD7F1D120B55900039E0FD7F23120B5576
:1002C30090003AE0FD7F24120B5590003BE0FD7F48
:1002D30025120B5590003CE0FD7F26120B55900034
:1002E3003DE0FD7F29120B5590003EE0FD7F2C126F
:1002F3000B5590003FE0FD7F2D120B55900040E021
:10030300FD7F2E120B55900043E0FD7F07120B5526
:10031300900044E0FD7F08120B55900045E0FD7FFF
:0E03230009120B55900046E0FD7F06020B55B7
:1009FD009000E1EBF0A3EAF0A3E9F0A3EDF07F3F67
:100A0D00120B559000E1E0FBA3E0FAA3E0F9A3E09F
:100A1D009000E9F07F3F1208337F3512001630B396
:090A2D00FD20B3FD7F3B02001621
:0B052F009000EBEBF0A3EAF0A3E9F072
:10053A00A3E0FBA3E0FAA3E0F912002625E025E0F8
:10054A009000F4F07F341200167F147E00120A9E87
:10055A0030B3167F147E00120A9E9000F4E014F065
:10056A00E0C3940150EA7F00227F3B120B81EF54D3
:10057A007F70030206077F3F120B6D9000F3EFF0C6
:10058A009000EEE0FBA3E0FAA3E0F9120026FEEFEA
:10059A00D39E504D9000EBE0FBA3E0FAA3E0F99064
:1005AA0000F3E01207829000F3E0FF9000EEE0FB18
:1005BA00A3E0FAA3E0F9EF12006C9000EBE0FBA3D2
:1005CA00E0FAA3E0F99000F3E0FD120AE67A007976
:1005DA00F112077E7F3A1200169000F2E05480FF73
:1005EA00229000F3E0FF9000EEE0FBA3E0FAA3E024
:0F05FA00F9EF12006C7F3A1200167F00227F008B
:0106090022CE
:0B0331009000D9EBF0A3EAF0A3E9F084
:10033C00E49000E0F07F341200167F3B120B81EF4B
:10034C00547F700302044C7F3F120B6D9000E0EF62
:10035C00F07F647E00120A9E9000E0E0FFD39402CE
:10036C00404D9000D9E0FBA3E0FAA3E0F9EF1207AF
:10037C008212077A7F3A1200169000DDE030E723F4
:10038C009000D9E0FBA3E0FAA3E0F99000E0E0FDD7
:10039C00120AE67B017A00790D7D0D1209FDB2A2DD
:1003AC000204227BFF7A097988120B227F002290AB
:1003BC0000E0E0FF640260030204447B017A0079F0
:1003CC00DE9000E5EFF07F3F1207889000DEE0FF43
:1003DC00B4FF05A3E0F4601B900000E0FCA3E06F09
:1003EC007001EC703FECFF9000DFE0FDEF6D7001F1
:1003FC00E4703112077A7F3A1200169000DDE0307B
:10040C00E71A7F3A120016E4900021F0A3F07F0166
:10041C00FE120A69D28C9000E0E0FF227BFF7A0981
:10042C00799380117B017A0079DE7D02120AE67BDA
:10043C00FF7A09799E120B227F3A1200167F002256
:02044C007F002F
:01044E00228B
:10044F007F341200167F3B120B81EF547F70030233
:10045F0005127F3F120B6D9000D1EFF0E0FF6402A9
:10046F0060030204FC7B017A0079CD9000E5EFF088
:10047F007F3F1207889000CDE0FFB4FF05A3E0F4A3
:10048F00601B900000E0FCA3E06F7001EC704BEC80
:10049F00FF9000CEE0FDEF6D7001E4703D7B017ABF
:1004AF000079CF1207807F3A1200169000D0E0300B
:1004BF00E7207F3A12001690000B7455F0E490007D
:1004CF0021F0A3F07F01FE120A69D28C9000D1E0D7
:1004DF00FF227BFF7A097993802F7B017A0079CDF8
:1004EF007D02120AE67BFF7A09799E801C7BFF7AD8
:1004FF000979AC120B227B017A0079D17D01120AA6
:10050F00E680097BFF7A0979B7120B227F3A120036
:0F051F00167F3C1200167F38120016D2AA7F00FA
:01052E0022AA
:1009C3007F36120016E4FD7F16120B557D187F1833
:1009D300120B557D287F1E120B557DA07F1F120B16
:1009E300557D787F20120B557F3A1200167F3C12FB
:0A09F30000167F381200167F012263
:03001300020908D7
:10090800C0E0C0F0C083C082C0D075D000C000C0B5
:1009180001C002C003C004C005C006C007C2AA5374
:1009280087FDB2A012044FD007D006D005D004D05E
:1009380003D002D001D000D0D0D082D083D0F0D064
:02094800E0329B
:0E094A009000F5EBF0A3EAF0A3E9F0A3EDF0C6
:10095800A3E075F030A4FFA3E5F0F0A3EFF090005A
:10096800FA74FFF5F01200A045F060139000F5E06E
:0F097800FBA3E0FAA3E0F9A3E0FD1209FD80DF85
:01098700224D
:100BA800696E697469616C697A6174696F6E206FC6
:030BB8006B0A00C5
:1006960042000000004200210000410049004100E4
:1006A600CB004100CC004100020041000B0041009C
:1006B600230041004A0041000C00420047FFFF545E
:1006C600000D53656E64205061636B657400000015
:1006D600000000000000480003C0C0C0C0C0C0C089
:1006E600C06023002400080010A7625BF80322F80C
:1006F6000347B610181D1CC700B2EA2A001159811B
:0807060035090B06040500FF94
:1007D700E49000D8F09000CB7437F0120AC1120BE6
:1007E700041201D37B017A0079039000E97408F0C1
:1007F7007F3E1208331209C37BFF7A0B79A8120BCD
:1008070022D2AFD2AA43870290000BE0B4551190D1
:10081700000BE0600B7B017A00794B12033180EF0C
:0C0827007F3C1200167F3812001680D7AC
:0300000002060AEB
:0C060A00787FE4F6D8FD758107020651E8
:10002600BB010689828A83E0225002E722BBFE02D8
:09003600E32289828A83E493220B
:10003F00BB010CE58229F582E5833AF583E0225076
:10004F0006E92582F8E622BBFE06E92582F8E222C0
:0D005F00E58229F582E5833AF583E49322DA
:10006C00BB010689828A83F0225002F722BBFE0173
:02007C00F3226D
:10007E00F8BB010DE58229F582E5833AF583E8F0B8
:10008E00225006E92582C8F622BBFE05E92582C864
:02009E00F2224C
:1000A000A3F8E0C5F025F0F0E58215827002158313
:0600B000E0C838F0E82270
:1000B600E88FF0A4CC8BF0A42CFCE98EF0A42CFCE9
:1000C6008AF0EDA42CFCEA8EF0A4CDA8F08BF0A467
:1000D6002DCC3825F0FDE98FF0A42CCD35F0FCEBC6
:1000E6008EF0A4FEA9F0EB8FF0A4CFC5F02ECD398B
:0F00F600FEE43CFCEAA42DCE35F0FDE43CFC22F8
:1008C400C2D5E830E70FB2D5E4C39BFBE49AFAE45F
:1008D40099F9E498F8EC30E717B2D51208FA120146
:1008E40041E4C39BFBE49AFAE499F9E498F88003A1
:1008F40012014130D50DE4C39FFFE49EFEE49DFD4B
:04090400E49CFC2251
:100616000207D7E493A3F8E493A34003F68001F21C
:1006260008DFF48029E493A3F85407240CC8C333E5
:10063600C4540F4420C8834004F456800146F6DFB4
:10064600E4800B0102040810204080900696E47EA8
:10065600019360BCA3FF543F30E509541FFEE493A9
:10066600A360010ECF54C025E060A840B8E493A370
:10067600FAE493A3F8E493A3C8C582C8CAC583CA9B
:10068600F0A3C8C582C8CAC583CADFE9DEE780BE53
:01070E0000EA
:1001050075F008758200EF2FFFEE33FECD33CDCCB1
:1001150033CCC58233C5829BED9AEC99E582984034
:100125000CF582EE9BFEED9AFDEC99FC0FD5F0D611
:10013500E4CEFBE4CDFAE4CCF9A88222B800C1B93B
:100145000059BA002DEC8BF084CFCECDFCE5F0CB79
:10015500F97818EF2FFFEE33FEED33FDEC33FCEBB2
:1001650033FB10D703994004EB99FB0FD8E5E4F96D
:10017500FA227818EF2FFFEE33FEED33FDEC33FC5A
:10018500C933C910D7059BE99A4007EC9BFCE99A4E
:10019500F90FD8E0E4C9FAE4CCFB2275F010EF2F93
:1001A500FFEE33FEED33FDCC33CCC833C810D70793
:1001B5009BEC9AE899400AED9BFDEC9AFCE899F8CE
:0E01C5000FD5F0DAE4CDFBE4CCFAE4C8F92261
:00000001FF
