:0D001600E4F5C7F5C5F5C675C380F5C42235
:1020650075C78275C5018FC4EEF5C375C65A75C6A9
:07207500A500AFC212001626
:01207C002241
:1020330075C78275C5028FC4EEF5C3AF058FC27530
:09204300C65A75C6A5000200167C
:1020950075C78275C5038FC4EEF5C375C65A75C677
:0520A500A50002001679
:0F1DA60090013CEBF0A3EAF0A3E9F0AD07AC0627
:101DB500E4A3F090013FE0FFC394025027EF2DFF0D
:101DC500E43CFE12206590013CE0FBA3E0FAA3E0B1
:101DD500F9A3E0F582758300EF120D0890013FE04D
:041DE50004F080CFB7
:011DE90022D7
:0F1CCB00900174EBF0A3EAF0A3E9F0AD07AC06CB
:101CDA00E4900178F0900177E0FFA3E0FEC39F5003
:101CEA0029EE2DFFE43CFE122065900174E0FBA36F
:101CFA00E0FAA3E0F9900178E0F582758300EF122B
:0A1D0A000D08900178E004F080CB92
:011D140022AC
:03000E00D28A2271
:07000300C284C281D28422F5
:1020D200759850438920758DFD758BFDD28EC2ABEC
:0320E200D2AC225B
:101FFF00C2AC120C7D6010F5993099FDC299740135
:0A200F0029F9E43AFA80EBD2AC2282
:101E2E007B017A0079007F007E04121DA67B017A69
:101E3E0000793D7F007E02121DA67F017E00121FDB
:101E4E004912000E1220D2120003121F7A121F7AAC
:0F1E5E00121F78121F7A121F78121F7AB2A32256
:101EE500E4FEC281FDEF30E704D2808002C280EFBC
:101EF50025E0FFD281000000000000EE25E0FE3065
:101F050082010EC2810000000000000DEDB408D56D
:021F1500AF0615
:011F170022A7
:101F4900E4FDFCFB7AC079A8F8120D78E47B0CFA61
:101F5900F9F8121DEAE47BE87A03F9F8121DEAC3DD
:0E1F6900E49FFDE49E4389018D8AF58CD2A988
:011F77002247
:101FC300C2ACAF051DEF6013120C7DF5993099FD7E
:0E1FD300C299740129F9E43AFA80E7D2AC22EF
:061F7800B2A37F507EC3FE
:101F7E00E4FDFCC3ED9FEC9E50070DBD00010C80EF
:101F8E00F2E4FCFDC3ED9FEC9E50070DBD00010C6D
:021F9E0080F2CF
:011FA000221E
:03002300021D5F5C
:101D5F00C0E0C083C082C0D03098339000E5E0244B
:101D6F0064F582E43400F583E599F0900064E06453
:101D7F00AA60079000E5E4F080129000E5E004F01F
:101D8F00E0D3940A40069000127455F0C298D0D058
:071D9F00D082D083D0E032B6
:03000B00021BAC29
:101BAC00C0E0C0F0C083C082C0D075D000C000C0FF
:101BBC0001C002C003C004C005C006C00790003FAE
:101BCC00E0B4FF047F0A80027F017E00121F49905F
:101BDC000011E004F07006900010E004F0C39000D7
:101BEC0011E094E8900010E09403400D900037E46D
:101BFC00F0900010F0A3F0C28CD007D006D005D026
:101C0C0004D003D002D001D000D0D0D082D083D069
:041C1C00F0D0E032F2
:101A910020204973204D6520646174612020004538
:101AA10072726F7220636865636B0A004572726FB0
:101AB100722070726F746F636F6C00646174612067
:101AC100435243206572726F720A003320435243BE
:101AD100206572726F720A002020776879204E6F3C
:101AE10074206D650A0077616B6575702043524300
:101AF100206572726F720A002077616B65757020C4
:101B01004E6F74206D650A004C656E677468213DE7
:0F1B1100320A004E6F74207061636B65740A00B6
:10204C00000000000000000000000000000000EF95
:09205C001F70011E144E70E822F1
:1020F600C2842082FD7F30121EE52082FDD284221A
:101FE100D2847F0A7E0012204CC2847F0A7E0012B6
:0E1FF100204CD2847F9A7E0112204C0220F6F2
:10207D00900162EDF0C2842082FD121EE590016296
:08208D00E0FF121EE5D28422DF
:0B1D1500900163EBF0A3EAF0A3E9F0FB
:101D2000EF4440FFC2842082FD121EE5E49001676B
:101D3000F0900166E0FFA3E0FEC39F501F90016397
:101D4000E0FBA3E0FAA3E0F98E82758300120C9603
:0E1D5000FF121EE5900167E004F080D5D284FA
:011D5E002262
:0B210600C2842082FD121EE5D284225C
:1020AA00EF4480FFC2842082FD121EE5E4FF121E67
:0320BA00E5D284E8
:0120BD002200
:0E1C20007A01793F7B01740290014AF07F3F08
:0B1C2E00900147EBF0A3EAF0A3E9F0FF
:101C3900EF44C0FFC2842082FD121EE5E490014BEF
:101C4900F090014AE0FFA3E0C39F5025E4FF121E74
:101C5900E5900147E0FBA3E0FAA3E0F990014BE02E
:101C6900F582758300EF120D0890014BE004F080B6
:031C7900D0D28442
:011C7C002245
:1020BE00EF44C0FFC2842082FD121EE5E4FF121E13
:0320CE00E5D284D4
:0120D10022EC
:1014DE00900030E0FDE4FF12207D900031E0FD7FB2
:1014EE000212207D900013E0FD7F0C12207D9000F3
:1014FE0014E0FD7F0B12207D900015E0FD7F0C1295
:10150E00207D900016E0FD7F0D12207D900017E0EB
:10151E00FD7F0E12207D900018E0FD7F0F12207DC2
:10152E00900019E0FD7F1012207D90001AE0FD7FE3
:10153E001112207D90001BE0FD7F1212207D900085
:10154E001CE0FD7F1312207D90001DE0FD7F141224
:10155E00207D90001EE0FD7F0A12207D90001FE08E
:10156E00FD7F1512207D900020E0FD7F2112207D51
:10157E00900021E0FD7F2212207D900022E0FD7F71
:10158E001812207D900023E0FD7F1912207D90001F
:10159E0024E0FD7F1A12207D900025E0FD7F1B12B6
:1015AE00207D900026E0FD7F1C12207D900027E01C
:1015BE00FD7F1D12207D900028E0FD7F2312207DEF
:1015CE00900029E0FD7F2412207D90002AE0FD7F0F
:1015DE002512207D90002BE0FD7F2612207D9000AD
:1015EE002CE0FD7F2912207D90002DE0FD7F2C1236
:1015FE00207D90002EE0FD7F2D12207D90002FE0AB
:10160E00FD7F2E12207D900032E0FD7F0712207D9F
:10161E00900033E0FD7F0812207D900034E0FD7FC6
:0E162E000912207D900035E0FD7F0602207D30
:0E1C7D0090015DEBF0A3EAF0A3E9F0A3EDF017
:101C8B007F3F12207D90015DE0FBA3E0FAA3E0F91A
:101C9B00A3E0900166F07F3F121D157F3A1220BE24
:101CAB00900161EFF07B017A0179617D01121FC315
:101CBB007F3512210630B3FD20B3FD7F3B02210699
:0B163C00900168EBF0A3EAF0A3E9F0D6
:10164700A3E0FBA3E0FAA3E0F9120C7D25E025E077
:10165700900171F07F341221067F147E00121F7EE5
:1016670030B3167F147E00121F7E900171E014F0D4
:10167700E0C3940150EA7F00227F3B1220BEEF5463
:101687007F70030217147F3F1220AA900170EFF0BA
:1016970090016BE0FBA3E0FAA3E0F9120C7DFEEFEB
:1016A700D39E504D900168E0FBA3E0FAA3E0F990C8
:1016B7000170E0121C28900170E0FF90016BE0FBC5
:1016C700A3E0FAA3E0F9EF120CF6900168E0FBA3A0
:1016D700E0FAA3E0F9900170E0FD121FC37A0179E7
:1016E7006E121C247F3A12210690016FE05480FF8E
:1016F70022900170E0FF90016BE0FBA3E0FAA3E00A
:0F170700F9EF120CF67F3A1221067F00227F00C5
:0117160022B0
:0B11B20090013CEBF0A3EAF0A3E9F091
:1011BD00E4900143F0A3F0A3F07F341221067F3BAE
:1011CD001220BEEF547F700302136D7F3F1220AAD1
:1011DD00900143EFF07F647E00121F7E900143E08B
:1011ED00FFD3940250030212E790013CE0FBA3E011
:1011FD00FAA3E0F9EF121C28121C207F3A122106E7
:10120D00900140E020E7030212DB90013CE0FBA3DC
:10121D00E0FAA3E0F9900001120C9664AA700302A3
:10122D0012D0E4900145F0900143E0FF14FE9001CF
:10123D0045E0FDC39E502090013CE0FBA3E0FAA3E6
:10124D00E0F98D82758300120C96FE900144E02E1C
:10125D00F0A3E004F080D0EF24FFFFE434FFFE9014
:10126D00013CE0FBA3E0FAA3E0F98F828E83120C20
:10127D0096FF900144E06F702FC00390014904F078
:10128D00A37400F0A3744FF0D003120988EF60101F
:10129D00E4900037F09000637455F0B2A20213434E
:1012AD007BFF7A1A7991802C90013CE0FBA3E0FA48
:1012BD00A3E0F9900143E0FD121FC37BFF7A1A7979
:1012CD00A080117BFF7A1A79AD121FFF800C7BFF76
:1012DD007A1A79BC121FFF7F0022900143E0FF6450
:1012ED000270757B017A01794190014AEFF07F3FE1
:1012FD00121C2E900141E0FFB4FF05A3E0F4601332
:10130D00900000E0548F6F703BA3E0FF900142E02E
:10131D006F7031121C207F3A122106900140E0308F
:10132D00E71A7F3A122106E4900010F0A3F07F0136
:10133D00FE121F49D28C900143E0FF227BFF7A1AE7
:10134D0079CC80117B017A0179417D02121FC37B1B
:10135D00FF7A1A79D9121FFF7F3A1221067F0022D8
:02136D007F00FF
:01136F00225B
:101717007F341221067F3B1220BEEF547F700302F5
:1017270017D27F3F1220AA900140EFF0E0FF64023A
:1017370060030217BC7B017A01793C90014AEFF004
:101747007F3F121C2E90013CE0FFB4FF05A3E0F49D
:101757006013900000E0548F6F7047A3E0FF900183
:101767003DE06F703D7B017A01793E121C267F3A7E
:1017770012210690013FE030E7207F3A12210690C0
:1017870000377455F0E4900010F0A3F07F01FE12CB
:101797001F49D28C900140E0FF227BFF7A1A79E73C
:1017A700802F7B017A01793C7D02121FC37BFF7A70
:1017B7001A79F9801C7BFF7A1B7909121FFF7B01BD
:1017C7007A0179407D01121FC380097BFF7A1B795B
:1017D70014121FFF7F3A1221067F3C1221067F3821
:0717E700122106D2AA7F00C7
:0117EE0022D8
:101EAB007F36122106E4FD7F1612207D7D187F18E8
:101EBB0012207D7D287F1E12207D7DA07F1F12208A
:101ECB007D7D787F2012207D7F3A1221067F3C1288
:0A1EDB0021067F381221067F012244
:03001300022019AF
:10201900C0E0C083C082C2AA5387FDB2A090000E5F
:0A2029007455F0D082D083D0E0326D
:0E1E6D00900156EBF0A3EAF0A3E9F0A3EDF02C
:101E7B00A3E075F030A4FFA3E5F0F0A3EFF0900121
:101E8B005B74FFF5F0120D2A45F06013900156E0DC
:0F1E9B00FBA3E0FAA3E0F9A3E0FD121C7D80DFBA
:011EAA002215
:101F18002020200047415445574159204F4B0A0083
:101F28004D4F44454C5F534E204F4B0A0020696E7D
:101F3800697469616C697A6174696F6E206F6B206E
:011F48000098
:10195C00410040004100A4004100E50041000400AA
:10196C00420010000041000E0041001200410063D3
:10197C000041000F004100370041003F0041003A98
:10198C0000410003014100360042003BFFFF5401BF
:10199C0026FFFFFFFFFFFFFFFF000000000000001D
:1019AC00000000000041000201410005014E004111
:1019BC00AA0B018110015101010001100100480026
:1019CC0006C0C0C0C0C0C0C0C06023001300080067
:1019DC0010A7625BF80322F80347B610181D1CC74A
:1019EC0000B2EA2A0011598135090B06040500FFE3
:100F6000E490013AF0A37406F0121E2E121FE11253
:100F700014DE7B017A0079069001667408F07F3EEA
:100F8000121D15121EABD2AF7B017A0079007D01D4
:100F9000121FC37B017A0079017D01121FC37B01FF
:100FA0007A00793D7D01121FC37B017A00793E7D75
:100FB00001121FC37BFF7A1F7918121FFF90003D9B
:100FC000E0F47003A3E0F4600C900000E0F4700320
:100FD000A3E0F47073B2A37F507EC3121F7E900013
:100FE00012E0B455D8E4F0900065E0FD7F007E0289
:100FF000122033900066E0FD7F017E0212203390C4
:101000000067E0FD7F007E04122033900068E0FD61
:101010007F017E041220337BFF7A1F791C121FFF91
:101020007BFF7A1F7928121FFFC2A37B017A007908
:10103000007F007E04121DA67B017A00793D7F00AF
:101040007E02121DA6020FBD900000E0FF9000027C
:10105000E0C45470FEEF4E900000F0E0FFA3E0907B
:101060000038CFF0A3EFF07B017A0079007D011208
:101070001FC37B017A0079017D01121FC37B017AB6
:1010800000793D7D01121FC37B017A00793E7D010D
:10109000121FC37BFF7A1F7935121FFFB2A1E4FF35
:1010A000FE12206590003FEFF0F46003021169909A
:1010B000013BE0FF14F0EF7003021164900003E0C5
:1010C000900043F090003DE0900045F090003EE03D
:1010D000900046F0900000E090004AF0900001E09F
:1010E00090004BF090003DE090004CF090003EE00E
:1010F00090004DF0E490013AF090013AE0FFC39483
:101100000D501A74412FF582E43400F583E0FF900E
:10111000004EE02FF090013AE004F080DC90013BBB
:10112000E0C3940350117B017A00793B90015A741B
:1011300004F07D02121E6D7B017A0079417D0E1252
:101140001C7D900003E004F0E4900010F0A3F07F19
:101150000AFE121F49D28C9000377455F0E49000BB
:101160004EF08010E490003FF090000EE064557067
:1011700030121717900037E0600B7B017A0079A5D9
:101180001211B280EF900063E0B4550BE4F07B01E4
:101190007A00794F1218B290003FE0F47003021009
:1011A000AF7F3C1221067F38122106D2AA43870264
:0211B00080B706
:1019FD0047617465776179206572720D0A006973AC
:101A0D00206D652073656E740D0A00676574206422
:101A1D006174610D0A0072696420657175616C0DE8
:101A2D000A002059494E4720444120202000202003
:101A3D00202000205A4855414E20464120202000AC
:101A4D00205772697465206F6B20002020526F75CE
:101A5D00746573697A652066756C6C202000202092
:101A6D005265616420646174612020004E6F7420A2
:101A7D00526F75746520696E666F726D6174696FF2
:041A8D006E0D0A00D0
:1017EF0090014EEBF0A3EAF0A3E9F090014EE0FB7D
:1017FF00A3E0FAA3E0F9900004120D40FF90003D22
:10180F00E065F07003A3E06F60097BFF7A1979FD43
:10181F000218AC90014EE0FBA3E0FAA3E0F99000B0
:10182F0008120D40FF900000E0B5F00DA3E0B507E2
:10183F00087BFF7A1A790B806490014EE0FBA3E0DE
:10184F00FAA3E0F9900002120C96FF900036E0B573
:10185F000714900008120D40FF900038E065F070FB
:10186F0003A3E06F60317BFF7A1A7918121FFF9084
:10187F00014EE0FBA3E0FAA3E0F9900002120C96F0
:10188F00900036F0900008120D40FF900038E5F000
:10189F00F0A3EFF07F01227BFF7A1A7923121FFF4B
:0318AF007F002295
:101FA10090000A120D40FFE5F0548FFE900000E012
:101FB100548FFCA3E0B50707ECB506037F01227F30
:021FC1000022FC
:0B05690090014AEBF0A3EAF0A3E9F0D8
:10057400E4900151F0A3F0A3F0A3F0A3F0120C7DDA
:10058400FF90014DE0FBA3E0FAA3E0F9EF120CF6B3
:1005940090014AE0FBA3E0FAA3E0F9900001120CF9
:1005A40096FF90014DE0FBA3E0FAA3E0F99000016F
:1005B400EF120D0890014AE0FBA3E0FAA3E0F990E2
:1005C4000002120C96FF90014DE0FBA3E0FAA3E0B9
:1005D400F9900002EF120D0890014AE0FBA3E0FA43
:1005E400A3E0F9900003120C96FF90014DE0FBA3E9
:1005F400E0FAA3E0F9900003EF120D0890014AE03D
:10060400FBA3E0FAA3E0F9900004120C96FF90011A
:100614004DE0FBA3E0FAA3E0F9900004EF120D080B
:1006240090014AE0FBA3E0FAA3E0F9900005120C64
:1006340096FF90014DE0FBA3E0FAA3E0F9900005DA
:10064400EF120D0890014AE0FBA3E0FAA3E0F99051
:10065400000C120C96540FFF1425E0FE900152F08A
:10066400EF4450FF90014DE0FBA3E0FAA3E0F990C2
:100674000006EF120D0890014AE0FBA3E0FAA3E0A4
:10068400F990000D120C96FF90014DE0FBA3E0FAE7
:10069400A3E0F9900007EF120D08EE604FE490011B
:1006A40050F0900152E0FF900150E0FEC39F503C97
:1006B40090014AE0FBA3E0FAA3E0F990000E120DCA
:1006C400C78E82758300120C96FFEE2408FDE43376
:1006D400FC90014DE0FBA3E0FAA3E0F98D828C834A
:1006E400EF120D08900150E004F080B6900152E042
:1006F4002408A3F090014AE0FBA3E0FAA3E0F990F8
:100704000006120C96FF90014DE0FBA3E0FAA3E073
:10071400F9900153E0FEF582758300EF120D089005
:10072400014AE0FBA3E0FAA3E0F990000A120C9658
:10073400FFEE2401FDE433FC90014DE0FBA3E0FA5D
:10074400A3E0F98D828C83EF120D0890014AE0FB3F
:10075400A3E0FAA3E0F990000B120C96FFEE24023A
:10076400FDE433FC90014DE0FBA3E0FAA3E0F98D36
:10077400828C83EF120D0890014AE0FBA3E0FAA3F8
:10078400E0F9900008120C96FFEE2403FDE433FC1C
:1007940090014DE0FBA3E0FAA3E0F98D828C83EF96
:1007A400120D0890014AE0FBA3E0FAA3E0F99000DF
:1007B40009120C96FFEE2404FDE433FC90014DE095
:1007C400FBA3E0FAA3E0F98D828C83EF120D08906D
:1007D400014AE0FBA3E0FAA3E0F9900001120C96B1
:1007E400FF900152E0FEC3EF9E24F5900154F060A7
:1007F4005DE4900150F0900154E0FF900150E0FE60
:10080400C39F504A90014AE0FBA3E0FAA3E0F990A9
:100814000011120DC78E82758300120C96FF900191
:1008240053E02405FDE433FC900150E07A002DFDF3
:10083400EA3CFC90014DE0FBA3E0FAA3E0F98D82D1
:100844008C83EF120D08900150E004F080A87BFF28
:100854007A1A792F121FFFE4900150F090014AE0B8
:10086400FBA3E0FAA3E0F9900001120C962402FF26
:10087400E433FE900150E0C39FEE6480F8748098E6
:10088400503290014DE0FBA3E0FAA3E0F9A3E0FFAE
:10089400F582758300120C96FE900151E02EF07ED5
:1008A40000E92FF9EE3AFA7D01121FC3900150E0DE
:1008B40004F080A87B017A0179517D01121FC37B6A
:1008C400FF7A1A793B121FFF900151E0FF90015308
:1008D400E02405FDE433FCA3E07A002DFDEA3CFCB2
:1008E40090014DE0FBA3E0FAA3E0F98D828C83EF45
:1008F400120D08E92DF9EA3CFA7D01121FC390019B
:1009040052E0605790014AE0FBA3E0FAA3E0F990BB
:10091400000D120C9625E0FDE433FCED2406FFE403
:100924003CFE90014DE0FBA3E0FAA3E0F98F828E38
:1009340083120C96548F90003BF074072DF582E4DB
:100944003CF583120C9690003CF07B017A00793BD5
:1009540090015A7404F07D02121E6D90014AE0FB6E
:10096400A3E0FAA3E0F9900001120C962403FD9091
:10097400014DE0FBA3E0FAA3E0F9121C7D90000313
:03098400E004F09C
:01098700224D
:0B002600900141EBF0A3EAF0A3E9F029
:10003100E4900148F0A3F0A3F0A3F0120C7DFF902F
:100041000144E0FBA3E0FAA3E0F9EF120CF6900102
:1000510041E0FBA3E0FAA3E0F9900001120C96FF46
:10006100900144E0FBA3E0FAA3E0F9900001EF1254
:100071000D08900141E0FBA3E0FAA3E0F990000232
:10008100120C96FF900144E0FBA3E0FAA3E0F99083
:100091000002EF120D08900141E0FBA3E0FAA3E09A
:1000A100F9900003120C96FF900144E0FBA3E0FAE3
:1000B100A3E0F9900003EF120D08900141E0FBA3CA
:1000C100E0FAA3E0F9900004120C96FF900144E0DD
:1000D100FBA3E0FAA3E0F9900004EF120D089001F0
:1000E10041E0FBA3E0FAA3E0F9900005120C96FFB2
:1000F100900144E0FBA3E0FAA3E0F9900005EF12C0
:100101000D08900141E0FBA3E0FAA3E0F9900003A0
:10011100120C96B4810990000C120C960480119077
:100121000141E0FBA3E0FAA3E0F990000C120C9668
:10013100FF900144E0FBA3E0FAA3E0F9900006EF91
:10014100120D08900141E0FBA3E0FAA3E0F9900051
:1001510003120C9630E70990000D120C96048012E0
:10016100900141E0FBA3E0FAA3E0F990000D120C2D
:100171009614FF900144E0FBA3E0FAA3E0F990009C
:1001810007EF120D08900144E0FBA3E0FAA3E0F9A8
:10019100900006120C96540FFF1425E0900149F0CF
:1001A100900141E0FBA3E0FAA3E0F9900003120CF7
:1001B100966481705DEF64017003020268E490014E
:1001C10047F0900147E0FD2400F582E43400F58317
:1001D100E0FC900144E0FBA3E0FAA3E0F990000702
:1001E100120C9625E0FFE433FEEF2404FFE43EFE0B
:1001F100ED7A002FFFEA3EFE900144A3E0FA8F82E0
:100201008E83EC120D08900147E004F0E0B402B2D5
:100211008055900149E0604FE4900147F090014919
:10022100E0FF900147E0FEC39F503C900141E0FB9D
:10023100A3E0FAA3E0F990000E120DC78E82758338
:1002410000120C96FFEE2408FDE433FC900144E01B
:10025100FBA3E0FAA3E0F98D828C83EF120D0890E5
:100261000147E004F080B6900141E0FBA3E0FAA36E
:10027100E0F9900003120C96B4811B900001740206
:10028100120CC3FF900144E0FBA3E0FAA3E0F99054
:100291000001EF120D08900149E02408A3F090013C
:1002A10041E0FBA3E0FAA3E0F9900006120C96FFEF
:1002B100900144E0FBA3E0FAA3E0F990014AE0FEDB
:1002C100F582758300EF120D08900141E0FBA3E078
:1002D100FAA3E0F9900008120C96FFEE2401FDE468
:1002E10033FC900144E0FBA3E0FAA3E0F98D828C9A
:1002F10083EF120D08900141E0FBA3E0FAA3E0F9BE
:10030100900009120C96FFEE2402FDE433FC9001EB
:1003110044E0FBA3E0FAA3E0F98D828C83EF120D98
:1003210008900141E0FBA3E0FAA3E0F990000A1272
:100331000C96FFEE2403FDE433FC900144E0FBA3A3
:10034100E0FAA3E0F98D828C83EF120D0890014150
:10035100E0FBA3E0FAA3E0F990000B120C96FFEE8C
:100361002404FDE433FC900144E0FBA3E0FAA3E0A4
:10037100F98D828C83EF120D08900141E0FBA3E01F
:10038100FAA3E0F9900001120C96FF900149E0FEFA
:10039100C3EF9E24F590014BF0605DE4900147F0BE
:1003A10090014BE0FF900147E0FEC39F504A90014E
:1003B10041E0FBA3E0FAA3E0F9900011120DC78E12
:1003C10082758300120C96FF90014AE02405FDE43A
:1003D10033FC900147E07A002DFDEA3CFC9001449A
:1003E100E0FBA3E0FAA3E0F98D828C83EF120D0804
:1003F100900147E004F080A87BFF7A1A7940121F30
:10040100FFE4900147F0900141E0FBA3E0FAA3E093
:10041100F9900001120C962402FFE433FE9001478B
:10042100E0C39FEE6480F87480985032900144E0FC
:10043100FBA3E0FAA3E0F9A3E0FFF58275830012C4
:100441000C96FE900148E02EF07E00E92FF9EE3A7D
:10045100FA7D01121FC3900147E004F080A87B01DF
:100461007A0179487D01121FC37BFF7A1A793B1209
:100471001FFF900148E0FF90014AE02405FDE433AD
:10048100FCA3E07A002DFDEA3CFC900144E0FBA3D3
:10049100E0FAA3E0F98D828C83EF120D08900141FF
:1004A100E0FBA3E0FAA3E0F9900003120C96B481FB
:1004B1000C90003C74FFF090003BF0807890014478
:1004C100E0FBA3E0FAA3E0F9900007120C966401A7
:1004D1006042900007120C96FD75F002A42408F505
:1004E10082E435F0F583C083C082D082D083120CC0
:1004F10096548F90003BF075F002EDA42409F5822B
:10050100E435F0F583C083C082900144A3A3D08277
:10051100D083801A900141E0FBA3E0FAA3E0F990B7
:10052100000A120C96548F90003BF090000B120CB5
:100531009690003CF07B017A00793B90015A74045B
:10054100F07D02121E6D900141E0FBA3E0FAA3E0F1
:10055100F9900001120C962403FD900144E0FBA3E5
:08056100E0FAA3E0F9021C7DA1
:0B137000900141EBF0A3EAF0A3E9F0CC
:10137B0090000E120DC7900145EBF0A3EAF0A3E924
:10138B00F0900141E0FBA3E0FAA3E0F990000C120E
:10139B000C96540F1425E0900148F090003FE0F4B8
:1013AB007064FFFE122095E4FDFFFE122033E4FF74
:1013BB00FE12206590003FEFF07F007E0612209515
:1013CB00900141E0FBA3E0FAA3E0F990000C120CB2
:1013DB0096540FFD7F007E061220337F007E06128F
:1013EB002065900002EFF0900000E0FF900002E01B
:1013FB00C45470FEEF4E900000F0E0FFA3E09000AD
:10140B0038CFF0A3EFF0900005E0C3940440030243
:10141B0014D57F007E08122095900005E0FD7F001B
:10142B007E08122033900005E024FE60091460064C
:10143B00240270078000E4900149F0900149E0FF1D
:10144B007E00122095900149E0FF7E00900148E05C
:10145B00FD122033900148E0603DE4900144F09090
:10146B000148E0FF900144E0FEC39F502AEEFF903D
:10147B000149E02FFFE433FE900145E0FBA3E47547
:10148B00F001120D2AA9F0FA120C7DFD12203390F7
:10149B000144E004F080C8900005E004F0900141A5
:1014AB00E0FBA3E0FAA3E0F99000037482120D08AD
:1014BB0090014D7401F0A37400F0A374E6F01205D3
:1014CB00697BFF7A1A794D121FFF7BFF7A1A7958C5
:0314DB00021FFFEE
:1020E5009001447401F0A37400F0A374E6F00200BB
:0120F50026C4
:0B098800900146EBF0A3EAF0A3E9F0B9
:10099300E4FEFD90014CF0900146E0FBA3E0FAA3D6
:1009A300E0F9120C7DFF900149E0FBA3E0FAA3E01C
:1009B300F9EF120CF6900146E0FBA3E0FAA3E0F98D
:1009C300900001120C96FF900149E0FBA3E0FAA30B
:1009D300E0F9900001EF120D08900146E0FBA3E05F
:1009E300FAA3E0F9900002120C96FF900149E0FB94
:1009F300A3E0FAA3E0F9900002EF120D089001467C
:100A0300E0FBA3E0FAA3E0F9900003120C96FF9039
:100A13000149E0FBA3E0FAA3E0F9900003EF120D14
:100A230008900146E0FBA3E0FAA3E0F9900004126A
:100A33000C96FF900149E0FBA3E0FAA3E0F99000D4
:100A430004EF120D08900146E0FBA3E0FAA3E0F9DE
:100A5300900005120C96FF900149E0FBA3E0FAA376
:100A6300E0F9900005EF120D08900146E0FBA3E0CA
:100A7300FAA3E0F9900006120C96FF900149E0FBFF
:100A8300A3E0FAA3E0F990000CEF120D08900146E1
:100A9300E0FBA3E0FAA3E0F9900007120C96FF90A5
:100AA3000149E0FBA3E0FAA3E0F990000DEF120D7A
:100AB3000890000C120C96540F1425E0FF6025904B
:100AC3000146E0FBA3E0FAA3E02408F9E43AFAC004
:100AD30003C002C001A3E0FBA3E0FAA3E0F9900086
:100AE3000E120DF7EF2408FE900146E0FBA3E0FA97
:100AF300A3E0F98E82758300120C96FD900149E004
:100B0300FBA3E0FAA3E0F9900006ED120D08EE2432
:100B130001FDE433FC900146E0FBA3E0FAA3E0F916
:100B23008D828C83120C96FD900149E0FBA3E0FAC1
:100B3300A3E0F9900008ED120D08EE2402FDE43362
:100B4300FC900146E0FBA3E0FAA3E0F98D828C83DD
:100B5300120C96FD900149E0FBA3E0FAA3E0F990A3
:100B63000009ED120D08EE2403FDE433FC90014669
:100B7300E0FBA3E0FAA3E0F98D828C83120C96FDCF
:100B8300900149E0FBA3E0FAA3E0F990000AED121B
:100B93000D08EE2404FDE433FC900146E0FBA3E0E2
:100BA300FAA3E0F98D828C83120C96FD900149E043
:100BB300FBA3E0FAA3E0F990000BED120D089000FF
:100BC30001120C96C39F24F5FD602DAF06EF24059B
:100BD300FFE433FE900146E0FBA3E0FAA3E02FF924
:100BE300EA3EFAC003C002C001A3E0FBA3E0FAA3FC
:100BF300E0F9900011120DF7E490014DF0900149D6
:100C0300E0FBA3E0FAA3E0F9900001120C962402A2
:100C1300FFE433FE90014DE0C39FEE6480F87480DF
:100C2300985034900146E0FBA3E0FAA3E0F9900169
:100C33004DE0FFF582758300120C96FE90014CE0A7
:100C43002EF07E00E92FF9EE3AFA7D01121FC390D0
:100C5300014DE004F080A67B017A01794C7D0112FD
:100C63001FC37BFF7A1A793B121FFF900149E0FBF8
:090C7300A3E0FAA3E0F91217EF67
:010C7C002255
:0B18B20090013CEBF0A3EAF0A3E9F08A
:1018BD00E4A3F0A3F0121FA1EF700302194D9001E4
:1018CD003CE0FBA3E0FAA3E0F9900003120C962490
:1018DD00FD6007240270600213707BFF7A1A796B2A
:1018ED00121FFF90013CE0FBA3E0FAA3E0F990008A
:1018FD00017404120CC37B017A017926C003C00266
:10190D00C00190013CE0FBA3E0FAA3E0F9900011C7
:10191D00120DF790013CE0FBA3E0FAA3E0F9900073
:10192D00037483120D0890014D7401F0A37400F03F
:10193D00A374E6F00205697BFF7A1A7979021FFF1D
:0E194D0090013CE0FBA3E0FAA3E0F91220E5D4
:01195B002269
:03000000021B20C0
:0C1B2000787FE4F6D8FD758107021B6792
:100C7D00BB010689828A83E0225002E722BBFE0275
:090C8D00E32289828A83E49322A8
:100C9600BB010CE58229F582E5833AF583E0225013
:100CA60006E92582F8E622BBFE06E92582F8E2225D
:0D0CB600E58229F582E5833AF583E4932277
:100CC300BB010FF8E58229F582E5833AF583E02835
:100CD300F0225009C58229F8E58226F622BBFE09D7
:100CE300C58229F8E22582F222F8EA2583F583E911
:030CF30093282221
:100CF600BB010689828A83F0225002F722BBFE01DD
:020D0600F322D6
:100D0800F8BB010DE58229F582E5833AF583E8F021
:100D1800225006E92582C8F622BBFE05E92582C8CD
:020D2800F222B5
:100D2A00A3F8E0C5F025F0F0E5821582700215837C
:060D3A00E0C838F0E822D9
:100D4000BB0110E58229F582E5833AF583E0F5F0F1
:100D5000A3E0225009E92582F886F008E622BBFECE
:100D60000AE92582F8E2F5F008E222E5832AF58314
:080D7000E993F5F0A3E99322D9
:100D7800E88FF0A4CC8BF0A42CFCE98EF0A42CFC1A
:100D88008AF0EDA42CFCEA8EF0A4CDA8F08BF0A498
:100D98002DCC3825F0FDE98FF0A42CCD35F0FCEBF7
:100DA8008EF0A4FEA9F0EB8FF0A4CFC5F02ECD39BC
:0F0DB800FEE43CFCEAA42DCE35F0FDE43CFC2229
:101DEA00C2D5E830E70FB2D5E4C39BFBE49AFAE424
:101DFA0099F9E498F8EC30E717B2D5121E20120EC2
:101E0A008CE4C39BFBE49AFAE499F9E498F880031A
:101E1A00120E8C30D50DE4C39FFFE49EFEE49DFDB7
:041E2A00E49CFC2216
:100DC700BB010DE58229F582E5833AF583020F30F1
:100DD7005007E92582F8020F1EBBFE07E92582F8B6
:100DE700020F42E58229F582E5833AF583020F5423
:100DF700BB0120E58229F582E5833AF583D0F0D05F
:100E0700E0F8D0E0F9D0E0FAD0E0FBE8C0E0C0F0CD
:100E1700020F395018E92582F8D083D082D0E0F943
:100E2700D0E0FAD0E0FBC082C083020F27BBFE18D8
:100E3700E92582F8D083D082D0E0F9D0E0FAD0E07B
:090E4700FBC082C083020F4B22A4
:101B2C00020F60E493A3F8E493A34003F68001F260
:101B3C0008DFF48029E493A3F85407240CC8C333BA
:101B4C00C4540F4420C8834004F456800146F6DF89
:101B5C00E4800B010204081020408090195CE47EA4
:101B6C00019360BCA3FF543F30E509541FFEE4937E
:101B7C00A360010ECF54C025E060A840B8E493A345
:101B8C00FAE493A3F8E493A3C8C582C8CAC583CA70
:101B9C00F0A3C8C582C8CAC583CADFE9DEE780BE28
:0119FC0000EA
:100E500075F008758200EF2FFFEE33FECD33CDCC59
:100E600033CCC58233C5829BED9AEC99E5829840DC
:100E70000CF582EE9BFEED9AFDEC99FC0FD5F0D6B9
:100E8000E4CEFBE4CDFAE4CCF9A88222B800C1B9E3
:100E90000059BA002DEC8BF084CFCECDFCE5F0CB21
:100EA000F97818EF2FFFEE33FEED33FDEC33FCEB5A
:100EB00033FB10D703994004EB99FB0FD8E5E4F915
:100EC000FA227818EF2FFFEE33FEED33FDEC33FC02
:100ED000C933C910D7059BE99A4007EC9BFCE99AF6
:100EE000F90FD8E0E4C9FAE4CCFB2275F010EF2F3B
:100EF000FFEE33FEED33FDCC33CCC833C810D7073B
:100F00009BEC9AE899400AED9BFDEC9AFCE899F875
:0E0F10000FD5F0DAE4CDFBE4CCFAE4C8F92208
:090F1E00E6FB08E6FA08E6F922F8
:090F2700EBF608EAF608E9F622EF
:090F3000E0FBA3E0FAA3E0F922C2
:090F3900EBF0A3EAF0A3E9F022B9
:090F4200E2FB08E2FA08E2F922E0
:090F4B00EBF208EAF208E9F222D7
:0C0F5400E493FB740193FA740293F922F9
:00000001FF
