:03000E00D28A2271
:07000300C284C281D28422F5
:100F2800759850438920758DFD758BFDD28EC2ABA7
:030F3800D2AC2216
:100E9B00C2AC12026E6010F5993099FDC2997401C3
:0A0EAB0029F9E43AFA80EBD2AC22F8
:100E3A007F017E00120DE212000E120F281200032B
:100E4A00120E13120E13120E11120E13120E11128B
:050E5A000E13B2A322FB
:100DAF00E4FEC281FDEF30E704D2808002C280EF03
:100DBF0025E0FFD281000000000000EE25E0FE30AC
:100DCF0082010EC2810000000000000DEDB408D5B5
:020DDF00AF065D
:010DE10022EF
:100DE200E4FDFCFB7AC079A8F8120310E47B0CFA4C
:100DF200F9F8120CB5E47BE87A03F9F8120CB5C3E2
:0E0E0200E49FFDE49E4389018D8AF58CD2A900
:010E100022BF
:100E5F00C2ACAF051DEF601312026EF5993099FD0C
:0E0E6F00C299740129F9E43AFA80E7D2AC2264
:060E1100B2A37F507EC376
:100E1700E4FDFCC3ED9FEC9E50070DBD00010C8067
:100E2700F2E4FCFDC3ED9FEC9E50070DBD00010CE5
:020E370080F247
:010E39002296
:03002300020C2AA2
:100C2A00C0E0C083C082C0D03098339000B8E024BE
:100C3A0077F582E43400F583E599F0900077E06473
:100C4A00AA60079000B8E4F080129000B8E004F0BF
:100C5A00E0D3940A400690000F7455F0C298D0D0A1
:070C6A00D082D083D0E032FC
:03000B00020A4C9A
:100A4C00C0E0C0F0C083C082C0D075D000C000C070
:100A5C0001C002C003C004C005C006C0077F017EF0
:100A6C0000120DE290000EE004F0700690000DE014
:100A7C0004F0C390000EE094E890000DE094034065
:100A8C000F900036E4F0B2A290000DF0A3F0C28CEF
:100A9C00D007D006D005D004D003D002D001D000AE
:0B0AAC00D0D0D082D083D0F0D0E03258
:100C71003320616E64206372630A0043524320652E
:100C810072726F720A002020776879204E6F74208B
:100C91006D650A006E6F74203220330A0054696D4D
:100CA1006572206E6578740A004C656E6774682100
:040CB1003D320A00C6
:100ECF00000000000000000000000000000000EF24
:090EDF001F70011E144E70E82280
:100F6000C2842082FD7F30120DAF2082FDD2842208
:100E7D00D2847F0A7E00120ECFC2847F0A7E0012BA
:0E0E8D000ECFD2847F9A7E01120ECF020F602C
:100EE8009000BAEDF0C2842082FD120DAF9000BAD6
:080EF800E0FF120DAFD28422CD
:0B0BE0009000BBEBF0A3EAF0A3E9F0EB
:100BEB00EF4440FFC2842082FD120DAFE49000BFA2
:100BFB00F09000BEE0FFA3E0FEC39F501F9000BB30
:100C0B00E0FBA3E0FAA3E0F98E8275830012028762
:0E0C1B00FF120DAF9000BFE004F080D5D28430
:010C290022A8
:070F4E0025E025E0F07F34EF
:0B0F5500C2842082FD120DAFD2842266
:100F0000EF4480FFC2842082FD120DAFE4FF120D7A
:030F1000AFD284D9
:010F130022BB
:0E0B83007A0079C07B0174029000CAF07F3FB7
:0B0B91009000C7EBF0A3EAF0A3E9F02E
:100B9C00EF44C0FFC2842082FD120DAFE49000CB65
:100BAC00F09000CAE0FFA3E0C39F5025E4FF120DB4
:100BBC00AF9000C7E0FBA3E0FAA3E0F99000CBE014
:100BCC00F582758300EF1202C69000CBE004F08032
:030BDC00D0D284F0
:010BDF0022F3
:100F1400EF44C0FFC2842082FD120DAFE4FF120D26
:030F2400AFD284C5
:010F270022A7
:10048E0090002DE0FDE4FF120EE890002EE0FD7FBF
:10049E0002120EE8900010E0FD7F0C120EE89000A4
:1004AE0011E0FD7F0B120EE8900012E0FD7F0C12A2
:1004BE000EE8900013E0FD7F0D120EE8900014E0A0
:1004CE00FD7F0E120EE8900015E0FD7F0F120EE874
:1004DE00900016E0FD7F10120EE8900017E0FD7FF1
:1004EE0011120EE8900018E0FD7F12120EE8900037
:1004FE0019E0FD7F13120EE890001AE0FD7F141232
:10050E000EE890001BE0FD7F0A120EE890001CE042
:10051E00FD7F15120EE890001DE0FD7F21120EE802
:10052E0090001EE0FD7F22120EE890001FE0FD7F7E
:10053E0018120EE8900020E0FD7F19120EE89000D0
:10054E0021E0FD7F1A120EE8900022E0FD7F1B12C3
:10055E000EE8900023E0FD7F1C120EE8900024E0D0
:10056E00FD7F1D120EE8900025E0FD7F23120EE8A0
:10057E00900026E0FD7F24120EE8900027E0FD7F1C
:10058E0025120EE8900028E0FD7F26120EE890005E
:10059E0029E0FD7F29120EE890002AE0FD7F2C1243
:1005AE000EE890002BE0FD7F2D120EE890002CE05F
:1005BE00FD7F2E120EE890002FE0FD7F07120EE851
:1005CE00900030E0FD7F08120EE8900031E0FD7FD4
:0E05DE0009120EE8900032E0FD7F06020EE8E2
:100CF9009000F6EBF0A3EAF0A3E9F0A3EDF0C2AAA5
:100D09007F3F120EE89000F6E0FBA3E0FAA3E0F9BA
:100D1900A3E09000BEF07F3F120BE07F35120F5524
:0E0D290030B3FD20B3FD7F3B120F55D2AA223E
:0B0833009000D8EBF0A3EAF0A3E9F07E
:10083E00A3E0FBA3E0FAA3E0F912026E9000E1122E
:10084E000F4E7F147E00120E1730B3167F147E00EB
:10085E00120E179000E1E014F0E0C3940150EA7F0D
:10086E0000227F3B120F14EF547F70030209047FA6
:10087E003F120F009000E0EFF09000DBE0FBA3E0F2
:10088E00FAA3E0F912026EFEEFD39E504D9000D8FF
:10089E00E0FBA3E0FAA3E0F99000E0E0120B8B90EE
:1008AE0000E0E0FF9000DBE0FBA3E0FAA3E0F9EF4D
:1008BE001202B49000D8E0FBA3E0FAA3E0F9900096
:1008CE00E0E0FD120E5F7A0079DE120B877F3A129E
:1008DE000F559000DFE05480FF229000E0E0FF9083
:1008EE0000DBE0FBA3E0FAA3E0F9EF1202B47F3ADB
:0808FE00120F557F00227F005C
:0109060022CE
:0B05EC009000BAEBF0A3EAF0A3E9F0E6
:1005F700E49000C4F09000BDE0FBA3E0FAA3E0F9AB
:1006070012026E9000C5120F4E7F3B120F14EF546B
:100617007F700302070D7F3F120F009000C4EFF0B9
:100627007F647E00120E179000C4E0FFD39402404F
:10063700479000BAE0FBA3E0FAA3E0F9EF120B8BB7
:10064700120B837F3A120F559000C1E030E71D90DF
:1006570000BAE0FBA3E0FAA3E0F99000C4E0FD12C2
:100667000E5FE4900036F090000B80667BFF7A0CFB
:100677007971120E9B7F00229000C4E0FF64027024
:10068700747B017A0079C29000CAEFF07F3F120BAA
:10069700919000C2E0FFB4FF05A3E0F4601B900057
:1006A70000E0FCA3E06F7001EC7036ECFF9000C334
:1006B700E0FDEF6D7001E47028120B837F3A120F93
:1006C700559000C1E030E7117F3A120F5590003680
:1006D7007455F09000C4E0FF227BFF7A0C797C8090
:1006E700117B017A0079C27D02120E5F7BFF7A0CC3
:1006F7007987120E9B7BFF7A0C7995120E9B7F3AB6
:08070700120F557F00227F0054
:01070F0022C7
:0B0710009000E2EBF0A3EAF0A3E9F098
:10071B00E49000E9F07F34120F557F3B120F14EF7A
:10072B00547F70030208307F3F120F009000E9EFF7
:10073B00F07B017A0079E97D01120E5F9000E9E010
:10074B00FFD3940240469000E2E0FBA3E0FAA3E063
:10075B00F99000CAEFF07F3F120B917B017A007981
:10076B00E5120B897F3A120F559000E6E030E7193E
:10077B009000E2E0FBA3E0FAA3E0F99000E9E0FDD2
:10078B00120E5FE490003680717F00229000E9E04A
:10079B00FF640260030208287B017A0079E790006E
:1007AB00CAEFF07F3F120B919000E7E0FFB4FF051B
:1007BB00A3E0F4601B900000E0FCA3E06F7001EC81
:1007CB007047ECFF9000E8E0FDEF6D7001E47039CD
:1007DB007B017A0079E77D02120E5F7B017A00794B
:1007EB00E5120B897F3A120F559000E6E030E711C6
:1007FB007F3A120F559000367455F09000E9E0FFE8
:10080B00227BFF7A0C797C80117B017A0079E77D62
:10081B0002120E5F7BFF7A0C7987120E9B7F3A12C6
:07082B000F557F00227F0042
:0108320022A3
:100907007F34120F557F3B120F14EF547F70030291
:1009170009AC7F3F120F009000F5EFF06402707C86
:100927007B017A0079F1E0120B8B9000F1E0FFB4C4
:10093700FF05A3E0F4601B900000E0FCA3E06F70EC
:1009470001EC7045ECFF9000F2E0FDEF6D7001E403
:1009570070377B017A0079F3120B897F3A120F55B2
:100967009000F4E030E71A7F3A120F559000367482
:1009770055F07BFF7A0C799E120E9B9000F5E0FFF5
:10098700227BFF7A0C797C80197B017A0079F17DD3
:1009970002120E5F7BFF7A0C798780067BFF7A0C49
:1009A70079AA120E9B7F3A120F557F3C120F557F83
:0809B70038120F55D2AA7F008F
:0109BF002215
:100D75007F36120F55E4FD7F16120EE87D187F1899
:100D8500120EE87D287F1E120EE87DA07F1F120E31
:100D9500E87D787F20120EE87F3A120F557F3C12CE
:0A0DA5000F557F38120F557F012211
:03001300020EB525
:100EB500C0E0C083C082C2AA5387FDB2A090000BD8
:0A0EC5007455F0D082D083D0E032E3
:060026009000CC12045111
:10002C009000D012045D000000009000D4E4F0A316
:10003C0004F0A3E4F0A304F07F137E3B7DB17C03BA
:10004C009000CCE0F8A3E0F9A3E0FAA3E0FBD31214
:10005C00042D40067F01C00780047F00C007E47FA9
:10006C000FFEFDFC9000CCE0F8A3E0F9A3E0FAA3AE
:10007C00E0FBC312042D50047E0180027E00D0E010
:10008C004E60037F0022E47F627E07FDFC9000CC73
:10009C00E0F8A3E0F9A3E0FAA3E0FBC312042D50AF
:1000AC0009E49000D4F0A3F08071E47F4E7EECFD67
:1000BC00FC9000CCE0F8A3E0F9A3E0FAA3E0FBC3CA
:1000CC0012042D500A9000D4E4F0A304F0804C7F6D
:1000DC00D87E897D1D7C009000CCE0F8A3E0F9A3CC
:1000EC00E0FAA3E0FBC312042D500B9000D4E4F013
:1000FC00A37402F080257F137E3B7DB17C039000BE
:10010C00CCE0F8A3E0F9A3E0FAA3E0FBC312042DC2
:10011C0050099000D4E4F0A37403F09000D4A3E051
:10012C0075F005A4FFA3E0FEA3E0A807088005C3B3
:10013C0033CE33CED8F9F0EE9000D6F09000D0123A
:10014C00045D000065909000CCE0FCA3E0FDA3E012
:10015C00FEA3E0FFA3E0F8A3E0F9A3E0FAA3E0FB21
:10016C00D312042D405E9000D0E0FCA3E0FDA3E090
:10017C00FEA3E0FF9000CCE0F8A3E0F9A3E0FAA323
:10018C00E0FB1203109000D01204519000D0E0FC60
:10019C00A3E0FDA3E0FEA3E0FFC004C005C006C0C1
:1001AC00079000D6E0FEA3E0FF7C027DEE1202E891
:1001BC00AB07AA06E4F9F8D007D006D005D0041294
:1001CC00039B80389000D6E0FEA3E0FF7C027DEE1E
:1001DC001202E8AB07AA06E4F9F89000CCE0FCA305
:1001EC00E0FDA3E0FEA3E0FF12039B9000D0E0F83B
:1001FC00A3E0F9A3E0FAA3E0FB1203109000D012E5
:10020C0004517F36120F557D107F16120EE87D18A3
:10021C007F18120EE89000D0E0FCA3E0FDA3E0FEF6
:10022C00A3E0FF780812043EAD077F1E120EE89083
:10023C0000D0A3A3A3E0FD7F1F120EE89000D4A36F
:10024C00E04478FD7F20120EE87D067F02120EE856
:10025C007F3A120F557F3C120F557F38120F557F86
:01026C000190
:01026D00226E
:0E0D37009000EAEBF0A3EAF0A3E9F0A3EDF0E0
:100D4500A3E075F030A4FFA3E5F0F0A3EFF0900069
:100D5500EF74FFF5F01202FA45F060139000EAE037
:0F0D6500FBA3E0FAA3E0F9A3E0FD120CF980DF95
:010D7400225C
:100F3B00696E697469616C697A6174696F6E206F2F
:030F4B006B0A002E
:100B2100420000000042000D00004100350041007C
:100B3100B7004100B8004100020041000B00410034
:100B41000F004100360041000C00420033FFFF4816
:100B51000003C0C0C0C0C0C0C0C0602300100008F6
:100B61000010A7625BF80322F80047B610181D1C9D
:100B7100C700B2EA2A0011598135090B06040500A4
:010B8100FF74
:100AB700E49000B9F09000B77437F0120E3A120EB6
:100AC7007D12048E7B017A0079039000BE7408F0D2
:100AD7007F3E120BE0120D757BFF7A0F793B120EEA
:100AE7009BD2AFD2AA43870290000BE0B4551F9068
:100AF700000BE060199000BD7401F0A37400F0A32F
:100B07007402F07B017A0079371205EC80E17F3CB3
:0A0B1700120F557F38120F5580C9E8
:030000000209C032
:0C09C000787FE4F6D8FD758107020A0775
:10026E00BB010689828A83E0225002E722BBFE028E
:09027E00E32289828A83E49322C1
:10028700BB010CE58229F582E5833AF583E022502C
:1002970006E92582F8E622BBFE06E92582F8E22276
:0D02A700E58229F582E5833AF583E4932290
:1002B400BB010689828A83F0225002F722BBFE0129
:0202C400F32223
:1002C600F8BB010DE58229F582E5833AF583E8F06E
:1002D600225006E92582C8F622BBFE05E92582C81A
:0202E600F22202
:1002E800EF8DF0A4A8F0CF8CF0A428CE8DF0A42E2A
:0202F800FE22E4
:1002FA00A3F8E0C5F025F0F0E582158270021583B7
:06030A00E0C838F0E82213
:10031000E88FF0A4CC8BF0A42CFCE98EF0A42CFC8C
:100320008AF0EDA42CFCEA8EF0A4CDA8F08BF0A40A
:100330002DCC3825F0FDE98FF0A42CCD35F0FCEB69
:100340008EF0A4FEA9F0EB8FF0A4CFC5F02ECD392E
:0F035000FEE43CFCEAA42DCE35F0FDE43CFC229B
:10035F0075F008758200EF2FFFEE33FECD33CDCC55
:10036F0033CCC58233C5829BED9AEC99E5829840D8
:10037F000CF582EE9BFEED9AFDEC99FC0FD5F0D6B5
:10038F00E4CEFBE4CDFAE4CCF9A88222B800C1B9DF
:10039F000059BA002DEC8BF084CFCECDFCE5F0CB1D
:1003AF00F97818EF2FFFEE33FEED33FDEC33FCEB56
:1003BF0033FB10D703994004EB99FB0FD8E5E4F911
:1003CF00FA227818EF2FFFEE33FEED33FDEC33FCFE
:1003DF00C933C910D7059BE99A4007EC9BFCE99AF2
:1003EF00F90FD8E0E4C9FAE4CCFB2275F010EF2F37
:1003FF00FFEE33FEED33FDCC33CCC833C810D70737
:10040F009BEC9AE899400AED9BFDEC9AFCE899F871
:0E041F000FD5F0DAE4CDFBE4CCFAE4C8F92204
:100CB500C2D5E830E70FB2D5E4C39BFBE49AFAE46A
:100CC50099F9E498F8EC30E717B2D5120CEB12035A
:100CD5009BE4C39BFBE49AFAE499F9E498F8800352
:100CE50012039B30D50DE4C39FFFE49EFEE49DFDFA
:040CF500E49CFC225D
:10042D00EB9FF5F0EA9E42F0E99D42F0E89C45F025
:01043D00229C
:10043E00E8600FECC313FCED13FDEE13FEEF13FF9C
:03044E00D8F122C0
:0C045100ECF0A3EDF0A3EEF0A3EFF0221E
:10045D00A8828583F0D083D08212047412047412A2
:10046D000474120474E473E493A3C583C5F0C583C7
:10047D00C8C582C8F0A3C583C5F0C583C8C582C8E9
:01048D00224C
:1009CC00020AB7E493A3F8E493A34003F68001F280
:1009DC0008DFF48029E493A3F85407240CC8C3332C
:1009EC00C4540F4420C8834004F456800146F6DFFB
:1009FC00E4800B0102040810204080900B21E47E5F
:100A0C00019360BCA3FF543F30E509541FFEE493EF
:100A1C00A360010ECF54C025E060A840B8E493A3B6
:100A2C00FAE493A3F8E493A3C8C582C8CAC583CAE1
:100A3C00F0A3C8C582C8CAC583CADFE9DEE780BE99
:010B82000072
:00000001FF
