:0D001600E4F5C7F5C5F5C675C380F5C42235
:101D7A0075C78275C5018FC4EEF5C375C65A75C697
:071D8A00A500AFC212001614
:011D9100222F
:101D480075C78275C5028FC4EEF5C3AF058FC2751E
:091D5800C65A75C6A5000200166A
:101DAA0075C78275C5038FC4EEF5C375C65A75C665
:051DBA00A50002001667
:061C0D00AC05AB07AA06BE
:101C1300E4F9E9C39C500EE92BFFE43AFE7DFF1281
:101C23001D480980EDE4F9E9C39C5013E92BFFE457
:101C33003AFE121D7AEFF460037F00220980E87FE9
:011C4300019F
:011C4400227D
:0F1A5300900166EBF0A3EAF0A3E9F0AD07AC0653
:101A6200E4A3F0900169E0FFC394025027EF2DFF39
:101A7200E43CFE121D7A900166E0FBA3E0FAA3E0CB
:101A8200F9A3E0F582758300EF120CA2900169E0E0
:041A920004F080CF0D
:011A9600222D
:03000E00D28A2271
:07000300C284C281D28422F5
:101DE700759850438920758DFD758BFDD28EC2ABDA
:031DF700D2AC2249
:101D2E00C2AC120C176010F5993099FDC29974016E
:0A1D3E0029F9E43AFA80EBD2AC2256
:101B1D007B017A0079007F037E00121A537B017AD4
:101B2D0000793B7F017E00121A537F017E00121C4B
:101B3D007812000E121DE7120003121CA9121CA927
:0F1B4D00121CA7121CA9121CA7121CA9B2A322BA
:101C4500E4FEC281FDEF30E704D2808002C280EF5E
:101C550025E0FFD281000000000000EE25E0FE3007
:101C650082010EC2810000000000000DEDB408D510
:021C7500AF06B8
:011C7700224A
:101C7800E4FDFCFB7AC079A8F8120D12E47B0CFA9B
:101C8800F9F8121A97E47BE87A03F9F8121A97C35D
:0E1C9800E49FFDE49E4389018D8AF58CD2A95C
:011CA600221B
:101CF200C2ACAF051DEF6013120C17F5993099FDB8
:0E1D0200C299740129F9E43AFA80E7D2AC22C2
:061CA700B2A37F507EC3D2
:101CAD00E4FDFCC3ED9FEC9E50070DBD00010C80C3
:101CBD00F2E4FCFDC3ED9FEC9E50070DBD00010C41
:021CCD0080F2A3
:011CCF0022F2
:030023000219C5FA
:1019C500C0E0C083C082C0D0309833900123E024AA
:1019D500A2F582E43400F583E599F09000A2E06475
:1019E500AA6007900123E4F08012900123E004F03F
:1019F500E0D3940A40069000107455F0C298D0D0F8
:071A0500D082D083D0E03253
:03000B00021808D0
:10180800C0E0C0F0C083C082C0D075D000C000C0A6
:1018180001C002C003C004C005C006C00790003D57
:10182800E0B455047F0A80027F017E00121C789084
:10183800000FE004F0700690000EE004F0C3900082
:101848000FE094E890000EE09403400F900035E418
:10185800F0B2A290000EF0A3F0C28CD007D006D050
:1018680005D004D003D002D001D000D0D0D082D08F
:0618780083D0F0D0E03245
:101A0C003320616E64206372630A00435243206585
:101A1C0072726F720A002020776879204E6F7420E2
:101A2C006D650A004C656E677468213D320A004E84
:101A3C006F74207061636B65740A00456E74657217
:071A4C0020494E54310A004D
:101D6100000000000000000000000000000000EF83
:091D71001F70011E144E70E822DF
:101E0B00C2842082FD7F30121C452082FDD28422A9
:101D1000D2847F0A7E00121D61C2847F0A7E001277
:0E1D20001D61D2847F9A7E01121D61021E0B8E
:101D920090018DEDF0C2842082FD121C4590018DD0
:081DA200E0FF121C45D284226F
:0B197B0090018EEBF0A3EAF0A3E9F06E
:10198600EF4440FFC2842082FD121C45E490019280
:10199600F0900191E0FFA3E0FEC39F501F90018EDF
:1019A600E0FBA3E0FAA3E0F98E82758300120C3007
:0E19B600FF121C45900192E004F080D5D2840F
:0119C4002200
:0B1E1B00C2842082FD121C45D28422EC
:101DBF00EF4480FFC2842082FD121C45E4FF121CF9
:031DCF0045D28476
:011DD20022EE
:0E187E007A0179697B017402900174F07F3F5A
:0B188C00900171EBF0A3EAF0A3E9F07B
:10189700EF44C0FFC2842082FD121C45E49001750D
:1018A700F0900174E0FFA3E0C39F5025E4FF121CF2
:1018B70045900171E0FBA3E0FAA3E0F9900175E020
:1018C700F582758300EF120CA2900175E004F08099
:0318D700D0D284E8
:0118DA0022EB
:101DD300EF44C0FFC2842082FD121C45E4FF121CA5
:031DE30045D28462
:011DE60022DA
:1012F50090002EE0FDE4FF121D9290002FE0FD7F8F
:1013050002121D92900011E0FD7F0C121D929000BB
:1013150012E0FD7F0B121D92900013E0FD7F0C1271
:101325001D92900014E0FD7F0D121D92900015E0B6
:10133500FD7F0E121D92900016E0FD7F0F121D928B
:10134500900017E0FD7F10121D92900018E0FD7FC0
:1013550011121D92900019E0FD7F12121D9290004E
:101365001AE0FD7F13121D9290001BE0FD7F141201
:101375001D9290001CE0FD7F0A121D9290001DE059
:10138500FD7F15121D9290001EE0FD7F21121D921A
:1013950090001FE0FD7F22121D92900020E0FD7F4E
:1013A50018121D92900021E0FD7F19121D929000E8
:1013B50022E0FD7F1A121D92900023E0FD7F1B1293
:1013C5001D92900024E0FD7F1C121D92900025E0E7
:1013D500FD7F1D121D92900026E0FD7F23121D92B8
:1013E500900027E0FD7F24121D92900028E0FD7FEC
:1013F50025121D92900029E0FD7F26121D92900076
:101405002AE0FD7F29121D9290002BE0FD7F2C1212
:101415001D9290002CE0FD7F2D121D9290002DE075
:10142500FD7F2E121D92900030E0FD7F07121D9268
:10143500900031E0FD7F08121D92900032E0FD7FA3
:0E14450009121D92900033E0FD7F06021D92F9
:101BD400900189EBF0A3EAF0A3E9F0A3EDF07F3FD5
:101BE400121D92900189E0FBA3E0FAA3E0F9A3E0BF
:101BF400900191F07F3F12197B7F35121E1B30B389
:091C0400FD20B3FD7F3B021E1B15
:0B154700900193EBF0A3EAF0A3E9F0A1
:10155200A3E0FBA3E0FAA3E0F9120C1725E025E0D3
:1015620090019CF07F34121E1B7F147E00121CAD72
:1015720030B3167F147E00121CAD90019CE014F073
:10158200E0C3940150EA7F00227F3B121DD3EF5447
:101592007F700302161F7F3F121DBF90019BEFF069
:1015A200900196E0FBA3E0FAA3E0F9120C17FEEF1C
:1015B200D39E504D900193E0FBA3E0FAA3E0F99093
:1015C200019BE012188690019BE0FF900196E0FBE0
:1015D200A3E0FAA3E0F9EF120C90900193E0FBA3D1
:1015E200E0FAA3E0F990019BE0FD121CF27A017986
:1015F200991218827F3A121E1B90019AE05480FFC2
:101602002290019BE0FF900196E0FBA3E0FAA3E0A9
:0F161200F9EF120C907F3A121E1B7F00227F000F
:0116210022A6
:0B118D00900166EBF0A3EAF0A3E9F08C
:10119800E490016DF0A3F0A3F07F34121E1B7F3B97
:1011A800121DD3EF547F70030212F27F3F121DBF4E
:1011B80090016DEFF07F647E00121CAD90016DE030
:1011C800FFD39402500302126C900166E0FBA3E087
:1011D800FAA3E0F9EF12188612187E7F3A121E1B46
:1011E80090016AE030E771E490016FF090016DE0E2
:1011F800FF14FE90016FE0FDC39E5020900166E051
:10120800FBA3E0FAA3E0F98D82758300120C30FE8F
:1012180090016EE02EF0A3E004F080D0EF24FFFFF1
:10122800E434FFFE900166E0FBA3E0FAA3E0F98F47
:10123800828E83120C30FF90016EE0B50717E490A0
:101248000035F09000617455F090016DE0FD121CBE
:10125800F2B2A2806B7F00227BFF7A1A790C121DF2
:101268002E7F002290016DE0FF640270757B017A89
:1012780001796B900174EFF07F3F12188C90016B2D
:10128800E0FFB4FF05A3E0F46013900000E0548F82
:101298006F703BA3E0FF90016CE06F703112187E15
:1012A8007F3A121E1B90016AE030E71A7F3A121E3D
:1012B8001BE490000EF0A3F07F01FE121C78D28C84
:1012C80090016DE0FF227BFF7A1A791780117B016C
:1012D8007A01796B7D02121CF27BFF7A1A7922124D
:0C12E8001D2E7F3A121E1B7F00227F008B
:0112F40022D7
:101622007F34121E1B7F3B121DD3EF547F700302C7
:1016320016DD7F3F121DBF90016AEFF0E0FF6402EA
:1016420060030216C77B017A017966900174EFF09C
:101652007F3F12188C900166E0FFB4FF05A3E0F40F
:101662006013900000E0548F6F7047A3E0FF900179
:1016720067E06F703D7B017A0179681218847F3AC6
:10168200121E1B900169E030E7207F3A121E1B9068
:1016920000357455F0E490000EF0A3F07F01FE12C5
:1016A2001C78D28C90016AE0FF227BFF7A1A7917AC
:1016B200802F7B017A0179667D02121CF27BFF7A10
:1016C2001A7922801C7BFF7A1A7930121D2E7B0137
:1016D2007A01796A7D01121CF280097BFF7A1A79FC
:1016E2003B121D2E7F3A121E1B7F3C121E1B7F389F
:0716F200121E1BD2AA7F00AB
:0116F90022CE
:101B9A007F36121E1BE4FD7F16121D927D187F18D8
:101BAA00121D927D287F1E121D927DA07F1F121D7D
:101BBA00927D787F20121D927F3A121E1B7F3C1263
:0A1BCA001E1B7F38121E1B7F012234
:0300130002192DA2
:10192D00C0E0C0F0C083C082C0D075D000C000C080
:10193D0001C002C003C004C005C006C007C2AA533F
:10194D0087FDB2A090000C7455F07BFF7A1A794791
:10195D00121D2ED007D006D005D004D003D002D052
:0E196D0001D000D0D0D082D083D0F0D0E032B4
:0E1B5C00900182EBF0A3EAF0A3E9F0A3EDF014
:101B6A00A3E075F030A4FFA3E5F0F0A3EFF0900135
:101B7A008774FFF5F0120CC445F06013900182E0FF
:0F1B8A00FBA3E0FAA3E0F9A3E0FD121BD480DF78
:011B99002229
:101ADB004D4355534E3A00476174655761793A004F
:101AEB000D0A00696E697469616C697A6174696F5A
:101AFB006E206F6B0A00536574206F6B0A00456E86
:101B0B0074657220776F720A00457869742070646F
:021B1B000A00BE
:1017860041003E004100E200410123004100030008
:1017960042000E000041000C0041001000410061B3
:1017A6000041000D004100350041003D0341003875
:1017B600004100020141003400420039FFFF4E00A3
:1017C6003FAA0B8101510100000100000000004802
:1017D6000004C0C0C0C0C0C0C0C060230011000863
:1017E6000010A7625BF80322F80347B610181D1C09
:1017F600C700B2EA2A0011598135090B0604050013
:01180600FFE2
:100EFA00E4900164F0A37403F0121B1D7BFF7A1ABD
:100F0A0079DB121D2E7B017A0079007D01121CF219
:100F1A007B017A0079017D01121CF27BFF7A1A7932
:100F2A00E2121D2E7B017A00793B7D01121CF27BB5
:100F3A00017A00793C7D01121CF27BFF7A1A79EB67
:100F4A00121D2E121D101212F57B017A00790490DF
:100F5A0001917408F07F3E12197B121B9A7BFF7A6B
:100F6A001A79EE121D2ED2AF90003BE0F47003A363
:100F7A00E0F4600C900000E0F47003A3E0F47071F8
:100F8A00900010E0B455E1E4F07D027F01FE121CEE
:100F9A000DEF60279000A3E0FD7F017E00121D483F
:100FAA009000A4E0FD7F027E00121D487F017E00B2
:100FBA00121D7A90003BE4F0A3EFF07D027F037EDE
:100FCA0000121C0DEF60A19000A5E0FD7F037E00DA
:100FDA00121D489000A6E0FD7F047E00121D487F86
:100FEA00037E00121D7A900000E4F0A3EFF0020FD6
:100FFA00727BFF7A1B7901121D2E7B017A00790020
:10100A007F037E00121A537B017A00793B7F017EAF
:10101A0000121A537B017A0079007D01121CF27BBF
:10102A00017A0079017D01121CF27BFF7A1A79E2BA
:10103A00121D2E7B017A00793B7D01121CF27B0185
:10104A007A00793C7D01121CF27BFF7A1A79EB1245
:10105A001D2EB2A1E4FFFE121D7A900038EFF06453
:10106A0055700302111F900165E0FF14F0EF700341
:10107A0002111F900002E0900042F090003BE090C5
:10108A000045F090003CE0900046F0900000E090AF
:10109A000048F0900001E0900049F090003BE09099
:1010AA00004AF090003CE090004BF0E4900164F0BC
:1010BA00900164E0FFC3940D501A743F2FF582E447
:1010CA003400F583E0FF90004CE02FF0900164E0DB
:1010DA0004F080DC7B017A0079399001867402F091
:1010EA00FD121B5C7B017A00793F7D0E121BD490A6
:1010FA000002E004F0E490000EF0A3F07F0AFE1272
:10110A001C78D28C90003D7455F0900035F0E49034
:10111A00004CF08019E490003DF07BFF7A1B7909BE
:10112A00121D2E90000CE06455703E12162290009B
:10113A0035E0600B7B017A00796212118D80EF90A5
:10114A000061E0B45518E4F07B0190016904F0A352
:10115A007400F0A3744DF07A0079621208A5900029
:10116A003DE0645570030210707F3C121E1B7F38ED
:10117A00121E1BD2AA4387027BFF7A1B7914121D07
:03118A002E80971D
:1018DB0052656164204944204572726F720A004E52
:1018EB006F7420526F75746520696E666F726D61CF
:1018FB0074696F6E0A004469726563745472616E29
:10190B00736D697444617461436F6D6D616E6420B6
:10191B006E6F74206F6B0A0072696420657175615C
:02192B006C004E
:101CD00090000A120CDAFFE5F0548FFE900000E04D
:101CE000548FFCA3E0B50707ECB506037F01227F04
:021CF0000022D0
:0B04D700900177EBF0A3EAF0A3E9F03E
:1004E200E490017EF0A3F0A3F0A3F0120C17FF90AA
:1004F200017AE0FBA3E0FAA3E0F9EF120C9090017D
:1005020077E0FBA3E0FAA3E0F9900001120C30FFC0
:1005120090017AE0FBA3E0FAA3E0F9900001EF1268
:100522000CA2900177E0FBA3E0FAA3E0F9900002AD
:10053200120C30FF90017AE0FBA3E0FAA3E0F990FD
:100542000002EF120CA2900177E0FBA3E0FAA3E015
:10055200F9900003120C30FF90017AE0FBA3E0FA5D
:10056200A3E0F9900003EF120CA2900177E0FBA345
:10057200E0FAA3E0F9900004120C30FF90017AE057
:10058200FBA3E0FAA3E0F9900004EF120CA29001A1
:1005920077E0FBA3E0FAA3E0F9900005120C30FF2C
:1005A20090017AE0FBA3E0FAA3E0F9900005EF12D4
:1005B2000CA2900177E0FBA3E0FAA3E0F990000C13
:1005C200120C30540FFF1425E0FE90017FF0EF442F
:1005D20050FF90017AE0FBA3E0FAA3E0F990000655
:1005E200EF120CA2900177E0FBA3E0FAA3E0F990EE
:1005F200000D120C30FF90017AE0FBA3E0FAA3E0B9
:10060200F9900007EF120CA2EE604FE490017DF02A
:1006120090017FE0FF90017DE0FEC39F503C90017E
:1006220077E0FBA3E0FAA3E0F990000E120D618ED1
:1006320082758300120C30FFEE2408FDE433FC9037
:10064200017AE0FBA3E0FAA3E0F98D828C83EF123A
:100652000CA290017DE004F080B690017FE02408B6
:10066200A3F0900177E0FBA3E0FAA3E0F990000683
:10067200120C30FF90017AE0FBA3E0FAA3E0F990BC
:100682000180E0FEF582758300EF120CA2900177E3
:10069200E0FBA3E0FAA3E0F990000A120C30FFEEAF
:1006A2002401FDE433FC90017AE0FBA3E0FAA3E02D
:1006B200F98D828C83EF120CA2900177E0FBA3E00C
:1006C200FAA3E0F990000B120C30FFEE2402FDE4D5
:1006D20033FC90017AE0FBA3E0FAA3E0F98D828C6F
:1006E20083EF120CA2900177E0FBA3E0FAA3E0F9FA
:1006F200900008120C30FFEE2403FDE433FC90015D
:100702007AE0FBA3E0FAA3E0F98D828C83EF120C6E
:10071200A2900177E0FBA3E0FAA3E0F990000912AE
:100722000C30FFEE2404FDE433FC90017AE0FBA3DD
:10073200E0FAA3E0F98D828C83EF120CA29001778C
:10074200E0FBA3E0FAA3E0F9900001120C30FF9065
:10075200017FE0FEC3EF9E24F5900181F0605DE42D
:1007620090017DF0900181E0FF90017DE0FEC39F4A
:10077200504A900177E0FBA3E0FAA3E0F990001160
:10078200120D618E82758300120C30FF900180E0A1
:100792002405FDE433FC90017DE07A002DFDEA3C66
:1007A200FC90017AE0FBA3E0FAA3E0F98D828C834E
:1007B200EF120CA290017DE004F080A8E490017D8C
:1007C200F0900177E0FBA3E0FAA3E0F990000112B8
:1007D2000C302403FFE433FE90017DE0C39FEE64FE
:1007E20080F8748098503F90017AE0FBA3E0FAA36E
:1007F200E0F9A3E0F582758300120C30FF900180CE
:10080200E02405FDE433FCA3E07A002DFDEA3CFC84
:1008120090017AA3E0FA8D828C83EF120C5D900135
:100822007DE004F0809B900177E0FBA3E0FAA3E077
:10083200F990000D120C3025E0FFE433FEEF2406A0
:10084200FDE43EFC90017AE0FBA3E0FAA3E0F98D1F
:10085200828C83120C30900039F074072FF582E4F9
:100862003EF583120C3090003AF07B017A00793920
:100872009001867402F0FD121B5C900177E0FBA3ED
:10088200E0FAA3E0F9900001120C302403FD90017C
:100892007AE0FBA3E0FAA3E0F9121BD4900002E095
:0208A20004F060
:0108A4002231
:0B00260090016FEBF0A3EAF0A3E9F0FB
:10003100E4900176F0A3F0A3F0A3F0120C17FF9067
:100041000172E0FBA3E0FAA3E0F9EF120C9090013A
:100051006FE0FBA3E0FAA3E0F9900001120C30FF7E
:10006100900172E0FBA3E0FAA3E0F9900001EF1226
:100071000CA290016FE0FBA3E0FAA3E0F99000026B
:10008100120C30FF900172E0FBA3E0FAA3E0F990BB
:100091000002EF120CA290016FE0FBA3E0FAA3E0D3
:1000A100F9900003120C30FF900172E0FBA3E0FA1B
:1000B100A3E0F9900003EF120CA290016FE0FBA303
:1000C100E0FAA3E0F9900004120C30FF900172E015
:1000D100FBA3E0FAA3E0F9900004EF120CA2900157
:1000E1006FE0FBA3E0FAA3E0F9900005120C30FFEA
:1000F100900172E0FBA3E0FAA3E0F9900005EF1292
:100101000CA290016FE0FBA3E0FAA3E0F9900003D9
:10011100120C30B4810990000C120C300480119043
:10012100016FE0FBA3E0FAA3E0F990000C120C30A0
:10013100FF900172E0FBA3E0FAA3E0F9900006EF63
:10014100120CA290016FE0FBA3E0FAA3E0F990008A
:100151000C120C30540F1425E0900177F09000033D
:10016100120C3030E70790000D7401801090016F80
:10017100E0FBA3E0FAA3E0F990000D74FF120C5D1F
:1001810090016FE0FBA3E0FAA3E0F990000D120CDF
:1001910030FF900172E0FBA3E0FAA3E0F9900007C1
:1001A100EF120CA290016FE0FBA3E0FAA3E0F9903B
:1001B1000003120C306481706990000C120C3054F1
:1001C1000F64017003020278E4900175F0900175EB
:1001D100E0FD2400F582E43400F583E0FC90016F3A
:1001E100E0FBA3E0FAA3E0F990000D120C3025E04A
:1001F100FFE433FEEF2404FFE43EFEED7A002FFF1F
:10020100EA3EFE900172E0FBA3E0FAA3E0F98F82DF
:100211008E83EC120CA2900175E004F0E0B402AD03
:100221008055900177E0604FE4900175F09001777F
:10023100E0FF900175E0FEC39F503C90016FE0FB31
:10024100A3E0FAA3E0F990000E120D618E8275838E
:1002510000120C30FFEE2408FDE433FC900172E043
:10026100FBA3E0FAA3E0F98D828C83EF120CA2903C
:100271000175E004F080B6900177E0FE2408A3F058
:1002810090016FE0FBA3E0FAA3E0F9900006120CE5
:1002910030FF900172E0FBA3E0FAA3E0F99001784E
:1002A100E0F582758300EF120CA290016FE0FBA3D1
:1002B100E0FAA3E0F9900001120C30C39E24F590FE
:1002C1000179F0605DE4900175F0900179E0FF90B3
:1002D1000175E0FEC39F504A90016FE0FBA3E0FA75
:1002E100A3E0F9900011120D618E82758300120C4A
:1002F10030FF900178E02405FDE433FC900175E0C6
:100301007A002DFDEA3CFC900172E0FBA3E0FAA328
:10031100E0F98D828C83EF120CA2900175E004F05C
:1003210080A890016FE0FBA3E0FAA3E0F990000838
:10033100120C30FF900178E0FE2401FDE433FC90C3
:100341000172E0FBA3E0FAA3E0F98D828C83EF1246
:100351000CA290016FE0FBA3E0FAA3E0F990000981
:10036100120C30FFEE2402FDE433FC900172E0FB3D
:10037100A3E0FAA3E0F98D828C83EF120CA2900125
:100381006FE0FBA3E0FAA3E0F990000A120C30FF42
:10039100EE2403FDE433FC900172E0FBA3E0FAA339
:1003A100E0F98D828C83EF120CA290016FE0FBA328
:1003B100E0FAA3E0F990000B120C30FFEE2404FDEB
:1003C100E433FC900172E0FBA3E0FAA3E0F98D8233
:1003D1008C83EF120CA2E4900175F090016FE0FBA9
:1003E100A3E0FAA3E0F9900001120C302403FFE42A
:1003F10033FE900175E0C39FEE6480F874809850DD
:100401003F900172E0FBA3E0FAA3E0F9A3E0F582DB
:10041100758300120C30FF900178E02405FDE43370
:10042100FCA3E07A002DFDEA3CFC900172A3E0FA06
:100431008D828C83EF120C5D900175E004F0809B3E
:1004410090016FE0FBA3E0FAA3E0F9900003120C26
:1004510030B4810C90003A74FFF0900039F0804480
:1004610090016FE0FBA3E0FAA3E0F990000D120CFC
:100471003025E0FFE433FEEF2406FDE43EFC90016D
:1004810072E0FBA3E0FAA3E0F98D828C83120C30B9
:10049100900039F074072FF582E43EF583120C3099
:1004A10090003AF07B017A0079399001867402F06C
:1004B100FD121B5C90016FE0FBA3E0FAA3E0F99051
:1004C1000001120C302403FD900172E0FBA3E0FA5D
:0604D100A3E0F9021BD4B8
:10145300900172EDF090016FEBF0A3EAF0A3E9F0D5
:1014630090000E120D61900174EBF0A3EAF0A3E972
:10147300F07D55E4FFFE121C0DEF6007E4FDFFFE57
:10148300121D48E4FFFE121D7A900038EFF0E4903D
:10149300003DF07D027F03FE121C0DEF7003021569
:1014A3003D90016FE0FBA3E0FAA3E0F990000A127C
:1014B3000C30FD7F037E00121D4890016FE0FBA3FB
:1014C300E0FAA3E0F990000B120C30FD7F047E00DC
:1014D300121D48900172E0FD603C7F057E00121DE5
:1014E30048E4900173F0900172E0FFA3E0FEC39F14
:1014F3005024EE2406FFE433FEA3E0FBA3E475F0DF
:1015030001120CC4A9F0FA120C17FD121D48900128
:1015130073E004F080D090016FE0FBA3E0FAA3E056
:10152300F99000037482120CA290017A7401F0A363
:101533007401F0A37424F00204D77BFF7A1879DBDB
:03154300121D2E48
:011546002282
:101DFA009001727401F0A37401F0A37424F002003C
:011E0A0026B1
:0B08A500900166EBF0A3EAF0A3E9F07D
:1008B000E490016CF0FFFEA3F0900166E0FBA3E082
:1008C000FAA3E0F9120C17FD900169E0FBA3E0FA2E
:1008D000A3E0F9ED120C90900166E0FBA3E0FAA30F
:1008E000E0F9900001120C30FD900169E0FBA3E0FB
:1008F000FAA3E0F9900001ED120CA2900166E0FB72
:10090000A3E0FAA3E0F9900002120C30FD90016917
:10091000E0FBA3E0FAA3E0F9900002ED120CA29034
:100920000166E0FBA3E0FAA3E0F9900003120C30AB
:10093000FD900169E0FBA3E0FAA3E0F9900003ED6C
:10094000120CA2900166E0FBA3E0FAA3E0F990008C
:1009500004120C30FD900169E0FBA3E0FAA3E0F97A
:10096000900004ED120CA2900166E0FBA3E0FAA354
:10097000E0F9900005120C30FD900169E0FBA3E066
:10098000FAA3E0F9900005ED120CA290000C120CF5
:1009900030540F1425E0FD90016CF0900166E0FBEF
:1009A000A3E0FAA3E0F9900006120C30FC90016974
:1009B000E0FBA3E0FAA3E0F990000CEC120CA2908B
:1009C0000166E0FBA3E0FAA3E0F9900007120C3007
:1009D000FC900169E0FBA3E0FAA3E0F990000DECC4
:1009E000120CA2ED6025900166E0FBA3E0FAA3E003
:1009F0002408F9E43AFAC003C002C001A3E0FBA353
:100A0000E0FAA3E0F990000E120D9190016CE0FE67
:100A10002408FF900166E0FBA3E0FAA3E0F98F82CF
:100A2000758300120C30FD900169E0FBA3E0FAA38E
:100A3000E0F9900006ED120CA2EF2401FDE433FC76
:100A4000900166E0FBA3E0FAA3E0F98D828C8312AB
:100A50000C30FD900169E0FBA3E0FAA3E0F99000FF
:100A600008ED120CA2EF2402FDE433FC900166E0D5
:100A7000FBA3E0FAA3E0F98D828C83120C30FD9089
:100A80000169E0FBA3E0FAA3E0F9900009ED120C84
:100A9000A2EF2403FDE433FC900166E0FBA3E0FA3F
:100AA000A3E0F98D828C83120C30FD900169E0FB8C
:100AB000A3E0FAA3E0F990000AED120CA2EF2404DF
:100AC000FDE433FC900166E0FBA3E0FAA3E0F98DBE
:100AD000828C83120C30FD900169E0FBA3E0FAA345
:100AE000E0F990000BED120CA2900001120C30C343
:100AF0009E24F5602BEF2405FFE433FE900166E0B1
:100B0000FBA3E0FAA3E02FF9EA3EFAC003C002C05B
:100B100001A3E0FBA3E0FAA3E0F9900011120D910C
:100B2000E490016EF0900169E0FBA3E0FAA3E0F924
:100B3000900001120C302403FFE433FE90016EE0BC
:100B4000C39FEE6480F87480985034900166E0FB97
:100B5000A3E0FAA3E0F990016EE0FFF5827583004F
:100B6000120C30FE90016DE02EF07E00E92FF9EEC0
:100B70003AFA7D01121CF290016EE004F080A6901A
:100B80000169E0FBA3E0FAA3E0F9900002120C3047
:100B9000FF900034E0B50714900008120CDAFF90C3
:100BA0000036E065F07003A3E06F60619000021210
:100BB0000C30900034F0900008120CDAFF900036F0
:100BC000E5F0F0A3EFF0121CD0EF6024900169E093
:100BD000FBA3E0FAA3E0F9900003120C30147008B4
:100BE00090016CE0FD0214537BFF7A1879EA8023B0
:100BF000900038E0B455087BFF7A19790180149091
:100C00000169E0FBA3E0FAA3E0F9021DFA7BFF7A99
:060C1000197923121D2ECC
:010C160022BB
:030000000216FAEB
:0C16FA00787FE4F6D8FD758107021741E7
:100C1700BB010689828A83E0225002E722BBFE02DB
:090C2700E32289828A83E493220E
:100C3000BB010CE58229F582E5833AF583E0225079
:100C400006E92582F8E622BBFE06E92582F8E222C3
:0D0C5000E58229F582E5833AF583E49322DD
:100C5D00BB010FF8E58229F582E5833AF583E0289B
:100C6D00F0225009C58229F8E58226F622BBFE093D
:100C7D00C58229F8E22582F222F8EA2583F583E977
:030C8D0093282287
:100C9000BB010689828A83F0225002F722BBFE0143
:020CA000F3223D
:100CA200F8BB010DE58229F582E5833AF583E8F088
:100CB200225006E92582C8F622BBFE05E92582C834
:020CC200F2221C
:100CC400A3F8E0C5F025F0F0E582158270021583E3
:060CD400E0C838F0E82240
:100CDA00BB0110E58229F582E5833AF583E0F5F058
:100CEA00A3E0225009E92582F886F008E622BBFE35
:100CFA000AE92582F8E2F5F008E222E5832AF5837B
:080D0A00E993F5F0A3E993223F
:100D1200E88FF0A4CC8BF0A42CFCE98EF0A42CFC80
:100D22008AF0EDA42CFCEA8EF0A4CDA8F08BF0A4FE
:100D32002DCC3825F0FDE98FF0A42CCD35F0FCEB5D
:100D42008EF0A4FEA9F0EB8FF0A4CFC5F02ECD3922
:0F0D5200FEE43CFCEAA42DCE35F0FDE43CFC228F
:101A9700C2D5E830E70FB2D5E4C39BFBE49AFAE47A
:101AA70099F9E498F8EC30E717B2D5121ACD120E6F
:101AB70026E4C39BFBE49AFAE499F9E498F88003D7
:101AC700120E2630D50DE4C39FFFE49EFEE49DFD74
:041AD700E49CFC226D
:100D6100BB010DE58229F582E5833AF583020ECABE
:100D71005007E92582F8020EB8BBFE07E92582F883
:100D8100020EDCE58229F582E5833AF583020EEE57
:100D9100BB0120E58229F582E5833AF583D0F0D0C5
:100DA100E0F8D0E0F9D0E0FAD0E0FBE8C0E0C0F034
:100DB100020ED35018E92582F8D083D082D0E0F911
:100DC100D0E0FAD0E0FBC082C083020EC1BBFE18A6
:100DD100E92582F8D083D082D0E0F9D0E0FAD0E0E2
:090DE100FBC082C083020EE52272
:10170600020EFAE493A3F8E493A34003F68001F2F1
:1017160008DFF48029E493A3F85407240CC8C333E4
:10172600C4540F4420C8834004F456800146F6DFB3
:10173600E4800B0102040810204080901786E47EA6
:10174600019360BCA3FF543F30E509541FFEE493A8
:10175600A360010ECF54C025E060A840B8E493A36F
:10176600FAE493A3F8E493A3C8C582C8CAC583CA9A
:10177600F0A3C8C582C8CAC583CADFE9DEE780BE52
:0118070000E0
:100DEA0075F008758200EF2FFFEE33FECD33CDCCC0
:100DFA0033CCC58233C5829BED9AEC99E582984043
:100E0A000CF582EE9BFEED9AFDEC99FC0FD5F0D61F
:100E1A00E4CEFBE4CDFAE4CCF9A88222B800C1B949
:100E2A000059BA002DEC8BF084CFCECDFCE5F0CB87
:100E3A00F97818EF2FFFEE33FEED33FDEC33FCEBC0
:100E4A0033FB10D703994004EB99FB0FD8E5E4F97B
:100E5A00FA227818EF2FFFEE33FEED33FDEC33FC68
:100E6A00C933C910D7059BE99A4007EC9BFCE99A5C
:100E7A00F90FD8E0E4C9FAE4CCFB2275F010EF2FA1
:100E8A00FFEE33FEED33FDCC33CCC833C810D707A1
:100E9A009BEC9AE899400AED9BFDEC9AFCE899F8DC
:0E0EAA000FD5F0DAE4CDFBE4CCFAE4C8F9226F
:090EB800E6FB08E6FA08E6F9225F
:090EC100EBF608EAF608E9F62256
:090ECA00E0FBA3E0FAA3E0F92229
:090ED300EBF0A3EAF0A3E9F02220
:090EDC00E2FB08E2FA08E2F92247
:090EE500EBF208EAF208E9F2223E
:0C0EEE00E493FB740193FA740293F92260
:00000001FF
