:0D001600E4F5C7F5C5F5C675C380F5C42235
:101BC40075C78275C5018FC4EEF5C375C65A75C64F
:071BD400A500AFC2120016CC
:011BDB0022E7
:101B920075C78275C5028FC4EEF5C3AF058FC275D6
:091BA200C65A75C6A50002001622
:101BF40075C78275C5038FC4EEF5C375C65A75C61D
:051C0400A5000200161E
:0619DF00AC05AB07AA06EF
:1019E500E4F9E9C39C500EE92BFFE43AFE7DFF12B2
:1019F5001B920980EDE4F9E9C39C5013E92BFFE440
:101A05003AFE121BC4EFF460037F00220980E87FD1
:011A150001CF
:011A160022AD
:0F182C00900164EBF0A3EAF0A3E9F0AD07AC067E
:10183B00E4A3F0900167E0FFC394025027EF2DFF64
:10184B00E43CFE121BC4900164E0FBA3E0FAA3E0AE
:10185B00F9A3E0F582758300EF120BED900167E0C1
:04186B0004F080CF36
:01186F002256
:03000E00D28A2271
:07000300C284C281D28422F5
:101C3100759850438920758DFD758BFDD28EC2AB91
:031C4100D2AC2200
:101B5E00C2AC120B626010F5993099FDC2997401F6
:0A1B6E0029F9E43AFA80EBD2AC2228
:1018B4007B017A0079007F037E0012182C7B017A69
:1018C40000793A7F017E0012182C7F017E00121AE3
:1018D4007A12000E121C31120003121AD9121AD9EC
:0F18E400121AD7121AD9121AD7121AD9B2A3226E
:101A1700E4FEC281FDEF30E704D2808002C280EF8E
:101A270025E0FFD281000000000000EE25E0FE3037
:101A370082010EC2810000000000000DEDB408D540
:021A4700AF06E8
:011A4900227A
:101A7A00E4FDFCFB7AC079A8F8120C5DE47B0CFA51
:101A8A00F9F8121870E47BE87A03F9F8121870C3AF
:0E1A9A00E49FFDE49E4389018D8AF58CD2A95C
:011AA800221B
:101B2200C2ACAF051DEF6013120B62F5993099FD3F
:0E1B3200C299740129F9E43AFA80E7D2AC2294
:061AD700B2A37F507EC3A4
:101ADD00E4FDFCC3ED9FEC9E50070DBD00010C8095
:101AED00F2E4FCFDC3ED9FEC9E50070DBD00010C13
:021AFD0080F275
:011AFF0022C4
:030023000217E5DC
:1017E500C0E0C083C082C0D0309833900122E0248D
:1017F500A1F582E43400F583E599F09000A1E06459
:10180500AA6007900122E4F08012900122E004F022
:10181500E0D3940A40069000107455F0C298D0D0D9
:07182500D082D083D0E03235
:03000B000216D307
:1016D300C0E0C0F0C083C082C0D075D000C000C0DD
:1016E30001C002C003C004C005C006C0077F017E5D
:1016F30000121A7A90000FE004F0700690000EE0DA
:1017030004F0C390000FE0941090000EE094274083
:101713000F900035E4F0B2A290000EF0A3F0C28C5B
:10172300D007D006D005D004D003D002D001D0001A
:0B173300D0D0D082D083D0F0D0E032C4
:101931003320616E64206372630A00435243206561
:1019410072726F720A002020776879204E6F7420BE
:101951006D650A004C656E677468213D320A004E60
:0B1961006F74207061636B65740A00F6
:101BAB00000000000000000000000000000000EF3B
:091BBB001F70011E144E70E82297
:101C5500C2842082FD7F30121A172082FDD2842291
:101B4000D2847F0A7E00121BABC2847F0A7E001201
:0E1B50001BABD2847F9A7E01121BAB021C5588
:101BDC0090018AEDF0C2842082FD121A1790018ABE
:081BEC00E0FF121A17D2842257
:0B179B0090018BEBF0A3EAF0A3E9F053
:1017A600EF4440FFC2842082FD121A17E490018F95
:1017B600F090018EE0FFA3E0FEC39F501F90018BC7
:1017C600E0FBA3E0FAA3E0F98E82758300120B7B9F
:0E17D600FF121A1790018FE004F080D5D28424
:0117E40022E2
:0B1C6500C2842082FD121A17D28422D4
:101C0900EF4480FFC2842082FD121A17E4FF121AE2
:031C190017D2845B
:011C1C0022A5
:0E173E007A0179677B017402900172F07F3F9F
:0B174C0090016FEBF0A3EAF0A3E9F0BE
:10175700EF44C0FFC2842082FD121A17E490017380
:10176700F0900172E0FFA3E0C39F5025E4FF121A37
:101777001790016FE0FBA3E0FAA3E0F9900173E093
:10178700F582758300EF120BED900173E004F08092
:03179700D0D28429
:01179A00222C
:101C1D00EF44C0FFC2842082FD121A17E4FF121A8E
:031C2D0017D28447
:011C30002291
:1011C80090002EE0FDE4FF121BDC90002FE0FD7F75
:1011D80002121BDC900011E0FD7F0C121BDC90005A
:1011E80012E0FD7F0B121BDC900013E0FD7F0C1258
:1011F8001BDC900014E0FD7F0D121BDC900015E055
:10120800FD7F0E121BDC900016E0FD7F0F121BDC29
:10121800900017E0FD7F10121BDC900018E0FD7FA6
:1012280011121BDC900019E0FD7F12121BDC9000EC
:101238001AE0FD7F13121BDC90001BE0FD7F1412E7
:101248001BDC90001CE0FD7F0A121BDC90001DE0F7
:10125800FD7F15121BDC90001EE0FD7F21121BDCB8
:1012680090001FE0FD7F22121BDC900020E0FD7F34
:1012780018121BDC900021E0FD7F19121BDC900086
:1012880022E0FD7F1A121BDC900023E0FD7F1B1279
:101298001BDC900024E0FD7F1C121BDC900025E085
:1012A800FD7F1D121BDC900026E0FD7F23121BDC56
:1012B800900027E0FD7F24121BDC900028E0FD7FD2
:1012C80025121BDC900029E0FD7F26121BDC900014
:1012D8002AE0FD7F29121BDC90002BE0FD7F2C12F9
:1012E8001BDC90002CE0FD7F2D121BDC90002DE014
:1012F800FD7F2E121BDC900030E0FD7F07121BDC07
:10130800900031E0FD7F08121BDC900032E0FD7F89
:0E13180009121BDC900033E0FD7F06021BDC97
:1019A600900186EBF0A3EAF0A3E9F0A3EDF07F3F08
:1019B600121BDC900186E0FBA3E0FAA3E0F9A3E0AA
:1019C60090018EF07F3F12179B7F35121C6530B356
:0919D600FD20B3FD7F3B021C65FE
:0B141600900190EBF0A3EAF0A3E9F0D6
:10142100A3E0FBA3E0FAA3E0F9120B6225E025E0BB
:10143100900199F07F34121C657F147E00121ADD31
:1014410030B3167F147E00121ADD900199E014F07A
:10145100E0C3940150EA7F00227F3B121C1DEF5430
:101461007F70030214EE7F3F121C09900198EFF088
:10147100900193E0FBA3E0FAA3E0F9120B62FEEF07
:10148100D39E504D900190E0FBA3E0FAA3E0F990C8
:101491000198E0121746900198E0FF900193E0FB5C
:1014A100A3E0FAA3E0F9EF120BDB900190E0FBA3BC
:1014B100E0FAA3E0F9900198E0FD121B227A01798C
:1014C100961217427F3A121C65900197E05480FFF3
:1014D10022900198E0FF900193E0FBA3E0FAA3E0E2
:0F14E100F9EF120BDB7F3A121C657F00227F00B0
:0114F00022D9
:0B106000900164EBF0A3EAF0A3E9F0BC
:10106B00E490016BF0A3F0A3F07F34121C657F3B7F
:10107B00121C1DEF547F70030211C57F3F121C0918
:10108B0090016BEFF07F647E00121ADD90016BE034
:10109B00FFD39402500302113F900164E0FBA3E0E5
:1010AB00FAA3E0F9EF12174612173E7F3A121C65AE
:1010BB00900168E030E771E490016DF090016BE016
:1010CB00FF14FE90016DE0FDC39E5020900164E083
:1010DB00FBA3E0FAA3E0F98D82758300120B7BFE74
:1010EB0090016CE02EF0A3E004F080D0EF24FFFF22
:1010FB00E434FFFE900164E0FBA3E0FAA3E0F98F78
:10110B00828E83120B7BFF90016CE0B50717E49086
:10111B000035F09000607455F090016BE0FD121BF0
:10112B0022B2A2806B7F00227BFF7A197931121BCE
:10113B005E7F002290016BE0FF640270757B017A89
:10114B00017969900172EFF07F3F12174C900169A2
:10115B00E0FFB4FF05A3E0F46013900000E0548FB0
:10116B006F703BA3E0FF90016AE06F703112173E86
:10117B007F3A121C65900168E030E71A7F3A121C27
:10118B0065E490000EF0A3F07F01FE121A7AD28C68
:10119B0090016BE0FF227BFF7A19793C80117B0178
:1011AB007A0179697D02121B227BFF7A197947122A
:0C11BB001B5E7F3A121C657F00227F0043
:0111C7002205
:1014F1007F34121C657F3B121C1DEF547F70030269
:1015010015AC7F3F121C09900168EFF0E0FF640207
:1015110060030215967B017A017964900172EFF004
:101521007F3F12174C900164E0FFB4FF05A3E0F484
:101531006013900000E0548F6F7047A3E0FF9001AB
:1015410065E06F703D7B017A0179661217447F3A3D
:10155100121C65900167E030E7207F3A121C65900C
:1015610000357455F0E490000EF0A3F07F01FE12F7
:101571001A7AD28C900168E0FF227BFF7A19793CBC
:10158100802F7B017A0179647D02121B227BFF7A15
:10159100197947801C7BFF7A197955121B5E7B01F3
:1015A1007A0179687D01121B2280097BFF7A197902
:1015B10060121B5E7F3A121C657F3C121C657F38EE
:0715C100121C65D2AA7F0095
:0115C8002200
:10196C007F36121C65E4FD7F16121BDC7D187F1878
:10197C00121BDC7D287F1E121BDC7DA07F1F121B1F
:10198C00DC7D787F20121BDC7F3A121C657F3C12B9
:0A199C001C657F38121C657F0122D4
:03001300021B7855
:101B7800C0E0C083C082C2AA5387FDB2A090000C07
:0A1B88007455F0D082D083D0E03213
:0E18F30090017FEBF0A3EAF0A3E9F0A3EDF083
:10190100A3E075F030A4FFA3E5F0F0A3EFF09001A0
:101911008474FFF5F0120C0F45F0601390017FE025
:0F192100FBA3E0FAA3E0F9A3E0FD1219A680DF13
:011930002294
:101AA9004D4355534E3A00476174655761793A0081
:101AB9000D0A00696E697469616C697A6174696F8C
:0E1AC9006E206F6B0A00536574206F6B0A006D
:1016550041003D004100E10041012200410003003D
:1016650042000E000041000C0041001000410060E6
:101675000041000D004100350041003C03410002DE
:101685000141003400420038FFFF4E003EAA0B81A5
:1016950001510100000100000000CC480004C0C059
:1016A500C0C0C0C0C0C06023001100080010A76200
:1016B5005BF80322F80347B610181D1CC700B2EAF1
:0D16C5002A0011598135090B06040500FFAC
:100E4500E4900163F01218B47BFF7A1A79A9121B9A
:100E55005E7B017A0079007D01121B227B017A00FD
:100E650079017D01121B227BFF7A1A79B0121B5E74
:100E75007B017A00793A7D01121B227B017A007988
:100E85003B7D01121B227BFF7A1A79B9121B5E1278
:100E95001B401211C87B017A00790490018E7408F9
:100EA500F07F3E12179B12196C7BFF7A1A79BC12E0
:100EB5001B5ED2AF90003AE0F47003A3E0F4600C3F
:100EC500900000E0F47003A3E0F47052900010E08D
:100ED500B455E1E4F07D027F01FE1219DFEF6018E1
:100EE5009000A2E0FD7F017E00121B929000A3E01E
:100EF500FD7F027E00121B927D027F037E00121988
:100F0500DFEF60B09000A4E0FD7F037E00121B922E
:100F15009000A5E0FD7F047E00121B9280967BFF6A
:100F25007A1A79CF121B5E7B017A0079007F037EE6
:100F35000012182C7B017A00793A7F017E00121885
:100F45002C7B017A0079007D01121B227B017A003E
:100F550079017D01121B227BFF7A1A79B0121B5E83
:100F65007B017A00793A7D01121B227B017A007997
:100F75003B7D01121B227BFF7A1A79B9121B5EB2E7
:100F8500A0E4FFFE121BC490003CEFF090003CE093
:100F9500FF14F0EF6070900002E0900041F09000C7
:100FA5003AE0900044F090003BE0900045F090005E
:100FB50000E0900047F0900001E0900048F09000BC
:100FC5003AE0900049F090003BE090004AF07B0148
:100FD5007A0079389001837402F0FD1218F37B01D1
:100FE5007A00793E7D0E1219A6900002E004F0E425
:100FF50090000EF0A3F07F01FE121A7AD28C9000B9
:10100500357455F0800B90000CE06455703C12145B
:10101500F1900035E0600B7B017A00796112106078
:1010250080EF900060E0B45518E4F07B0190016713
:1010350004F0A37400F0A3744CF07A0079611208EF
:101045006090003CE06003020F917F3C121C657FBD
:0B10550038121C65D2AA43870280AB52
:101A4A0052656164204944204572726F720A004EE1
:101A5A006F7420526F75746520696E666F726D615E
:101A6A0074696F6E0A0072696420657175616C0031
:101B000090000A120C25FFE5F0548FFE900000E0D3
:101B1000548FFCA3E0B50707ECB506037F01227FD5
:021B20000022A1
:0B049300900174EBF0A3EAF0A3E9F085
:10049E00E490017BF0A3F0A3F0A3F0120B62FF90A7
:1004AE000177E0FBA3E0FAA3E0F9EF120BDB90017A
:1004BE0074E0FBA3E0FAA3E0F9900001120B7BFFBE
:1004CE00900177E0FBA3E0FAA3E0F9900001EF12B0
:1004DE000BED900174E0FBA3E0FAA3E0F9900002AB
:1004EE00120B7BFF900177E0FBA3E0FAA3E0F990FB
:1004FE000002EF120BED900174E0FBA3E0FAA3E013
:10050E00F9900003120B7BFF900177E0FBA3E0FA5A
:10051E00A3E0F9900003EF120BED900174E0FBA342
:10052E00E0FAA3E0F9900004120B7BFF900177E054
:10053E00FBA3E0FAA3E0F9900004EF120BED90019B
:10054E0074E0FBA3E0FAA3E0F9900005120B7BFF29
:10055E00900177E0FBA3E0FAA3E0F9900005EF121B
:10056E000BED900174E0FBA3E0FAA3E0F990000C10
:10057E00120B7B540FFF25E0FE90017CF0EF4450F0
:10058E00FF900177E0FBA3E0FAA3E0F9900006EFFD
:10059E00120BED900174E0FBA3E0FAA3E0F99000DA
:1005AE000D120B7BFF900177E0FBA3E0FAA3E0F9BD
:1005BE00900007EF120BEDEE604FE490017AF09091
:1005CE00017CE0FF90017AE0FEC39F503C900174E5
:1005DE00E0FBA3E0FAA3E0F990000E120CAC8E82C1
:1005EE00758300120B7BFFEE2408FDE433FC9001B3
:1005FE0077E0FBA3E0FAA3E0F98D828C83EF120B78
:10060E00ED90017AE004F080B690017CE02408A31E
:10061E00F0900174E0FBA3E0FAA3E0F9900006125B
:10062E000B7BFF900177E0FBA3E0FAA3E0F99001CA
:10063E007DE0FEF582758300EF120BED900174E004
:10064E00FBA3E0FAA3E0F990000A120B7BFFEE2465
:10065E0001FDE433FC900177E0FBA3E0FAA3E0F99F
:10066E008D828C83EF120BED900174E0FBA3E0FA08
:10067E00A3E0F990000B120B7BFFEE2402FDE43396
:10068E00FC900177E0FBA3E0FAA3E0F98D828C8366
:10069E00EF120BED900174E0FBA3E0FAA3E0F990EA
:1006AE000008120B7BFFEE2403FDE433FC90017770
:1006BE00E0FBA3E0FAA3E0F98D828C83EF120BED41
:1006CE00900174E0FBA3E0FAA3E0F9900009120B8D
:1006DE007BFFEE2404FDE433FC900177E0FBA3E006
:1006EE00FAA3E0F98D828C83EF120BED900174E08A
:1006FE00FBA3E0FAA3E0F9900001120B7BFF90013F
:10070E007CE0FEC3EF9E24F590017EF0605DE490E8
:10071E00017AF090017EE0FF90017AE0FEC39F50D7
:10072E004A900174E0FBA3E0FAA3E0F990001112E5
:10073E000CAC8E82758300120B7BFF90017DE02442
:10074E0005FDE433FC90017AE07A002DFDEA3CFCD5
:10075E00900177E0FBA3E0FAA3E0F98D828C83EFA2
:10076E00120BED90017AE004F080A8E490017AF08B
:10077E00900174E0FBA3E0FAA3E0F9900001120BE4
:10078E007B2403FFE433FE90017AE0C39FEE648086
:10079E00F8748098503F900177E0FBA3E0FAA3E055
:1007AE00F9A3E0F582758300120B7BFF90017DE0CB
:1007BE002405FDE433FCA3E07A002DFDEA3CFC9019
:1007CE000177A3E0FA8D828C83EF120BA890017A49
:1007DE00E004F0809B900174E0FBA3E0FAA3E0F943
:1007EE0090000D120B7B25E0FFE433FEEF2406FD97
:1007FE00E43EFC900177E0FBA3E0FAA3E0F98D82E2
:10080E008C83120B7B900038F074072FF582E43E38
:10081E00F583120B7B900039F07B017A00793890CA
:10082E0001837402F0FD1218F3900174E0FBA3E053
:10083E00FAA3E0F9900001120B7B2403FD900177DF
:10084E00E0FBA3E0FAA3E0F91219A6900002E0047F
:01085E00F0A9
:01085F002276
:0B00260090016CEBF0A3EAF0A3E9F0FE
:10003100E4900173F0A3F0A3F0A3F0120B62FF9020
:10004100016FE0FBA3E0FAA3E0F9EF120BDB9001F3
:100051006CE0FBA3E0FAA3E0F9900001120B7BFF37
:1000610090016FE0FBA3E0FAA3E0F9900001EF1229
:100071000BED90016CE0FBA3E0FAA3E0F990000224
:10008100120B7BFF90016FE0FBA3E0FAA3E0F99074
:100091000002EF120BED90016CE0FBA3E0FAA3E08C
:1000A100F9900003120B7BFF90016FE0FBA3E0FAD4
:1000B100A3E0F9900003EF120BED90016CE0FBA3BC
:1000C100E0FAA3E0F9900004120B7BFF90016FE0CE
:1000D100FBA3E0FAA3E0F9900004EF120BED90010D
:1000E1006CE0FBA3E0FAA3E0F9900005120B7BFFA3
:1000F10090016FE0FBA3E0FAA3E0F9900005EF1295
:100101000BED90016CE0FBA3E0FAA3E0F990000392
:10011100120B7BB4810990000C120B7B04801190AF
:10012100016CE0FBA3E0FAA3E0F990000C120B7B59
:10013100FF90016FE0FBA3E0FAA3E0F9900006EF66
:10014100120BED90016CE0FBA3E0FAA3E0F9900043
:100151000C120B7B540F25E0FF900174F090000D01
:10016100120B7BFE90016FE0FBA3E0FAA3E0F99094
:100171000007EE120BEDEF604FE4900172F0900179
:1001810074E0FF900172E0FEC39F503C90016CE06F
:10019100FBA3E0FAA3E0F990000E120CAC8E82757D
:1001A1008300120B7BFFEE2408FDE433FC90016F0A
:1001B100E0FBA3E0FAA3E0F98D828C83EF120BED53
:1001C100900172E004F080B6900174E0FE2408A36F
:1001D100F090016CE0FBA3E0FAA3E0F990000612B5
:1001E1000B7BFF90016FE0FBA3E0FAA3E0F9900124
:1001F10075E0F582758300EF120BED90016CE0FB69
:10020100A3E0FAA3E0F9900001120B7BC39E24F551
:10021100900176F0605DE4900172F0900176E0FF6C
:10022100900172E0FEC39F504A90016CE0FBA3E095
:10023100FAA3E0F9900011120CAC8E8275830012C2
:100241000B7BFF900175E02405FDE433FC90017206
:10025100E07A002DFDEA3CFC90016FE0FBA3E0FA9F
:10026100A3E0F98D828C83EF120BED900172E00413
:10027100F080A890016CE0FBA3E0FAA3E0F9900004
:1002810008120B7BFF900175E0FE2401FDE433FCB5
:1002910090016FE0FBA3E0FAA3E0F98D828C83EF7C
:1002A100120BED90016CE0FBA3E0FAA3E0F99000E2
:1002B10009120B7BFFEE2402FDE433FC90016FE099
:1002C100FBA3E0FAA3E0F98D828C83EF120BED9092
:1002D100016CE0FBA3E0FAA3E0F990000A120B7BAA
:1002E100FFEE2403FDE433FC90016FE0FBA3E0FA91
:1002F100A3E0F98D828C83EF120BED90016CE0FB92
:10030100A3E0FAA3E0F990000B120B7BFFEE2404AB
:10031100FDE433FC90016FE0FBA3E0FAA3E0F98D6B
:10032100828C83EF120BEDE4900172F090016CE08E
:10033100FBA3E0FAA3E0F9900001120B7B2403FF79
:10034100E433FE900172E0C39FEE6480F8748098FC
:10035100503F90016FE0FBA3E0FAA3E0F9A3E0F5C1
:1003610082758300120B7BFF900175E02405FDE48B
:1003710033FCA3E07A002DFDEA3CFC90016FA3E081
:10038100FA8D828C83EF120BA8900172E004F08049
:100391009B90016CE0FBA3E0FAA3E0F9900003124B
:1003A1000B7B90000D30E7047401800274FF120B87
:1003B100A8900003120B7B64817061900000E0FD46
:1003C10090000D120B7B25E0FFE433FEEF2406FFC6
:1003D100E43EFE90016FE0FBA3E0FAA3E0F98F8217
:1003E1008E83ED120BED900001E0FD90016CE0FBBE
:1003F100A3E0FAA3E0F990000D120B7B25E0FFE4E6
:1004010033FEEF2407FFE43EFE90016FE0FBA3E023
:10041100FAA3E0F98F828E83ED120BED90016CE06F
:10042100FBA3E0FAA3E0F990000D120B7B25E0FF9E
:10043100E433FEEF2406FDE43EFC90016FE0FBA3F4
:10044100E0FAA3E0F98D828C83120B7B900038F0E7
:1004510074072FF582E43EF583120B7B900039F08F
:100461007B017A0079389001837402F0FD1218F350
:1004710090016CE0FBA3E0FAA3E0F9900001120BFC
:100481007B2403FD90016FE0FBA3E0FAA3E0F902F6
:0204910019A6AA
:1013260090016FEDF090016CEBF0A3EAF0A3E9F009
:1013360090000E120CAC900171EBF0A3EAF0A3E959
:10134600F07D01E4FFFE1219DFEF6007E4FDFFFE0A
:10135600121B92E4FFFE121BC490003CEFF07D02CC
:101366007F037E001219DFEF700302140C90016CEC
:10137600E0FBA3E0FAA3E0F990000A120B7BFD7FE5
:10138600037E00121B9290016CE0FBA3E0FAA3E03F
:10139600F990000B120B7BFD7F047E00121B9290CE
:1013A600016FE0FD60697F057E00121B92E49001EB
:1013B60070F090016FE0FFA3E0FEC39F5024EE247F
:1013C60006FFE433FEA3E0FBA3E475F001120C0F65
:1013D600A9F0FA120B62FD121B92900170E004F064
:1013E60080D090016CE0FBA3E0FAA3E0F990000343
:1013F6007482120BED9001777401F0A37401F0A3CF
:0F1406007423F00204937BFF7A1A794A121B5E5B
:0114150022B4
:101C440090016F7401F0A37401F0A37423F00200F7
:011C54002669
:0B086000900164EBF0A3EAF0A3E9F0C4
:10086B00E490016BF0FFFE900164E0FBA3E0FAA3C0
:10087B00E0F9120B62FD900167E0FBA3E0FAA3E045
:10088B00F9ED120BDB900164E0FBA3E0FAA3E0F9B6
:10089B00900001120B7BFD900167E0FBA3E0FAA334
:1008AB00E0F9900001ED120BED900164E0FBA3E089
:1008BB00FAA3E0F9900002120B7BFD900167E0FBBD
:1008CB00A3E0FAA3E0F9900002ED120BED900164A6
:1008DB00E0FBA3E0FAA3E0F9900003120B7BFD9081
:1008EB000167E0FBA3E0FAA3E0F9900003ED120B24
:1008FB00ED900164E0FBA3E0FAA3E0F99000041291
:10090B000B7BFD900167E0FBA3E0FAA3E0F99000FD
:10091B0004ED120BED900164E0FBA3E0FAA3E0F908
:10092B00900005120B7BFD900167E0FBA3E0FAA39F
:10093B00E0F9900005ED120BED90000C120B7B54BF
:10094B000F25E0FD90016BF0900164E0FBA3E0FA52
:10095B00A3E0F9900006120B7BFC900167E0FBA370
:10096B00E0FAA3E0F990000CEC120BED900164E0BF
:10097B00FBA3E0FAA3E0F9900007120B7BFC9001BC
:10098B0067E0FBA3E0FAA3E0F990000DEC120BED8E
:10099B00ED6025900164E0FBA3E0FAA3E02408F9E5
:1009AB00E43AFAC003C002C001A3E0FBA3E0FAA340
:1009BB00E0F990000E120CDC90016BE0FE2408FFB6
:1009CB00900164E0FBA3E0FAA3E0F98F827583004A
:1009DB00120B7BFD900167E0FBA3E0FAA3E0F9901B
:1009EB000006ED120BEDEF2401FDE433FC900164E6
:1009FB00E0FBA3E0FAA3E0F98D828C83120B7BFD65
:100A0B00900167E0FBA3E0FAA3E0F9900008ED1278
:100A1B000BEDEF2402FDE433FC900164E0FBA3E05B
:100A2B00FAA3E0F98D828C83120B7BFD900167E0BA
:100A3B00FBA3E0FAA3E0F9900009ED120BEDEF2414
:100A4B0003FDE433FC900164E0FBA3E0FAA3E0F9BF
:100A5B008D828C83120B7BFD900167E0FBA3E0FA88
:100A6B00A3E0F990000AED120BEDEF2404FDE43343
:100A7B00FC900164E0FBA3E0FAA3E0F98D828C8388
:100A8B00120B7BFD900167E0FBA3E0FAA3E0F9906A
:100A9B00000BED120BED900001120B7BC39E24F5A6
:100AAB00FE602BEF2405FFE433FE900164E0FBA313
:100ABB00E0FAA3E02FF9EA3EFAC003C002C001A39B
:100ACB00E0FBA3E0FAA3E0F9900011120CDC90011B
:100ADB0067E0FBA3E0FAA3E0F9900002120B7BFFA7
:100AEB00900034E0B50714900008120C25FF90001D
:100AFB0036E065F07003A3E06F6052900002120BBA
:100B0B007B900034F0900008120C25FF900036E526
:100B1B00F0F0A3EFF0121B00EF6024900167E0FBF5
:100B2B00A3E0FAA3E0F9900003120B7B147008907A
:100B3B00016BE0FD0213267BFF7A1A795980149022
:100B4B000167E0FBA3E0FAA3E0F9021C447BFF7A08
:060B5B001A7970121B5E06
:010B61002271
:030000000215C91D
:0C15C900787FE4F6D8FD7581070216104B
:100B6200BB010689828A83E0225002E722BBFE0291
:090B7200E32289828A83E49322C4
:100B7B00BB010CE58229F582E5833AF583E022502F
:100B8B0006E92582F8E622BBFE06E92582F8E22279
:0D0B9B00E58229F582E5833AF583E4932293
:100BA800BB010FF8E58229F582E5833AF583E02851
:100BB800F0225009C58229F8E58226F622BBFE09F3
:100BC800C58229F8E22582F222F8EA2583F583E92D
:030BD8009328223D
:100BDB00BB010689828A83F0225002F722BBFE01F9
:020BEB00F322F3
:100BED00F8BB010DE58229F582E5833AF583E8F03E
:100BFD00225006E92582C8F622BBFE05E92582C8EA
:020C0D00F222D1
:100C0F00A3F8E0C5F025F0F0E58215827002158398
:060C1F00E0C838F0E822F5
:100C2500BB0110E58229F582E5833AF583E0F5F00D
:100C3500A3E0225009E92582F886F008E622BBFEEA
:100C45000AE92582F8E2F5F008E222E5832AF58330
:080C5500E993F5F0A3E99322F5
:100C5D00E88FF0A4CC8BF0A42CFCE98EF0A42CFC36
:100C6D008AF0EDA42CFCEA8EF0A4CDA8F08BF0A4B4
:100C7D002DCC3825F0FDE98FF0A42CCD35F0FCEB13
:100C8D008EF0A4FEA9F0EB8FF0A4CFC5F02ECD39D8
:0F0C9D00FEE43CFCEAA42DCE35F0FDE43CFC2245
:10187000C2D5E830E70FB2D5E4C39BFBE49AFAE4A3
:1018800099F9E498F8EC30E717B2D51218A6120DC2
:1018900071E4C39BFBE49AFAE499F9E498F88003B5
:1018A000120D7130D50DE4C39FFFE49EFEE49DFD53
:0418B000E49CFC2296
:100CAC00BB010DE58229F582E5833AF583020E1529
:100CBC005007E92582F8020E03BBFE07E92582F8EE
:100CCC00020E27E58229F582E5833AF583020E3977
:100CDC00BB0120E58229F582E5833AF583D0F0D07B
:100CEC00E0F8D0E0F9D0E0FAD0E0FBE8C0E0C0F0EA
:100CFC00020E1E5018E92582F8D083D082D0E0F97C
:100D0C00D0E0FAD0E0FBC082C083020E0CBBFE1810
:100D1C00E92582F8D083D082D0E0F9D0E0FAD0E097
:090D2C00FBC082C083020E3022DC
:1015D500020E45E493A3F8E493A34003F68001F2D9
:1015E50008DFF48029E493A3F85407240CC8C33317
:1015F500C4540F4420C8834004F456800146F6DFE6
:10160500E4800B0102040810204080901655E47E0A
:10161500019360BCA3FF543F30E509541FFEE493DA
:10162500A360010ECF54C025E060A840B8E493A3A1
:10163500FAE493A3F8E493A3C8C582C8CAC583CACC
:10164500F0A3C8C582C8CAC583CADFE9DEE780BE84
:0116D2000017
:100D350075F008758200EF2FFFEE33FECD33CDCC75
:100D450033CCC58233C5829BED9AEC99E5829840F8
:100D55000CF582EE9BFEED9AFDEC99FC0FD5F0D6D5
:100D6500E4CEFBE4CDFAE4CCF9A88222B800C1B9FF
:100D75000059BA002DEC8BF084CFCECDFCE5F0CB3D
:100D8500F97818EF2FFFEE33FEED33FDEC33FCEB76
:100D950033FB10D703994004EB99FB0FD8E5E4F931
:100DA500FA227818EF2FFFEE33FEED33FDEC33FC1E
:100DB500C933C910D7059BE99A4007EC9BFCE99A12
:100DC500F90FD8E0E4C9FAE4CCFB2275F010EF2F57
:100DD500FFEE33FEED33FDCC33CCC833C810D70757
:100DE5009BEC9AE899400AED9BFDEC9AFCE899F892
:0E0DF5000FD5F0DAE4CDFBE4CCFAE4C8F92225
:090E0300E6FB08E6FA08E6F92214
:090E0C00EBF608EAF608E9F6220B
:090E1500E0FBA3E0FAA3E0F922DE
:090E1E00EBF0A3EAF0A3E9F022D5
:090E2700E2FB08E2FA08E2F922FC
:090E3000EBF208EAF208E9F222F3
:0C0E3900E493FB740193FA740293F92215
:00000001FF
