:0D001600E4F5C7F5C5F5C675C380F5C42235
:101EB30075C78275C5018FC4EEF5C375C65A75C65D
:071EC300A500AFC2120016DA
:011ECA0022F5
:101E810075C78275C5028FC4EEF5C3AF058FC275E4
:091E9100C65A75C6A50002001630
:101EE30075C78275C5038FC4EEF5C375C65A75C62B
:051EF300A5000200162D
:041E0A00AB07AA0672
:101E0E00E4FCECC39D5013EC2BFFE43AFE121EB320
:0C1E1E00EFF460037F00220C80E87F01DD
:011E2A002295
:0F1BE500900166EBF0A3EAF0A3E9F0AD07AC06C0
:101BF400E4A3F0900169E0FFC394025027EF2DFFA6
:101C0400E43CFE121EB3900166E0FBA3E0FAA3E0FD
:101C1400F9A3E0F582758300EF120CE4900169E00A
:041C240004F080CF79
:011C28002299
:0F1B0A009001B3EBF0A3EAF0A3E9F0AD07AC064E
:101B1900E49001B7F09001B6E0FFA3E0FEC39F5047
:101B290029EE2DFFE43CFE121EB39001B3E0FBA3A6
:101B3900E0FAA3E0F99001B7E0F582758300EF12AE
:0A1B49000CE49001B7E004F080CB3B
:011B5300226F
:03000E00D28A2271
:07000300C284C281D28422F5
:101F2000759850438920758DFD758BFDD28EC2AB9F
:031F3000D2AC220E
:101E6700C2AC120C596010F5993099FDC2997401F2
:0A1E770029F9E43AFA80EBD2AC221C
:101C6D007B017A0079007F007E04121BE57B017AEF
:101C7D0000793B7F007E02121BE57F017E00121D65
:101C8D009012000E121F20120003121DC1121DC151
:0F1C9D00121DBF121DC1121DBF121DC1B2A32205
:101D5D00E4FEC281FDEF30E704D2808002C280EF45
:101D6D0025E0FFD281000000000000EE25E0FE30EE
:101D7D0082010EC2810000000000000DEDB408D5F7
:021D8D00AF069F
:011D8F002231
:101D9000E4FDFCFB7AC079A8F8120D54E47B0CFA40
:101DA000F9F8121C29E47BE87A03F9F8121C29C31C
:0E1DB000E49FFDE49E4389018D8AF58CD2A943
:011DBE002202
:101E2B00C2ACAF051DEF6013120C59F5993099FD3B
:0E1E3B00C299740129F9E43AFA80E7D2AC2288
:061DBF00B2A37F507EC3B9
:101DC500E4FDFCC3ED9FEC9E50070DBD00010C80AA
:101DD500F2E4FCFDC3ED9FEC9E50070DBD00010C28
:021DE50080F28A
:011DE70022D9
:03002300021B9E1F
:101B9E00C0E0C083C082C0D0309833900123E024CF
:101BAE00A2F582E43400F583E599F09000A2E0649A
:101BBE00AA6007900123E4F08012900123E004F064
:101BCE00E0D3940A40069000107455F0C298D0D01D
:071BDE00D082D083D0E03279
:03000B000218E8F0
:1018E800C0E0C0F0C083C082C0D075D000C000C0C6
:1018F80001C002C003C004C005C006C00790003D77
:10190800E0B455047F0A80027F017E00121D90908A
:10191800000FE004F0700690000EE004F0C39000A1
:101928000FE094E890000EE09403400D900035E439
:10193800F090000EF0A3F0C28CD007D006D005D0EE
:1019480004D003D002D001D000D0D0D082D083D030
:04195800F0D0E032B9
:101A14004572726F7220636865636B0A0045727267
:101A24006F722070726F746F636F6C004352432047
:101A34006572726F720A002020776879204E6F7485
:101A4400206D650A004C656E677468213D320A009A
:101A54004E6F74207061636B65740A00456E746523
:081A64007220494E54310A00C2
:101E9A00000000000000000000000000000000EF49
:091EAA001F70011E144E70E822A5
:101F4400C2842082FD7F30121D5D2082FDD2842256
:101E4900D2847F0A7E00121E9AC2847F0A7E001203
:0E1E59001E9AD2847F9A7E01121E9A021F44A6
:101ECB009001A1EDF0C2842082FD121D5D9001A155
:081EDB00E0FF121D5DD284221C
:0B1B54009001A2EBF0A3EAF0A3E9F07F
:101B5F00EF4440FFC2842082FD121D5DE49001A678
:101B6F00F09001A5E0FFA3E0FEC39F501F9001A2DC
:101B7F00E0FBA3E0FAA3E0F98E82758300120C72EA
:0E1B8F00FF121D5D9001A6E004F080D5D28407
:011B9D002225
:0B1F5400C2842082FD121D5DD2842299
:101EF800EF4480FFC2842082FD121D5DE4FF121DA5
:031F08005DD28423
:011F0B0022B3
:0E195C007A0179697B017402900174F07F3F7B
:0B196A00900171EBF0A3EAF0A3E9F09C
:10197500EF44C0FFC2842082FD121D5DE490017515
:10198500F0900174E0FFA3E0C39F5025E4FF121D12
:101995005D900171E0FBA3E0FAA3E0F9900175E029
:1019A500F582758300EF120CE4900175E004F08078
:0319B500D0D28409
:0119B800220C
:101F0C00EF44C0FFC2842082FD121D5DE4FF121D50
:031F1C005DD2840F
:011F1F00229F
:1013790090002EE0FDE4FF121ECB90002FE0FD7FD0
:1013890002121ECB900011E0FD7F0C121ECB9000C3
:1013990012E0FD7F0B121ECB900013E0FD7F0C12B3
:1013A9001ECB900014E0FD7F0D121ECB900015E0BE
:1013B900FD7F0E121ECB900016E0FD7F0F121ECB93
:1013C900900017E0FD7F10121ECB900018E0FD7F02
:1013D90011121ECB900019E0FD7F12121ECB900056
:1013E9001AE0FD7F13121ECB90001BE0FD7F141243
:1013F9001ECB90001CE0FD7F0A121ECB90001DE061
:10140900FD7F15121ECB90001EE0FD7F21121ECB21
:1014190090001FE0FD7F22121ECB900020E0FD7F8F
:1014290018121ECB900021E0FD7F19121ECB9000EF
:1014390022E0FD7F1A121ECB900023E0FD7F1B12D4
:101449001ECB900024E0FD7F1C121ECB900025E0EE
:10145900FD7F1D121ECB900026E0FD7F23121ECBBF
:10146900900027E0FD7F24121ECB900028E0FD7F2D
:1014790025121ECB900029E0FD7F26121ECB90007D
:101489002AE0FD7F29121ECB90002BE0FD7F2C1254
:101499001ECB90002CE0FD7F2D121ECB90002DE07D
:1014A900FD7F2E121ECB900030E0FD7F07121ECB70
:1014B900900031E0FD7F08121ECB900032E0FD7FE5
:0E14C90009121ECB900033E0FD7F06021ECB01
:101D240090019DEBF0A3EAF0A3E9F0A3EDF07F3F6F
:101D3400121ECB90019DE0FBA3E0FAA3E0F9A3E01F
:101D44009001A5F07F3F121B547F35121F5430B30E
:091D5400FD20B3FD7F3B021F548A
:0B1627009001A7EBF0A3EAF0A3E9F0AC
:10163200A3E0FBA3E0FAA3E0F9120C5925E025E0B0
:101642009001B0F07F34121F547F147E00121DC52A
:1016520030B3167F147E00121DC59001B0E014F065
:10166200E0C3940150EA7F00227F3B121F0CEF542B
:101672007F70030216FF7F3F121EF89001AFEFF05A
:101682009001AAE0FBA3E0FAA3E0F9120C59FEEFE5
:10169200D39E504D9001A7E0FBA3E0FAA3E0F9909E
:1016A20001AFE01219649001AFE0FF9001AAE0FBE4
:1016B200A3E0FAA3E0F9EF120CD29001A7E0FBA39A
:1016C200E0FAA3E0F99001AFE0FD121E2B7A017956
:1016D200AD1219607F3A121F549001AEE05480FFA0
:1016E200229001AFE0FF9001AAE0FBA3E0FAA3E0A1
:0F16F200F9EF120CD27F3A121F547F00227F00B3
:0117010022C5
:0B11E800900166EBF0A3EAF0A3E9F031
:1011F300E490016DF0A3F0A3F07F34121F547F3B02
:10120300121F0CEF547F70030213767F3F121EF8F8
:1012130090016DEFF07F647E00121DC590016DE0BB
:10122300FFD3940250030212F0900166E0FBA3E0A7
:10123300FAA3E0F9EF12196412195C7F3A121F54F2
:1012430090016AE020E7030212E4900166E0FBA349
:10125300E0FAA3E0F9900001120C7264AA6077E44B
:1012630090016FF090016DE0FF14FE90016FE0FDBF
:10127300C39E5020900166E0FBA3E0FAA3E0F98D42
:1012830082758300120C72FE90016EE02EF0A3E0D3
:1012930004F080D0EF24FFFFE434FFFE900166E00A
:1012A300FBA3E0FAA3E0F98F828E83120C72FF9006
:1012B300016EE0B50710E4900035F09000617455BD
:1012C300F0B2A202134C90016DE0FD121E2B7BFFC6
:1012D3007A1A791480117BFF7A1A7921121E67809A
:1012E3000C7BFF7A1A7930121E677F002290016D02
:1012F300E0FF640270757B017A01796B900174EFF2
:10130300F07F3F12196A90016BE0FFB4FF05A3E081
:10131300F46013900000E0548F6F703BA3E0FF90E4
:10132300016CE06F703112195C7F3A121F54900107
:101333006AE030E71A7F3A121F54E490000EF0A3DC
:10134300F07F01FE121D90D28C90016DE0FF227B95
:10135300FF7A1A793080117B017A01796B7D021251
:101363001E2B7BFF7A1A793B121E677F3A121F549A
:051373007F00227F0055
:011378002252
:101702007F34121F547F3B121F0CEF547F70030271
:1017120017BD7F3F121EF890016AEFF0E0FF6402EE
:1017220060030217A77B017A017966900174EFF0DA
:101732007F3F12196A900166E0FFB4FF05A3E0F44F
:101742006013900000E0548F6F7047A3E0FF900198
:1017520067E06F703D7B017A0179681219627F3A06
:10176200121F54900169E030E7207F3A121F549013
:1017720000357455F0E490000EF0A3F07F01FE12E4
:101782001D90D28C90016AE0FF227BFF7A1A793099
:10179200802F7B017A0179667D02121E2B7BFF7AF4
:1017A2001A793B801C7BFF7A1A7949121E677B01EA
:1017B2007A01796A7D01121E2B80097BFF7A1A79E0
:1017C20054121E677F3A121F547F3C121F547F38F7
:0717D200121F54D2AA7F0090
:0117D90022ED
:101CEA007F36121F54E4FD7F16121ECB7D187F1813
:101CFA00121ECB7D287F1E121ECB7DA07F1F121EB7
:101D0A00CB7D787F20121ECB7F3A121F547F3C1264
:0A1D1A001F547F38121F547F01226E
:03001300021ABC12
:101ABC00C0E0C0F0C083C082C0D075D000C000C0F0
:101ACC0001C002C003C004C005C006C007C2AA53AF
:101ADC0087FDB2A090000C7455F07BFF7A1A7960E8
:101AEC00121E67D007D006D005D004D003D002D088
:0E1AFC0001D000D0D0D082D083D0F0D0E03224
:0E1CAC00900196EBF0A3EAF0A3E9F0A3EDF0AF
:101CBA00A3E075F030A4FFA3E5F0F0A3EFF09001E4
:101CCA009B74FFF5F0120D0645F06013900196E043
:0F1CDA00FBA3E0FAA3E0F9A3E0FD121D2480DFD5
:011CE90022D8
:1019B9004D4355534E3A00476174655761793A0072
:1019C9000D0A0047415445574159204F4B0A004DD4
:1019D9004F44454C5F534E204F4B0A0053657420CA
:1019E9006F6B0A00696E697469616C697A617469FF
:1019F9006F6E206F6B0A00456E74657220776F7287
:0B1A09000A00457869742070640A0030
:1018660041003E004100E200410123004100030027
:1018760042000E000041000C0041001000410061D2
:101886000041000D004100350041003D0341003894
:10189600004100020141003400420039FFFF4E00C2
:1018A6003FAA0B01811001510101000110010048FE
:1018B6000004C0C0C0C0C0C0C0C060230011000882
:1018C6000010A7625BF80322F80347B610181D1C28
:1018D600C700B2EA2A0011598135090B0604050032
:0118E600FF02
:100F3C00E4900164F0A37403F0121C6D7BFF7A192A
:100F4C0079B9121E677B017A0079007D01121E2B84
:100F5C007B017A0079017D01121E2B7BFF7A1979B6
:100F6C00C0121E677B017A00793B7D01121E2B7B20
:100F7C00017A00793C7D01121E2B7BFF7A1979C90D
:100F8C00121E67121E491213797B017A00790490A4
:100F9C0001A57408F07F3E121B54121CEAD2AF90CC
:100FAC00003BE0F47003A3E0F4600F900000E0F469
:100FBC007003A3E0F4600302104E900010E0B455EF
:100FCC00DEE4F07D02FF7E02121E0AEF6029900023
:100FDC00A3E0FD7F007E02121E819000A4E0FD7F45
:100FEC00017E02121E817F007E02121EB390003B16
:100FFC00E4F0A3EFF080097BFF7A1979CC121E671D
:10100C007D027F007E04121E0AEF602A9000A5E08C
:10101C00FD7F007E04121E819000A6E0FD7F017E04
:10102C0004121E817F007E04121EB3900000E4F0B7
:10103C00A3EFF0020FAB7BFF7A1979D8121E67026F
:10104C000FAB7BFF7A1979E5121E677B017A007969
:10105C00007F007E04121BE57B017A00793B7F0048
:10106C007E02121BE57B017A0079007D01121E2B9A
:10107C007B017A0079017D01121E2B7BFF7A197995
:10108C00C0121E677B017A00793B7D01121E2B7BFF
:10109C00017A00793C7D01121E2B7BFF7A1979C9EC
:1010AC00121E677BFF7A1979ED121E67B2A1E4FF5D
:1010BC00FE121EB3900038EFF0F4600302117A9028
:1010CC000165E0FF14F0EF700302117A900002E06A
:1010DC00900041F090003BE0900043F090003CE029
:1010EC00900044F0900000E0900048F0900001E087
:1010FC00900049F090003BE090004AF090003CE0FA
:10110C0090004BF0E4900164F0900164E0FFC39414
:10111C000D501A743F2FF582E43400F583E0FF90F4
:10112C00004CE02FF0900164E004F080DC7B017A4D
:10113C0000793990019A7402F0FD121CAC7B017A93
:10114C0000793F7D0E121D24900002E004F0E49023
:10115C00000EF0A3F07F0AFE121D90D28C90003D81
:10116C007455F0900035F0E490004CF08019E49048
:10117C00003DF07BFF7A1A7900121E6790000CE09C
:10118C006455703E121702900035E0600B7B017ABB
:10119C000079621211E880EF900061E0B45518E418
:1011AC00F07B0190016904F0A37400F0A3744DF07E
:1011BC007A0079621208BA90003DE064557003021F
:1011CC0010CB7F3C121F547F38121F54D2AA438776
:0C11DC00027BFF7A1A790B121E678097C5
:101A6C00456E74657220726F7574650A004E6F74E2
:101A7C0020526F75746520696E666F726D61746942
:101A8C006F6E0A004469726563745472616E736D93
:101A9C00697444617461436F6D6D616E64206E6F27
:101AAC0074206F6B0A0072696420657175616C003B
:101DE80090000A120D1CFFE5F0548FFE900000E0F1
:101DF800548FFCA3E0B50707ECB506037F01227FEB
:021E08000022B6
:0B04D70090018BEBF0A3EAF0A3E9F02A
:1004E200E4900192F0A3F0A3F0A3F0120C59FF9054
:1004F200018EE0FBA3E0FAA3E0F9EF120CD2900127
:100502008BE0FBA3E0FAA3E0F9900001120C72FF6A
:1005120090018EE0FBA3E0FAA3E0F9900001EF1254
:100522000CE490018BE0FBA3E0FAA3E0F990000257
:10053200120C72FF90018EE0FBA3E0FAA3E0F990A7
:100542000002EF120CE490018BE0FBA3E0FAA3E0BF
:10055200F9900003120C72FF90018EE0FBA3E0FA07
:10056200A3E0F9900003EF120CE490018BE0FBA3EF
:10057200E0FAA3E0F9900004120C72FF90018EE001
:10058200FBA3E0FAA3E0F9900004EF120CE490015F
:100592008BE0FBA3E0FAA3E0F9900005120C72FFD6
:1005A20090018EE0FBA3E0FAA3E0F9900005EF12C0
:1005B2000CE490018BE0FBA3E0FAA3E0F990000CBD
:1005C200120C72540FFF1425E0FE900193F0EF44D9
:1005D20050FF90018EE0FBA3E0FAA3E0F990000641
:1005E200EF120CE490018BE0FBA3E0FAA3E0F99098
:1005F200000D120C72FF90018EE0FBA3E0FAA3E063
:10060200F9900007EF120CE4EE604FE4900191F0D4
:10061200900193E0FF900191E0FEC39F503C900156
:100622008BE0FBA3E0FAA3E0F990000E120DA38E7B
:1006320082758300120C72FFEE2408FDE433FC90F5
:10064200018EE0FBA3E0FAA3E0F98D828C83EF1226
:100652000CE4900191E004F080B6900193E024084C
:10066200A3F090018BE0FBA3E0FAA3E0F99000066F
:10067200120C72FF90018EE0FBA3E0FAA3E0F99066
:100682000194E0FEF582758300EF120CE490018B79
:10069200E0FBA3E0FAA3E0F990000A120C72FFEE6D
:1006A2002401FDE433FC90018EE0FBA3E0FAA3E019
:1006B200F98D828C83EF120CE490018BE0FBA3E0B6
:1006C200FAA3E0F990000B120C72FFEE2402FDE493
:1006D20033FC90018EE0FBA3E0FAA3E0F98D828C5B
:1006E20083EF120CE490018BE0FBA3E0FAA3E0F9A4
:1006F200900008120C72FFEE2403FDE433FC90011B
:100702008EE0FBA3E0FAA3E0F98D828C83EF120C5A
:10071200E490018BE0FBA3E0FAA3E0F99000091258
:100722000C72FFEE2404FDE433FC90018EE0FBA387
:10073200E0FAA3E0F98D828C83EF120CE490018B36
:10074200E0FBA3E0FAA3E0F9900001120C72FF9023
:100752000193E0FEC3EF9E24F5900195F0605DE405
:10076200900191F0900195E0FF900191E0FEC39F0E
:10077200504A90018BE0FBA3E0FAA3E0F99000114C
:10078200120DA38E82758300120C72FF900194E009
:100792002405FDE433FC900191E07A002DFDEA3C52
:1007A200FC90018EE0FBA3E0FAA3E0F98D828C833A
:1007B200EF120CE4900191E004F080A8E490019122
:1007C200F090018BE0FBA3E0FAA3E0F990000112A4
:1007D2000C722403FFE433FE900191E0C39FEE64A8
:1007E20080F8748098503F90018EE0FBA3E0FAA35A
:1007F200E0F9A3E0F582758300120C72FF90019478
:10080200E02405FDE433FCA3E07A002DFDEA3CFC84
:1008120090018EA3E0FA8D828C83EF120C9F9001DF
:1008220091E004F0809B90018BE0FBA3E0FAA3E04F
:10083200F990000D120C7225E0FFE433FEEF24065E
:10084200FDE43EFC90018EE0FBA3E0FAA3E0F98D0B
:10085200828C83120C72900039F074072FF582E4B7
:100862003EF583120C7290003AF090018BE0FBA3EC
:10087200E0FAA3E0F990000D120C72640160107BA3
:10088200017A00793990019A7402F0FD121CAC9041
:10089200018BE0FBA3E0FAA3E0F9900001120C72D5
:1008A2002403FD90018EE0FBA3E0FAA3E0F9121D00
:0708B20024900002E004F0B5
:0108B900221C
:0B00260090016FEBF0A3EAF0A3E9F0FB
:10003100E4900176F0A3F0A3F0A3F0120C59FF9025
:100041000172E0FBA3E0FAA3E0F9EF120CD29001F8
:100051006FE0FBA3E0FAA3E0F9900001120C72FF3C
:10006100900172E0FBA3E0FAA3E0F9900001EF1226
:100071000CE490016FE0FBA3E0FAA3E0F990000229
:10008100120C72FF900172E0FBA3E0FAA3E0F99079
:100091000002EF120CE490016FE0FBA3E0FAA3E091
:1000A100F9900003120C72FF900172E0FBA3E0FAD9
:1000B100A3E0F9900003EF120CE490016FE0FBA3C1
:1000C100E0FAA3E0F9900004120C72FF900172E0D3
:1000D100FBA3E0FAA3E0F9900004EF120CE4900115
:1000E1006FE0FBA3E0FAA3E0F9900005120C72FFA8
:1000F100900172E0FBA3E0FAA3E0F9900005EF1292
:100101000CE490016FE0FBA3E0FAA3E0F990000397
:10011100120C72B4810990000C120C7204801190BF
:10012100016FE0FBA3E0FAA3E0F990000C120C725E
:10013100FF900172E0FBA3E0FAA3E0F9900006EF63
:10014100120CE490016FE0FBA3E0FAA3E0F9900048
:100151000C120C72540F1425E0900177F0900003FB
:10016100120C7230E70790000D7401801090016F3E
:10017100E0FBA3E0FAA3E0F990000D74FF120C9FDD
:1001810090016FE0FBA3E0FAA3E0F990000D120CDF
:1001910072FF900172E0FBA3E0FAA3E0F99000077F
:1001A100EF120CE490016FE0FBA3E0FAA3E0F990F9
:1001B1000003120C726481706990000C120C72546D
:1001C1000F64017003020278E4900175F0900175EB
:1001D100E0FD2400F582E43400F583E0FC90016F3A
:1001E100E0FBA3E0FAA3E0F990000D120C7225E008
:1001F100FFE433FEEF2404FFE43EFEED7A002FFF1F
:10020100EA3EFE900172E0FBA3E0FAA3E0F98F82DF
:100211008E83EC120CE4900175E004F0E0B402ADC1
:100221008055900177E0604FE4900175F09001777F
:10023100E0FF900175E0FEC39F503C90016FE0FB31
:10024100A3E0FAA3E0F990000E120DA38E8275834C
:1002510000120C72FFEE2408FDE433FC900172E001
:10026100FBA3E0FAA3E0F98D828C83EF120CE490FA
:100271000175E004F080B6900177E0FE2408A3F058
:1002810090016FE0FBA3E0FAA3E0F9900006120CE5
:1002910072FF900172E0FBA3E0FAA3E0F99001780C
:1002A100E0F582758300EF120CE490016FE0FBA38F
:1002B100E0FAA3E0F9900001120C72C39E24F590BC
:1002C1000179F0605DE4900175F0900179E0FF90B3
:1002D1000175E0FEC39F504A90016FE0FBA3E0FA75
:1002E100A3E0F9900011120DA38E82758300120C08
:1002F10072FF900178E02405FDE433FC900175E084
:100301007A002DFDEA3CFC900172E0FBA3E0FAA328
:10031100E0F98D828C83EF120CE4900175E004F01A
:1003210080A890016FE0FBA3E0FAA3E0F990000838
:10033100120C72FF900178E0FE2401FDE433FC9081
:100341000172E0FBA3E0FAA3E0F98D828C83EF1246
:100351000CE490016FE0FBA3E0FAA3E0F99000093F
:10036100120C72FFEE2402FDE433FC900172E0FBFB
:10037100A3E0FAA3E0F98D828C83EF120CE49001E3
:100381006FE0FBA3E0FAA3E0F990000A120C72FF00
:10039100EE2403FDE433FC900172E0FBA3E0FAA339
:1003A100E0F98D828C83EF120CE490016FE0FBA3E6
:1003B100E0FAA3E0F990000B120C72FFEE2404FDA9
:1003C100E433FC900172E0FBA3E0FAA3E0F98D8233
:1003D1008C83EF120CE4E4900175F090016FE0FB67
:1003E100A3E0FAA3E0F9900001120C722403FFE4E8
:1003F10033FE900175E0C39FEE6480F874809850DD
:100401003F900172E0FBA3E0FAA3E0F9A3E0F582DB
:10041100758300120C72FF900178E02405FDE4332E
:10042100FCA3E07A002DFDEA3CFC900172A3E0FA06
:100431008D828C83EF120C9F900175E004F0809BFC
:1004410090016FE0FBA3E0FAA3E0F9900003120C26
:1004510072B4810C90003A74FFF0900039F080443E
:1004610090016FE0FBA3E0FAA3E0F990000D120CFC
:100471007225E0FFE433FEEF2406FDE43EFC90012B
:1004810072E0FBA3E0FAA3E0F98D828C83120C7277
:10049100900039F074072FF582E43EF583120C7257
:1004A10090003AF07B017A00793990019A7402F058
:1004B100FD121CAC90016FE0FBA3E0FAA3E0F99000
:1004C1000001120C722403FD900172E0FBA3E0FA1B
:0604D100A3E0F9021D2466
:1014D700900172EDF090016FEBF0A3EAF0A3E9F051
:1014E70090000E120DA3900188EBF0A3EAF0A3E998
:1014F700F07D01E4FFFE121E0AEF6007E4FDFFFE28
:10150700121E81E4FFFE121EB3900038EFF0E49044
:10151700003DF07D02FF7E04121E0AEF6002800785
:101527007F007E04121EE390016FE0FBA3E0FAA3A5
:10153700E0F990000A120C72FD7F007E04121E81F2
:1015470090016FE0FBA3E0FAA3E0F990000B120C07
:1015570072FD7F017E04121E81900172E07003020A
:101567001603E4FDFF7E05121E0AEF604490017228
:10157700E0FD7F007E05121E81E4900173F090016B
:1015870072E0FFA3E0FEC39F5072EE2401FFE43434
:1015970005FE900188E0FBA3E475F001120D06A992
:1015A700F0FA120C59FD121E81900173E004F080CD
:1015B700CD7F007E05121EE3900172E0FD7F027E63
:1015C70005121E81E4900173F0900172E0FFA3E021
:1015D700FEC39F5027EE2401FFE43405FE900188E7
:1015E700E0FBA3E475F001120D06A9F0FA120C59FD
:1015F700FD121E81900173E004F080CD90016FE031
:10160700FBA3E0FAA3E0F99000037482120CE490C4
:10161700018E7401F0A37401F0A37424F00204D7BF
:101F33009001727401F0A37401F0A37424F0020001
:011F43002677
:0B08BA00900166EBF0A3EAF0A3E9F068
:1008C500E490016CF0FFFEA3F0900166E0FBA3E06D
:1008D500FAA3E0F9120C59FD900169E0FBA3E0FAD7
:1008E500A3E0F9ED120CD2900166E0FBA3E0FAA3B8
:1008F500E0F9900001120C72FD900169E0FBA3E0A4
:10090500FAA3E0F9900001ED120CE4900166E0FB1A
:10091500A3E0FAA3E0F9900002120C72FD900169C0
:10092500E0FBA3E0FAA3E0F9900002ED120CE490DD
:100935000166E0FBA3E0FAA3E0F9900003120C7254
:10094500FD900169E0FBA3E0FAA3E0F9900003ED57
:10095500120CE4900166E0FBA3E0FAA3E0F9900035
:1009650004120C72FD900169E0FBA3E0FAA3E0F923
:10097500900004ED120CE4900166E0FBA3E0FAA3FD
:10098500E0F9900005120C72FD900169E0FBA3E00F
:10099500FAA3E0F9900005ED120CE490000C120C9E
:1009A50072540F1425E0FD90016CF0900166E0FB98
:1009B500A3E0FAA3E0F9900006120C72FC9001691D
:1009C500E0FBA3E0FAA3E0F990000CEC120CE49034
:1009D5000166E0FBA3E0FAA3E0F9900007120C72B0
:1009E500FC900169E0FBA3E0FAA3E0F990000DECAF
:1009F500120CE4ED6025900166E0FBA3E0FAA3E0AC
:100A05002408F9E43AFAC003C002C001A3E0FBA33D
:100A1500E0FAA3E0F990000E120DD390016CE0FE10
:100A25002408FF900166E0FBA3E0FAA3E0F98F82BA
:100A3500758300120C72FD900169E0FBA3E0FAA337
:100A4500E0F9900006ED120CE4EF2401FDE433FC1F
:100A5500900166E0FBA3E0FAA3E0F98D828C831296
:100A65000C72FD900169E0FBA3E0FAA3E0F99000A8
:100A750008ED120CE4EF2402FDE433FC900166E07E
:100A8500FBA3E0FAA3E0F98D828C83120C72FD9032
:100A95000169E0FBA3E0FAA3E0F9900009ED120C6F
:100AA500E4EF2403FDE433FC900166E0FBA3E0FAE8
:100AB500A3E0F98D828C83120C72FD900169E0FB35
:100AC500A3E0FAA3E0F990000AED120CE4EF240488
:100AD500FDE433FC900166E0FBA3E0FAA3E0F98DA9
:100AE500828C83120C72FD900169E0FBA3E0FAA3EE
:100AF500E0F990000BED120CE4900001120C72C3AA
:100B05009E24F5FE602BEF2405FFE433FE9001667D
:100B1500E0FBA3E0FAA3E02FF9EA3EFAC003C00226
:100B2500C001A3E0FBA3E0FAA3E0F9900011120DC8
:100B3500D37BFF7A1A796C121E67E490016EF090F0
:100B45000169E0FBA3E0FAA3E0F9900001120C7241
:100B55002403FFE433FE90016EE0C39FEE6480F84A
:100B65007480985034900166E0FBA3E0FAA3E0F9A5
:100B750090016EE0FFF582758300120C72FE900104
:100B85006DE02EF07E00E92FF9EE3AFA7D01121E96
:100B95002B90016EE004F080A6900169E0FBA3E0D4
:100BA500FAA3E0F9900002120C72FF900034E0B550
:100BB5000717900008120D1CFF900036E065F070D5
:100BC50003A3E06F7003020C4F900002120C7290A9
:100BD5000034F0900008120D1CFF900036E5F0F08F
:100BE500A3EFF0121DE8EF6045900169E0FBA3E07B
:100BF500FAA3E0F9900003120C7224FD600C2402A4
:100C0500702490016CE0FD0214D790018E7401F000
:100C1500A37401F0A37424F0900169E0FBA3E0FA4A
:100C2500A3E0F90204D77BFF7A1A79798022900034
:100C350038E070087BFF7A1A79908014900169E09A
:100C4500FBA3E0FAA3E0F9021F337BFF7A1A79B21E
:030C5500121E6705
:010C58002279
:030000000217DA0A
:0C17DA00787FE4F6D8FD75810702182125
:100C5900BB010689828A83E0225002E722BBFE0299
:090C6900E32289828A83E49322CC
:100C7200BB010CE58229F582E5833AF583E0225037
:100C820006E92582F8E622BBFE06E92582F8E22281
:0D0C9200E58229F582E5833AF583E493229B
:100C9F00BB010FF8E58229F582E5833AF583E02859
:100CAF00F0225009C58229F8E58226F622BBFE09FB
:100CBF00C58229F8E22582F222F8EA2583F583E935
:030CCF0093282245
:100CD200BB010689828A83F0225002F722BBFE0101
:020CE200F322FB
:100CE400F8BB010DE58229F582E5833AF583E8F046
:100CF400225006E92582C8F622BBFE05E92582C8F2
:020D0400F222D9
:100D0600A3F8E0C5F025F0F0E582158270021583A0
:060D1600E0C838F0E822FD
:100D1C00BB0110E58229F582E5833AF583E0F5F015
:100D2C00A3E0225009E92582F886F008E622BBFEF2
:100D3C000AE92582F8E2F5F008E222E5832AF58338
:080D4C00E993F5F0A3E99322FD
:100D5400E88FF0A4CC8BF0A42CFCE98EF0A42CFC3E
:100D64008AF0EDA42CFCEA8EF0A4CDA8F08BF0A4BC
:100D74002DCC3825F0FDE98FF0A42CCD35F0FCEB1B
:100D84008EF0A4FEA9F0EB8FF0A4CFC5F02ECD39E0
:0F0D9400FEE43CFCEAA42DCE35F0FDE43CFC224D
:101C2900C2D5E830E70FB2D5E4C39BFBE49AFAE4E6
:101C390099F9E498F8EC30E717B2D5121C5F120E47
:101C490068E4C39BFBE49AFAE499F9E498F8800301
:101C5900120E6830D50DE4C39FFFE49EFEE49DFD9E
:041C6900E49CFC22D9
:100DA300BB010DE58229F582E5833AF583020F0C39
:100DB3005007E92582F8020EFABBFE07E92582F8FF
:100DC300020F1EE58229F582E5833AF583020F308F
:100DD300BB0120E58229F582E5833AF583D0F0D083
:100DE300E0F8D0E0F9D0E0FAD0E0FBE8C0E0C0F0F2
:100DF300020F155018E92582F8D083D082D0E0F98C
:100E0300D0E0FAD0E0FBC082C083020F03BBFE1820
:100E1300E92582F8D083D082D0E0F9D0E0FAD0E09F
:090E2300FBC082C083020F2722EC
:1017E600020F3CE493A3F8E493A34003F68001F2CE
:1017F60008DFF48029E493A3F85407240CC8C33304
:10180600C4540F4420C8834004F456800146F6DFD2
:10181600E4800B0102040810204080901866E47EE4
:10182600019360BCA3FF543F30E509541FFEE493C7
:10183600A360010ECF54C025E060A840B8E493A38E
:10184600FAE493A3F8E493A3C8C582C8CAC583CAB9
:10185600F0A3C8C582C8CAC583CADFE9DEE780BE71
:0118E7000000
:100E2C0075F008758200EF2FFFEE33FECD33CDCC7D
:100E3C0033CCC58233C5829BED9AEC99E582984000
:100E4C000CF582EE9BFEED9AFDEC99FC0FD5F0D6DD
:100E5C00E4CEFBE4CDFAE4CCF9A88222B800C1B907
:100E6C000059BA002DEC8BF084CFCECDFCE5F0CB45
:100E7C00F97818EF2FFFEE33FEED33FDEC33FCEB7E
:100E8C0033FB10D703994004EB99FB0FD8E5E4F939
:100E9C00FA227818EF2FFFEE33FEED33FDEC33FC26
:100EAC00C933C910D7059BE99A4007EC9BFCE99A1A
:100EBC00F90FD8E0E4C9FAE4CCFB2275F010EF2F5F
:100ECC00FFEE33FEED33FDCC33CCC833C810D7075F
:100EDC009BEC9AE899400AED9BFDEC9AFCE899F89A
:0E0EEC000FD5F0DAE4CDFBE4CCFAE4C8F9222D
:090EFA00E6FB08E6FA08E6F9221D
:090F0300EBF608EAF608E9F62213
:090F0C00E0FBA3E0FAA3E0F922E6
:090F1500EBF0A3EAF0A3E9F022DD
:090F1E00E2FB08E2FA08E2F92204
:090F2700EBF208EAF208E9F222FB
:0C0F3000E493FB740193FA740293F9221D
:00000001FF
