:050BBD00D28AD2AA2239
:070BAF00C284C281D284223E
:100AFA00B2B7120BAF120A79120A79120A77120ADE
:0A0B0A0079120A77120A79B2A322C9
:100A4400E4FEC281FDEF30E704D2808002C280EF71
:100A540025E0FFD281000000000000EE25E0FE301A
:100A640082010EC2810000000000000DEDB408D523
:020A7400AF06CB
:010A7600225D
:100B5F00759850438920758DFD758BFDD28EC2AB74
:050B6F00D2ACD2AF2260
:100B1400C2AC12026E6010F5993099FDC29974014D
:0A0B240029F9E43AFA80EBD2AC2282
:100AA000C2ACAF051DEF601312026EF5993099FDCF
:0E0AB000C299740129F9E43AFA80E7D2AC2227
:060A7700B2A37F507EC314
:100A7D00E4FDFCC3ED9FEC9E50070DBD00010C8005
:100A8D00F2E4FCFDC3ED9FEC9E50070DBD00010C83
:020A9D0080F2E5
:010A9F002234
:03002300020905CA
:10090500C0E0C083C082C0D03098339000B2E024EC
:1009150071F582E43400F583E599F0900071E064A7
:10092500AA60079000B2E4F080129000B2E004F0F3
:10093500E0D3940A400690000C7455F0C298D0D0CC
:07094500D082D083D0E03224
:100ADC00435243206572726F720A004E6F74206D20
:0E0AEC00650A004C656E677468213D320A0091
:100B2E00000000000000000000000000000000EFC8
:090B3E001F70011E144E70E82224
:10000300C2842082FD7F30120A442082FDD28422E2
:100ABE00D2847F0A7E00120B2EC2847F0A7E001221
:0E0ACE000B2ED2847F9A7E01120B2E020003A3
:100B47009000C0EDF0C2842082FD120A449000C0DC
:080B5700E0FF120A44D28422DF
:0B08BB009000C1EBF0A3EAF0A3E9F00D
:1008C600EF4440FFC2842082FD120A44E49000C532
:1008D600F09000C4E0FFA3E0FEC39F501F9000C14C
:1008E600E0FBA3E0FAA3E0F98E827583001202878B
:0E08F600FF120A449000C5E004F080D5D284C1
:0109040022D0
:0B001600C2842082FD120A44D2842222
:100B7400EF4480FFC2842082FD120A44E4FF120A7B
:030B840044D284D4
:010B8700224B
:0A0812007B0174029000BCF07F3FF0
:0B081C009000B9EBF0A3EAF0A3E9F0B4
:10082700EF44C0FFC2842082FD120A44E49000BD59
:10083700F09000BCE0FFA3E0C39F5025E4FF120A3D
:10084700449000B9E0FBA3E0FAA3E0F99000BDE013
:10085700F582758300EF1202C69000BDE004F080B8
:03086700D0D28468
:01086A00226B
:100B8800EF44C0FFC2842082FD120A44E4FF120A27
:030B980044D284C0
:010B9B002237
:1004780090002AE0FDE4FF120B4790002BE0FD7F7F
:1004880002120B4790000DE0FD7F0C120B47900005
:100498000EE0FD7F0B120B4790000FE0FD7F0C1262
:1004A8000B47900010E0FD7F0D120B47900011E004
:1004B800FD7F0E120B47900012E0FD7F0F120B47D5
:1004C800900013E0FD7F10120B47900014E0FD7FB1
:1004D80011120B47900015E0FD7F12120B47900098
:1004E80016E0FD7F13120B47900017E0FD7F1412F2
:1004F8000B47900018E0FD7F0A120B47900019E0A7
:10050800FD7F15120B4790001AE0FD7F21120B4763
:1005180090001BE0FD7F22120B4790001CE0FD7F3E
:1005280018120B4790001DE0FD7F19120B47900031
:100538001EE0FD7F1A120B4790001FE0FD7F1B1283
:100548000B47900020E0FD7F1C120B47900021E034
:10055800FD7F1D120B47900022E0FD7F23120B4701
:10056800900023E0FD7F24120B47900024E0FD7FDC
:1005780025120B47900025E0FD7F26120B479000BF
:1005880026E0FD7F29120B47900027E0FD7F2C1203
:100598000B47900028E0FD7F2D120B47900029E0C3
:1005A800FD7F2E120B4790002CE0FD7F07120B47B2
:1005B80090002DE0FD7F08120B4790002EE0FD7F94
:0E05C80009120B4790002FE0FD7F06020B4743
:100990009000DCEBF0A3EAF0A3E9F0A3EDF0C2AA2B
:1009A0007F3F120B479000DCE0FBA3E0FAA3E0F9E5
:1009B000A3E09000C4F07F3F1208BB7F3512001601
:0E09C00030B3FD20B3FD7F3B120016D2AA22F9
:0B05D6009000D2EBF0A3EAF0A3E9F0E4
:1005E100A3E0FBA3E0FAA3E0F912026E25E025E007
:1005F1009000DBF07F341200167F147E00120A7D1A
:1006010030B3167F147E00120A7D9000DBE014F0F7
:10061100E0C3940150EA7F00227F3B120B88EF5424
:100621007F70030206B27F3F120B749000DAEFF085
:100631007B017A0079DA7D01120AA09000D5E0FBF6
:10064100A3E0FAA3E0F912026EFF9000DAE0FED314
:100651009F50429000D2E0FBA3E0FAA3E0F9EE1232
:1006610008169000DAE0FF9000D5E0FBA3E0FAA3C2
:10067100E0F9EF1202B47B017A0079DA7D01120A06
:10068100A07A0079D81208127F3A1200169000D988
:10069100E05480FF229000DAE0FF9000D5E0FBA358
:1006A100E0FAA3E0F9EF1202B47F3A1200167F00DC
:0306B100227F00A5
:0106B4002223
:1006B5007F341200167F3B120B88EF547F700302C4
:1006C50007747F3F120B749000B7EFF07B017A003F
:1006D50079B77D01120AA09000B7E0FF64026003BC
:1006E50002076B7B017A0079B39000BCEFF07F3F86
:1006F50012081C9000B3E0FFB45506A3E064AA609D
:100705001C900000E0FCA3E0FD6F7001EC704FEC65
:10071500FF9000B4E0FDEF6D7001E470417A00795F
:10072500B51208127F3A1200169000B6E030E7269F
:100735007B017A0079B37D02120AA090000B7455F3
:10074500F07F3A1200167F3C1200167F3812001611
:100755009000B7E0FF227BFF7A0A79DC800E7BFFF1
:100765007A0A79E780067BFF7A0A79EF120B147F04
:100775003A1200167F3C1200167F381200167F00D1
:010785002251
:100A0A007F36120016E4FD7F16120B477D187F18F9
:100A1A00120B477D287F1E120B477DA07F1F120BEA
:100A2A00477D787F20120B477F3A1200167F3C12CF
:0A0A3A0000167F381200167F01221B
:0300130002094C93
:10094C00C0E0C0F0C083C082C0D075D000C000C071
:10095C0001C002C003C004C005C006C007C2AA5330
:10096C0087FDB2A01206B5D2AAD007D006D005D00A
:10097C0004D003D002D001D000D0D0D082D083D00C
:04098C00F0D0E03295
:060026009000C612043B2D
:10002C009000CA120447000000009000CEE4F0A338
:10003C0004F0A3E4F0A304F07F137E3B7DB17C03BA
:10004C009000C6E0F8A3E0F9A3E0FAA3E0FBD3121A
:10005C00041740067F01C00780047F00C007E47FBF
:10006C000FFEFDFC9000C6E0F8A3E0F9A3E0FAA3B4
:10007C00E0FBC312041750047E0180027E00D0E026
:10008C004E60037F0022E47F627E07FDFC9000C679
:10009C00E0F8A3E0F9A3E0FAA3E0FBC312041750C5
:1000AC0009E49000CEF0A3F08071E47F4E7EECFD6D
:1000BC00FC9000C6E0F8A3E0F9A3E0FAA3E0FBC3D0
:1000CC00120417500A9000CEE4F0A304F0804C7F89
:1000DC00D87E897D1D7C009000C6E0F8A3E0F9A3D2
:1000EC00E0FAA3E0FBC3120417500B9000CEE4F02F
:1000FC00A37402F080257F137E3B7DB17C039000BE
:10010C00C6E0F8A3E0F9A3E0FAA3E0FBC3120417DE
:10011C0050099000CEE4F0A37403F09000CEA3E05D
:10012C0075F005A4FFA3E0FEA3E0A807088005C3B3
:10013C0033CE33CED8F9F0EE9000D0F09000CA1246
:10014C000447000065909000C6E0FCA3E0FDA3E02E
:10015C00FEA3E0FFA3E0F8A3E0F9A3E0FAA3E0FB21
:10016C00D3120417405E9000CAE0FCA3E0FDA3E0AC
:10017C00FEA3E0FF9000C6E0F8A3E0F9A3E0FAA329
:10018C00E0FB1202FA9000CA12043B9000CAE0FC99
:10019C00A3E0FDA3E0FEA3E0FFC004C005C006C0C1
:1001AC00079000D0E0FEA3E0FF7C027DEE1202E897
:1001BC00AB07AA06E4F9F8D007D006D005D0041294
:1001CC00038580389000D0E0FEA3E0FF7C027DEE3A
:1001DC001202E8AB07AA06E4F9F89000C6E0FCA30B
:1001EC00E0FDA3E0FEA3E0FF1203859000CAE0F857
:1001FC00A3E0F9A3E0FAA3E0FB1202FA9000CA1202
:10020C00043B7F361200167D107F16120B477D18AB
:10021C007F18120B479000CAE0FCA3E0FDA3E0FEA0
:10022C00A3E0FF7808120428AD077F1E120B47903D
:10023C0000CAA3A3A3E0FD7F1F120B479000CEA31F
:10024C00E04478FD7F20120B477D067F02120B479E
:10025C007F3A1200167F3C1200167F381200167F70
:01026C000190
:01026D00226E
:070BB6009000E0EFF080FE6B
:100B9C00696E697469616C697A6174696F6E206FD2
:030BAC006B0A00D1
:10086B004200000000410030004100B1004100B2E5
:10087B00004100020041000B0041000C0048000346
:10088B00C0C0C0C0C0C0C0C06023000D00080010B5
:10089B00A7625BF80322F80047B610181D1CC700AF
:0F08AB00B2EA2A0011598135090B060405000C29
:1009CE00E49000BFF09000B1740BF0120AFA120A14
:1009DE00BE1204787B017A0079039000C47408F08B
:1009EE007F3E1208BB120A0A120B5F7BFF7A0B794D
:0C09FE009C120B14120BBD43870280FBFF
:030000000207866E
:0C078600787FE4F6D8FD7581070207CDEE
:10026E00BB010689828A83E0225002E722BBFE028E
:09027E00E32289828A83E49322C1
:10028700BB010CE58229F582E5833AF583E022502C
:1002970006E92582F8E622BBFE06E92582F8E22276
:0D02A700E58229F582E5833AF583E4932290
:1002B400BB010689828A83F0225002F722BBFE0129
:0202C400F32223
:1002C600F8BB010DE58229F582E5833AF583E8F06E
:1002D600225006E92582C8F622BBFE05E92582C81A
:0202E600F22202
:1002E800EF8DF0A4A8F0CF8CF0A428CE8DF0A42E2A
:0202F800FE22E4
:1002FA00E88FF0A4CC8BF0A42CFCE98EF0A42CFCA3
:10030A008AF0EDA42CFCEA8EF0A4CDA8F08BF0A420
:10031A002DCC3825F0FDE98FF0A42CCD35F0FCEB7F
:10032A008EF0A4FEA9F0EB8FF0A4CFC5F02ECD3944
:0F033A00FEE43CFCEAA42DCE35F0FDE43CFC22B1
:1003490075F008758200EF2FFFEE33FECD33CDCC6B
:1003590033CCC58233C5829BED9AEC99E5829840EE
:100369000CF582EE9BFEED9AFDEC99FC0FD5F0D6CB
:10037900E4CEFBE4CDFAE4CCF9A88222B800C1B9F5
:100389000059BA002DEC8BF084CFCECDFCE5F0CB33
:10039900F97818EF2FFFEE33FEED33FDEC33FCEB6C
:1003A90033FB10D703994004EB99FB0FD8E5E4F927
:1003B900FA227818EF2FFFEE33FEED33FDEC33FC14
:1003C900C933C910D7059BE99A4007EC9BFCE99A08
:1003D900F90FD8E0E4C9FAE4CCFB2275F010EF2F4D
:1003E900FFEE33FEED33FDCC33CCC833C810D7074D
:1003F9009BEC9AE899400AED9BFDEC9AFCE899F888
:0E0409000FD5F0DAE4CDFBE4CCFAE4C8F9221A
:10041700EB9FF5F0EA9E42F0E99D42F0E89C45F03B
:0104270022B2
:10042800E8600FECC313FCED13FDEE13FEEF13FFB2
:03043800D8F122D6
:0C043B00ECF0A3EDF0A3EEF0A3EFF02234
:10044700A8828583F0D083D08212045E12045E12E4
:10045700045E12045EE473E493A3C583C5F0C58309
:10046700C8C582C8F0A3C583C5F0C583C8C582C8FF
:010477002262
:100792000209CEE493A3F8E493A34003F68001F2A6
:1007A20008DFF48029E493A3F85407240CC8C33368
:1007B200C4540F4420C8834004F456800146F6DF37
:1007C200E4800B010204081020408090086BE47E54
:1007D200019360BCA3FF543F30E509541FFEE4932C
:1007E200A360010ECF54C025E060A840B8E493A3F3
:1007F200FAE493A3F8E493A3C8C582C8CAC583CA1E
:10080200F0A3C8C582C8CAC583CADFE9DEE780BED5
:0108BA00003D
:00000001FF
