:05001D00D28AD2AA22E4
:07001600C284C281D28422E2
:100CC000120016120BF2120BF2120BF0120BF212B0
:080CD0000BF0120BF2B2A3229B
:100BBD00E4FEC281FDEF30E704D2808002C280EFF7
:100BCD0025E0FFD281000000000000EE25E0FE30A0
:100BDD0082010EC2810000000000000DEDB408D5A9
:020BED00AF0651
:010BEF0022E3
:100CF000759850438920758DFD758BFDD28EC2ABE2
:050D0000D2ACD2AF22CD
:100C7300C2AC1200266010F5993099FDC299740137
:0A0C830029F9E43AFA80EBD2AC2222
:100C1900C2ACAF051DEF6013120026F5993099FD9E
:0E0C2900C299740129F9E43AFA80E7D2AC22AC
:060BF000B2A37F507EC39A
:100BF600E4FDFCC3ED9FEC9E50070DBD00010C808B
:100C0600F2E4FCFDC3ED9FEC9E50070DBD00010C08
:020C160080F26A
:010C180022B9
:03002300020ABC12
:100ABC00C0E0C083C082C0D03098339000B4E02432
:100ACC0073F582E43400F583E599F0900073E064EB
:100ADC00AA60079000B4E4F080129000B4E004F037
:100AEC00E0D3940A400690000C7455F0C298D0D014
:070AFC00D082D083D0E0326C
:100C5500435243206572726F720A004E6F74206DA5
:0E0C6500650A004C656E677468213D320A0016
:100CA700000000000000000000000000000000EF4E
:090CB7001F70011E144E70E822AA
:10000300C2842082FD7F30120BBD2082FDD2842268
:100C3700D2847F0A7E00120CA7C2847F0A7E00122C
:0E0C47000CA7D2847F9A7E01120CA702000334
:100CD8009000C2EDF0C2842082FD120BBD9000C2CC
:080CE800E0FF120BBDD28422D3
:0B0A72009000C3EBF0A3EAF0A3E9F052
:100A7D00EF4440FFC2842082FD120BBDE49000C7FD
:100A8D00F09000C6E0FFA3E0FEC39F501F9000C38F
:100A9D00E0FBA3E0FAA3E0F98E8275830012003F1C
:0E0AAD00FF120BBD9000C7E004F080D5D2848C
:010ABB002218
:0F0C8D00FFE0FBA3E0FAA3E0F9EF12006C7F3A5F
:0B0C9C00C2842082FD120BBDD2842216
:100D0500EF4480FFC2842082FD120BBDE4FF120B6D
:030D1500BDD284C8
:010D180022B8
:0A0977007B0174029000D0F07F3F76
:0B0981009000CDEBF0A3EAF0A3E9F03A
:10098C00EF44C0FFC2842082FD120BBDE49000D165
:10099C00F09000D0E0FFA3E0C39F5025E4FF120BC2
:1009AC00BD9000CDE0FBA3E0FAA3E0F99000D1E00C
:1009BC00F582758300EF12007E9000D1E004F08088
:0309CC00D0D28402
:0109CF002205
:100D1900EF44C0FFC2842082FD120BBDE4FF120B19
:030D2900BDD284B4
:010D2C0022A4
:1004E30090002AE0FDE4FF120CD890002BE0FD7F82
:1004F30002120CD890000DE0FD7F0C120CD8900076
:100503000EE0FD7F0B120CD890000FE0FD7F0C1264
:100513000CD8900010E0FD7F0D120CD8900011E074
:10052300FD7F0E120CD8900012E0FD7F0F120CD845
:10053300900013E0FD7F10120CD8900014E0FD7FB3
:1005430011120CD8900015E0FD7F12120CD8900008
:1005530016E0FD7F13120CD8900017E0FD7F1412F4
:100563000CD8900018E0FD7F0A120CD8900019E017
:10057300FD7F15120CD890001AE0FD7F21120CD8D4
:1005830090001BE0FD7F22120CD890001CE0FD7F41
:1005930018120CD890001DE0FD7F19120CD89000A2
:1005A3001EE0FD7F1A120CD890001FE0FD7F1B1286
:1005B3000CD8900020E0FD7F1C120CD8900021E0A5
:1005C300FD7F1D120CD8900022E0FD7F23120CD872
:1005D300900023E0FD7F24120CD8900024E0FD7FDF
:1005E30025120CD8900025E0FD7F26120CD8900030
:1005F30026E0FD7F29120CD8900027E0FD7F2C1206
:100603000CD8900028E0FD7F2D120CD8900029E033
:10061300FD7F2E120CD890002CE0FD7F07120CD822
:1006230090002DE0FD7F08120CD890002EE0FD7F96
:0E06330009120CD890002FE0FD7F06020CD8B3
:100B45009000EFEBF0A3EAF0A3E9F0A3EDF0C2AA61
:100B55007F3F120CD89000EFE0FBA3E0FAA3E0F989
:100B6500A3E09000C6F07F3F120A727F35120C9CFD
:0E0B750030B3FD20B3FD7F3B120C9CD2AA22B0
:0B0641009000DEEBF0A3EAF0A3E9F06C
:10064C00A3E0FBA3E0FAA3E0F912002625E025E0E5
:10065C009000E7F07F34120C9C7F147E00120BF696
:10066C0030B3167F147E00120BF69000E7E014F006
:10067C00E0C3940150EA7F00227F3B120D19EF5426
:10068C007F607C7F3F120D059000E6EFF07B017AD6
:10069C000079E67D01120C199000E1E0FBA3E0FA71
:1006AC00A3E0F9120026FF9000E6E0FED39F504233
:1006BC009000DEE0FBA3E0FAA3E0F9EE12097B90D8
:1006CC0000E6E0FF9000E1E0FBA3E0FAA3E0F9EF25
:1006DC0012006C7B017A0079E67D01120C197A000C
:1006EC0079E41209777F3A120C9C9000E5E0548073
:1006FC00FF229000E6E09000E1120C8D7F00227F3B
:01070C0000EC
:01070D0022C9
:0B07D6009000C2EBF0A3EAF0A3E9F0F2
:1007E100A3E0FBA3E0FAA3E0F912002625E025E04F
:1007F1009000CBF07F34120C9C7F3B120D19EF540B
:100801007F70030208897F3F120D059000CAEFF047
:100811007B017A0079CA7D01120C199000C5E0FBB9
:10082100A3E0FAA3E0F9120026FF9000CAE0FED38C
:100831009F50489000C2E0FBA3E0FAA3E0F99000CA
:10084100D0EEF07F3F1209819000CAE0FF9000C511
:10085100E0FBA3E0FAA3E0F9EF12006C7B017A0060
:1008610079CA7D01120C197A0079C81209777F3A89
:10087100120C9C9000C9E05480FF229000CAE090C5
:0A08810000C5120C8D7F00227F00DD
:01088B00224A
:10070E007F34120C9C7F3B120D19EF547F70030245
:10071E0007C27F3F120D059000B9EFF07B017A0002
:10072E0079B97D01120C199000B9E0FF6402707B5B
:10073E007B017A0079B59000D0EFF07F3F120981EE
:10074E009000B5E0FFB45506A3E064AA601C9000CB
:10075E0000E0FCA3E0FD6F7001EC7047ECFF900031
:10076E00B6E0FDEF6D7001E470397B017A0079B768
:10077E001209797F3A120C9C9000B8E030E71C7B8E
:10078E00017A0079B57D02120C1990000B7455F0A8
:10079E007F3A120C9C9000B9E0FF227BFF7A0C7915
:1007AE0055800E7BFF7A0C796080067BFF7A0C7980
:1007BE0068120C737F3A120C9C7F3C120C9C7F3893
:0707CE00120C9CD2AA7F006F
:0107D5002201
:100B83007F36120C9CE4FD7F16120CD87D187F185B
:100B9300120CD87D287F1E120CD87DA07F1F120C4B
:100BA300D87D787F20120CD87F3A120C9C7F3C12A0
:0A0BB3000C9C7F38120C9C7F01227D
:03001300020B03DA
:100B0300C0E0C0F0C083C082C0D075D000C000C0B8
:100B130001C002C003C004C005C006C007C2AA5377
:100B230087FDB2A012070ED007D006D005D004D09F
:100B330003D002D001D000D0D0D082D083D0F0D067
:020B4300E0329E
:06029B009000D212025E89
:1002A1009000D612026A000000009000DAE4F0A388
:1002B10004F0A3E4F0A304F07F137E3B7DB17C0343
:1002C1009000D2E0F8A3E0F9A3E0FAA3E0FBD31297
:1002D100023A40067F01C00780047F00C007E47F27
:1002E1000FFEFDFC9000D2E0F8A3E0F9A3E0FAA331
:1002F100E0FBC312023A50047E0180027E00D0E08E
:100301004E60037F0022E47F627E07FDFC9000D2F5
:10031100E0F8A3E0F9A3E0FAA3E0FBC312023A502C
:1003210009E49000DAF0A3F08071E47F4E7EECFDE9
:10033100FC9000D2E0F8A3E0F9A3E0FAA3E0FBC34C
:1003410012023A500A9000DAE4F0A304F0804C7FE4
:10035100D87E897D1D7C009000D2E0F8A3E0F9A34E
:10036100E0FAA3E0FBC312023A500B9000DAE4F08A
:10037100A37402F080257F137E3B7DB17C03900046
:10038100D2E0F8A3E0F9A3E0FAA3E0FBC312023A3A
:1003910050099000DAE4F0A37403F09000DAA3E0CE
:1003A10075F005A4FFA3E0FEA3E0A807088005C33C
:1003B10033CE33CED8F9F0EE9000DCF09000D612B7
:1003C100026A000065909000D2E0FCA3E0FDA3E08A
:1003D100FEA3E0FFA3E0F8A3E0F9A3E0FAA3E0FBAA
:1003E100D312023A405E9000D6E0FCA3E0FDA3E008
:1003F100FEA3E0FF9000D2E0F8A3E0F9A3E0FAA3A6
:10040100E0FB12011D9000D612025E9000D6E0FCC6
:10041100A3E0FDA3E0FEA3E0FFC004C005C006C049
:10042100079000DCE0FEA3E0FF7C027DEE1200A05D
:10043100AB07AA06E4F9F8D007D006D005D004121C
:1004410001A880389000DCE0FEA3E0FF7C027DEE95
:100451001200A0AB07AA06E4F9F89000D2E0FCA3D1
:10046100E0FDA3E0FEA3E0FF1201A89000D6E0F8B2
:10047100A3E0F9A3E0FAA3E0FB12011D9000D6125C
:10048100025E7F36120C9C7D107F16120CD87D18EF
:100491007F18120CD89000D6E0FCA3E0FDA3E0FE8B
:1004A100A3E0FF780812024BAD077F1E120CD89013
:1004B10000D6A3A3A3E0FD7F1F120CD89000DAA3FE
:1004C100E04478FD7F20120CD87D067F02120CD803
:1004D1007F3A120C9C7F3C120C9C7F38120C9C7F43
:0104E1000119
:0104E20022F7
:0E0A25009000E8EBF0A3EAF0A3E9F0A3EDF0F7
:100A3300A3E075F068A4FFAEF07C007D051200B260
:100A4300A3EEF0A3EFF09000ED74FFF5F0120107B1
:100A530045F0601A9000E8E0FBA3E0FAA3E0F9A3F5
:0E0A6300E0FD120B457FE87E03120BF680D8F3
:010A71002262
:100D2D00696E697469616C697A6174696F6E206F3F
:030D3D006B0A003E
:1009D0004200000000410032004100B3004100B479
:1009E000004100020041000B0041000C00420030B9
:1009F000FFFF480003C0C0C0C0C0C0C0C06023002B
:100A00000D00080010A7625BF80322F80047B6103B
:100A1000181D1CC700B2EA2A0011598135090B06BE
:040A20000405000CBD
:10091800E49000C0F0A3F09000B3740BF0120CC088
:10092800120C371204E37B017A0079039000C67435
:1009380008F07F3E120A72120B83120CF07BFF7ACA
:100948000D792D120C7312001D43870290000BE0E5
:10095800B455F6E4F0FA9000C5CAF0A3EAF0A3741F
:0F0968000BF07B017A0079331207D6D2AA80DD1B
:0300000002088C67
:0C088C00787FE4F6D8FD7581070208D3E0
:10002600BB010689828A83E0225002E722BBFE02D8
:09003600E32289828A83E493220B
:10003F00BB010CE58229F582E5833AF583E0225076
:10004F0006E92582F8E622BBFE06E92582F8E222C0
:0D005F00E58229F582E5833AF583E49322DA
:10006C00BB010689828A83F0225002F722BBFE0173
:02007C00F3226D
:10007E00F8BB010DE58229F582E5833AF583E8F0B8
:10008E00225006E92582C8F622BBFE05E92582C864
:02009E00F2224C
:1000A000EF8DF0A4A8F0CF8CF0A428CE8DF0A42E74
:0200B000FE222E
:1000B200BC000BBE0029EF8DF084FFADF022E4CC32
:1000C200F875F008EF2FFFEE33FEEC33FCEE9DECFB
:1000D200984005FCEE9DFE0FD5F0E9E4CEFD22ED41
:1000E200F8F5F0EE8420D21CFEADF075F008EF2F8B
:1000F200FFED33FD4007985006D5F0F222C398FD7C
:050102000FD5F0EA2218
:10010700A3F8E0C5F025F0F0E582158270021583AB
:06011700E0C838F0E82208
:10011D00E88FF0A4CC8BF0A42CFCE98EF0A42CFC81
:10012D008AF0EDA42CFCEA8EF0A4CDA8F08BF0A4FF
:10013D002DCC3825F0FDE98FF0A42CCD35F0FCEB5E
:10014D008EF0A4FEA9F0EB8FF0A4CFC5F02ECD3923
:0F015D00FEE43CFCEAA42DCE35F0FDE43CFC2290
:10016C0075F008758200EF2FFFEE33FECD33CDCC4A
:10017C0033CCC58233C5829BED9AEC99E5829840CD
:10018C000CF582EE9BFEED9AFDEC99FC0FD5F0D6AA
:10019C00E4CEFBE4CDFAE4CCF9A88222B800C1B9D4
:1001AC000059BA002DEC8BF084CFCECDFCE5F0CB12
:1001BC00F97818EF2FFFEE33FEED33FDEC33FCEB4B
:1001CC0033FB10D703994004EB99FB0FD8E5E4F906
:1001DC00FA227818EF2FFFEE33FEED33FDEC33FCF3
:1001EC00C933C910D7059BE99A4007EC9BFCE99AE7
:1001FC00F90FD8E0E4C9FAE4CCFB2275F010EF2F2C
:10020C00FFEE33FEED33FDCC33CCC833C810D7072B
:10021C009BEC9AE899400AED9BFDEC9AFCE899F866
:0E022C000FD5F0DAE4CDFBE4CCFAE4C8F922F9
:10023A00EB9FF5F0EA9E42F0E99D42F0E89C45F01A
:01024A002291
:10024B00E8600FECC313FCED13FDEE13FEEF13FF91
:03025B00D8F122B5
:0C025E00ECF0A3EDF0A3EEF0A3EFF02213
:10026A00A8828583F0D083D0821202811202811281
:10027A000281120281E473E493A3C583C5F0C583A6
:10028A00C8C582C8F0A3C583C5F0C583C8C582C8DE
:01029A002241
:10089800020918E493A3F8E493A34003F68001F255
:1008A80008DFF48029E493A3F85407240CC8C33361
:1008B800C4540F4420C8834004F456800146F6DF30
:1008C800E4800B01020408102040809009D0E47EE7
:1008D800019360BCA3FF543F30E509541FFEE49325
:1008E800A360010ECF54C025E060A840B8E493A3EC
:1008F800FAE493A3F8E493A3C8C582C8CAC583CA17
:10090800F0A3C8C582C8CAC583CADFE9DEE780BECE
:010A240000D1
:00000001FF
