:0D001600E4F5C7F5C5F5C675C380F5C42235
:101F230075C78275C5018FC4EEF5C375C65A75C6EC
:071F3300A500AFC212001669
:011F3A002284
:101EF10075C78275C5028FC4EEF5C3AF058FC27574
:091F0100C65A75C6A500020016BF
:101F530075C78275C5038FC4EEF5C375C65A75C6BA
:051F6300A500020016BC
:041E6000AB07AA061C
:101E6400E4FCECC39D5013EC2BFFE43AFE121F2359
:0C1E7400EFF460037F00220C80E87F0187
:011E8000223F
:0F1C0A00900166EBF0A3EAF0A3E9F0AD07AC069A
:101C1900E4A3F0900169E0FFC394025027EF2DFF80
:101C2900E43CFE121F23900166E0FBA3E0FAA3E067
:101C3900F9A3E0F582758300EF120CCF900169E0FA
:041C490004F080CF54
:011C4D002274
:0F1AE800900199EBF0A3EAF0A3E9F0AD07AC068B
:101AF700E490019DF090019CE0FFA3E0FEC39F509E
:101B070029EE2DFFE43CFE121F23900199E0FBA371
:101B1700E0FAA3E0F990019DE0F582758300EF12EA
:0A1B27000CCF90019DE004F080CB8C
:011B31002291
:03000E00D28A2271
:07000300C284C281D28422F5
:101F9000759850438920758DFD758BFDD28EC2AB2F
:031FA000D2AC229E
:101EBD00C2AC120C446010F5993099FDC2997401B1
:0A1ECD0029F9E43AFA80EBD2AC22C6
:101C92007B017A0079007F007E04121C0A7B017AA4
:101CA20000793B7F007E02121C0A7F017E00121D1A
:101CB200E612000E121F90120003121E17121E17B8
:0F1CC200121E15121E17121E15121E17B2A32284
:101D8200E4FEC281FDEF30E704D2808002C280EF20
:101D920025E0FFD281000000000000EE25E0FE30C9
:101DA20082010EC2810000000000000DEDB408D5D2
:021DB200AF067A
:011DB400220C
:101DE600E4FDFCFB7AC079A8F8120D3FE47B0CFAFF
:101DF600F9F8121C4EE47BE87A03F9F8121C4EC37C
:0E1E0600E49FFDE49E4389018D8AF58CD2A9EC
:011E140022AB
:101E8100C2ACAF051DEF6013120C44F5993099FDFA
:0E1E9100C299740129F9E43AFA80E7D2AC2232
:061E1500B2A37F507EC362
:101E1B00E4FDFCC3ED9FEC9E50070DBD00010C8053
:101E2B00F2E4FCFDC3ED9FEC9E50070DBD00010CD1
:021E3B0080F233
:011E3D002282
:03002300021B7C41
:101B7C00C0E0C083C082C0D0309833900123E024F1
:101B8C00A2F582E43400F583E599F09000A2E064BC
:101B9C00AA6007900123E4F08012900123E004F086
:101BAC00E0D3940A40069000107455F0C298D0D03F
:071BBC00D082D083D0E0329B
:03000B000219BC1B
:1019BC00C0E0C0F0C083C082C0D075D000C000C0F1
:1019CC0001C002C003C004C005C006C00790003DA2
:1019DC00E0B455047F0A80027F017E00121DE69060
:1019EC00000FE004F0700690000EE004F0C39000CD
:1019FC000FE094E890000EE09403400D900035E465
:101A0C00F090000EF0A3F0C28CD007D006D005D019
:101A1C0004D003D002D001D000D0D0D082D083D05B
:041A2C00F0D0E032E4
:101A8D0020204973204D652064617461202000453C
:101A9D0072726F7220636865636B0A004572726FB4
:101AAD00722070726F746F636F6C004352432065C8
:101ABD0072726F720A002020776879204E6F742041
:101ACD006D650A004C656E677468213D320A004EE3
:0B1ADD006F74207061636B65740A0079
:101F0A00000000000000000000000000000000EFD8
:091F1A001F70011E144E70E82234
:101FB400C2842082FD7F30121D822082FDD28422C1
:101E9F00D2847F0A7E00121F0AC2847F0A7E00123C
:0E1EAF001F0AD2847F9A7E01121F0A021FB4FE
:101F3B00900187EDF0C2842082FD121D82900187F3
:081F4B00E0FF121D82D2842286
:0B1B3200900188EBF0A3EAF0A3E9F0BB
:101B3D00EF4440FFC2842082FD121D82E490018C8F
:101B4D00F090018BE0FFA3E0FEC39F501F90018832
:101B5D00E0FBA3E0FAA3E0F98E82758300120C5D21
:0E1B6D00FF121D8290018CE004F080D5D2841E
:011B7B002247
:0B1FC400C2842082FD121D82D2842204
:101F6800EF4480FFC2842082FD121D82E4FF121D0F
:031F780082D2848E
:011F7B002243
:0E1A30007A0179697B017402900174F07F3FA6
:0B1A3E00900171EBF0A3EAF0A3E9F0C7
:101A4900EF44C0FFC2842082FD121D82E49001751B
:101A5900F0900174E0FFA3E0C39F5025E4FF121D3D
:101A690082900171E0FBA3E0FAA3E0F9900175E02F
:101A7900F582758300EF120CCF900175E004F080B8
:031A8900D0D28434
:011A8C002237
:101F7C00EF44C0FFC2842082FD121D82E4FF121DBB
:031F8C0082D2847A
:011F8F00222F
:1014850090002EE0FDE4FF121F3B90002FE0FD7F52
:1014950002121F3B900011E0FD7F0C121F3B9000D4
:1014A50012E0FD7F0B121F3B900013E0FD7F0C1235
:1014B5001F3B900014E0FD7F0D121F3B900015E0CF
:1014C500FD7F0E121F3B900016E0FD7F0F121F3BA4
:1014D500900017E0FD7F10121F3B900018E0FD7F84
:1014E50011121F3B900019E0FD7F12121F3B900067
:1014F5001AE0FD7F13121F3B90001BE0FD7F1412C5
:101505001F3B90001CE0FD7F0A121F3B90001DE071
:10151500FD7F15121F3B90001EE0FD7F21121F3B32
:1015250090001FE0FD7F22121F3B900020E0FD7F11
:1015350018121F3B900021E0FD7F19121F3B900000
:1015450022E0FD7F1A121F3B900023E0FD7F1B1256
:101555001F3B900024E0FD7F1C121F3B900025E0FF
:10156500FD7F1D121F3B900026E0FD7F23121F3BD0
:10157500900027E0FD7F24121F3B900028E0FD7FAF
:1015850025121F3B900029E0FD7F26121F3B90008E
:101595002AE0FD7F29121F3B90002BE0FD7F2C12D6
:1015A5001F3B90002CE0FD7F2D121F3B90002DE08E
:1015B500FD7F2E121F3B900030E0FD7F07121F3B81
:1015C500900031E0FD7F08121F3B900032E0FD7F67
:0E15D50009121F3B900033E0FD7F06021F3B12
:101D4900900183EBF0A3EAF0A3E9F0A3EDF07F3F64
:101D5900121F3B900183E0FBA3E0FAA3E0F9A3E0A3
:101D690090018BF07F3F121B327F35121FC430B3B5
:091D7900FD20B3FD7F3B021FC4F5
:0B15E30090018DEBF0A3EAF0A3E9F00B
:1015EE00A3E0FBA3E0FAA3E0F9120C4425E025E00A
:1015FE00900196F07F34121FC47F147E00121E1BC2
:10160E0030B3167F147E00121E1B900196E014F06C
:10161E00E0C3940150EA7F00227F3B121F7CEF54FF
:10162E007F70030216BB7F3F121F68900195EFF08B
:10163E00900190E0FBA3E0FAA3E0F9120C44FEEF58
:10164E00D39E504D90018DE0FBA3E0FAA3E0F990FC
:10165E000195E0121A38900195E0FF900190E0FBA1
:10166E00A3E0FAA3E0F9EF120CBD90018DE0FBA30D
:10167E00E0FAA3E0F9900195E0FD121E817A01795E
:10168E0093121A347F3A121FC4900194E05480FFD3
:10169E0022900195E0FF900190E0FBA3E0FAA3E019
:0F16AE00F9EF120CBD7F3A121FC47F00227F009C
:0116BD00220A
:0B115300900166EBF0A3EAF0A3E9F0C6
:10115E00E490016DF0A3F0A3F07F34121FC47F3B27
:10116E00121F7CEF547F700302130E7F3F121F6815
:10117E0090016DEFF07F647E00121E1B90016DE0FA
:10118E00FFD394025003021288900166E0FBA3E0A5
:10119E00FAA3E0F9EF121A38121A307F3A121FC46E
:1011AE0090016AE020E70302127C900166E0FBA347
:1011BE00E0FAA3E0F9900001120C5D64AA7003023C
:1011CE001271E490016FF090016DE0FF14FE90013A
:1011DE006FE0FDC39E5020900166E0FBA3E0FAA3F2
:1011EE00E0F98D82758300120C5DFE90016EE02E8B
:1011FE00F0A3E004F080D0EF24FFFFE434FFFE9074
:10120E000166E0FBA3E0FAA3E0F98F828E83120C55
:10121E005DFF90016EE06F702FC00390017304F0BC
:10122E00A37400F0A3744DF0D003120938EF6010D0
:10123E00E4900035F09000617455F0B2A20212E411
:10124E007BFF7A1A798D802C900166E0FBA3E0FA81
:10125E00A3E0F990016DE0FD121E817BFF7A1A79F1
:10126E009C80117BFF7A1A79A9121EBD800C7BFF20
:10127E007A1A79B8121EBD7F002290016DE0FF64CC
:10128E000270757B017A01796B900174EFF07F3FEC
:10129E00121A3E90016BE0FFB4FF05A3E0F4601359
:1012AE00900000E0548F6F703BA3E0FF90016CE064
:1012BE006F7031121A307F3A121FC490016AE030FB
:1012CE00E71A7F3A121FC4E490000EF0A3F07F01DC
:1012DE00FE121DE6D28C90016DE0FF227BFF7A1A82
:1012EE0079B880117B017A01796B7D02121E817BA8
:1012FE00FF7A1A79C3121EBD7F3A121FC47F0022D5
:02130E007F005E
:0113100022BA
:1016BE007F34121FC47F3B121F7CEF547F700302D6
:1016CE0017797F3F121F6890016AEFF0E0FF640206
:1016DE0060030217637B017A017966900174EFF063
:1016EE007F3F121A3E900166E0FFB4FF05A3E0F4BF
:1016FE006013900000E0548F6F7047A3E0FF9001DD
:10170E0067E06F703D7B017A017968121A367F3A75
:10171E00121FC4900169E030E7207F3A121FC49077
:10172E0000357455F0E490000EF0A3F07F01FE1228
:10173E001DE6D28C90016AE0FF227BFF7A1A79B8FF
:10174E00802F7B017A0179667D02121E817BFF7AE2
:10175E001A79C3801C7BFF7A1A79D1121EBD7B01C8
:10176E007A01796A7D01121E8180097BFF7A1A79CE
:10177E00DC121EBD7F3A121FC47F3C121FC47F387D
:07178E00121FC4D2AA7F0064
:011795002231
:101D0F007F36121FC4E4FD7F16121F3B7D187F180C
:101D1F00121F3B7D287F1E121F3B7DA07F1F121FAE
:101D2F003B7D787F20121F3B7F3A121FC47F3C12EE
:0A1D3F001FC47F38121FC47F012269
:03001300021ED7F3
:101ED700C0E0C083C082C2AA5387FDB2A090000CA5
:0A1EE7007455F0D082D083D0E032B1
:0E1CD10090017CEBF0A3EAF0A3E9F0A3EDF0A4
:101CDF00A3E075F030A4FFA3E5F0F0A3EFF09001BF
:101CEF008174FFF5F0120CF145F0601390017CE068
:0F1CFF00FBA3E0FAA3E0F9A3E0FD121D4980DF8B
:011D0E0022B2
:101DB50047415445574159204F4B0A004D4F444523
:101DC5004C5F534E204F4B0A000D0A003020696EC0
:101DD500697469616C697A6174696F6E206F6B0AE9
:011DE50000FD
:1018BD0041003E004100E2004101230041000300D0
:1018CD0042000E000041000C00410010004100617B
:1018DD000041000D004100350041003D034100383D
:1018ED00004100020141003400420039FFFF4E006B
:1018FD003FAA0B01811001510101000110010048A7
:10190D000004C0C0C0C0C0C0C0C06023001100082A
:10191D000010A7625BF80322F80347B610181D1CD0
:10192D00C700B2EA2A0011598135090B06040500DA
:01193D00FFAA
:100F2700E4900164F0A37403F0121C92121E9F1246
:100F370014857B017A00790490018B7408F07F3E59
:100F4700121B32121D0FD2AF90003BE0F47003A3C7
:100F5700E0F4600C900000E0F47003A3E0F4707418
:100F6700B2A37F507EC3121E1B900010E0B455D869
:100F7700E4F07D02FF7E02121E60EF601A9000A36C
:100F8700E0FD7F007E02121EF19000A4E0FD7F01CC
:100F97007E02121EF180097BFF7A1D79B5121EBDF4
:100FA7007D027F007E04121E60EF601A9000A5E0AC
:100FB700FD7F007E04121EF19000A6E0FD7F017EFA
:100FC70004121EF180097BFF7A1D79C1121EBDC272
:100FD700A3020F4F7B017A0079007F007E04121C69
:100FE7000A7B017A00793B7F007E02121C0A90007F
:100FF70000E0FFA3E0900036CFF0A3EFF07B017A8B
:101007000079007D01121E817B017A0079017D0143
:10101700121E817B017A00793B7D01121E817B01C3
:101027007A00793C7D01121E817BFF7A1D79CE12F1
:101037001EBD7BFF7A1D79D1121EBDB2A1E4FFFE52
:10104700121F23900038EFF0F4600302110490019F
:1010570065E0FF14F0EF7003021104900002E090C6
:101067000041F090003BE0900043F090003CE0909E
:101077000044F0900000E0900048F0900001E090FC
:101087000049F090003BE090004AF090003CE0906F
:10109700004BF0E4900164F0900164E0FFC3940D0D
:1010A700501A743F2FF582E43400F583E0FF900077
:1010B7004CE02FF0900164E004F080DC7B017A00C3
:1010C70079399001807402F0FD121CD17B017A00FE
:1010D700793F7D0E121D49900002E004F0E4900074
:1010E7000EF0A3F07F0AFE121DE6D28C90003D742D
:1010F70055F0900035F0E490004CF08010E490003B
:101107003DF090000CE0645570311216BE9000352A
:10111700E0600B7B017A00796212115380EF900037
:1011270061E0B4550BE4F07B017A00794D12193F69
:1011370090003DE0645570030210557F3C121FC4B8
:0C1147007F38121FC4D2AA43870280B672
:101BC3006973206D652073656E740D0A0067657413
:101BD30020646174610D0A00726964206571756126
:101BE3006C0D0A00202020200020454E4420004E8A
:101BF3006F7420526F75746520696E666F726D61C4
:071C030074696F6E0D0A0009
:10179600900169EBF0A3EAF0A3E9F0900169E0FBA0
:1017A600A3E0FAA3E0F9900008120D07FF900000ED
:1017B600E0B5F00DA3E0B507087BFF7A1B79C3807F
:1017C60064900169E0FBA3E0FAA3E0F9900002123D
:1017D6000C5DFF900034E0B50714900008120D0769
:1017E600FF900036E065F07003A3E06F60317BFF89
:1017F6007A1B79D0121EBD900169E0FBA3E0FAA323
:10180600E0F9900002120C5D900034F0900008128E
:101816000D07FF900036E5F0F0A3EFF07F01227B85
:0B182600FF7A1B79DB121EBD7F002241
:101E3E0090000A120D07FFE5F0548FFE900000E0AF
:101E4E00548FFCA3E0B50707ECB506037F01227F94
:021E5E00002260
:0B054500900171EBF0A3EAF0A3E9F0D5
:10055000E4900178F0A3F0A3F0A3F0120C44FF9014
:100560000174E0FBA3E0FAA3E0F9EF120CBD9001E7
:1005700071E0FBA3E0FAA3E0F9900001120C5DFF2B
:10058000900174E0FBA3E0FAA3E0F9900001EF1200
:100590000CCF900171E0FBA3E0FAA3E0F990000218
:1005A000120C5DFF900174E0FBA3E0FAA3E0F99068
:1005B0000002EF120CCF900171E0FBA3E0FAA3E080
:1005C000F9900003120C5DFF900174E0FBA3E0FAC8
:1005D000A3E0F9900003EF120CCF900171E0FBA3B0
:1005E000E0FAA3E0F9900004120C5DFF900174E0C2
:1005F000FBA3E0FAA3E0F9900004EF120CCF900106
:1006000071E0FBA3E0FAA3E0F9900005120C5DFF96
:10061000900174E0FBA3E0FAA3E0F9900005EF126B
:100620000CCF900171E0FBA3E0FAA3E0F990000C7D
:10063000120C5D540FFF1425E0FE900179F0EF4499
:1006400050FF900174E0FBA3E0FAA3E0F9900006EC
:10065000EF120CCF900171E0FBA3E0FAA3E0F99058
:10066000000D120C5DFF900174E0FBA3E0FAA3E023
:10067000F9900007EF120CCFEE604FE4900177F095
:10068000900179E0FF900177E0FEC39F503C90011C
:1006900071E0FBA3E0FAA3E0F990000E120D8E8E3C
:1006A00082758300120C5DFFEE2408FDE433FC909C
:1006B0000174E0FBA3E0FAA3E0F98D828C83EF12D2
:1006C0000CCF900177E004F080B6900179E0240827
:1006D000A3F0900171E0FBA3E0FAA3E0F99000061B
:1006E000120C5DFF900174E0FBA3E0FAA3E0F99027
:1006F000017AE0FEF582758300EF120CCF90017154
:10070000E0FBA3E0FAA3E0F990000A120C5DFFEE13
:100710002401FDE433FC900174E0FBA3E0FAA3E0C4
:10072000F98D828C83EF120CCF900171E0FBA3E076
:10073000FAA3E0F990000B120C5DFFEE2402FDE439
:1007400033FC900174E0FBA3E0FAA3E0F98D828C06
:1007500083EF120CCF900171E0FBA3E0FAA3E0F964
:10076000900008120C5DFFEE2403FDE433FC9001C1
:1007700074E0FBA3E0FAA3E0F98D828C83EF120C06
:10078000CF900171E0FBA3E0FAA3E0F99000091219
:100790000C5DFFEE2404FDE433FC900174E0FBA348
:1007A000E0FAA3E0F98D828C83EF120CCF900171F7
:1007B000E0FBA3E0FAA3E0F9900001120C5DFF90CA
:1007C0000179E0FEC3EF9E24F590017BF0605DE4CB
:1007D000900177F090017BE0FF900177E0FEC39FEE
:1007E000504A900171E0FBA3E0FAA3E0F9900011F8
:1007F000120D8E8E82758300120C5DFF90017AE0DF
:100800002405FDE433FC900177E07A002DFDEA3CFD
:10081000FC900174E0FBA3E0FAA3E0F98D828C83E5
:10082000EF120CCF900177E004F080A8E4900177FC
:10083000F0900171E0FBA3E0FAA3E0F9900001124F
:100840000C5D2402FFE433FE900177E0C39FEE6469
:1008500080F87480985024900174E0FBA3E0FAA320
:10086000E0F9A3E0F582758300120C5DFF9001783A
:10087000E02FF0900177E004F080B6900178E0FF7F
:1008800090017AE02405FDE433FCA3E07A002DFD1D
:10089000EA3CFC900174E0FBA3E0FAA3E0F98D824E
:1008A0008C83EF120CCF900171E0FBA3E0FAA3E080
:1008B000F990000D120C5D25E0FFE433FEEF2406F5
:1008C000FDE43EFC900174E0FBA3E0FAA3E0F98DA7
:1008D000828C83120C5D900039F074072FF582E44E
:1008E0003EF583120C5D90003AF0900171E0FBA39D
:1008F000E0FAA3E0F990000D120C5D640160107B3A
:10090000017A0079399001807402F0FD121CD190B7
:100910000171E0FBA3E0FAA3E0F9900001120C5D85
:100920002403FD900174E0FBA3E0FAA3E0F9121D9B
:0709300049900002E004F011
:01093700229D
:0B002600900169EBF0A3EAF0A3E9F001
:10003100E4900170F0A3F0A3F0A3F0120C44FF9040
:10004100016CE0FBA3E0FAA3E0F9EF120CBD900113
:1000510069E0FBA3E0FAA3E0F9900001120C5DFF57
:1000610090016CE0FBA3E0FAA3E0F9900001EF122C
:100071000CCF900169E0FBA3E0FAA3E0F990000244
:10008100120C5DFF90016CE0FBA3E0FAA3E0F99094
:100091000002EF120CCF900169E0FBA3E0FAA3E0AC
:1000A100F9900003120C5DFF90016CE0FBA3E0FAF4
:1000B100A3E0F9900003EF120CCF900169E0FBA3DC
:1000C100E0FAA3E0F9900004120C5DFF90016CE0EE
:1000D100FBA3E0FAA3E0F9900004EF120CCF90012A
:1000E10069E0FBA3E0FAA3E0F9900005120C5DFFC3
:1000F10090016CE0FBA3E0FAA3E0F9900005EF1298
:100101000CCF900169E0FBA3E0FAA3E0F9900003B2
:10011100120C5DB4810990000C120C5D04801190E9
:100121000169E0FBA3E0FAA3E0F990000C120C5D79
:10013100FF90016CE0FBA3E0FAA3E0F9900006EF69
:10014100120CCF900169E0FBA3E0FAA3E0F9900063
:1001510003120C5D30E70990000D120C5D04801252
:10016100900169E0FBA3E0FAA3E0F990000D120C05
:100171005D14FF90016CE0FBA3E0FAA3E0F99000AD
:1001810007EF120CCF90016CE0FBA3E0FAA3E0F9BA
:10019100900006120C5D540FFF1425E0900171F0E0
:1001A100900169E0FBA3E0FAA3E0F9900003120CCF
:1001B1005D6481705DEF64017003020268E4900187
:1001C1006FF090016FE0FD2400F582E43400F583C7
:1001D100E0FC90016CE0FBA3E0FAA3E0F9900007DA
:1001E100120C5D25E0FFE433FEEF2404FFE43EFE44
:1001F100ED7A002FFFEA3EFE90016CA3E0FA8F82B8
:100201008E83EC120CCF90016FE004F0E0B402B2E7
:100211008055900171E0604FE490016FF0900171A1
:10022100E0FF90016FE0FEC39F503C900169E0FB4D
:10023100A3E0FAA3E0F990000E120D8E8E82758371
:1002410000120C5DFFEE2408FDE433FC90016CE02C
:10025100FBA3E0FAA3E0F98D828C83EF120CCF901F
:10026100016FE004F080B6900169E0FBA3E0FAA31E
:10027100E0F9900003120C5DB4811B90000174023F
:10028100120C8AFF90016CE0FBA3E0FAA3E0F99065
:100291000001EF120CCF900171E02408A3F090014E
:1002A10069E0FBA3E0FAA3E0F9900006120C5DFF00
:1002B10090016CE0FBA3E0FAA3E0F9900172E0FE8B
:1002C100F582758300EF120CCF900169E0FBA3E08A
:1002D100FAA3E0F9900008120C5DFFEE2401FDE4A1
:1002E10033FC90016CE0FBA3E0FAA3E0F98D828C72
:1002F10083EF120CCF900169E0FBA3E0FAA3E0F9D0
:10030100900009120C5DFFEE2402FDE433FC900124
:100311006CE0FBA3E0FAA3E0F98D828C83EF120C71
:10032100CF900169E0FBA3E0FAA3E0F990000A1283
:100331000C5DFFEE2403FDE433FC90016CE0FBA3B4
:10034100E0FAA3E0F98D828C83EF120CCF90016962
:10035100E0FBA3E0FAA3E0F990000B120C5DFFEEC5
:100361002404FDE433FC90016CE0FBA3E0FAA3E07C
:10037100F98D828C83EF120CCF900169E0FBA3E031
:10038100FAA3E0F9900001120C5DFF900171E0FE0B
:10039100C3EF9E24F5900173F0605DE490016FF06E
:1003A100900173E0FF90016FE0FEC39F504A9001FE
:1003B10069E0FBA3E0FAA3E0F9900011120D8E8E23
:1003C10082758300120C5DFF900172E02405FDE44B
:1003D10033FC90016FE07A002DFDEA3CFC90016C4A
:1003E100E0FBA3E0FAA3E0F98D828C83EF120CCF3E
:1003F10090016FE004F080A87BFF7A1B79E7121E61
:10040100BDE490016FF0900169E0FBA3E0FAA3E085
:10041100F9900001120C5D2402FFE433FE90016F9C
:10042100E0C39FEE6480F8748098503290016CE0D4
:10043100FBA3E0FAA3E0F9A3E0FFF58275830012C4
:100441000C5DFE900170E02EF07E00E92FF9EE3A8E
:10045100FA7D01121E8190016FE004F080A87B01FA
:100461007A0179707D01121E817BFF7A1B79E71277
:100471001EBD900170E0FF900172E02405FDE433A0
:10048100FCA3E07A002DFDEA3CFC90016CE0FBA3AB
:10049100E0FAA3E0F98D828C83EF120CCF90016911
:1004A100E0FBA3E0FAA3E0F9900003120C5DB48134
:1004B1000C90003A74FFF0900039F0803790016C95
:1004C100E0FBA3E0FAA3E0F9900007120C5D25E040
:1004D100FFE433FE74062FF582E43EF583120C5DD2
:1004E100900039F074072FF582E43EF583120C5D1C
:1004F10090003AF07B017A0079399001807402F022
:10050100FD121CD1900169E0FBA3E0FAA3E0F99090
:100511000001120C5D2403FD90016CE0FBA3E0FAE5
:10052100A3E0F9121D497BFF7A1B79EC121EBD90E5
:100531000169E0FBA3E0FAA3E02406F9E43AFA7DBD
:0405410001021E8114
:0B131100900169EBF0A3EAF0A3E9F003
:10131C0090000E120D8E90016DEBF0A3EAF0A3E994
:10132C00F0900169E0FBA3E0FAA3E0F990000C1245
:10133C000C5D540F1425E0900170F07D01E4FFFE6C
:10134C00121E60EF6007E4FDFFFE121EF1E4FFFECB
:10135C00121F23900038EFF0E490003DF07D02FF67
:10136C007E04121E60EF600280077F007E04121F55
:10137C0053900169E0FBA3E0FAA3E0F990000A1294
:10138C000C5DFD7F007E04121EF1900169E0FBA351
:10139C00E0FAA3E0F990000B120C5DFD7F017E04D6
:1013AC00121EF1900170E07003021452E4FDFF7EF6
:1013BC0005121E60EF6044900170E0FD7F007E0519
:1013CC00121EF1E490016CF0900170E0FF90016C42
:1013DC00E0FEC39F5070EE2401FFE43405FEA3E051
:1013EC00FBA3E475F001120CF1A9F0FA120C44FD08
:1013FC00121EF190016CE004F080CD7F007E05128E
:10140C001F53900170E0FD7F027E05121EF1E490E7
:10141C00016CF0900170E0FF90016CE0FEC39F50F6
:10142C0025EE2401FFE43405FEA3E0FBA3E475F0F4
:10143C0001120CF1A9F0FA120C44FD121EF19001EC
:10144C006CE004F080CD900000E0FFA3E09000364B
:10145C00CFF0A3EFF0900169E0FBA3E0FAA3E0F971
:10146C009000037482120CCF9001747401F0A37479
:09147C0001F0A37424F0020545FF
:101FA30090016C7401F0A37401F0A37424F0020097
:011FB3002607
:0B093800900170EBF0A3EAF0A3E9F0DF
:10094300E4FEFD900176F0900170E0FBA3E0FAA3D2
:10095300E0F9120C44FF900173E0FBA3E0FAA3E07B
:10096300F9EF120CBD900170E0FBA3E0FAA3E0F9EC
:10097300900001120C5DFF900173E0FBA3E0FAA36A
:10098300E0F9900001EF120CCF900170E0FBA3E0BF
:10099300FAA3E0F9900002120C5DFF900173E0FBF3
:1009A300A3E0FAA3E0F9900002EF120CCF900170DC
:1009B300E0FBA3E0FAA3E0F9900003120C5DFF90C3
:1009C3000173E0FBA3E0FAA3E0F9900003EF120C3C
:1009D300CF900170E0FBA3E0FAA3E0F990000412CA
:1009E3000C5DFF900173E0FBA3E0FAA3E0F9900034
:1009F30004EF120CCF900170E0FBA3E0FAA3E0F93F
:100A0300900005120C5DFF900173E0FBA3E0FAA3D5
:100A1300E0F9900005EF120CCF90000C120C5D541E
:100A23000F1425E0FF900170E0FBA3E0FAA3E0F9C7
:100A3300900006120C5DFC900173E0FBA3E0FAA3A7
:100A4300E0F990000CEC120CCF900170E0FBA3E0F6
:100A5300FAA3E0F9900007120C5DFC900173E0FB30
:100A6300A3E0FAA3E0F990000DEC120CCFEF6025A0
:100A7300900170E0FBA3E0FAA3E02408F9E43AFA5A
:100A8300C003C002C001A3E0FBA3E0FAA3E0F99016
:100A9300000E120DBEEF2408FE900170E0FBA3E0F0
:100AA300FAA3E0F98E82758300120C5DFD90017349
:100AB300E0FBA3E0FAA3E0F9900006ED120CCFEE01
:100AC3002401FDE433FC900170E0FBA3E0FAA3E012
:100AD300F98D828C83120C5DFD900173E0FBA3E022
:100AE300FAA3E0F9900008ED120CCFEE2402FDE426
:100AF30033FC900170E0FBA3E0FAA3E0F98D828C54
:100B030083120C5DFD900173E0FBA3E0FAA3E0F90F
:100B1300900009ED120CCFEE2403FDE433FC9001A9
:100B230070E0FBA3E0FAA3E0F98D828C83120C5DE5
:100B3300FD900173E0FBA3E0FAA3E0F990000AED56
:100B4300120CCFEE2404FDE433FC900170E0FBA310
:100B5300E0FAA3E0F98D828C83120C5DFD900173A2
:100B6300E0FBA3E0FAA3E0F990000BED120CCF90A9
:100B73000001120C5DC39F24F5FD602DAF06EF2429
:100B830005FFE433FE900170E0FBA3E0FAA3E02F3E
:100B9300F9EA3EFAC003C002C001A3E0FBA3E0FAF6
:100BA300A3E0F9900011120DBEE4900177F09001DB
:100BB30073E0FBA3E0FAA3E0F9900001120C5D24BB
:100BC30002FFE433FE900177E0C39FEE6480F87484
:100BD30080985034900170E0FBA3E0FAA3E0F99011
:100BE3000177E0FFF582758300120C5DFE900176BC
:100BF300E02EF07E00E92FF9EE3AFA7D01121E8114
:100C0300900177E004F080A67B017A0179767D017B
:100C1300121E817BFF7A1B79E7121EBD900173E0E0
:100C2300FBA3E0FAA3E0F9900008120D07FF900080
:100C330000E065F07003A3E06F60037F01227F0093
:010C4300228E
:10193F00900166EBF0A3EAF0A3E9F0900166E0FBFB
:10194F00A3E0FAA3E0F9121796EF6060900166E04A
:10195F00FBA3E0FAA3E0F9121E3EEF60419001668F
:10196F00E0FBA3E0FAA3E0F9900003120C5D24FD65
:10197F0060072402701F0213119001747401F0A309
:10198F007401F0A37424F0900166E0FBA3E0FAA3C6
:10199F00E0F90205457BFF7A1B79F2021EBD90012B
:0D19AF0066E0FBA3E0FAA3E0F9121FA322FB
:03000000021831B2
:0C183100787FE4F6D8FD75810702187876
:100C4400BB010689828A83E0225002E722BBFE02AE
:090C5400E32289828A83E49322E1
:100C5D00BB010CE58229F582E5833AF583E022504C
:100C6D0006E92582F8E622BBFE06E92582F8E22296
:0D0C7D00E58229F582E5833AF583E49322B0
:100C8A00BB010FF8E58229F582E5833AF583E0286E
:100C9A00F0225009C58229F8E58226F622BBFE0910
:100CAA00C58229F8E22582F222F8EA2583F583E94A
:030CBA009328225A
:100CBD00BB010689828A83F0225002F722BBFE0116
:020CCD00F32210
:100CCF00F8BB010DE58229F582E5833AF583E8F05B
:100CDF00225006E92582C8F622BBFE05E92582C807
:020CEF00F222EF
:100CF100A3F8E0C5F025F0F0E582158270021583B6
:060D0100E0C838F0E82212
:100D0700BB0110E58229F582E5833AF583E0F5F02A
:100D1700A3E0225009E92582F886F008E622BBFE07
:100D27000AE92582F8E2F5F008E222E5832AF5834D
:080D3700E993F5F0A3E9932212
:100D3F00E88FF0A4CC8BF0A42CFCE98EF0A42CFC53
:100D4F008AF0EDA42CFCEA8EF0A4CDA8F08BF0A4D1
:100D5F002DCC3825F0FDE98FF0A42CCD35F0FCEB30
:100D6F008EF0A4FEA9F0EB8FF0A4CFC5F02ECD39F5
:0F0D7F00FEE43CFCEAA42DCE35F0FDE43CFC2262
:101C4E00C2D5E830E70FB2D5E4C39BFBE49AFAE4C1
:101C5E0099F9E498F8EC30E717B2D5121C84120EFD
:101C6E0053E4C39BFBE49AFAE499F9E498F88003F1
:101C7E00120E5330D50DE4C39FFFE49EFEE49DFD8E
:041C8E00E49CFC22B4
:100D8E00BB010DE58229F582E5833AF583020EF764
:100D9E005007E92582F8020EE5BBFE07E92582F829
:100DAE00020F09E58229F582E5833AF583020F1BCE
:100DBE00BB0120E58229F582E5833AF583D0F0D098
:100DCE00E0F8D0E0F9D0E0FAD0E0FBE8C0E0C0F007
:100DDE00020F005018E92582F8D083D082D0E0F9B6
:100DEE00D0E0FAD0E0FBC082C083020EEEBBFE184C
:100DFE00E92582F8D083D082D0E0F9D0E0FAD0E0B5
:090E0E00FBC082C083020F122216
:10183D00020F27E493A3F8E493A34003F68001F28B
:10184D0008DFF48029E493A3F85407240CC8C333AC
:10185D00C4540F4420C8834004F456800146F6DF7B
:10186D00E4800B01020408102040809018BDE47E36
:10187D00019360BCA3FF543F30E509541FFEE49370
:10188D00A360010ECF54C025E060A840B8E493A337
:10189D00FAE493A3F8E493A3C8C582C8CAC583CA62
:1018AD00F0A3C8C582C8CAC583CADFE9DEE780BE1A
:01193E0000A8
:100E170075F008758200EF2FFFEE33FECD33CDCC92
:100E270033CCC58233C5829BED9AEC99E582984015
:100E37000CF582EE9BFEED9AFDEC99FC0FD5F0D6F2
:100E4700E4CEFBE4CDFAE4CCF9A88222B800C1B91C
:100E57000059BA002DEC8BF084CFCECDFCE5F0CB5A
:100E6700F97818EF2FFFEE33FEED33FDEC33FCEB93
:100E770033FB10D703994004EB99FB0FD8E5E4F94E
:100E8700FA227818EF2FFFEE33FEED33FDEC33FC3B
:100E9700C933C910D7059BE99A4007EC9BFCE99A2F
:100EA700F90FD8E0E4C9FAE4CCFB2275F010EF2F74
:100EB700FFEE33FEED33FDCC33CCC833C810D70774
:100EC7009BEC9AE899400AED9BFDEC9AFCE899F8AF
:0E0ED7000FD5F0DAE4CDFBE4CCFAE4C8F92242
:090EE500E6FB08E6FA08E6F92232
:090EEE00EBF608EAF608E9F62229
:090EF700E0FBA3E0FAA3E0F922FC
:090F0000EBF0A3EAF0A3E9F022F2
:090F0900E2FB08E2FA08E2F92219
:090F1200EBF208EAF208E9F22210
:0C0F1B00E493FB740193FA740293F92232
:00000001FF
