:0D001600E4F5C7F5C5F5C675C380F5C42235
:1020550075C78275C5018FC4EEF5C375C65A75C6B9
:07206500A500AFC212001636
:01206C002251
:1020230075C78275C5028FC4EEF5C3AF058FC27540
:09203300C65A75C6A5000200168C
:1020850075C78275C5038FC4EEF5C375C65A75C687
:05209500A50002001689
:0F1D5D0090013CEBF0A3EAF0A3E9F0AD07AC0670
:101D6C00E4A3F090013FE0FFC394025027EF2DFF56
:101D7C00E43CFE12205590013CE0FBA3E0FAA3E00A
:101D8C00F9A3E0F582758300EF120D0790013FE097
:041D9C0004F080CF00
:011DA0002220
:0F1C8200900170EBF0A3EAF0A3E9F0AD07AC0618
:101C9100E4900174F0900173E0FFA3E0FEC39F5054
:101CA10029EE2DFFE43CFE122055900170E0FBA3CC
:101CB100E0FAA3E0F9900174E0F582758300EF1278
:0A1CC1000D07900174E004F080CBE1
:011CCB0022F6
:03000E00D28A2271
:07000300C284C281D28422F5
:1020C200759850438920758DFD758BFDD28EC2ABFC
:0320D200D2AC226B
:101FEF00C2AC120C7C6010F5993099FDC299740146
:0A1FFF0029F9E43AFA80EBD2AC2293
:101DE5007B017A0079007F007E04121D5D7B017AFC
:101DF50000793D7F007E02121D5D7F017E00121F6E
:101E05003912000E1220C2120003121F6A121F6A35
:0F1E1500121F68121F6A121F68121F6AB2A322DF
:101ED500E4FEC281FDEF30E704D2808002C280EFCC
:101EE50025E0FFD281000000000000EE25E0FE3075
:101EF50082010EC2810000000000000DEDB408D57E
:021F0500AF0625
:011F070022B7
:101F3900E4FDFCFB7AC079A8F8120D77E47B0CFA72
:101F4900F9F8121DA1E47BE87A03F9F8121DA1C37F
:0E1F5900E49FFDE49E4389018D8AF58CD2A998
:011F67002257
:101FB300C2ACAF051DEF6013120C7CF5993099FD8F
:0E1FC300C299740129F9E43AFA80E7D2AC22FF
:061F6800B2A37F507EC30E
:101F6E00E4FDFCC3ED9FEC9E50070DBD00010C80FF
:101F7E00F2E4FCFDC3ED9FEC9E50070DBD00010C7D
:021F8E0080F2DF
:011F9000222E
:03002300021D16A5
:101D1600C0E0C083C082C0D03098339000E5E02494
:101D260064F582E43400F583E599F0900064E0649C
:101D3600AA60079000E5E4F080129000E5E004F068
:101D4600E0D3940A40069000127455F0C298D0D0A1
:071D5600D082D083D0E032FF
:03000B00021BB124
:101BB100C0E0C0F0C083C082C0D075D000C000C0FA
:101BC10001C002C003C004C005C006C00790003FA9
:101BD100E0B4FF047F0A80027F017E00121F39906A
:101BE1000011E004F07006900010E004F0C39000D2
:101BF10011E094E8900010E09403400D900037E468
:101C0100F0900010F0A3F0C28CD007D006D005D020
:101C110004D003D002D001D000D0D0D082D083D064
:041C2100F0D0E032ED
:101A960020204973204D6520646174612020004533
:101AA60072726F7220636865636B0A004572726FAB
:101AB600722070726F746F636F6C00646174612062
:101AC600435243206572726F720A003320435243B9
:101AD600206572726F720A002020776879204E6F37
:101AE60074206D650A0077616B65757020435243FB
:101AF600206572726F720A002077616B65757020BF
:101B06004E6F74206D650A004C656E677468213DE2
:0F1B1600320A004E6F74207061636B65740A00B1
:10203C00000000000000000000000000000000EFA5
:09204C001F70011E144E70E82201
:1020E600C2842082FD7F30121ED52082FDD284223A
:101FD100D2847F0A7E0012203CC2847F0A7E0012D6
:0E1FE100203CD2847F9A7E0112203C0220E632
:10206D0090015EEDF0C2842082FD121ED590015EBE
:08207D00E0FF121ED5D28422FF
:0B1CCC0090015FEBF0A3EAF0A3E9F049
:101CD700EF4440FFC2842082FD121ED5E4900163C9
:101CE700F0900162E0FFA3E0FEC39F501F90015FE9
:101CF700E0FBA3E0FAA3E0F98E82758300120C954E
:0E1D0700FF121ED5900163E004F080D5D28457
:011D150022AB
:0B20F600C2842082FD121ED5D284227D
:10209A00EF4480FFC2842082FD121ED5E4FF121E87
:0320AA00D5D28408
:0120AD002210
:0E1C25007A01793F7B01740290014AF07F3F03
:0B1C3300900147EBF0A3EAF0A3E9F0FA
:101C3E00EF44C0FFC2842082FD121ED5E490014BFA
:101C4E00F090014AE0FFA3E0C39F5025E4FF121E6F
:101C5E00D5900147E0FBA3E0FAA3E0F990014BE039
:101C6E00F582758300EF120D0790014BE004F080B2
:031C7E00D0D2843D
:011C81002240
:1020AE00EF44C0FFC2842082FD121ED5E4FF121E33
:0320BE00D5D284F4
:0120C10022FC
:1014DD00900030E0FDE4FF12206D900031E0FD7FC3
:1014ED000212206D900013E0FD7F0C12206D900014
:1014FD0014E0FD7F0B12206D900015E0FD7F0C12A6
:10150D00206D900016E0FD7F0D12206D900017E00C
:10151D00FD7F0E12206D900018E0FD7F0F12206DE3
:10152D00900019E0FD7F1012206D90001AE0FD7FF4
:10153D001112206D90001BE0FD7F1212206D9000A6
:10154D001CE0FD7F1312206D90001DE0FD7F141235
:10155D00206D90001EE0FD7F0A12206D90001FE0AF
:10156D00FD7F1512206D900020E0FD7F2112206D72
:10157D00900021E0FD7F2212206D900022E0FD7F82
:10158D001812206D900023E0FD7F1912206D900040
:10159D0024E0FD7F1A12206D900025E0FD7F1B12C7
:1015AD00206D900026E0FD7F1C12206D900027E03D
:1015BD00FD7F1D12206D900028E0FD7F2312206D10
:1015CD00900029E0FD7F2412206D90002AE0FD7F20
:1015DD002512206D90002BE0FD7F2612206D9000CE
:1015ED002CE0FD7F2912206D90002DE0FD7F2C1247
:1015FD00206D90002EE0FD7F2D12206D90002FE0CC
:10160D00FD7F2E12206D900032E0FD7F0712206DC0
:10161D00900033E0FD7F0812206D900034E0FD7FD7
:0E162D000912206D900035E0FD7F0602206D51
:101E9C0090015AEBF0A3EAF0A3E9F0A3EDF07F3F39
:101EAC0012206D90015AE0FBA3E0FAA3E0F9A3E045
:101EBC00900162F07F3F121CCC7F351220F630B3BC
:091ECC00FD20B3FD7F3B0220F66E
:0B163B00900164EBF0A3EAF0A3E9F0DB
:10164600A3E0FBA3E0FAA3E0F9120C7C25E025E079
:1016560090016DF07F341220F67F147E00121F6E0B
:1016660030B3167F147E00121F6E90016DE014F0E9
:10167600E0C3940150EA7F00227F3B1220AEEF5474
:101686007F70030217137F3F12209A90016CEFF0D0
:10169600900167E0FBA3E0FAA3E0F9120C7CFEEFF1
:1016A600D39E504D900164E0FBA3E0FAA3E0F990CD
:1016B600016CE0121C2D90016CE0FF900167E0FBCD
:1016C600A3E0FAA3E0F9EF120CF5900164E0FBA3A6
:1016D600E0FAA3E0F990016CE0FD121FB37A0179FC
:1016E6006A121C297F3A1220F690016BE05480FFA3
:1016F6002290016CE0FF900167E0FBA3E0FAA3E013
:0F170600F9EF120CF57F3A1220F67F00227F00D8
:0117150022B1
:0B11B10090013CEBF0A3EAF0A3E9F092
:1011BC00E4900143F0A3F0A3F07F341220F67F3BC0
:1011CC001220AEEF547F700302136C7F3F12209AF3
:1011DC00900143EFF07F647E00121F6E900143E09C
:1011EC00FFD3940250030212E690013CE0FBA3E013
:1011FC00FAA3E0F9EF121C2D121C257F3A1220F6EF
:10120C00900140E020E7030212DA90013CE0FBA3DE
:10121C00E0FAA3E0F9900001120C9564AA700302A5
:10122C0012CFE4900145F0900143E0FF14FE9001D1
:10123C0045E0FDC39E502090013CE0FBA3E0FAA3E7
:10124C00E0F98D82758300120C95FE900144E02E1E
:10125C00F0A3E004F080D0EF24FFFFE434FFFE9015
:10126C00013CE0FBA3E0FAA3E0F98F828E83120C21
:10127C0095FF900144E06F702FC00390014904F07A
:10128C00A37400F0A3744FF0D003120986EF601022
:10129C00E4900037F09000637455F0B2A202134250
:1012AC007BFF7A1A7996802C90013CE0FBA3E0FA44
:1012BC00A3E0F9900143E0FD121FB37BFF7A1A798A
:1012CC00A580117BFF7A1A79B2121FEF800C7BFF7D
:1012DC007A1A79C1121FEF7F0022900143E0FF645C
:1012EC000270757B017A01794190014AEFF07F3FE2
:1012FC00121C33900141E0FFB4FF05A3E0F460132E
:10130C00900000E0548F6F703BA3E0FF900142E02F
:10131C006F7031121C257F3A1220F6900140E0309C
:10132C00E71A7F3A1220F6E4900010F0A3F07F0148
:10133C00FE121F39D28C900143E0FF227BFF7A1AF8
:10134C0079D180117B017A0179417D02121FB37B27
:10135C00FF7A1A79DE121FEF7F3A1220F67F0022F5
:02136C007F0000
:01136E00225C
:101716007F341220F67F3B1220AEEF547F70030217
:1017260017D17F3F12209A900140EFF0E0FF64024C
:1017360060030217BB7B017A01793C90014AEFF006
:101746007F3F121C3390013CE0FFB4FF05A3E0F499
:101756006013900000E0548F6F7047A3E0FF900184
:101766003DE06F703D7B017A01793E121C2B7F3A7A
:101776001220F690013FE030E7207F3A1220F690E3
:1017860000377455F0E4900010F0A3F07F01FE12CC
:101796001F39D28C900140E0FF227BFF7A1A79EC48
:1017A600802F7B017A01793C7D02121FB37BFF7A81
:1017B6001A79FE801C7BFF7A1B790E121FEF7B01C4
:1017C6007A0179407D01121FB380097BFF7A1B796C
:1017D60019121FEF7F3A1220F67F3C1220F67F384F
:0717E6001220F6D2AA7F00D9
:0117ED0022D9
:101E62007F361220F6E4FD7F1612206D7D187F1852
:101E720012206D7D287F1E12206D7DA07F1F1220F3
:101E82006D7D787F2012206D7F3A1220F67F3C1202
:0A1E920020F67F381220F67F0122AF
:03001300022009BF
:10200900C0E0C083C082C2AA5387FDB2A090000E6F
:0A2019007455F0D082D083D0E0327D
:0E1E2400900153EBF0A3EAF0A3E9F0A3EDF078
:101E3200A3E075F030A4FFA3E5F0F0A3EFF090016A
:101E42005874FFF5F0120D2945F06013900153E02C
:0F1E5200FBA3E0FAA3E0F9A3E0FD121E9C80DFE2
:011E6100225E
:101F08002020200047415445574159204F4B0A0093
:101F18004D4F44454C5F534E204F4B0A0020696E8D
:101F2800697469616C697A6174696F6E206F6B207E
:011F380000A8
:10196100410040004100A4004100E50041000400A5
:10197100420010000041000E0041001200410063CE
:101981000041000F004100370041003F0041003A93
:1019910000410003014100360042003BFFFF5401BA
:1019A10026FFFFFFFF000000000000000000000014
:1019B100000000000041000201410005014E00410C
:1019C100AA0B018110015101010001100100480021
:1019D10006C0C0C0C0C0C0C0C06023001300080062
:1019E10010A7625BF80322F80347B610181D1CC745
:1019F10000B2EA2A0011598135090B06040500FFDE
:100F5F00E490013AF0A37406F0121DE5121FD112AE
:100F6F0014DD7B017A0079069001627408F07F3EF0
:100F7F00121CCC121E62D2AF7B017A0079007D0168
:100F8F00121FB37B017A0079017D01121FB37B0120
:100F9F007A00793D7D01121FB37B017A00793E7D86
:100FAF0001121FB37BFF7A1F7908121FEF90003DCC
:100FBF00E0F47003A3E0F4600C900000E0F4700321
:100FCF00A3E0F47073B2A37F507EC3121F6E900024
:100FDF0012E0B455D8E4F0900065E0FD7F007E028A
:100FEF00122023900066E0FD7F017E0212202390E5
:100FFF000067E0FD7F007E04122023900068E0FD73
:10100F007F017E041220237BFF7A1F790C121FEFC2
:10101F007BFF7A1F7918121FEFC2A37B017A007929
:10102F00007F007E04121D5D7B017A00793D7F00F9
:10103F007E02121D5D020FBC900000E0FF900002C7
:10104F00E0C45470FEEF4E900000F0E0FFA3E0907C
:10105F000038CFF0A3EFF07B017A0079007D011209
:10106F001FB37B017A0079017D01121FB37B017AD7
:10107F0000793D7D01121FB37B017A00793E7D011E
:10108F00121FB37BFF7A1F7925121FEFB2A1E4FF66
:10109F00FE12205590003FEFF0F4600302116890AC
:1010AF00013BE0FF14F0EF7003021163900003E0C7
:1010BF00900043F090003DE0900045F090003EE03E
:1010CF00900046F0900000E090004AF0900001E0A0
:1010DF0090004BF090003DE090004CF090003EE00F
:1010EF0090004DF0E490013AF090013AE0FFC39484
:1010FF000D501A74412FF582E43400F583E0FF9010
:10110F00004EE02FF090013AE004F080DC90013BBC
:10111F00E0C3940350117B017A00793B900157741F
:10112F0004F07D02121E247B017A0079417D0E129C
:10113F001E9C900003E004F0E4900010F0A3F07FF9
:10114F000AFE121F39D28C9000377455F0E49000CC
:10115F004EF08010E490003FF090000EE064557068
:10116F0030121716900037E0600B7B017A0079A5DB
:10117F001211B180EF900063E0B4550BE4F07B01E6
:10118F007A00794F1218B190003FE0F4700302100B
:10119F00AE7F3C1220F67F381220F6D2AA43870288
:0211AF0080B707
:101A020047617465776179206572720D0A006973A6
:101A1200206D652073656E740D0A0067657420641D
:101A22006174610D0A0072696420657175616C0DE3
:101A32000A002059494E47204441202020002020FE
:101A4200202000205A4855414E20464120202000A7
:101A5200205772697465206F6B20002020526F75C9
:101A6200746573697A652066756C6C20200020208D
:101A72005265616420646174612020004E6F74209D
:101A8200526F75746520696E666F726D6174696FED
:041A92006E0D0A00CB
:1017EE0090014EEBF0A3EAF0A3E9F090014EE0FB7E
:1017FE00A3E0FAA3E0F9900004120D3FFF90003D24
:10180E00E065F07003A3E06F60097BFF7A1A79023E
:10181E000218AB90014EE0FBA3E0FAA3E0F99000B2
:10182E0008120D3FFF900000E0B5F00DA3E0B507E4
:10183E00087BFF7A1A7910806490014EE0FBA3E0DA
:10184E00FAA3E0F9900002120C95FF900036E0B575
:10185E000714900008120D3FFF900038E065F070FD
:10186E0003A3E06F60317BFF7A1A791D121FEF9090
:10187E00014EE0FBA3E0FAA3E0F9900002120C95F2
:10188E00900036F0900008120D3FFF900038E5F002
:10189E00F0A3EFF07F01227BFF7A1A7928121FEF57
:0318AE007F002296
:101F910090000A120D3FFFE5F0548FFE900000E023
:101FA100548FFCA3E0B50707ECB506037F01227F40
:021FB10000220C
:0B056900900148EBF0A3EAF0A3E9F0DA
:10057400E490014FF0A3F0A3F0A3F0120C7CFF90E1
:10058400014BE0FBA3E0FAA3E0F9EF120CF59001B4
:1005940048E0FBA3E0FAA3E0F9900001120C95FFF8
:1005A40090014BE0FBA3E0FAA3E0F9900001EF1205
:1005B4000D07900148E0FBA3E0FAA3E0F9900002E4
:1005C400120C95FF90014BE0FBA3E0FAA3E0F99035
:1005D4000002EF120D07900148E0FBA3E0FAA3E04C
:1005E400F9900003120C95FF90014BE0FBA3E0FA95
:1005F400A3E0F9900003EF120D07900148E0FBA37C
:10060400E0FAA3E0F9900004120C95FF90014BE08E
:10061400FBA3E0FAA3E0F9900004EF120D079001A8
:1006240048E0FBA3E0FAA3E0F9900005120C95FF63
:1006340090014BE0FBA3E0FAA3E0F9900005EF1270
:100644000D07900148E0FBA3E0FAA3E0F990000C49
:10065400120C95540FFF1425E0FE900150F0EF4466
:1006640050FF90014BE0FBA3E0FAA3E0F9900006F1
:10067400EF120D07900148E0FBA3E0FAA3E0F99024
:10068400000D120C95FF90014BE0FBA3E0FAA3E0F0
:10069400F9900007EF120D07EE604FE490014EF061
:1006A400900150E0FF90014EE0FEC39F503C90014A
:1006B40048E0FBA3E0FAA3E0F990000E120DC68E09
:1006C40082758300120C95FFEE2408FDE433FC9040
:1006D400014BE0FBA3E0FAA3E0F98D828C83EF12D7
:1006E4000D0790014EE004F080B6900150E024081C
:1006F400A3F0900148E0FBA3E0FAA3E0F990000620
:10070400120C95FF90014BE0FBA3E0FAA3E0F990F3
:100714000151E0FEF582758300EF120D0790014848
:10072400E0FBA3E0FAA3E0F990000A120C95FFEEB7
:100734002401FDE433FC90014BE0FBA3E0FAA3E0C9
:10074400F98D828C83EF120D07900148E0FBA3E042
:10075400FAA3E0F990000B120C95FFEE2402FDE4DD
:1007640033FC90014BE0FBA3E0FAA3E0F98D828C0B
:1007740083EF120D07900148E0FBA3E0FAA3E0F930
:10078400900008120C95FFEE2403FDE433FC900165
:100794004BE0FBA3E0FAA3E0F98D828C83EF120D0A
:1007A40007900148E0FBA3E0FAA3E0F990000912E6
:1007B4000C95FFEE2404FDE433FC90014BE0FBA315
:1007C400E0FAA3E0F98D828C83EF120D07900148C3
:1007D400E0FBA3E0FAA3E0F9900001120C95FF906E
:1007E4000150E0FEC3EF9E24F5900152F0605DE4F9
:1007F40090014EF0900152E0FF90014EE0FEC39F45
:10080400504A900148E0FBA3E0FAA3E0F9900011FC
:10081400120DC68E82758300120C95FF900151E073
:100824002405FDE433FC90014EE07A002DFDEA3C02
:10083400FC90014BE0FBA3E0FAA3E0F98D828C83EA
:10084400EF120D0790014EE004F080A87BFF7A1AA6
:100854007934121FEFE490014EF0900148E0FBA3BD
:10086400E0FAA3E0F9900001120C952402FFE433AE
:10087400FE90014EE0C39FEE6480F874809850327D
:1008840090014BE0FBA3E0FAA3E0F9A3E0FFF582BB
:10089400758300120C95FE90014FE02EF07E00E966
:1008A4002FF9EE3AFA7D01121FB390014EE004F0E5
:1008B40080A87B017A01794F7D01121FB37BFF7AF7
:1008C4001A7940121FEF90014FE0FF900151E0248C
:1008D40005FDE433FCA3E07A002DFDEA3CFC900125
:1008E4004BE0FBA3E0FAA3E0F98D828C83EF120DB9
:1008F40007E92DF9EA3CFA7D01121FB3900150E09B
:100904006057900148E0FBA3E0FAA3E0F990000DE2
:10091400120C9525E0FDE433FCED2406FFE43CFED7
:1009240090014BE0FBA3E0FAA3E0F98F828E8312DF
:100934000C95548F90003BF074072DF582E43CF540
:1009440083120C9590003CF07B017A00793B900176
:10095400577404F07D02121E24900148E0FBA3E0CA
:10096400FAA3E0F9900001120C952403FD90014BC9
:10097400E0FBA3E0FAA3E0F9121E9C900003E0045C
:01098400F082
:01098500224F
:0B00260090013FEBF0A3EAF0A3E9F02B
:10003100E4900146F0A3F0A3F0A3F0120C7CFF9032
:100041000142E0FBA3E0FAA3E0F9EF120CF5900105
:100051003FE0FBA3E0FAA3E0F9900001120C95FF49
:10006100900142E0FBA3E0FAA3E0F9900001EF1256
:100071000D0790013FE0FBA3E0FAA3E0F990000235
:10008100120C95FF900142E0FBA3E0FAA3E0F99086
:100091000002EF120D0790013FE0FBA3E0FAA3E09D
:1000A100F9900003120C95FF900142E0FBA3E0FAE6
:1000B100A3E0F9900003EF120D0790013FE0FBA3CD
:1000C100E0FAA3E0F9900004120C95FF900142E0E0
:1000D100FBA3E0FAA3E0F9900004EF120D079001F1
:1000E1003FE0FBA3E0FAA3E0F9900005120C95FFB5
:1000F100900142E0FBA3E0FAA3E0F9900005EF12C2
:100101000D0790013FE0FBA3E0FAA3E0F9900003A3
:10011100120C95B4810990000C120C950480119079
:10012100013FE0FBA3E0FAA3E0F990000C120C956B
:10013100FF900142E0FBA3E0FAA3E0F9900006EF93
:10014100120D0790013FE0FBA3E0FAA3E0F9900054
:1001510003120C9530E70990000D120C95048012E2
:1001610090013FE0FBA3E0FAA3E0F990000D120C2F
:100171009514FF900142E0FBA3E0FAA3E0F990009F
:1001810007EF120D07900142E0FBA3E0FAA3E0F9AB
:10019100900006120C95540FFF1425E0900147F0D2
:1001A10090013FE0FBA3E0FAA3E0F9900003120CF9
:1001B100956481705DEF64017003020268E490014F
:1001C10045F0900145E0FD2400F582E43400F5831B
:1001D100E0FC900142E0FBA3E0FAA3E0F990000704
:1001E100120C9525E0FFE433FEEF2404FFE43EFE0C
:1001F100ED7A002FFFEA3EFE900142A3E0FA8F82E2
:100201008E83EC120D07900145E004F0E0B402B2D8
:100211008055900147E0604FE4900145F09001471F
:10022100E0FF900145E0FEC39F503C90013FE0FBA1
:10023100A3E0FAA3E0F990000E120DC68E82758339
:1002410000120C95FFEE2408FDE433FC900142E01E
:10025100FBA3E0FAA3E0F98D828C83EF120D0790E6
:100261000145E004F080B690013FE0FBA3E0FAA372
:10027100E0F9900003120C95B4811B900001740207
:10028100120CC2FF900142E0FBA3E0FAA3E0F99057
:100291000001EF120D07900147E02408A3F090013F
:1002A1003FE0FBA3E0FAA3E0F9900006120C95FFF2
:1002B100900142E0FBA3E0FAA3E0F9900148E0FEDF
:1002C100F582758300EF120D0790013FE0FBA3E07B
:1002D100FAA3E0F9900008120C95FFEE2401FDE469
:1002E10033FC900142E0FBA3E0FAA3E0F98D828C9C
:1002F10083EF120D0790013FE0FBA3E0FAA3E0F9C1
:10030100900009120C95FFEE2402FDE433FC9001EC
:1003110042E0FBA3E0FAA3E0F98D828C83EF120D9A
:100321000790013FE0FBA3E0FAA3E0F990000A1275
:100331000C95FFEE2403FDE433FC900142E0FBA3A6
:10034100E0FAA3E0F98D828C83EF120D0790013F53
:10035100E0FBA3E0FAA3E0F990000B120C95FFEE8D
:100361002404FDE433FC900142E0FBA3E0FAA3E0A6
:10037100F98D828C83EF120D0790013FE0FBA3E022
:10038100FAA3E0F9900001120C95FF900147E0FEFD
:10039100C3EF9E24F5900149F0605DE4900145F0C2
:1003A100900149E0FF900145E0FEC39F504A900152
:1003B1003FE0FBA3E0FAA3E0F9900011120DC68E15
:1003C10082758300120C95FF900148E02405FDE43D
:1003D10033FC900145E07A002DFDEA3CFC9001429E
:1003E100E0FBA3E0FAA3E0F98D828C83EF120D0705
:1003F100900145E004F080A87BFF7A1A7945121F2D
:10040100EFE4900145F090013FE0FBA3E0FAA3E0A7
:10041100F9900001120C952402FFE433FE9001458E
:10042100E0C39FEE6480F87480985032900142E0FE
:10043100FBA3E0FAA3E0F9A3E0FFF58275830012C4
:100441000C95FE900146E02EF07E00E92FF9EE3A80
:10045100FA7D01121FB3900145E004F080A87B01F1
:100461007A0179467D01121FB37BFF7A1A79401216
:100471001FEF900146E0FF900148E02405FDE433C1
:10048100FCA3E07A002DFDEA3CFC900142E0FBA3D5
:10049100E0FAA3E0F98D828C83EF120D0790013F02
:1004A100E0FBA3E0FAA3E0F9900003120C95B481FC
:1004B1000C90003C74FFF090003BF080789001427A
:1004C100E0FBA3E0FAA3E0F9900007120C956401A8
:1004D1006042900007120C95FD75F002A42408F506
:1004E10082E435F0F583C083C082D082D083120CC0
:1004F10095548F90003BF075F002EDA42409F5822C
:10050100E435F0F583C083C082900142A3A3D08279
:10051100D083801A90013FE0FBA3E0FAA3E0F990B9
:10052100000A120C95548F90003BF090000B120CB6
:100531009590003CF07B017A00793B90015774045F
:10054100F07D02121E2490013FE0FBA3E0FAA3E03C
:10055100F9900001120C952403FD900142E0FBA3E8
:08056100E0FAA3E0F9021E9C80
:0B136F0090013FEBF0A3EAF0A3E9F0CF
:10137A0090000E120DC6900143EBF0A3EAF0A3E928
:10138A00F090013FE0FBA3E0FAA3E0F990000C1211
:10139A000C95540F1425E0900146F090003FE0F4BC
:1013AA007064FFFE122085E4FDFFFE122023E4FF95
:1013BA00FE12205590003FEFF07F007E0612208536
:1013CA0090013FE0FBA3E0FAA3E0F990000C120CB5
:1013DA0095540FFD7F007E061220237F007E0612A1
:1013EA002055900002EFF0900000E0FF900002E02C
:1013FA00C45470FEEF4E900000F0E0FFA3E09000AE
:10140A0038CFF0A3EFF0900005E0C3940440030244
:10141A0014D47F007E08122085900005E0FD7F002D
:10142A007E08122023900005E024FE60091460065D
:10143A00240270078000E4900147F0900147E0FF22
:10144A007E00122085900147E0FF7E00900146E071
:10145A00FD122023900146E0603DE4900142F090A5
:10146A000146E0FF900142E0FEC39F502AEEFF9042
:10147A000147E02FFFE433FE900143E0FBA3E4754C
:10148A00F001120D29A9F0FA120C7CFD122023900A
:10149A000142E004F080C8900005E004F090013FAA
:1014AA00E0FBA3E0FAA3E0F99000037482120D07AF
:1014BA0090014B7401F0A37400F0A374E6F01205D6
:1014CA00697BFF7A1A7952121FEF7BFF7A1A795DCC
:0314DA00021FEFFF
:1020D5009001427401F0A37400F0A374E6F00200CD
:0120E50026D4
:0B098600900146EBF0A3EAF0A3E9F0BB
:10099100E4FEFD90014CF0900146E0FBA3E0FAA3D8
:1009A100E0F9120C7CFF900149E0FBA3E0FAA3E01F
:1009B100F9EF120CF5900146E0FBA3E0FAA3E0F990
:1009C100900001120C95FF900149E0FBA3E0FAA30E
:1009D100E0F9900001EF120D07900146E0FBA3E062
:1009E100FAA3E0F9900002120C95FF900149E0FB97
:1009F100A3E0FAA3E0F9900002EF120D079001467F
:100A0100E0FBA3E0FAA3E0F9900003120C95FF903C
:100A11000149E0FBA3E0FAA3E0F9900003EF120D16
:100A210007900146E0FBA3E0FAA3E0F9900004126D
:100A31000C95FF900149E0FBA3E0FAA3E0F99000D7
:100A410004EF120D07900146E0FBA3E0FAA3E0F9E1
:100A5100900005120C95FF900149E0FBA3E0FAA379
:100A6100E0F9900005EF120D0790000C120C95545F
:100A71000F1425E0FF900146E0FBA3E0FAA3E0F9A3
:100A8100900006120C95FC900149E0FBA3E0FAA34B
:100A9100E0F990000CEC120D07900146E0FBA3E099
:100AA100FAA3E0F9900007120C95FC900149E0FBD4
:100AB100A3E0FAA3E0F990000DEC120D07EF602519
:100AC100900146E0FBA3E0FAA3E02408F9E43AFA36
:100AD100C003C002C001A3E0FBA3E0FAA3E0F990C8
:100AE100000E120DF6EF2408FE900146E0FBA3E094
:100AF100FAA3E0F98E82758300120C95FD900149ED
:100B0100E0FBA3E0FAA3E0F9900006ED120D07EE79
:100B11002401FDE433FC900146E0FBA3E0FAA3E0ED
:100B2100F98D828C83120C95FD900149E0FBA3E0C5
:100B3100FAA3E0F9900008ED120D07EE2402FDE49E
:100B410033FC900146E0FBA3E0FAA3E0F98D828C2F
:100B510083120C95FD900149E0FBA3E0FAA3E0F9B3
:100B6100900009ED120D07EE2403FDE433FC900122
:100B710046E0FBA3E0FAA3E0F98D828C83120C9589
:100B8100FD900149E0FBA3E0FAA3E0F990000AED32
:100B9100120D07EE2404FDE433FC900146E0FBA3B3
:100BA100E0FAA3E0F98D828C83120C95FD90014946
:100BB100E0FBA3E0FAA3E0F990000BED120D079022
:100BC1000001120C95C39F24F5FD602DAF06EF24A3
:100BD10005FFE433FE900146E0FBA3E0FAA3E02F1A
:100BE100F9EA3EFAC003C002C001A3E0FBA3E0FAA8
:100BF100A3E0F9900011120DF6E490014DF090017F
:100C010049E0FBA3E0FAA3E0F9900001120C95245E
:100C110002FFE433FE90014DE0C39FEE6480F8745F
:100C210080985034900146E0FBA3E0FAA3E0F990EC
:100C3100014DE0FFF582758300120C95FE90014C89
:100C4100E02EF07E00E92FF9EE3AFA7D01121FB392
:100C510090014DE004F080A67B017A01794C7D0181
:100C6100121FB37BFF7A1A7940121FEF900149E0FE
:0A0C7100FBA3E0FAA3E0F91217EE6E
:010C7B002256
:1018B10090013CEBF0A3EAF0A3E9F090013CE0FBDE
:1018C100A3E0FAA3E0F9121F91EF700302195290FD
:1018D100013CE0FBA3E0FAA3E0F9900003120C95B0
:1018E10024FD60072402706002136F7BFF7A1A796E
:1018F10070121FEF90013CE0FBA3E0FAA3E0F99026
:1019010000017403120CC27B017A017926C003C065
:1019110002C00190013CE0FBA3E0FAA3E0F99000D2
:1019210011120DF690013CE0FBA3E0FAA3E0F9905F
:1019310000037483120D0790014B7401F0A374002E
:10194100F0A374E6F00205697BFF7A1A797E021F23
:10195100EF90013CE0FBA3E0FAA3E0F91220D522CD
:03000000021B25BB
:0C1B2500787FE4F6D8FD758107021B6C88
:100C7C00BB010689828A83E0225002E722BBFE0276
:090C8C00E32289828A83E49322A9
:100C9500BB010CE58229F582E5833AF583E0225014
:100CA50006E92582F8E622BBFE06E92582F8E2225E
:0D0CB500E58229F582E5833AF583E4932278
:100CC200BB010FF8E58229F582E5833AF583E02836
:100CD200F0225009C58229F8E58226F622BBFE09D8
:100CE200C58229F8E22582F222F8EA2583F583E912
:030CF20093282222
:100CF500BB010689828A83F0225002F722BBFE01DE
:020D0500F322D7
:100D0700F8BB010DE58229F582E5833AF583E8F022
:100D1700225006E92582C8F622BBFE05E92582C8CE
:020D2700F222B6
:100D2900A3F8E0C5F025F0F0E5821582700215837D
:060D3900E0C838F0E822DA
:100D3F00BB0110E58229F582E5833AF583E0F5F0F2
:100D4F00A3E0225009E92582F886F008E622BBFECF
:100D5F000AE92582F8E2F5F008E222E5832AF58315
:080D6F00E993F5F0A3E99322DA
:100D7700E88FF0A4CC8BF0A42CFCE98EF0A42CFC1B
:100D87008AF0EDA42CFCEA8EF0A4CDA8F08BF0A499
:100D97002DCC3825F0FDE98FF0A42CCD35F0FCEBF8
:100DA7008EF0A4FEA9F0EB8FF0A4CFC5F02ECD39BD
:0F0DB700FEE43CFCEAA42DCE35F0FDE43CFC222A
:101DA100C2D5E830E70FB2D5E4C39BFBE49AFAE46D
:101DB10099F9E498F8EC30E717B2D5121DD7120E55
:101DC1008BE4C39BFBE49AFAE499F9E498F8800365
:101DD100120E8B30D50DE4C39FFFE49EFEE49DFD02
:041DE100E49CFC2260
:100DC600BB010DE58229F582E5833AF583020F2FF3
:100DD6005007E92582F8020F1DBBFE07E92582F8B8
:100DE600020F41E58229F582E5833AF583020F5326
:100DF600BB0120E58229F582E5833AF583D0F0D060
:100E0600E0F8D0E0F9D0E0FAD0E0FBE8C0E0C0F0CE
:100E1600020F385018E92582F8D083D082D0E0F945
:100E2600D0E0FAD0E0FBC082C083020F26BBFE18DA
:100E3600E92582F8D083D082D0E0F9D0E0FAD0E07C
:090E4600FBC082C083020F4A22A6
:101B3100020F5FE493A3F8E493A34003F68001F25C
:101B410008DFF48029E493A3F85407240CC8C333B5
:101B5100C4540F4420C8834004F456800146F6DF84
:101B6100E4800B0102040810204080901961E47E9A
:101B7100019360BCA3FF543F30E509541FFEE49379
:101B8100A360010ECF54C025E060A840B8E493A340
:101B9100FAE493A3F8E493A3C8C582C8CAC583CA6B
:101BA100F0A3C8C582C8CAC583CADFE9DEE780BE23
:011A010000E4
:100E4F0075F008758200EF2FFFEE33FECD33CDCC5A
:100E5F0033CCC58233C5829BED9AEC99E5829840DD
:100E6F000CF582EE9BFEED9AFDEC99FC0FD5F0D6BA
:100E7F00E4CEFBE4CDFAE4CCF9A88222B800C1B9E4
:100E8F000059BA002DEC8BF084CFCECDFCE5F0CB22
:100E9F00F97818EF2FFFEE33FEED33FDEC33FCEB5B
:100EAF0033FB10D703994004EB99FB0FD8E5E4F916
:100EBF00FA227818EF2FFFEE33FEED33FDEC33FC03
:100ECF00C933C910D7059BE99A4007EC9BFCE99AF7
:100EDF00F90FD8E0E4C9FAE4CCFB2275F010EF2F3C
:100EEF00FFEE33FEED33FDCC33CCC833C810D7073C
:100EFF009BEC9AE899400AED9BFDEC9AFCE899F877
:0E0F0F000FD5F0DAE4CDFBE4CCFAE4C8F92209
:090F1D00E6FB08E6FA08E6F922F9
:090F2600EBF608EAF608E9F622F0
:090F2F00E0FBA3E0FAA3E0F922C3
:090F3800EBF0A3EAF0A3E9F022BA
:090F4100E2FB08E2FA08E2F922E1
:090F4A00EBF208EAF208E9F222D8
:0C0F5300E493FB740193FA740293F922FA
:00000001FF
