:05001D00D28AD2AA22E4
:07001600C284C281D28422E2
:100CB400120016120C04120C04120C02120C041270
:080CC4000C02120C04B2A32281
:100BCF00E4FEC281FDEF30E704D2808002C280EFE5
:100BDF0025E0FFD281000000000000EE25E0FE308E
:100BEF0082010EC2810000000000000DEDB408D597
:020BFF00AF063F
:010C010022D0
:100CE400759850438920758DFD758BFDD28EC2ABEE
:050CF400D2ACD2AF22DA
:100C6700C2AC1200266010F5993099FDC299740143
:0A0C770029F9E43AFA80EBD2AC222E
:100C2B00C2ACAF051DEF6013120026F5993099FD8C
:0E0C3B00C299740129F9E43AFA80E7D2AC229A
:060C0200B2A37F507EC387
:100C0800E4FDFCC3ED9FEC9E50070DBD00010C8078
:100C1800F2E4FCFDC3ED9FEC9E50070DBD00010CF6
:020C280080F258
:010C2A0022A7
:03002300020AD8F6
:100AD800C0E0C083C082C0D03098339000B5E02415
:100AE80074F582E43400F583E599F0900074E064CD
:100AF800AA60079000B5E4F080129000B5E004F019
:100B0800E0D3940A400690000C7455F0C298D0D0F7
:070B1800D082D083D0E0324F
:100B970073697A652069732000456E7465722077E2
:100BA7006F720A00435243206572726F720A002007
:100BB70020776879204E6F74206D650A004C656E4A
:080BC700677468213D320A0049
:100C9B00000000000000000000000000000000EF5A
:090CAB001F70011E144E70E822B6
:10000300C2842082FD7F30120BCF2082FDD2842256
:100C4900D2847F0A7E00120C9BC2847F0A7E001226
:0E0C59000C9BD2847F9A7E01120C9B0200033A
:100CCC009000B8EDF0C2842082FD120BCF9000B8DA
:080CDC00E0FF120BCFD28422CD
:0B0A8E009000B9EBF0A3EAF0A3E9F040
:100A9900EF4440FFC2842082FD120BCFE49000BDD9
:100AA900F09000BCE0FFA3E0FEC39F501F9000B987
:100AB900E0FBA3E0FAA3E0F98E8275830012003F00
:0E0AC900FF120BCF9000BDE004F080D5D28468
:010AD70022FC
:070D340025E025E0F07F340B
:0B0D3B00C2842082FD120BCFD2842264
:100CF900EF4480FFC2842082FD120BCFE4FF120B68
:030D0900CFD284C2
:010D0C0022C4
:0A098F007B0174029000C6F07F3F68
:0B0999009000C3EBF0A3EAF0A3E9F02C
:1009A400EF44C0FFC2842082FD120BCFE49000C745
:1009B400F09000C6E0FFA3E0C39F5025E4FF120BB4
:1009C400CF9000C3E0FBA3E0FAA3E0F99000C7E0F6
:1009D400F582758300EF12007E9000C7E004F0807A
:0309E400D0D284EA
:0109E70022ED
:100D0D00EF44C0FFC2842082FD120BCFE4FF120B13
:030D1D00CFD284AE
:010D200022B0
:1004E30090002AE0FDE4FF120CCC90002BE0FD7F8E
:1004F30002120CCC90000DE0FD7F0C120CCC90008E
:100503000EE0FD7F0B120CCC90000FE0FD7F0C1270
:100513000CCC900010E0FD7F0D120CCC900011E08C
:10052300FD7F0E120CCC900012E0FD7F0F120CCC5D
:10053300900013E0FD7F10120CCC900014E0FD7FBF
:1005430011120CCC900015E0FD7F12120CCC900020
:1005530016E0FD7F13120CCC900017E0FD7F141200
:100563000CCC900018E0FD7F0A120CCC900019E02F
:10057300FD7F15120CCC90001AE0FD7F21120CCCEC
:1005830090001BE0FD7F22120CCC90001CE0FD7F4D
:1005930018120CCC90001DE0FD7F19120CCC9000BA
:1005A3001EE0FD7F1A120CCC90001FE0FD7F1B1292
:1005B3000CCC900020E0FD7F1C120CCC900021E0BD
:1005C300FD7F1D120CCC900022E0FD7F23120CCC8A
:1005D300900023E0FD7F24120CCC900024E0FD7FEB
:1005E30025120CCC900025E0FD7F26120CCC900048
:1005F30026E0FD7F29120CCC900027E0FD7F2C1212
:100603000CCC900028E0FD7F2D120CCC900029E04B
:10061300FD7F2E120CCC90002CE0FD7F07120CCC3A
:1006230090002DE0FD7F08120CCC90002EE0FD7FA2
:0E06330009120CCC90002FE0FD7F06020CCCCB
:100B1F009000E5EBF0A3EAF0A3E9F0A3EDF0C2AA91
:100B2F007F3F120CCC9000E5E0FBA3E0FAA3E0F9C5
:100B3F00A3E09000BCF07F3F120A8E7F35120D3B71
:0E0B4F0030B3FD20B3FD7F3B120D3BD2AA2236
:0B0641009000D4EBF0A3EAF0A3E9F076
:10064C00A3E0FBA3E0FAA3E0F91200269000DD1270
:10065C000D347F147E00120C0830B3167F147E000C
:10066C00120C089000DDE014F0E0C3940150EA7F16
:10067C0000227F3B120D0DEF547F70030207127F97
:10068C003F120CF99000DCEFF09000D7E0FBA3E0F8
:10069C00FAA3E0F9120026FEEFD39E504D9000D441
:1006AC00E0FBA3E0FAA3E0F99000DCE012099390E0
:1006BC0000DCE0FF9000D7E0FBA3E0FAA3E0F9EF49
:1006CC0012006C9000D4E0FBA3E0FAA3E0F99000D8
:1006DC00DCE0FD120C2B7A0079DA12098F7F3A12CA
:1006EC000D3B9000DBE05480FF229000DCE0FF909B
:1006FC0000D7E0FBA3E0FAA3E0F9EF12006C7F3A1D
:08070C00120D3B7F00227F006B
:0107140022C2
:0B0715009000B8EBF0A3EAF0A3E9F0BD
:10072000A3E0FBA3E0FAA3E0F91200269000C112B7
:100730000D3420B3FD30B3FD7F3B120D0DEF547F20
:1007400070030207D37F3F120CF99000C0EFF07BDB
:10075000FF7A0B7997120C677B017A0079C07D01D3
:10076000120C2B9000BBE0FBA3E0FAA3E0F912000F
:1007700026FF9000C0E0FED39F503F9000B8E0FB02
:10078000A3E0FAA3E0F9EE1209939000C0E0FF9015
:1007900000BBE0FBA3E0FAA3E0F9EF12006C9000CD
:1007A000B8E0FBA3E0FAA3E0F99000C0E0FD120C72
:1007B0002B7A0079BE12098F80149000C0E0FF9060
:1007C00000BBE0FBA3E0FAA3E0F9EF12006C7F3A74
:0307D000120D3BCC
:0107D3002203
:1007D4007F34120D3B7F3B120D0DEF547F700302EB
:1007E40008797F3F120CF99000BCEFF06402707C32
:1007F4007B017A0079B8E01209939000B8E0FFB465
:10080400FF05A3E0F4601B900000E0FCA3E06F7020
:1008140001EC7045ECFF9000B9E0FDEF6D7001E470
:1008240070377BFF7A0B79A0120C677B017A007911
:10083400BA1209917F3A120D3B9000BBE030E711E8
:100844009000337455F07F3A120D3B9000BCE0FFEA
:10085400227BFF7A0B79AB80197B017A0079B87D12
:1008640002120C2B7BFF7A0B79B680067BFF7A0B86
:1008740079C4120C677F3A120D3B7F3C120D3B7F0B
:0808840038120D3BD2AA7F00DF
:01088C002249
:100B5D007F36120D3BE4FD7F16120CCC7D187F18ED
:100B6D00120CCC7D287F1E120CCC7DA07F1F120C89
:100B7D00CC7D787F20120CCC7F3A120D3B7F3C123E
:0A0B8D000D3B7F38120D3B7F012263
:03001300020C815B
:100C8100C0E0C083C082C2AA5387FDB2A090000B0E
:0A0C91007455F0D082D083D0E03219
:06029B009000C812025E93
:1002A1009000CC12026A000000009000D0E4F0A39C
:1002B10004F0A3E4F0A304F07F137E3B7DB17C0343
:1002C1009000C8E0F8A3E0F9A3E0FAA3E0FBD312A1
:1002D100023A40067F01C00780047F00C007E47F27
:1002E1000FFEFDFC9000C8E0F8A3E0F9A3E0FAA33B
:1002F100E0FBC312023A50047E0180027E00D0E08E
:100301004E60037F0022E47F627E07FDFC9000C8FF
:10031100E0F8A3E0F9A3E0FAA3E0FBC312023A502C
:1003210009E49000D0F0A3F08071E47F4E7EECFDF3
:10033100FC9000C8E0F8A3E0F9A3E0FAA3E0FBC356
:1003410012023A500A9000D0E4F0A304F0804C7FEE
:10035100D87E897D1D7C009000C8E0F8A3E0F9A358
:10036100E0FAA3E0FBC312023A500B9000D0E4F094
:10037100A37402F080257F137E3B7DB17C03900046
:10038100C8E0F8A3E0F9A3E0FAA3E0FBC312023A44
:1003910050099000D0E4F0A37403F09000D0A3E0E2
:1003A10075F005A4FFA3E0FEA3E0A807088005C33C
:1003B10033CE33CED8F9F0EE9000D2F09000CC12CB
:1003C100026A000065909000C8E0FCA3E0FDA3E094
:1003D100FEA3E0FFA3E0F8A3E0F9A3E0FAA3E0FBAA
:1003E100D312023A405E9000CCE0FCA3E0FDA3E012
:1003F100FEA3E0FF9000C8E0F8A3E0F9A3E0FAA3B0
:10040100E0FB12011D9000CC12025E9000CCE0FCDA
:10041100A3E0FDA3E0FEA3E0FFC004C005C006C049
:10042100079000D2E0FEA3E0FF7C027DEE1200A067
:10043100AB07AA06E4F9F8D007D006D005D004121C
:1004410001A880389000D2E0FEA3E0FF7C027DEE9F
:100451001200A0AB07AA06E4F9F89000C8E0FCA3DB
:10046100E0FDA3E0FEA3E0FF1201A89000CCE0F8BC
:10047100A3E0F9A3E0FAA3E0FB12011D9000CC1266
:10048100025E7F36120D3B7D107F16120CCC7D185B
:100491007F18120CCC9000CCE0FCA3E0FDA3E0FEA1
:1004A100A3E0FF780812024BAD077F1E120CCC901F
:1004B10000CCA3A3A3E0FD7F1F120CCC9000D0A31E
:1004C100E04478FD7F20120CCC7D067F02120CCC1B
:1004D1007F3A120D3B7F3C120D3B7F38120D3B7F63
:0104E1000119
:0104E20022F7
:0E0A41009000DEEBF0A3EAF0A3E9F0A3EDF0E5
:100A4F00A3E075F068A4FFAEF07C007D051200B244
:100A5F00A3EEF0A3EFF09000E374FFF5F01201079F
:100A6F0045F0601A9000DEE0FBA3E0FAA3E0F9A3E3
:0E0A7F00E0FD120B1F7FE87E03120C0880D8EA
:010A8D002246
:100D2100696E697469616C697A6174696F6E206F4B
:030D31006B0A004A
:1009E8004200000000410032004100B4004100B55F
:1009F800004100020041000B0041000C004100339F
:100A080000420030FFFF480003C0C0C0C0C0C0C0E3
:100A1800C06023000D00080010A7625BF80322F8ED
:100A28000047B610181D1CC700B2EA2A00115981E8
:080A380035090B06040500FF5F
:10091900E49000B6F0A3F09000B47437F0120CB470
:10092900120C491204E37B017A0079039000BC742C
:1009390008F07F3E120A8E120B5D120CE47BFF7ADF
:100949000D7921120C6712001DD2AA43870290006B
:100959000BE0B45525E4F01207D4900033E0B45508
:10096900ED9000BB7401F0A37400F0A374B4F07BA4
:10097900017A00793412071580E07F3C120D3B7F24
:0609890038120D3B80C393
:0300000002088D66
:0C088D00787FE4F6D8FD7581070208D4DE
:10002600BB010689828A83E0225002E722BBFE02D8
:09003600E32289828A83E493220B
:10003F00BB010CE58229F582E5833AF583E0225076
:10004F0006E92582F8E622BBFE06E92582F8E222C0
:0D005F00E58229F582E5833AF583E49322DA
:10006C00BB010689828A83F0225002F722BBFE0173
:02007C00F3226D
:10007E00F8BB010DE58229F582E5833AF583E8F0B8
:10008E00225006E92582C8F622BBFE05E92582C864
:02009E00F2224C
:1000A000EF8DF0A4A8F0CF8CF0A428CE8DF0A42E74
:0200B000FE222E
:1000B200BC000BBE0029EF8DF084FFADF022E4CC32
:1000C200F875F008EF2FFFEE33FEEC33FCEE9DECFB
:1000D200984005FCEE9DFE0FD5F0E9E4CEFD22ED41
:1000E200F8F5F0EE8420D21CFEADF075F008EF2F8B
:1000F200FFED33FD4007985006D5F0F222C398FD7C
:050102000FD5F0EA2218
:10010700A3F8E0C5F025F0F0E582158270021583AB
:06011700E0C838F0E82208
:10011D00E88FF0A4CC8BF0A42CFCE98EF0A42CFC81
:10012D008AF0EDA42CFCEA8EF0A4CDA8F08BF0A4FF
:10013D002DCC3825F0FDE98FF0A42CCD35F0FCEB5E
:10014D008EF0A4FEA9F0EB8FF0A4CFC5F02ECD3923
:0F015D00FEE43CFCEAA42DCE35F0FDE43CFC2290
:10016C0075F008758200EF2FFFEE33FECD33CDCC4A
:10017C0033CCC58233C5829BED9AEC99E5829840CD
:10018C000CF582EE9BFEED9AFDEC99FC0FD5F0D6AA
:10019C00E4CEFBE4CDFAE4CCF9A88222B800C1B9D4
:1001AC000059BA002DEC8BF084CFCECDFCE5F0CB12
:1001BC00F97818EF2FFFEE33FEED33FDEC33FCEB4B
:1001CC0033FB10D703994004EB99FB0FD8E5E4F906
:1001DC00FA227818EF2FFFEE33FEED33FDEC33FCF3
:1001EC00C933C910D7059BE99A4007EC9BFCE99AE7
:1001FC00F90FD8E0E4C9FAE4CCFB2275F010EF2F2C
:10020C00FFEE33FEED33FDCC33CCC833C810D7072B
:10021C009BEC9AE899400AED9BFDEC9AFCE899F866
:0E022C000FD5F0DAE4CDFBE4CCFAE4C8F922F9
:10023A00EB9FF5F0EA9E42F0E99D42F0E89C45F01A
:01024A002291
:10024B00E8600FECC313FCED13FDEE13FEEF13FF91
:03025B00D8F122B5
:0C025E00ECF0A3EDF0A3EEF0A3EFF02213
:10026A00A8828583F0D083D0821202811202811281
:10027A000281120281E473E493A3C583C5F0C583A6
:10028A00C8C582C8F0A3C583C5F0C583C8C582C8DE
:01029A002241
:10089900020919E493A3F8E493A34003F68001F253
:1008A90008DFF48029E493A3F85407240CC8C33360
:1008B900C4540F4420C8834004F456800146F6DF2F
:1008C900E4800B01020408102040809009E8E47ECE
:1008D900019360BCA3FF543F30E509541FFEE49324
:1008E900A360010ECF54C025E060A840B8E493A3EB
:1008F900FAE493A3F8E493A3C8C582C8CAC583CA16
:10090900F0A3C8C582C8CAC583CADFE9DEE780BECD
:010A400000B5
:00000001FF
