:0D001600E4F5C7F5C5F5C675C380F5C42235
:101FEE0075C78275C5018FC4EEF5C375C65A75C621
:071FFE00A500AFC21200169E
:0120050022B8
:101FBC0075C78275C5028FC4EEF5C3AF058FC275A8
:091FCC00C65A75C6A500020016F4
:10201E0075C78275C5038FC4EEF5C375C65A75C6EE
:05202E00A500020016F0
:0F1CF60090013CEBF0A3EAF0A3E9F0AD07AC06D8
:101D0500E4A3F090013FE0FFC394025027EF2DFFBD
:101D1500E43CFE121FEE90013CE0FBA3E0FAA3E0D9
:101D2500F9A3E0F582758300EF120D1090013FE0F5
:041D350004F080CF67
:011D39002287
:0F1C1B00900170EBF0A3EAF0A3E9F0AD07AC067F
:101C2A00E4900174F0900173E0FFA3E0FEC39F50BB
:101C3A0029EE2DFFE43CFE121FEE900170E0FBA39B
:101C4A00E0FAA3E0F9900174E0F582758300EF12DF
:0A1C5A000D10900174E004F080CB3F
:011C6400225D
:03000E00D28A2271
:07000300C284C281D28422F5
:10205B00759850438920758DFD758BFDD28EC2AB63
:03206B00D2AC22D2
:101F8800C2AC120C856010F5993099FDC2997401A4
:0A1F980029F9E43AFA80EBD2AC22FA
:101D7E007B017A0079007F007E04121CF67B017ACB
:101D8E0000793D7F007E02121CF67F017E00121E3E
:101D9E00D212000E12205B120003121F03121F0339
:0F1DAE00121F01121F03121F01121F03B2A322E3
:101E6E00E4FEC281FDEF30E704D2808002C280EF33
:101E7E0025E0FFD281000000000000EE25E0FE30DC
:101E8E0082010EC2810000000000000DEDB408D5E5
:021E9E00AF068D
:011EA000221F
:101ED200E4FDFCFB7AC079A8F8120D80E47B0CFAD1
:101EE200F9F8121D3AE47BE87A03F9F8121D3AC3B5
:0E1EF200E49FFDE49E4389018D8AF58CD2A900
:011F000022BE
:101F4C00C2ACAF051DEF6013120C85F5993099FDED
:0E1F5C00C299740129F9E43AFA80E7D2AC2266
:061F0100B2A37F507EC375
:101F0700E4FDFCC3ED9FEC9E50070DBD00010C8066
:101F1700F2E4FCFDC3ED9FEC9E50070DBD00010CE4
:021F270080F246
:011F29002295
:03002300021CAF0D
:101CAF00C0E0C083C082C0D03098339000E5E024FC
:101CBF0064F582E43400F583E599F0900064E06404
:101CCF00AA60079000E5E4F080129000E5E004F0D0
:101CDF00E0D3940A40069000127455F0C298D0D009
:071CEF00D082D083D0E03267
:03000B00021B4A8B
:101B4A00C0E0C0F0C083C082C0D075D000C000C061
:101B5A0001C002C003C004C005C006C00790003F10
:101B6A00E0B455047F0A80027F017E00121ED290E3
:101B7A000011E004F07006900010E004F0C3900039
:101B8A0011E094E8900010E09403400D900037E4CF
:101B9A00F0900010F0A3F0C28CD007D006D005D088
:101BAA0004D003D002D001D000D0D0D082D083D0CC
:041BBA00F0D0E03255
:1018910020204973204D652064617461202000453A
:1018A10072726F7220636865636B0A004572726FB2
:1018B100722070726F746F636F6C00646174612069
:1018C100435243206572726F720A003320435243C0
:1018D100206572726F720A002020776879204E6F3E
:1018E10074206D650A0077616B6575702043524302
:1018F100206572726F720A002077616B65757020C6
:101901004E6F74206D650A004C656E677468213DE9
:0F191100320A004E6F74207061636B65740A00B8
:101FD500000000000000000000000000000000EF0D
:091FE5001F70011E144E70E82269
:10207F00C2842082FD7F30121E6E2082FDD2842208
:101F6A00D2847F0A7E00121FD5C2847F0A7E0012A5
:0E1F7A001FD5D2847F9A7E01121FD502207FD0
:1020060090015EEDF0C2842082FD121E6E90015E8C
:08201600E0FF121E6ED28422CD
:0B1C650090015FEBF0A3EAF0A3E9F0B0
:101C7000EF4440FFC2842082FD121E6EE490016397
:101C8000F0900162E0FFA3E0FEC39F501F90015F50
:101C9000E0FBA3E0FAA3E0F98E82758300120C9EAC
:0E1CA000FF121E6E900163E004F080D5D28426
:011CAE002213
:0B208F00C2842082FD121E6ED284224B
:10203300EF4480FFC2842082FD121E6EE4FF121E55
:032043006ED284D6
:012046002277
:0E1BBE007A01793F7B01740290014AF07F3F6B
:0B1BCC00900147EBF0A3EAF0A3E9F062
:101BD700EF44C0FFC2842082FD121E6EE490014BC9
:101BE700F090014AE0FFA3E0C39F5025E4FF121ED7
:101BF7006E900147E0FBA3E0FAA3E0F990014BE008
:101C0700F582758300EF120D1090014BE004F08010
:031C1700D0D284A4
:011C1A0022A7
:10204700EF44C0FFC2842082FD121E6EE4FF121E01
:032057006ED284C2
:01205A002263
:1014E500900030E0FDE4FF122006900031E0FD7F22
:1014F50002122006900013E0FD7F0C1220069000DA
:1015050014E0FD7F0B122006900015E0FD7F0C1204
:101515002006900016E0FD7F0D122006900017E0D2
:10152500FD7F0E122006900018E0FD7F0F122006A9
:10153500900019E0FD7F1012200690001AE0FD7F53
:101545001112200690001BE0FD7F1212200690006C
:101555001CE0FD7F1312200690001DE0FD7F141294
:10156500200690001EE0FD7F0A12200690001FE075
:10157500FD7F15122006900020E0FD7F2112200638
:10158500900021E0FD7F22122006900022E0FD7FE1
:1015950018122006900023E0FD7F19122006900006
:1015A50024E0FD7F1A122006900025E0FD7F1B1226
:1015B5002006900026E0FD7F1C122006900027E003
:1015C500FD7F1D122006900028E0FD7F23122006D6
:1015D500900029E0FD7F2412200690002AE0FD7F7F
:1015E5002512200690002BE0FD7F26122006900094
:1015F5002CE0FD7F2912200690002DE0FD7F2C12A6
:10160500200690002EE0FD7F2D12200690002FE091
:10161500FD7F2E122006900032E0FD7F0712200686
:10162500900033E0FD7F08122006900034E0FD7F36
:0E16350009122006900035E0FD7F0602200617
:101E350090015AEBF0A3EAF0A3E9F0A3EDF07F3FA0
:101E450012200690015AE0FBA3E0FAA3E0F9A3E013
:101E5500900162F07F3F121C657F3512208F30B3F1
:091E6500FD20B3FD7F3B02208F3C
:0B164300900164EBF0A3EAF0A3E9F0D3
:10164E00A3E0FBA3E0FAA3E0F9120C8525E025E068
:10165E0090016DF07F3412208F7F147E00121F07D1
:10166E0030B3167F147E00121F0790016DE014F048
:10167E00E0C3940150EA7F00227F3B122047EF54D3
:10168E007F700302171B7F3F12203390016CEFF027
:10169E00900167E0FBA3E0FAA3E0F9120C85FEEFE0
:1016AE00D39E504D900164E0FBA3E0FAA3E0F990C5
:1016BE00016CE0121BC690016CE0FF900167E0FB2D
:1016CE00A3E0FAA3E0F9EF120CFE900164E0FBA395
:1016DE00E0FAA3E0F990016CE0FD121F4C7A01795B
:1016EE006A121BC27F3A12208F90016BE05480FF6A
:1016FE002290016CE0FF900167E0FBA3E0FAA3E00B
:0F170E00F9EF120CFE7F3A12208F7F00227F002E
:01171D0022A9
:0B11B50090013CEBF0A3EAF0A3E9F08E
:1011C000E4900143F0A3F0A3F07F3412208F7F3B23
:1011D000122047EF547F70030213707F3F122033B9
:1011E000900143EFF07F647E00121F07900143E0FF
:1011F000FFD3940250030212EA90013CE0FBA3E00B
:10120000FAA3E0F9EF121BC6121BBE7F3A12208F21
:10121000900140E020E7030212DE90013CE0FBA3D6
:10122000E0FAA3E0F9900001120C9E64AA70030298
:1012300012D3E4900145F0900143E0FF14FE9001C9
:1012400045E0FDC39E502090013CE0FBA3E0FAA3E3
:10125000E0F98D82758300120C9EFE900144E02E11
:10126000F0A3E004F080D0EF24FFFFE434FFFE9011
:10127000013CE0FBA3E0FAA3E0F98F828E83120C1D
:101280009EFF900144E06F702FC00390014904F06D
:10129000A37400F0A3744FF0D003120979EF60102B
:1012A000E4900037F09000637455F0B2A202134648
:1012B0007BFF7A187991802C90013CE0FBA3E0FA47
:1012C000A3E0F9900143E0FD121F4C7BFF7A1879EF
:1012D000A080117BFF7A1879AD121F88800C7BFFEC
:1012E0007A1879BC121F887F0022900143E0FF64C6
:1012F0000270757B017A01794190014AEFF07F3FDE
:10130000121BCC900141E0FFB4FF05A3E0F4601391
:10131000900000E0548F6F703BA3E0FF900142E02B
:101320006F7031121BBE7F3A12208F900140E03067
:10133000E71A7F3A12208FE4900010F0A3F07F01AB
:10134000FE121ED2D28C900143E0FF227BFF7A185E
:1013500079CC80117B017A0179417D02121F4C7B8F
:10136000FF7A1879D9121F887F3A12208F7F0022C6
:021370007F00FC
:011372002258
:10171E007F3412208F7F3B122047EF547F700302DD
:10172E0017D97F3F122033900140EFF0E0FF6402A3
:10173E0060030217C37B017A01793C90014AEFF0F6
:10174E007F3F121BCC90013CE0FFB4FF05A3E0F4F9
:10175E006013900000E0548F6F7047A3E0FF90017C
:10176E003DE06F703D7B017A01793E121BC47F3ADA
:10177E0012208F90013FE030E7207F3A12208F90A9
:10178E0000377455F0E4900010F0A3F07F01FE12C4
:10179E001ED2D28C900140E0FF227BFF7A1879E7AF
:1017AE00802F7B017A01793C7D02121F4C7BFF7AE0
:1017BE001879F9801C7BFF7A197909121F887B0131
:1017CE007A0179407D01121F4C80097BFF7A1979CD
:1017DE0014121F887F3A12208F7F3C12208F7F3881
:0717EE0012208FD2AA7F0038
:0117F50022D1
:101DFB007F3612208FE4FD7F161220067D187F1888
:101E0B001220067D287F1E1220067DA07F1F122028
:101E1B00067D787F201220067F3A12208F7F3C129E
:0A1E2B00208F7F3812208F7F0122E4
:03001300021FA227
:101FA200C0E0C083C082C2AA5387FDB2A090000ED7
:0A1FB2007455F0D082D083D0E032E5
:0E1DBD00900153EBF0A3EAF0A3E9F0A3EDF0E0
:101DCB00A3E075F030A4FFA3E5F0F0A3EFF09001D2
:101DDB005874FFF5F0120D3245F06013900153E08B
:0F1DEB00FBA3E0FAA3E0F9A3E0FD121E3580DFB1
:011DFA0022C6
:101EA1002020200047415445574159204F4B0A00FB
:101EB1004D4F44454C5F534E204F4B0A0020696EF5
:101EC100697469616C697A6174696F6E206F6B20E6
:011ED1000010
:101A3A00410040004100A4004100E50041000400CB
:101A4A00420010000041000E0041001200410063F4
:101A5A000041000F004100370041003F0341003AB6
:101A6A0000410003014100360042003BFFFF4100F4
:101A7A000201410005014E0041AA0B0181100151EA
:101A8A0001010001100100480006C0C0C0C0C0C06A
:101A9A00C0C06023001300080010A7625BF803228D
:101AAA00F80347B610181D1CC700B2EA2A001159DC
:091ABA008135090B06040500FF4B
:100F6800E490013AF0A37403F0121D7E121F6A1276
:100F780014E57B017A0079069001627408F07F3EDF
:100F8800121C65121DFBD2AF7B017A0079007D012E
:100F9800121F4C7B017A0079017D01121F4C7B01E5
:100FA8007A00793D7D01121F4C7B017A00793E7DE4
:100FB80001121F4C7BFF7A1E79A1121F8890003DF9
:100FC800E0F47003A3E0F4600C900000E0F4700318
:100FD800A3E0F47073B2A37F507EC3121F07900082
:100FE80012E0B455D8E4F0900065E0FD7F007E0281
:100FF800121FBC900066E0FD7F017E02121FBC90AC
:101008000067E0FD7F007E04121FBC900068E0FDD1
:101018007F017E04121FBC7BFF7A1E79A5121F88F0
:101028007BFF7A1E79B1121F88C2A37B017A0079EF
:10103800007F007E04121CF67B017A00793D7F0058
:101048007E02121CF6020FC5900000E0FF9000021D
:10105800E0C45470FEEF4E900000F0E0FFA3E09073
:101068000038CFF0A3EFF07B017A0079007D011200
:101078001F4C7B017A0079017D01121F4C7B017A9C
:1010880000793D7D01121F4C7B017A00793E7D017C
:10109800121F4C7BFF7A1E79BE121F88B2A1E4FF93
:1010A800FE121FEE90003AEFF0F460030211669012
:1010B800013BE0FF14F0EF7003021166900003E0BB
:1010C800900043F090003DE0900045F090003EE035
:1010D800900046F0900000E090004AF0900001E097
:1010E80090004BF090003DE090004CF090003EE006
:1010F80090004DF0E490013AF090013AE0FFC3947B
:101108000D501A74412FF582E43400F583E0FF9006
:10111800004EE02FF090013AE004F080DC7B017A89
:1011280000793B9001577402F0FD121DBD7B017AD6
:101138000079417D0E121E35900003E004F0E49022
:101148000010F0A3F07F0AFE121ED2D28C90003F4E
:101158007455F0900037F0E490004EF08010E49061
:10116800003FF090000EE06455703112171E900099
:1011780037E0600B7B017A0079A51211B580EF90FA
:101188000063E0B4550BE4F07B017A00794F121943
:101198002090003FE0645570030210B77F3C122096
:0D11A8008F7F3812208FD2AA43870280B6B5
:101AC4006973206D652073656E740D0A0067657413
:101AD40020646174610D0A00726964206571756126
:101AE4006C0D0A002059494E472044412020200013
:101AF4002020202000205A4855414E2046412020D5
:101B04002000205772697465206F6B2000202052DA
:101B14006F75746573697A652066756C6C20200036
:101B240020205265616420646174612020004E6F3E
:101B34007420526F75746520696E666F726D61747E
:061B4400696F6E0D0A003E
:1017F60090013FEBF0A3EAF0A3E9F090013FE0FB94
:10180600A3E0FAA3E0F9900008120D48FF9000004B
:10181600E0B5F00DA3E0B507087BFF7A1A79C4801E
:101826006490013FE0FBA3E0FAA3E0F99000021206
:101836000C9EFF900036E0B50714900008120D4884
:10184600FF900038E065F07003A3E06F60317BFF26
:101856007A1A79D1121F8890013FE0FBA3E0FAA320
:10186600E0F9900002120C9E900036F090000812EB
:101876000D48FF900038E5F0F0A3EFF07F01227BE2
:0B188600FF7A1A79DC121F887F002215
:101F2A0090000A120D48FFE5F0548FFE900000E081
:101F3A00548FFCA3E0B50707ECB506037F01227FA7
:021F4A00002273
:0B056800900148EBF0A3EAF0A3E9F0DB
:10057300E490014FF0A3F0A3F0A3F0120C85FF90D9
:10058300014BE0FBA3E0FAA3E0F9EF120CFE9001AC
:1005930048E0FBA3E0FAA3E0F9900001120C9EFFF0
:1005A30090014BE0FBA3E0FAA3E0F9900001EF1206
:1005B3000D10900148E0FBA3E0FAA3E0F9900002DC
:1005C300120C9EFF90014BE0FBA3E0FAA3E0F9902D
:1005D3000002EF120D10900148E0FBA3E0FAA3E044
:1005E300F9900003120C9EFF90014BE0FBA3E0FA8D
:1005F300A3E0F9900003EF120D10900148E0FBA374
:10060300E0FAA3E0F9900004120C9EFF90014BE086
:10061300FBA3E0FAA3E0F9900004EF120D109001A0
:1006230048E0FBA3E0FAA3E0F9900005120C9EFF5B
:1006330090014BE0FBA3E0FAA3E0F9900005EF1271
:100643000D10900148E0FBA3E0FAA3E0F990000C41
:10065300120C9E540FFF1425E0FE900150F0EF445E
:1006630050FF90014BE0FBA3E0FAA3E0F9900006F2
:10067300EF120D10900148E0FBA3E0FAA3E0F9901C
:10068300000D120C9EFF90014BE0FBA3E0FAA3E0E8
:10069300F9900007EF120D10EE604FE490014EF059
:1006A300900150E0FF90014EE0FEC39F503C90014B
:1006B30048E0FBA3E0FAA3E0F990000E120DCF8E01
:1006C30082758300120C9EFFEE2408FDE433FC9038
:1006D300014BE0FBA3E0FAA3E0F98D828C83EF12D8
:1006E3000D1090014EE004F080B6900150E0240814
:1006F300A3F0900148E0FBA3E0FAA3E0F990000621
:10070300120C9EFF90014BE0FBA3E0FAA3E0F990EB
:100713000151E0FEF582758300EF120D1090014840
:10072300E0FBA3E0FAA3E0F990000A120C9EFFEEAF
:100733002401FDE433FC90014BE0FBA3E0FAA3E0CA
:10074300F98D828C83EF120D10900148E0FBA3E03A
:10075300FAA3E0F990000B120C9EFFEE2402FDE4D5
:1007630033FC90014BE0FBA3E0FAA3E0F98D828C0C
:1007730083EF120D10900148E0FBA3E0FAA3E0F928
:10078300900008120C9EFFEE2403FDE433FC90015D
:100793004BE0FBA3E0FAA3E0F98D828C83EF120D0B
:1007A30010900148E0FBA3E0FAA3E0F990000912DE
:1007B3000C9EFFEE2404FDE433FC90014BE0FBA30D
:1007C300E0FAA3E0F98D828C83EF120D10900148BB
:1007D300E0FBA3E0FAA3E0F9900001120C9EFF9066
:1007E3000150E0FEC3EF9E24F5900152F0605DE4FA
:1007F30090014EF0900152E0FF90014EE0FEC39F46
:10080300504A900148E0FBA3E0FAA3E0F9900011FD
:10081300120DCF8E82758300120C9EFF900151E062
:100823002405FDE433FC90014EE07A002DFDEA3C03
:10083300FC90014BE0FBA3E0FAA3E0F98D828C83EB
:10084300EF120D1090014EE004F080A87BFF7A1A9E
:1008530079E8121F88E490014EF0900148E0FBA371
:10086300E0FAA3E0F9900001120C9E2402FFE433A6
:10087300FE90014EE0C39FEE6480F874809850327E
:1008830090014BE0FBA3E0FAA3E0F9A3E0FFF582BC
:10089300758300120C9EFE90014FE02EF07E00E95E
:1008A3002FF9EE3AFA7D01121F4C90014EE004F04D
:1008B30080A87B017A01794F7D01121F4C7BFF7A5F
:1008C3001A79F4121F8890014FE0FF900151E02440
:1008D30005FDE433FCA3E07A002DFDEA3CFC900126
:1008E3004BE0FBA3E0FAA3E0F98D828C83EF120DBA
:1008F30010900150E06056900148E0FBA3E0FAA39A
:10090300E0F990000D120C9E25E0FDE433FCED248C
:1009130006FFE43CFE90014BE0FBA3E0FAA3E0F901
:100923008F828E83120C9E548F90003BF074072DA0
:10093300F582E43CF583120C9E90003CF07B017A37
:1009430000793B9001577402F0FD121DBD900148E0
:10095300E0FBA3E0FAA3E0F9900001120C9E24034C
:10096300FD90014BE0FBA3E0FAA3E0F9121E3590E2
:050973000003E004F0A8
:01097800225C
:0B00260090013FEBF0A3EAF0A3E9F02B
:10003100E4900146F0A3F0A3F0A3F0120C85FF9029
:100041000142E0FBA3E0FAA3E0F9EF120CFE9001FC
:100051003FE0FBA3E0FAA3E0F9900001120C9EFF40
:10006100900142E0FBA3E0FAA3E0F9900001EF1256
:100071000D1090013FE0FBA3E0FAA3E0F99000022C
:10008100120C9EFF900142E0FBA3E0FAA3E0F9907D
:100091000002EF120D1090013FE0FBA3E0FAA3E094
:1000A100F9900003120C9EFF900142E0FBA3E0FADD
:1000B100A3E0F9900003EF120D1090013FE0FBA3C4
:1000C100E0FAA3E0F9900004120C9EFF900142E0D7
:1000D100FBA3E0FAA3E0F9900004EF120D109001E8
:1000E1003FE0FBA3E0FAA3E0F9900005120C9EFFAC
:1000F100900142E0FBA3E0FAA3E0F9900005EF12C2
:100101000D1090013FE0FBA3E0FAA3E0F99000039A
:10011100120C9EB4810990000C120C9E0480119067
:10012100013FE0FBA3E0FAA3E0F990000C120C9E62
:10013100FF900142E0FBA3E0FAA3E0F9900006EF93
:10014100120D1090013FE0FBA3E0FAA3E0F990004B
:1001510003120C9E30E70990000D120C9E048012D0
:1001610090013FE0FBA3E0FAA3E0F990000D120C2F
:100171009E14FF900142E0FBA3E0FAA3E0F9900096
:1001810007EF120D10900142E0FBA3E0FAA3E0F9A2
:10019100900006120C9E540FFF1425E0900147F0C9
:1001A10090013FE0FBA3E0FAA3E0F9900003120CF9
:1001B1009E6481705DEF64017003020268E4900146
:1001C10045F0900145E0FD2400F582E43400F5831B
:1001D100E0FC900142E0FBA3E0FAA3E0F990000704
:1001E100120C9E25E0FFE433FEEF2404FFE43EFE03
:1001F100ED7A002FFFEA3EFE900142A3E0FA8F82E2
:100201008E83EC120D10900145E004F0E0B402B2CF
:100211008055900147E0604FE4900145F09001471F
:10022100E0FF900145E0FEC39F503C90013FE0FBA1
:10023100A3E0FAA3E0F990000E120DCF8E82758330
:1002410000120C9EFFEE2408FDE433FC900142E015
:10025100FBA3E0FAA3E0F98D828C83EF120D1090DD
:100261000145E004F080B690013FE0FBA3E0FAA372
:10027100E0F9900003120C9EB4811B9000017402FE
:10028100120CCBFF900142E0FBA3E0FAA3E0F9904E
:100291000001EF120D10900147E02408A3F0900136
:1002A1003FE0FBA3E0FAA3E0F9900006120C9EFFE9
:1002B100900142E0FBA3E0FAA3E0F9900148E0FEDF
:1002C100F582758300EF120D1090013FE0FBA3E072
:1002D100FAA3E0F9900008120C9EFFEE2401FDE460
:1002E10033FC900142E0FBA3E0FAA3E0F98D828C9C
:1002F10083EF120D1090013FE0FBA3E0FAA3E0F9B8
:10030100900009120C9EFFEE2402FDE433FC9001E3
:1003110042E0FBA3E0FAA3E0F98D828C83EF120D9A
:100321001090013FE0FBA3E0FAA3E0F990000A126C
:100331000C9EFFEE2403FDE433FC900142E0FBA39D
:10034100E0FAA3E0F98D828C83EF120D1090013F4A
:10035100E0FBA3E0FAA3E0F990000B120C9EFFEE84
:100361002404FDE433FC900142E0FBA3E0FAA3E0A6
:10037100F98D828C83EF120D1090013FE0FBA3E019
:10038100FAA3E0F9900001120C9EFF900147E0FEF4
:10039100C3EF9E24F5900149F0605DE4900145F0C2
:1003A100900149E0FF900145E0FEC39F504A900152
:1003B1003FE0FBA3E0FAA3E0F9900011120DCF8E0C
:1003C10082758300120C9EFF900148E02405FDE434
:1003D10033FC900145E07A002DFDEA3CFC9001429E
:1003E100E0FBA3E0FAA3E0F98D828C83EF120D10FC
:1003F100900145E004F080A87BFF7A1A79F9121F79
:1004010088E4900145F090013FE0FBA3E0FAA3E00E
:10041100F9900001120C9E2402FFE433FE90014585
:10042100E0C39FEE6480F87480985032900142E0FE
:10043100FBA3E0FAA3E0F9A3E0FFF58275830012C4
:100441000C9EFE900146E02EF07E00E92FF9EE3A77
:10045100FA7D01121F4C900145E004F080A87B0158
:100461007A0179467D01121F4C7BFF7A1A79F412C9
:100471001F88900146E0FF900148E02405FDE43328
:10048100FCA3E07A002DFDEA3CFC900142E0FBA3D5
:10049100E0FAA3E0F98D828C83EF120D1090013FF9
:1004A100E0FBA3E0FAA3E0F9900003120C9EB481F3
:1004B1000C90003C74FFF090003BF080789001427A
:1004C100E0FBA3E0FAA3E0F9900007120C9E64019F
:1004D1006042900007120C9EFD75F002A42408F5FD
:1004E10082E435F0F583C083C082D082D083120CC0
:1004F1009E548F90003BF075F002EDA42409F58223
:10050100E435F0F583C083C082900142A3A3D08279
:10051100D083801A90013FE0FBA3E0FAA3E0F990B9
:10052100000A120C9E548F90003BF090000B120CAD
:100531009E90003CF07B017A00793B900157740258
:10054100F0FD121DBD90013FE0FBA3E0FAA3E0F92D
:10055100900001120C9E2403FD900142E0FBA3E0F8
:07056100FAA3E0F9021E35C8
:0B13730090013FEBF0A3EAF0A3E9F0CB
:10137E0090000E120DCF900143EBF0A3EAF0A3E91B
:10138E00F090013FE0FBA3E0FAA3E0F990000C120D
:10139E000C9E540F1425E0900146F090003AE0F4B4
:1013AE007068FFFE12201EE4FDFFFE121FBCE4FF5C
:1013BE00FE121FEE90003AEFF0E490003FF0FF7E39
:1013CE000612201E90013FE0FBA3E0FAA3E0F99085
:1013DE00000C120C9E540FFD7F007E06121FBC7F68
:1013EE00007E06121FEE900002EFF0900000E0FF6C
:1013FE00900002E0C45470FEEF4E900000F0E0FF4B
:10140E00A3E0900038CFF0A3EFF0900005E0C39476
:10141E000440030214DC7F007E0812201E9000059B
:10142E00E0FD7F007E08121FBC900005E024FE60E8
:10143E0009146006240270078000E4900147F090C2
:10144E000147E0FF7E0012201E900147E0FF7E0064
:10145E00900146E0FD121FBC900146E0603DE49015
:10146E000142F0900146E0FF900142E0FEC39F5022
:10147E002AEEFF900147E02FFFE433FE900143E098
:10148E00FBA3E475F001120D32A9F0FA120C85FDE2
:10149E00121FBC900142E004F080C8900005E004E9
:1014AE00F090013FE0FBA3E0FAA3E0F99000037493
:1014BE0082120D1090014B7401F0A37400F0A3740E
:1014CE00E6F01205687BFF7A1B7906121F887BFFF8
:0714DE007A1B7911021F883F
:10206E009001427401F0A37400F0A374E6F0020034
:01207E00263B
:0B097900900146EBF0A3EAF0A3E9F0C8
:10098400E4FEFD90014CF0900146E0FBA3E0FAA3E5
:10099400E0F9120C85FF900149E0FBA3E0FAA3E023
:1009A400F9EF120CFE900146E0FBA3E0FAA3E0F994
:1009B400900001120C9EFF900149E0FBA3E0FAA312
:1009C400E0F9900001EF120D10900146E0FBA3E066
:1009D400FAA3E0F9900002120C9EFF900149E0FB9B
:1009E400A3E0FAA3E0F9900002EF120D1090014683
:1009F400E0FBA3E0FAA3E0F9900003120C9EFF9041
:100A04000149E0FBA3E0FAA3E0F9900003EF120D23
:100A140010900146E0FBA3E0FAA3E0F99000041271
:100A24000C9EFF900149E0FBA3E0FAA3E0F99000DB
:100A340004EF120D10900146E0FBA3E0FAA3E0F9E5
:100A4400900005120C9EFF900149E0FBA3E0FAA37D
:100A5400E0F9900005EF120D1090000C120C9E545A
:100A64000F1425E0FF900146E0FBA3E0FAA3E0F9B0
:100A7400900006120C9EFC900149E0FBA3E0FAA34F
:100A8400E0F990000CEC120D10900146E0FBA3E09D
:100A9400FAA3E0F9900007120C9EFC900149E0FBD8
:100AA400A3E0FAA3E0F990000DEC120D10EF60251D
:100AB400900146E0FBA3E0FAA3E02408F9E43AFA43
:100AC400C003C002C001A3E0FBA3E0FAA3E0F990D5
:100AD400000E120DFFEF2408FE900146E0FBA3E098
:100AE400FAA3E0F98E82758300120C9EFD900149F1
:100AF400E0FBA3E0FAA3E0F9900006ED120D10EE7E
:100B04002401FDE433FC900146E0FBA3E0FAA3E0FA
:100B1400F98D828C83120C9EFD900149E0FBA3E0C9
:100B2400FAA3E0F9900008ED120D10EE2402FDE4A2
:100B340033FC900146E0FBA3E0FAA3E0F98D828C3C
:100B440083120C9EFD900149E0FBA3E0FAA3E0F9B7
:100B5400900009ED120D10EE2403FDE433FC900126
:100B640046E0FBA3E0FAA3E0F98D828C83120C9E8D
:100B7400FD900149E0FBA3E0FAA3E0F990000AED3F
:100B8400120D10EE2404FDE433FC900146E0FBA3B7
:100B9400E0FAA3E0F98D828C83120C9EFD9001494A
:100BA400E0FBA3E0FAA3E0F990000BED120D109026
:100BB4000001120C9EC39F24F5FD602DAF06EF24A7
:100BC40005FFE433FE900146E0FBA3E0FAA3E02F27
:100BD400F9EA3EFAC003C002C001A3E0FBA3E0FAB5
:100BE400A3E0F9900011120DFFE490014DF0900183
:100BF40049E0FBA3E0FAA3E0F9900001120C9E2463
:100C040002FFE433FE90014DE0C39FEE6480F8746C
:100C140080985034900146E0FBA3E0FAA3E0F990F9
:100C2400014DE0FFF582758300120C9EFE90014C8D
:100C3400E02EF07E00E92FF9EE3AFA7D01121F4C06
:100C440090014DE004F080A67B017A01794C7D018E
:100C5400121F4C7BFF7A1A79F4121F88900149E025
:100C6400FBA3E0FAA3E0F9900008120D48FF9000FE
:100C740000E065F07003A3E06F60037F01227F0052
:010C8400224D
:1019200090013CEBF0A3EAF0A3E9F090013CE0FB6E
:10193000A3E0FAA3E0F91217F6EF607190013CE022
:10194000FBA3E0FAA3E0F9121F2AEF605290013CDA
:10195000E0FBA3E0FAA3E0F9900003120C9E24FD43
:101960006007240270300213737BFF7A1B79241204
:101970001F8890013CE0FBA3E0FAA3E0F99000038C
:101980007483120D1090014B7401F0A37400F0A346
:1019900074E6F00205687BFF7A1B7932021F88909B
:0E19A000013CE0FBA3E0FAA3E0F912206E2266
:030000000219AE34
:0C19AE00787FE4F6D8FD7581070219F57A
:100C8500BB010689828A83E0225002E722BBFE026D
:090C9500E32289828A83E49322A0
:100C9E00BB010CE58229F582E5833AF583E022500B
:100CAE0006E92582F8E622BBFE06E92582F8E22255
:0D0CBE00E58229F582E5833AF583E493226F
:100CCB00BB010FF8E58229F582E5833AF583E0282D
:100CDB00F0225009C58229F8E58226F622BBFE09CF
:100CEB00C58229F8E22582F222F8EA2583F583E909
:030CFB0093282219
:100CFE00BB010689828A83F0225002F722BBFE01D5
:020D0E00F322CE
:100D1000F8BB010DE58229F582E5833AF583E8F019
:100D2000225006E92582C8F622BBFE05E92582C8C5
:020D3000F222AD
:100D3200A3F8E0C5F025F0F0E58215827002158374
:060D4200E0C838F0E822D1
:100D4800BB0110E58229F582E5833AF583E0F5F0E9
:100D5800A3E0225009E92582F886F008E622BBFEC6
:100D68000AE92582F8E2F5F008E222E5832AF5830C
:080D7800E993F5F0A3E99322D1
:100D8000E88FF0A4CC8BF0A42CFCE98EF0A42CFC12
:100D90008AF0EDA42CFCEA8EF0A4CDA8F08BF0A490
:100DA0002DCC3825F0FDE98FF0A42CCD35F0FCEBEF
:100DB0008EF0A4FEA9F0EB8FF0A4CFC5F02ECD39B4
:0F0DC000FEE43CFCEAA42DCE35F0FDE43CFC2221
:101D3A00C2D5E830E70FB2D5E4C39BFBE49AFAE4D4
:101D4A0099F9E498F8EC30E717B2D5121D70120E23
:101D5A0094E4C39BFBE49AFAE499F9E498F88003C3
:101D6A00120E9430D50DE4C39FFFE49EFEE49DFD60
:041D7A00E49CFC22C7
:100DCF00BB010DE58229F582E5833AF583020F38E1
:100DDF005007E92582F8020F26BBFE07E92582F8A6
:100DEF00020F4AE58229F582E5833AF583020F5C0B
:100DFF00BB0120E58229F582E5833AF583D0F0D057
:100E0F00E0F8D0E0F9D0E0FAD0E0FBE8C0E0C0F0C5
:100E1F00020F415018E92582F8D083D082D0E0F933
:100E2F00D0E0FAD0E0FBC082C083020F2FBBFE18C8
:100E3F00E92582F8D083D082D0E0F9D0E0FAD0E073
:090E4F00FBC082C083020F532294
:1019BA00020F68E493A3F8E493A34003F68001F2CC
:1019CA0008DFF48029E493A3F85407240CC8C3332E
:1019DA00C4540F4420C8834004F456800146F6DFFD
:1019EA00E4800B0102040810204080901A3AE47E39
:1019FA00019360BCA3FF543F30E509541FFEE493F2
:101A0A00A360010ECF54C025E060A840B8E493A3B8
:101A1A00FAE493A3F8E493A3C8C582C8CAC583CAE3
:101A2A00F0A3C8C582C8CAC583CADFE9DEE780BE9B
:011AC3000022
:100E580075F008758200EF2FFFEE33FECD33CDCC51
:100E680033CCC58233C5829BED9AEC99E5829840D4
:100E78000CF582EE9BFEED9AFDEC99FC0FD5F0D6B1
:100E8800E4CEFBE4CDFAE4CCF9A88222B800C1B9DB
:100E98000059BA002DEC8BF084CFCECDFCE5F0CB19
:100EA800F97818EF2FFFEE33FEED33FDEC33FCEB52
:100EB80033FB10D703994004EB99FB0FD8E5E4F90D
:100EC800FA227818EF2FFFEE33FEED33FDEC33FCFA
:100ED800C933C910D7059BE99A4007EC9BFCE99AEE
:100EE800F90FD8E0E4C9FAE4CCFB2275F010EF2F33
:100EF800FFEE33FEED33FDCC33CCC833C810D70733
:100F08009BEC9AE899400AED9BFDEC9AFCE899F86D
:0E0F18000FD5F0DAE4CDFBE4CCFAE4C8F92200
:090F2600E6FB08E6FA08E6F922F0
:090F2F00EBF608EAF608E9F622E7
:090F3800E0FBA3E0FAA3E0F922BA
:090F4100EBF0A3EAF0A3E9F022B1
:090F4A00E2FB08E2FA08E2F922D8
:090F5300EBF208EAF208E9F222CF
:0C0F5C00E493FB740193FA740293F922F1
:00000001FF
